:1042FE002041636365735363616E2076342E3520DF
:10430E0000494E484142494C49544144412E2E2EBB
:10431E0020004552524F5220454E204C4F4F502EAA
:10432E002E2E005441524A45544120494E56414C7E
:10433E00494441004E4F2052454749535452412063
:10434E005041474F005441522E2053494E20464F64
:10435E00524D41544F00444952494A415345204120
:10436E002043414A412000466563686120486F72D0
:10437E00613A20202020200049445F434C49454E9D
:10438E0054453A00434F445F5041524B3A00434F1D
:10439E004D5041524143494F4E3A2020202000209B
:1043AE002020416464723A2020202020202020000A
:1043BE002053494E205245535055455354412020C9
:1043CE000020504C414341204E4F20494755414C0F
:1043DE00200020454E5649414E444F204441544FF3
:0343EE0053200059
:104030005101114552524F523A20204C4F4F5020BF
:10404000312020005100472046554552412044452B
:10405000204C494E454120005100C3204552524F4B
:1040600052204D4946415245202020005101B7457C
:1040700052524F5220434F442E20504152512E0055
:10408000510011202053494E20494E475245534F6D
:10409000202020005100B24E4F2052454749535432
:1040A0005241205041474F0051005E45584345441E
:1040B0004520542E47524143494120005101992047
:1040C00041434345534F204E454741444F20200034
:1040D00051002520202053494E2053414C49444152
:1040E000202020005100FE4552524F52204752419D
:1040F000424143494F4E20005100804143455251B7
:104100005545534520412043414A410051006F53DA
:10411000455249453A202020202020202020200000
:10412000510036434F4D504152414E444F20504C68
:10413000414341005100005441524A4554412056E8
:10414000454E4349444120004100D4004100F43130
:104150004201FD00004201DD00004101DC0041019F
:104160002500410202004100D5004101E00041006C
:10417000F7004101AC004101AB054100FA004201EA
:10418000FF0000C10FC102C101C123C115C116C189
:1041900018C119C11AC11BC11EC122C124C125C128
:1041A00008C111C121C184C106C105C112C10AC122
:1041B0009FC11CC10CC107C100C10BC109C18EC187
:0341C00020C1100B
:104D9500C2B6124DA8124DA8124DA8D2B6124DA8F2
:034DA500024DA814
:08457E0074B69000D6F07F0135
:05458600900264EFF05B
:10458B00D2B6C226C2B5900266123F4000000FA001
:10459B0030B445202642900266E0FCA3E0FDA3E088
:1045AB00FEA3E0FFEF24FFFFEE34FFFEED34FFFD33
:1045BB00EC34FFFC900266123F34900266E0FCA3E1
:1045CB00E0FDA3E0FEA3E0FFEC4D4E4F70C2D22600
:1045DB00D2B6D2B4D2B580B8202629E4900265F0C9
:1045EB00900264E0FFA3E0FEC39F501874D62EF533
:1045FB0082E43400F583E0F5A0124D95900265E05E
:10460B0004F080DCD2B6D2B520260C124D83124DAD
:09461B0083124D83124D83A22687
:014624002273
:1047D90090025FE02402F09000FBE024D0FF9002F9
:0747E9005FE0FD3395E0FCE9
:0847F000900260ECF0A3EDF073
:1047F800E4A3F0A3F0FEFDFCEFC3946474809480FE
:104808004007749C2FFF0E80EFEFC3940A748094C6
:1048180080400774F62FFF0D80EFAC07ED4430FFA2
:10482800900260E0FAA3E0FB2463F58274013AF594
:1048380083EFF0EC4430FF74642BF58274013AF591
:0348480083EFF00B
:01484B00224A
:104C4000301804D2808002C280301904D2818002E0
:104C5000C281301A04D2828002C282301B03D28306
:044C600022C28322C7
:1041E400E4900263F0D2B5900124F030B4030242AB
:1041F400FB900262F0C2B5A3F0900263E0C3941E88
:104204007480948040030242FB90025E123F40009F
:1042140000003C30B64A20B447900262E0704190FE
:10422400025EE0FCA3E0FDA3E0FEA3E0FFEF24FFB9
:10423400FFEE34FFFEED34FFFDEC34FFFC90025E34
:10424400123F3490025EE0FCA3E0FDA3E0FEA3E095
:10425400FFEC4D4E4F70BCA304F0A3741FF080B369
:1042640030B6030242E9900262E0707920B476A38A
:10427400E024D6F582E43400F583E5A0F09001242F
:10428400E004F090025E123F400000002320B65587
:10429400900262E0704FA3E024D6F582E43400F586
:1042A40083E5A0F090025EE0FCA3E0FDA3E0FEA3A2
:1042B400E0FFEF24FFFFEE34FFFEED34FFFDEC34AE
:1042C400FFFC90025E123F3490025EE0FCA3E0FD2E
:1042D400A3E0FEA3E0FFEC4D4E4F70B1A304F0A3A6
:1042E400741FF080A830B406900263741FF090022B
:0942F40063E004F00241FDD2B5C3
:0142FD00229E
:054B490090025EEFF098
:104B4E007E0054F0FFEEC4F854F0C868FEEFC45473
:104B5E000F484430FF124D0F90025EE07E00540F5E
:064B6E004430FF024D0F70
:1043F1009000D67402F0EF24FE600B04700E900062
:10440100D77456F080069000D7744FF09002607414
:1044110015F0900260E0D39425748094805021E0DF
:10442100FF2427F582E43401F583E0FE74C32FF500
:1044310082E43400F583EEF0900260E004F080D273
:104441009000E87403F030B43D7F1312458692204A
:10445100302072E4900260F0900260E0C394137423
:104461008094805054E0FF24D6F582E43400F58333
:10447100E0FE74E92FF582E43401F583EEF0900259
:1044810060E004F080D2E4900260F0900260E0C34A
:104491009413748094805021E0FF24D6F582E43493
:1044A10000F583E0FE74E92FF582E43401F583EE33
:1044B100F0900260E004F080D29001DC7413F0907F
:0544C10000FA741CF07C
:0144C60022D3
:104AED00900260EFF030B411124D83900260E0122D
:104AFD004580922030201680009001DC7401F090EA
:0E4B0D000260E09001E9F09000FA742AF022B4
:10224100900125E024F97003022EE72404600302C3
:10225100360A900202E0701B7F04124DC6E4900121
:1022610025F020B70302360F9000D674AAF07F0143
:10227100024586900202E054016401600302290EC6
:10228100200C0302273490025FF0E0FF04F0EF33EB
:1022910095E0FE74632FF58274013EF5837402F0BC
:1022A10090025FE0FF04200D15F0EF3395E0FE741E
:1022B100632FF58274013EF5837461F08013F0EFB2
:1022C1003395E0FE74632FF58274013EF583744308
:1022D100F0E490025EF09000F7E0FF90025EE0FD16
:1022E100FB3395E0FAC3EB9F7480F86A985033EDA5
:1022F100FF3395E0FE74C82FF58274013EF583E04B
:10230100FF90025FE0FE04F0EEFD3395E0FC7463A4
:102311002DF58274013CF583EFF090025EE004F04C
:1023210080B490025FE0FF04F0EF3395E0FE746348
:102331002FF58274013EF583742CF0300720900054
:1023410022E0FF90025FE0FE04F0EEFD3395E0FC39
:1023510074632DF58274013CF583EFF080199002CE
:102361005FE0FF04F0EF3395E0FE74632FF58274B4
:10237100013EF5837430F0200E030224509000FCDE
:10238100E0FFB4481890025FE0FE04F0EEFD3395E3
:10239100E0FC74632DF58274013C0224AEEFB45469
:1023A1001790025FE0FF04F0EF3395E0FE74632FB6
:1023B100F58274013E0224AE9000FCE0FFB44D189A
:1023C10090025FE0FE04F0EEFD3395E0FC74632DB6
:1023D100F58274013C022493EFB4431790025FE04D
:1023E100FF04F0EF3395E0FE74632FF58274013E34
:1023F1000224AE30084320972A90025FE0FF0420B8
:10240100B711F0EF3395E0FE74632FF58274013E4E
:102411000224AEF0EF3395E0FE74632FF582740170
:102421003E806F90025FE0FF04F0EF3395E0FE74B1
:10243100632FF58274013E805990025FE0FF04F042
:10244100EF3395E0FE74632FF58274013E805E30B8
:10245100084720972990025FE0FF0420B710F0EFB2
:102461003395E0FE74632FF58274013E803FF0EFF7
:102471003395E0FE74632FF58274013E801490025F
:102481005FE0FF04F0EF3395E0FE74632FF5827493
:10249100013EF5837431F0801990025FE0FF04F092
:1024A100EF3395E0FE74632FF58274013EF583747A
:1024B10030F090025FE0FF04F0EF3395E0FE7463CB
:1024C1002FF58274013EF583742CF090012212479E
:1024D100E31247D990025FE02402F0900195124780
:1024E100E390025FE02402F09001961247E390022C
:1024F1005FE02402F090010F1247E390025FE024B5
:1025010002F0300D03022714E0FF04F0EF3395E0F1
:10251100FE74632FF58274013EF583742CF030074D
:10252100739001231247E390025FE02402F09000D0
:10253100FD1247E390025FE02402F09001971247F9
:10254100E390025FE02402F09001981247E39002C9
:102551005FE02402F09001101247E390025FE02453
:1025610002F0E0FF04F0EF3395E0FE74632FF58293
:1025710074013EF583742CF090025FE0FF04F0EFEC
:102581003395E0FE74632FF58274013EF583742068
:10259100F00226F990025FE0FF04F0EF3395E0FED0
:1025A10074632FF58274013EF5837430F090025FFD
:1025B100E0FF04F0EF3395E0FE74632FF5827401C0
:1025C1003EF5837430F090025FE0FF04F0EF339545
:1025D100E0FE74632FF58274013EF5837430F09050
:1025E100025FE0FF04F0EF3395E0FE74632FF582A4
:1025F10074013EF5837430F090025FE0FF04F0EF68
:102601003395E0FE74632FF58274013EF5837430D7
:10261100F090025FE0FF04F0EF3395E0FE74632F6A
:10262100F58274013EF5837430F090025FE0FF049F
:10263100F0EF3395E0FE74632FF58274013EF5836C
:102641007430F090025FE0FF04F0EF3395E0FE7428
:10265100632FF58274013EF5837430F090025FE0E0
:10266100FF04F0EF3395E0FE74632FF58274013EB1
:10267100F5837430F090025FE0FF04F0EF3395E0F2
:10268100FE74632FF58274013EF5837430F090027D
:102691005FE0FF04F0EF3395E0FE74632FF5827481
:1026A100013EF583742CF0E490025EF09001ACE001
:1026B100FF90025EE0FDFB3395E0FAC3EB9F74806F
:1026C100F86A985033EDFF3395E0FE74AD2FF58233
:1026D10074013EF583E0FF90025FE0FE04F0EEFD41
:1026E1003395E0FC74632DF58274013CF583EFF0C2
:1026F10090025EE004F080B490025FE0FF04F0EF2E
:102701003395E0FE74632FF58274013EF583742CDA
:10271100F0800090025FE0FF04F0EF3395E0FE747B
:10272100632FF58274013EF5837403F090025FE03C
:102731000229079001637402F0900126E0FF7010F6
:10274100900164200D057441F0800A7443F0800506
:10275100900164EFF0900091E090025FF0E490024C
:102761005EF0900091E0FF90025EE0FD3395E0FCA9
:10277100C3ED9F7480F86C985026E0FF3395E0FE1E
:1027810074C82FF58274013EF583E0FF74652DF561
:102791008274013CF583EFF090025EE004F080C2A8
:1027A10090025FE0FF3395E0FE74652FF5827401BE
:1027B1003EF583742CF0302413900022E0FD746602
:1027C1002FF58274013EF583EDF0801690025FE0F3
:1027D100FF3395E0FE74662FF58274013EF5837434
:1027E10030F03004679000FCE0FFB448089000F836
:1027F1007404F08039EFB454089000F87403F08049
:102801002DEFB442089000F87402F08021EFB44D2E
:1028110002800EEFB44302801030080D2097028031
:10282100089000F87401F08005E49000F8F0900041
:10283100F8E02430FF90025FE0FD3395E0FC74671F
:102841002DF58274013CF583EFF0803630081D9040
:10285100025FE0FF3395E0FE74672F209702801836
:10286100F58274013EF5837431F0801690025FE0C9
:10287100FF3395E0FE74672FF58274013EF5837492
:1028810030F090025FE0FF300D673395E0FE746831
:102891002FF58274013EF583742CF090025FE024E1
:1028A10006F09001221247E31247D990025FE0241B
:1028B10002F09001951247E390025FE02402F0904C
:1028C10001961247E390025FE02402F090010F129B
:1028D10047E390025FE02402F0E0FFFD3395E0FC66
:1028E10074632DF58274013CF5837403F0EF048069
:1028F10015FD3395E0FC74682DF58274013CF58378
:102901007403F0EF2406FF124CA602360A9002026D
:10291100E0540264026003022ED2D2119000F974D5
:102921001CF0E4F58CF58AC28D300503022B802062
:102931000B03022B0C9001637402F0A37477F090E7
:10294100029FE0FDC4540F2430900165F0ED540F57
:102951002430A3F09002A0E0FDC4540F2430900174
:1029610067F0ED540F2430A3F09002A1E0FDC454B0
:102971000F2430900169F0ED540F2430A3F0A374BB
:102981002CF0A37430F03004559000FCE0FFB44803
:10299100089000F87404F08039EFB454089000F8FE
:1029A1007403F0802DEFB442089000F87402F080B7
:1029B10021EFB44D02800EEFB44302801030080DB8
:1029C10020970280089000F87401F08005E49000DF
:1029D100F8F09000F8E0243090016DF08016300896
:1029E1000D90016D20970280087431F080069001EE
:1029F1006D7430F090016E742CF0900122E024D0BF
:102A0100FF7D0C7C001247F09000FBE024D0FF7D9D
:102A11000E7C001247F0900195E024D0FF7D107CE0
:102A2100001247F0900196E024D0FF7D127C001245
:102A310047F090010FE024D0FF7D147C001247F095
:102A4100900179742CF0900123E024D0FF7D177C54
:102A5100001247F09000FDE024D0FF7D197C0012A8
:102A610047F0900197E024D0FF7D1B7C001247F0D6
:102A7100900198E024D0FF7D1D7C001247F0900169
:102A810010E024D0FF7D1F7C001247F09000F57408
:102A910021F0E0FF04F074632FF582E43401F58343
:102AA100742CF0301C4EE490025EF09000D5E0FFF3
:102AB10090025EE0FDFB3395E0FAC3EB9F7480F872
:102AC1006A984003022D42EDFF3395E0FE74AD2F6D
:102AD100F58274013EF583E0FF9000F5E0FE04F01D
:102AE10074632EF582E43401F583EFF090025EE029
:102AF10004F080B79000F5E0FF04F074632FF582D5
:102B0100E43401F5837420F0022D429001637402D4
:102B1100F0A37442F090029FE0FDC4540F24309062
:102B21000165F0ED540F2430A3F09002A0E0FDC444
:102B3100540F2430900167F0ED540F2430A3F0902E
:102B410002A1E0FDC4540F2430900169F0ED540F4F
:102B51002430A3F0A3742CF0A37430F030080F20BC
:102B61009704A3F0800E90016D7431F080069001FE
:102B71006D7430F090016E7403F07F0C022ECC90D6
:102B810001637402F0A37477F090029FE0FDC454D6
:102B91000F2430900165F0ED540F2430A3F0900222
:102BA100A0E0FDC4540F2430900167F0ED540F24D0
:102BB10030A3F09002A1E0FDC4540F2430900169CC
:102BC100F0ED540F2430A3F0A3742CF0A37430F073
:102BD1003004559000FCE0FFB448089000F87404FC
:102BE100F08039EFB454089000F87403F0802DEFB1
:102BF100B442089000F87402F08021EFB44D0280D5
:102C01000EEFB44302801030080D20970280089027
:102C110000F87401F08005E49000F8F09000F8E00D
:102C2100243090016DF0801630080D90016D2097D1
:102C31000280087431F0800690016D7430F09001CB
:102C41006E742CF0900122E024D0FF7D0C7C0012E8
:102C510047F09000FBE024D0FF7D0E7C001247F08E
:102C6100900195E024D0FF7D107C001247F0900187
:102C710096E024D0FF7D127C001247F090010FE016
:102C810024D0FF7D147C001247F0201203022DB6E0
:102C9100900179742CF0900123E024D0FF7D177C02
:102CA100001247F09000FDE024D0FF7D197C001256
:102CB10047F0900197E024D0FF7D1B7C001247F084
:102CC100900198E024D0FF7D1D7C001247F0900117
:102CD10010E024D0FF7D1F7C001247F09000F574B6
:102CE10021F0E0FF04F074632FF582E43401F583F1
:102CF100742CF0301C7BE490025EF09000D5E0FF74
:102D010090025EE0FDFB3395E0FAC3EB9F7480F81F
:102D11006A98502DEDFF3395E0FE74AD2FF5827466
:102D2100013EF583E0FF9000F5E0FE04F074632EB0
:102D3100F582E43401F583EFF090025EE004F08067
:102D4100BA9000F5E0FF04F074632FF582E43401DA
:102D5100F583742CF09000F5E0FF04F074632FF517
:102D610082E43401F5837403F09000F5E0FF022E54
:102D7100CC9000F5E0FF04F074632FF582E4340198
:102D8100F5837420F09000F5E0FF04F074632FF5F3
:102D910082E43401F583742CF09000F5E0FF04F037
:102DA10074632FF582E43401F5837403F09000F528
:102DB100E0FF022ECC900179742CF07D177C00E4A9
:102DC100FF1247F07D197C00E4FF1247F07D1B7C68
:102DD10000E4FF1247F07D1D7C00E4FF1247F07D07
:102DE1001F7C00E4FF1247F09000F57421F0E0FF32
:102DF10004F074632FF582E43401F583742CF02020
:102E01001C03022E8BC21CE490025EF09000D5E000
:102E110024FFFFE434FFFE90025EE0FDFB3395E00A
:102E2100FAC3EB9FEE6480F8EA648098502DEDFFC1
:102E31003395E0FE74AD2FF58274013EF583E0FF1A
:102E41009000F5E0FE04F074632EF582E43401F5A0
:102E510083EFF090025EE004F080B19000F5E0FFB6
:102E610004F074632FF582E43401F583742CF0903F
:102E710000F5E0FF04F074632FF582E43401F5837B
:102E81007403F09000F5E0FF80419000F5E0FF044D
:102E9100F074632FF582E43401F5837420F090001F
:102EA100F5E0FF04F074632FF582E43401F58374D7
:102EB1002CF09000F5E0FF04F074632FF582E43408
:102EC10001F5837403F09000F5E0FF124CA6023681
:102ED1000A900202E0FF54046404600302360FEF1B
:102EE10054FBF002360A9000D4E02492F582E434D7
:102EF10000F583E4F030064CC20690025EF09000CB
:102F0100D4E0FFFD90025EE0FEFB3395E0FAC3EBF7
:102F11009D7480F86A985026EEFD3395E0FC74921A
:102F21002DF58274003CF583E0FE74D62DF5827494
:102F3100003CF583EEF090025EE004F080C01245A3
:102F410086022FC59000D4E064196003022FCF9050
:102F510000F4E0FF900093E06F7073A3E0644870A9
:102F61006D1249C0E490025EF09000D4E0FF90023F
:102F71005EE0FDFB3395E0FAC3EB9F7480F86A983D
:102F81005026EDFF3395E0FE74922FF58274003EDA
:102F9100F583E0FD74D62FF58274003EF583EDF0E4
:102FA10090025EE004F080C11248B47F80124D555A
:102FB1007F53124D0F7F59124D0F7F4E124D0F7FD0
:102FC10043124D0FD216E4900125F0023602900013
:102FD100D4E0FF7E00C394067480948050030236CF
:102FE10002EF9407748094804011900128E0B4634B
:102FF1000A124586D216E4900125F0900129E0FFDE
:1030010064446025EF6441702030031D3021083095
:103011001117200B148003200B0FD2959000F97427
:103021002AF0E4F58CF58AC28D201503023602C21E
:1030310015900097E064417031A3E06443702BA3C5
:10304100E064457025A3E06452701FA3E0645170F1
:1030510019A3E0B45514A3E0B4450FA3E0B4530A97
:10306100A3E0B445057FA1023566900097E0645561
:103071007045A3E0644E703FA3E064207039A3E083
:10308100644D70337F09124AED900202E054FEF064
:1030910054FDF0C21CC20CC207C20DE4900126F01F
:1030A100900023F0A3F09001E1F0A3F0C20B900097
:1030B100FC7420F0023569900093E06458703CA3E1
:1030C100E064417036A3E064587030A3E064587046
:1030D1002AA3E064477024A3E06452701EA3E06455
:1030E100417018A3E0B44313A3E0B4490EA3E0B4C4
:1030F1004109A3E0B453047F018054900093E0643C
:10310100587052A3E06458704CA3E064587046A311
:10311100E064587040A3E06442703AA3E0644970EF
:1031210034A3E06445702EA3E0644E7028A3E064EC
:10313100567022A3E06445701CA3E0B44E17A3E0CF
:10314100B44912A3E0B4440DA3E0B44F087F0212C6
:1031510043F1023569900093E06458706DA3E06417
:10316100587067A3E064587061A3E06458705BA372
:10317100E0644D7055A3E06445704FA3E0644E7068
:1031810049A3E064537043A3E06455703DA3E06438
:10319100417037A3E0644C7031A3E06420702BA32D
:1031A100E0644E7025A3E0644F701FA3E0642070BB
:1031B10019A3E0B44514A3E0B4530FA3E0B4540A37
:1031C100A3E0B441057FB2023566900093E06458F4
:1031D100706DA3E064587067A3E064587061A3E068
:1031E1006458705BA3E0644D7055A3E06445704F73
:1031F100A3E0644E7049A3E064537043A3E06455B7
:10320100703DA3E064417037A3E0644C7031A3E0EA
:103211006420702BA3E064597025A3E06441701F02
:10322100A3E064207019A3E0B44514A3E0B4530FE4
:10323100A3E0B4540AA3E0B441057FB3023566901C
:103241000093E064587079A3E064587073A3E0645C
:1032510058706DA3E064587067A3E0644D7061A37A
:10326100E06445705BA3E0644E7055A3E064537065
:103271004FA3E064557049A3E064417043A3E06447
:103281004C703DA3E064207037A3E064467031A325
:10329100E06455702BA3E064457025A3E06452708F
:1032A1001FA3E064417019A3E0B42014A3E0B44467
:1032B1000FA3E0B4450AA3E0B452057FB40235661A
:1032C100900093E064587079A3E064587073A3E0B0
:1032D1006458706DA3E064587067A3E0644D706139
:1032E100A3E06445705BA3E0644E7055A3E06453B2
:1032F100704FA3E064557049A3E064417043A3E0BB
:10330100644C703DA3E064207037A3E064467031E3
:10331100A3E06455702BA3E064457025A3E06452DB
:10332100701FA3E064417019A3E0B42014A3E0B4BA
:10333100440FA3E0B4450AA3E0B448057FB50235C4
:1033410066900093E06458704FA3E064587049A3FD
:10335100E064587043A3E06458703DA3E0644E708C
:1033610037A3E0644F7031A3E06420702BA3E064C5
:10337100457025A3E06453701FA3E064207019A376
:10338100E0B44D14A3E0B4450FA3E0B44E0AA3E0AA
:10339100B453057FB1023566900093E06458704FD5
:1033A100A3E064587049A3E064587043A3E06458F3
:1033B100703DA3E0644E7037A3E0644F7031A3E029
:1033C1006420702BA3E064527025A3E06445701F54
:1033D100A3E064477019A3E0B44914A3E0B4530F08
:1033E100A3E0B4540AA3E0B452057F040235669009
:1033F1000093E06458704FA3E064587049A3E064FF
:10340100587043A3E06458703DA3E0644C7037A347
:10341100E0644F7031A3E06454702BA3E064457005
:1034210025A3E06420701FA3E064417019A3E0B4F8
:103431005314A3E0B4490FA3E0B4470AA3E0B44E88
:10344100057F05023566900093E064587067A3E03C
:1034510064587061A3E06458705BA3E064587055D0
:10346100A3E0644D704FA3E064457049A3E0644E4E
:103471007043A3E06453703DA3E064557037A3E04B
:1034810064417031A3E0644C702BA3E0642070258B
:10349100A3E06445701FA3E064587019A3E0B4432E
:1034A10014A3E0B4450FA3E0B4440AA3E0B4450576
:1034B1007F07023566900093E064587066A3E0646C
:1034C100587060A3E06458705AA3E064587054A324
:1034D100E0644D704EA3E064457048A3E0644E7013
:1034E10042A3E06453703CA3E064557036A3E064EA
:1034F100417030A3E0644C702AA3E064207024A3DF
:10350100E0644E701EA3E0644F7018A3E0B4201372
:10351100A3E0B4500EA3E0B44109A3E0B447047F93
:10352100088042900093E06458703DA3E0645870B5
:1035310037A3E064587031A3E06458702BA3E064B2
:103541004E7025A3E0644F701FA3E064207019A39F
:10355100E0B45014A3E0B4410FA3E0B4470AA3E0E0
:10356100B44F057FE7124AED7F80124D5590025E00
:103571007405F090025EE0FFFD3395E0FCC3ED942D
:1035810015EC64809480502BEF3395E0FE74922FFC
:10359100F58274003EF583E06403601774922FF5A1
:1035A1008274003EF583E0FF124D0F90025EE0044D
:1035B100F080C07FC0124D5590025E7415F09002EC
:1035C1005EE0FFFD3395E0FCD3ED9426EC6480943E
:1035D10080502EEF3395E0FE74922FF58274003EF9
:1035E100F583E06403601A201E0F74922FF5827434
:1035F100003EF583E0FF124D0F90025EE004F08083
:0E360100BDE4900125F0D21622E4900125F0E0
:01360F002298
:1000260078037C027D017BFF7A43799C7E007F11F9
:10003600123EE178147C027D017BFF7A4379AD7E26
:10004600007F11123EE178257C027D017BFF7A4319
:1000560079BE7E007F11123EE178367C027D017BFF
:10006600FF7A4379CF7E007F11123EE178477C020A
:100076007D017BFF7A4379E07E007F11123EE1121B
:100086004CF61200161249C0E58954F04401F58970
:10009600C28DE4F58CF58AD28CC296C295C294D2F2
:1000A600B6D201900023F0A3F09001E1F0A3F09006
:1000B60000F6741EF09000F9741CF0C213C280C2E0
:1000C60018C281C219C282C21AC283C21BC20DE4FF
:1000D600900126F0C205C20CC2079000FAF090010A
:1000E600DDF0A3F0C2009001FDF0A3F0C210C21D26
:1000F600D203D208D20ED221D204A3F0A3F0C209B1
:100106007BFF7A4279FEFDFF124DBA7FC0124D5534
:100116007B017A027914124B9E124BC8D2B5D2B625
:1001260075A0FF90025DE5A0F09002CAE064016050
:100136000302041C30B70302041C201F0302020141
:100146009000F6741EF0124A80124DD9124A4730BA
:100156001D5D9001FDE07002A3E070519000D67421
:1001660002F0A37457F090029FE0FF9000D8F09041
:1001760002A0E0FE9000D9F09002A1E0FD9000DA26
:10018600F0A37403F090005AEFF0A3EEF0A3EDF0A5
:100196009000D47406F0FF124586900202E054FDEA
:1001A600F09001FD7402F0A37430F08062805990E3
:1001B60000D67402F0A37457F090029FE09000D826
:1001C600F09002A0E09000D9F09002A1E09000DA51
:1001D600F0A37403F09000D47406F0FF12458690E5
:1001E60002027402F0C20B9001E1E4F0A37405F080
:1001F6009001257403F012224180147BFF7A437923
:100206000FE4FD7F01124DBA900202E054FDF0208A
:10021600090302044690029FE0FF7E006476700C9C
:10022600A3E064D67006A3E0640B603DEF64244E41
:10023600700E9002A0E064547006A3E064E4607B54
:1002460090029FE06495700AA3E07006A3E064D56F
:10025600606990029FE0FF7E00645F700FA3E06418
:10026600D77009A3E064847003020409EF64954E15
:10027600700C9002A0E07006A3E064F2603D90026C
:100286009FE06460700CA3E064407006A3E0649491
:10029600602990029FE0FF7E006495700AA3E070DB
:1002A60006A3E064F36014EF64374E70119002A069
:1002B600E064367009A3E064247003020409900226
:1002C6009FE06495700CA3E064017006A3E06410DF
:1002D600603F90029FE0FF7E00647F700CA3E064A5
:1002E600757006A3E064446028EF64954E700E9026
:1002F60002A0E064017006A3E06411601490029FFE
:10030600E06417700FA3E064EE7009A3E064247044
:100316000302040990029FE0FF7E006495700CA31F
:10032600E0644F7006A3E064D7603FEF64674E70E9
:100336000E9002A0E064177006A3E064B4602B90F0
:10034600029FE06494700CA3E064EA7006A3E06484
:1003560075601790029FE0FF7E00647C700FA3E03B
:1003660064DE7009A3E064347003020409EF649448
:100376004E700E9002A0E064EB7006A3E064586035
:100386002B90029FE06417700CA3E064167006A31E
:10039600E064D4601790029FE0FF7E00648F700EC9
:1003A600A3E064427008A3E064D670028055EF644F
:1003B600954E700E9002A0E0641D7006A3E064BC2A
:1003C600601490029FE06426700EA3E06412700829
:1003D600A3E064847002802B90029FE0FF7E00649D
:1003E60082700CA3E064887006A3E064146014EFC6
:1003F60064514E704B9002A0E064C17043A3E06468
:1004060014703DD296D2959000F9742AF0E4F58CDA
:10041600F58AC28D802A9002CAE064017022124ACF
:1004260080124DD9124A477F06124AED7BFF7A4366
:100436007920E4FD7F01124DBA900202E054FDF0EE
:1004460030B403021FF49000D674FFF0A3F01241FB
:10045600E4900124E07003021FF46401700A900026
:10046600D6E064067002D21F900124E064016003A6
:1004760002079C9000D6E0FF7E00C394DF74809450
:1004860080500302079CD3EF94EF7480948040035E
:1004960002079C1249C09000D6E0FF64E2600AEFB2
:1004A60064E36005EF64E4703A7FC0124D55E49052
:1004B6000258F0900258E024C3F582E43400F58334
:1004C600E0FF600B124D0F900258E004F080E47FCD
:1004D600CE124D559000D6E0540F2430FF124D0F2A
:1004E60002078A9000D6E064E070297FC0124D555D
:1004F600E4900258F0900258E02411F582E43401A9
:10050600F583E0FF700302078A124D0F900258E050
:1005160004F080E19000D6E064E1700F7BFF7A433F
:100526007931FD7F01124DBA02078A9000D6E06448
:10053600E570297FC0124D55E4900258F09002589C
:10054600E024B7F582E43401F583E0FF7003020787
:100556008A124D0F900258E004F080E19000D6E038
:1005660064E670297FC0124D55E4900258F090025F
:1005760058E02411F582E43400F583E0FF700302AD
:10058600078A124D0F900258E004F080E19000D6E1
:10059600E064E770187FC0124D557BFF7A437942BD
:1005A600124B9E7F107E27124D6B02078A9000D653
:1005B600E064E870297FC0124D55E4900258F0902F
:1005C6000258E0245EF582E43400F583E0FF700310
:1005D60002078A124D0F900258E004F080E1900065
:1005E600D6E064E970297FC0124D55E4900258F0B8
:1005F600900258E02425F582E43400F583E0FF708C
:100606000302078A124D0F900258E004F080E19031
:1006160000D6E064EA70297FC0124D55E490025876
:10062600F0900258E024FEF582E43400F583E0FF02
:10063600700302078A124D0F900258E004F080E121
:100646009000D6E064EB70297FC0124D55E490020D
:1006560058F0900258E02480F582E43400F583E0F7
:10066600FF700302078A124D0F900258E004F080D3
:10067600E19000D6E064EC70297FC0124D55E490FD
:100686000258F0900258E02400F582E43400F58325
:10069600E0FF700302078A124D0F900258E004F043
:1006A60080E19000D6E064ED70297FC0124D55E4DC
:1006B600900258F0900258E02425F582E43402F5C1
:1006C60083E0FF700302078A124D0F900258E00480
:1006D600F080E19000D6E064EE70297FC0124D559F
:1006E600E4900258F0900258E02436F582E4340291
:1006F600F583E0FF700302078A124D0F900258E05F
:1007060004F080E19000D6E064EF705F7FC0124D88
:10071600557F54124D0F7F41124D0F7F52124D0FD0
:100726007F4A124D0F7F45124D0F7F54124D0F7F9A
:1007360041124D0F7F20124D0F7F41124D0F7F54F6
:10074600124D0F7F41124D0F7F53124D0F7F4312F3
:100756004D0F7F41124D0F7F44124D0F7F41124DB9
:100766000FD20A9000F9741CF080199000D6E0644C
:10077600DF70111249C07FC0124D557BFF7A437955
:1007860053124B9ED21E9000F9741CF0E4F58CF5C2
:100796008AC28D021FF4900124E0FF7E006401707E
:1007A6000E9000D6E064A07006D218D280803BEF8F
:1007B60064014E70219000D6E064A17019D219D25E
:1007C600819000F9741CF07BFF7A437964E4FDFFA5
:1007D600124DBA021FF4900124E0640170159000D6
:1007E600D6E064A2700DD21AD2829000F9741CF081
:1007F600021FF4900124E0FF7E0064017015900052
:10080600D6E064A3700DD21BD2839000F9742AF04F
:10081600021FF4EF64014E70589000D6E064AF708A
:10082600507FC0124D557F43124D0F7F4F124D0F13
:100836007F4E124D0F7F54124D0F7F2E124D0F7F9C
:1008460020124D0F7F45124D0F7F56124D0F7F4ED2
:10085600124D0F7F20124D0F7F49124D0F7F4E1202
:100866004D0F7F49124D0F7F43124D0F7F49020AEC
:10087600B1900124E0640170429000D6E0644E70AD
:100886003AD2037F80124D55E4900258F0900258F8
:10089600E02403F582E43402F583E0FF600B124D99
:1008A6000F900258E004F080E47F8D124D557F4E84
:1008B600124D0F201D03021FF48048900124E064AE
:1008C60001704A9000D6E064537042C2037F8012E2
:1008D6004D55E4900258F0900258E02403F582E466
:1008E6003402F583E0FF600B124D0F900258E004CE
:1008F600F080E47F8D124D557F53124D0F201D035E
:10090600021FF47F20124D0F7F4D02106D900124BF
:10091600E0640170329000D6E0B4502BC2037FC071
:10092600124D55E4900258F0900258E02436F582B4
:10093600E43400F583E0FF7003021FF4124D0F90BC
:100946000258E004F080E1900124E06401703090E8
:1009560000D6E0B444297FC0124D55E4900258F009
:10096600900258E02447F582E43402F583E0FF70F4
:1009760003021FF4124D0F900258E004F080E1903C
:100986000124E06401705D9000D6E064F170557F4B
:10099600C0124D557F55124D0F7F4E124D0F7F20C1
:1009A600124D0F7F4D124D0F7F4F124D0F7F4D127F
:1009B6004D0F7F45124D0F7F4E124D0F7F54124D36
:1009C6000F7F4F124D0F7F2E124D0F7F2E124D0FA0
:1009D6007F2E124D0F7F20124D0F7F20124D0F7F5D
:1009E6002002106D900124E06401705D9000D6E055
:1009F60064F370557FC0124D557F50124D0F7F49DD
:100A0600124D0F7F43124D0F7F4F124D0F7F201255
:100A16004D0F7F59124D0F7F20124D0F7F50124DF3
:100A26000F7F4C124D0F7F41124D0F7F43124D0F1A
:100A36007F41124D0F7F2E124D0F7F2E124D0F7FCD
:100A46002E124D0F7F2002106D900124E06401707C
:100A5600629000D6E064F8705A7FC0124D557F56FA
:100A6600124D0F7F45124D0F7F48124D0F7F4912D1
:100A76004D0F7F2E124D0F7F20124D0F7F49124DC5
:100A86000F7F4E124D0F7F56124D0F7F41124D0FA5
:100A96007F4C124D0F7F49124D0F7F44124D0F7F31
:100AA6004F124D0F7F2E124D0F7F2E124D0F7F2EA0
:100AB60002106D900124E06401705D9000D6E06440
:100AC600F970557FC0124D557F53124D0F7F41125D
:100AD6004D0F7F4C124D0F7F49124D0F7F44124D23
:100AE6000F7F41124D0F7F20124D0F7F52124D0F77
:100AF6007F45124D0F7F43124D0F7F48124D0F7FDA
:100B060041124D0F7F5A124D0F7F41124D0F7F44F8
:100B1600124D0F7F4102106D900124E06401705D5B
:100B26009000D6E064FA70557FC0124D557F53127F
:100B36004D0F7F49124D0F7F4E124D0F7F20124DE4
:100B46000F7F54124D0F7F41124D0F7F52124D0FE2
:100B56007F4A124D0F7F45124D0F7F54124D0F7F66
:100B660041124D0F7F53124D0F7F20124D0F7F20E4
:100B7600124D0F7F20124D0F7F2002106D90012421
:100B8600E06401705D9000D6E064B570557FC012D8
:100B96004D557F46124D0F7F55124D0F7F45124D15
:100BA6000F7F52124D0F7F41124D0F7F20124D0FB6
:100BB6007F44124D0F7F45124D0F7F20124D0F7F40
:100BC60048124D0F7F4F124D0F7F52124D0F7F412E
:100BD600124D0F7F52124D0F7F49124D0F7F4F025C
:100BE600106D900124E064016003020CA89000D609
:100BF600E064B86003020CA87F80124D557F201276
:100C06004D0F7F45124D0F7F4E124D0F7F54124DE3
:100C16000F7F52124D0F7F41124D0F7F44124D0F21
:100C26007F41124D0F7F20124D0F7F46124D0F7FD1
:100C360055124D0F7F45124D0F7F52124D0F7F41BA
:100C4600124D0F7F20124D0F7F20124D0F7FC012C5
:100C56004D557F44124D0F7F45124D0F7F20124D8B
:100C66000F7F48124D0F7F4F124D0F7F52124D0FBF
:100C76007F41124D0F7F52124D0F7F49124D0F7F4C
:100C86004F124D0F7F20124D0F7F2D124D0F7F43B8
:100C9600124D0F7F41124D0F7F4A124D0F7F4102B9
:100CA600106D900124E064016003020D689000D687
:100CB600E064B96003020D687F80124D557F4412CF
:100CC6004D0F7F49124D0F7F41124D0F7F20124D60
:100CD6000F7F44124D0F7F45124D0F7F20124D0F8F
:100CE6007F41124D0F7F43124D0F7F43124D0F7FF1
:100CF60045124D0F7F53124D0F7F4F124D0F7F2020
:100D0600124D0F7F20124D0F7F20124D0F7FC01204
:100D16004D557F49124D0F7F4E124D0F7F56124D86
:100D26000F7F41124D0F7F4C124D0F7F49124D0F11
:100D36007F44124D0F7F4F124D0F7F20124D0F7FB4
:100D460020124D0F7F20124D0F7F20124D0F7F2056
:100D5600124D0F7F20124D0F7F20124D0F7F200264
:100D6600106D900124E06401705D9000D6E064FB94
:100D760070557FC0124D557F45124D0F7F52124D53
:100D86000F7F52124D0F7F4F124D0F7F52124D0F94
:100D96007F20124D0F7F54124D0F7F52124D0F7F41
:100DA60041124D0F7F4E124D0F7F53124D0F7F5044
:100DB600124D0F7F4F124D0F7F52124D0F7F54125F
:100DC6004D0F7F4502106D900124E06401705D9027
:100DD60000D6E064FC70557FC0124D557F4E124D13
:100DE6000F7F4F124D0F7F20124D0F7F45124D0F73
:100DF6007F53124D0F7F20124D0F7F4D124D0F7FE7
:100E060045124D0F7F4E124D0F7F53124D0F7F55DA
:100E1600124D0F7F41124D0F7F4C124D0F7F2E1238
:100E26004D0F7F2E124D0F7F2E02106D900124E084
:100E36006401705D9000D6E064FD70557FC0124D70
:100E4600557F4E124D0F7F4F124D0F7F20124D0FC3
:100E56007F45124D0F7F53124D0F7F20124D0F7F8E
:100E660044124D0F7F45124D0F7F20124D0F7F52BA
:100E7600124D0F7F4F124D0F7F54124D0F7F4112AF
:100E86004D0F7F43124D0F7F49124D0F7F4F0210BA
:100E96006D900124E06401705D9000D6E064FE7000
:100EA600557FC0124D557F42124D0F7F49124D0F8F
:100EB6007F45124D0F7F4E124D0F7F56124D0F7FFD
:100EC60045124D0F7F4E124D0F7F49124D0F7F4435
:100ED600124D0F7F4F124D0F7F20124D0F7F2012A4
:100EE6004D0F7F20124D0F7F20124D0F7F20124D88
:100EF6000F7F2002106D900124E06401705C900069
:100F0600D6E0F470557F80124D557F47124D0F7F06
:100F160052124D0F7F41124D0F7F43124D0F7F49E5
:100F2600124D0F7F41124D0F7F53124D0F7F2E1220
:100F36004D0F7F2E124D0F7F2E124D0F7F20124D1B
:100F46000F7F20124D0F7F20124D0F7F20124D0F65
:100F56007F20124D0F7F2002106D9000D6E06402B4
:100F66006003021073A3E064696003021073124900
:100F7600C07BFF7A437975E4FDFF124DBA7FC0123C
:100F86004D559000D8E0FF124B497F2F124D0F9020
:100F960000D9E0FF124B497F2F124D0F9000DAE087
:100FA600FF124B497F20124D0F9000DBE0FF124BE2
:100FB600497F3A124D0F9000DCE0FF124B4990003A
:100FC600DDE0FF124B497F8C124D559000DEE06448
:100FD60001700F7F44124D0F7F6F124D0F7F6D0210
:100FE600106D9000DEE06402700E7F4C124D0F7F94
:100FF60075124D0F7F6E806F9000DEE06403700EF9
:101006007F4D124D0F7F61124D0F7F7280599000F8
:10101600DEE06404700E7F4D124D0F7F69124D0F96
:101026007F6580439000DEE06405700E7F4A124DB6
:101036000F7F75124D0F7F65802D9000DEE06406F0
:10104600700E7F56124D0F7F69124D0F7F65801708
:101056009000DEE064076003021FF47F53124D0F19
:101066007F61124D0F7F62124D0F021FF49000D662
:10107600E064026003021131A3E0644960030211D7
:10108600317F80124D55E4900258F0900258E024CA
:101096006FF582E43400F583E0FF600B124D0F908C
:1010A6000258E004F080E4900124E024FE90025D02
:1010B600F07FC0124D55E49001E3F0900258F09095
:1010C600025DE0FF900258E0FEC39F503774D82EB1
:1010D600F582E43400F583E064037008EF049002BF
:1010E60058F08018900258E024D8F582E43400F5D0
:1010F60083E0FF124D0F9001E3E004F0900258E008
:1011060004F080BBE4900258F09001E3E0FFC37462
:10111600109FFF900258E0C39F4003021FF47F20F8
:10112600124D0F900258E004F080DE9000D6E06485
:101136000260030211CDA3E0644460030211CD12E4
:1011460049C07F80124D557BFF7A437986124B9EAC
:101156009002587402F0900258E0FF24D6F582E41B
:101166003400F583E0643B601774D62FF582E434CF
:1011760000F583E0FF124D0F900258E004F080D690
:101186007FC0124D55900258E004F07BFF7A4379F8
:1011960092124B9E9002597402F0900258E0FF247E
:1011A600D6F582E43400F583E0643B7003021FF455
:1011B60074D62FF582E43400F583E0FF124D0F90CC
:1011C6000258E004F080D39000D6E064027012A3C7
:1011D600E06405700CA3E064037006124B74021FF2
:1011E600F49000D6E0FB7A0064026003021294A336
:1011F600E064576003021294900124E0FF24D5F5C1
:1012060082E43400F583E064036003021294EF6421
:1012160012707B9001FDF0A3F0C205D20B9000DAAC
:10122600E090029FF09000D9E09002A0F09000D8E4
:10123600E09002A1F09000DCE0900122F09000DD49
:10124600E09000FBF09000DEE0900195F09000DF6A
:10125600E0900196F09000E0E090010FF09000E140
:10126600E0900123F09000E2E09000FDF09000E3B2
:10127600E0900197F09000E4E0900198F09000E58E
:10128600E0900110F09000E6E09000FC802FEB6407
:10129600024A703D9000D7E0645770359001FDF02A
:1012A600A3F0C205C20B9000DAE090029FF0900016
:1012B600D9E09002A0F09000D8E09002A1F0900250
:1012C60002E04402F09001E1E4F0A37405F0021F8D
:1012D600F49000D6E064027045A3E0644D703F9040
:1012E60001FDF0A3F0124625C2059000DAE0900257
:1012F6009FF09000D9E09002A0F09000D8E0900214
:10130600A1F0900202E04402F09001E1E4F0A3743F
:1013160005F09001DDE4F0A3748CF0021FF4900058
:10132600D6E0FB7A00640260030214A3A3E06477AC
:1013360060030214A3900124E0FF24D5F582E4346F
:1013460000F583E0640360030214A39001FDF0A39B
:10135600F0D205C212C21C9000DAE090029FF09013
:1013660000D9E09002A0F09000D8E09002A1F090A1
:1013760000DCE0900122F09000DDE09000FBF090B0
:1013860000DEE0900195F09000DFE0900196F0908D
:1013960000E0E090010FF07E00EF641270379000DD
:1013A600E1E0900123F09000E2E09000FDF0900073
:1013B600E3E0900197F09000E4E0900198F090004F
:1013C600E5E0900110F09000E6E09000FCF0D2120B
:1013D600C21C021490D3EF9412EE648094805003E2
:1013E6000214869000E1E0900123F09000E2E09084
:1013F60000FDF09000E3E0900197F09000E4E090AB
:101406000198F09000E5E0900110F0900124E024AE
:10141600D4F582E43400F583E09000FCF0D212D2D9
:101426001CE49000D5F09001E0740AF09002587424
:1014360010F0900124E0FF24FEFE900258E0FDC368
:101446009E504774D62DF582E43400F583E064039C
:101456009002586021E0FE24D6F582E43400F5833C
:10146600E0FD749D2EF582E43401F583EDF09000E5
:10147600D5E004F08002EFF0900258E004F080B26C
:101486009000E1E09000FCF0C212900202E04402FB
:10149600F09001E1E4F0A3740AF0021FF4EB640299
:1014A6004A600302161C9000D7E0FF64506017EFF5
:1014B60064546012EF6456600DEF64456008EF6493
:1014C60047600302161CE49001FDF0A3F09001268C
:1014D600EFF0900124E0900091F0124CC2C20DC2D0
:1014E600247F80124D559002587403F0900091E0CD
:1014F600FF900258E0FEC39F400302158774D62E64
:10150600F582E43400F583E0C39430401074D62E9F
:10151600F582E43400F583E0D39439403D74D62E49
:10152600F582E43400F583E0C39441401074D62E6E
:10153600F582E43400F583E0D3945A401D74D62E28
:10154600F582E43400F583E0642D600E74D62EF542
:1015560082E43400F583E0B42E04D2258008C22547
:10156600EF04900258F0900258E024D6F582E43455
:1015760000F583E0FF124D0F900258E004F00214CC
:10158600F2202503021FE5E4900259F09000FCF0DA
:10159600900258F0900091E0FF900258E0FEC39F41
:1015A600502A74D62EF582E43400F583E0B42E1466
:1015B60074D72EF582E43400F583E09000FCF090B9
:1015C6000258EFF0900258E004F080C89000FCE06A
:1015D6006007900091E024FBF0900202E04401F0E5
:1015E600E4900258F0900091E0FF900258E0FEC3AC
:1015F6009F4003021FE574D92EF582E43400F5837B
:10160600E0FF74C82EF582E43401F583EFF0900212
:1016160058E004F080CF9000D6E064026003021721
:1016260078A3E064616003021778900124E024D572
:10163600F582E43400F583E06403600302177890D2
:1016460001FDF0A3F0D20CC2079000F7F09002580B
:101656007402F0900124E0FC900258E0FEC39C5016
:101666002174D62EF582E43400F583E0B42D0BEE1A
:10167600049001AAF0900258ECF0900258E004F0B1
:1016860080D19002587402F09001AAE014FF9002F3
:1016960058E0FEC39F502674D62EF582E43400F53A
:1016A60083E0FF74C62EF582E43401F583EFF090F3
:1016B60000F7E004F0900258E004F080CB9001AA15
:1016C600E0FF04F074D62FF582E43400F583E09051
:1016D6000122F09001AAE0FF04F074D62FF582E40F
:1016E6003400F583E09000FBF09001AAE0FF04F0DF
:1016F60074D62FF582E43400F583E0900195F090DE
:1017060001AAE0FF04F074D62FF582E43400F583D5
:10171600E0900196F09001AAE0FF04F074D62FF550
:1017260082E43400F583E090010FF0E49001ACF020
:101736009001AAE004900258F0900124E014FF9072
:101746000258E0FEC39F4003021B4874D62EF58262
:10175600E43400F583E0FF9001ACE0FE04F074ADE4
:101766002EF582E43401F583EFF0900258E004F0A0
:1017760080C79000D6E06402600302197A900124C3
:10178600E024D5F582E43400F583E06403600302C7
:10179600197A9000D7E0FF646D6017EF646E6012EF
:1017A600EF646F600DEF64416008EF6452600302FE
:1017B600197AEF646E70499001FDF0A3F0C21D7FA7
:1017C60080124D55E4900258F0900258E02403F53B
:1017D60082E43402F583E0FF600B124D0F9002584D
:1017E600E004F080E47F8D124D553003047F4E8077
:1017F600027F53124D0F7F20124D0F7F4E0218F5B8
:101806009000D7E0646D7043D21D7F80124D55E481
:10181600900258F0900258E02403F582E43402F571
:1018260083E0FF600B124D0F900258E004F080E455
:101836007F8D124D553003047F4E80027F53124D2B
:101846000F7F20124D0F7F4D0218F59000D7E064F0
:101856006F60030218FAA3E064307048C21D90015D
:10186600FDF0A3F07F80124D55E4900258F09002EF
:1018760058E02403F582E43402F583E0FF600B129E
:101886004D0F900258E004F080E47F8D124D5530E4
:1018960003047F4E80027F53124D0F7F20124D0F9F
:1018A6007F6F804B9000D8E064316003021971D2DB
:1018B6001D7F80124D55E4900258F0900258E024A6
:1018C60003F582E43402F583E0FF600B124D0F90BE
:1018D6000258E004F080E47F8D124D553003047FFA
:1018E6004E80027F53124D0F7F20124D0F7F4D12F7
:1018F6004D0F80779000D7E0FD6441703D9001FD6B
:10190600E07002A3E06064E49001FDF0A3F09000B3
:101916005AE090029FF090005BE09002A0F09000E9
:101926005CE09002A1F0900202E04402F09001E136
:10193600E4F0A37405F0C20B8031EDB4522DE490AF
:1019460001FDF0A3F07F80124D55E4900258F0900F
:101956000258E02499F582E43401F583E0FF600B38
:10196600124D0F900258E004F080E49000D774FF07
:10197600F0021FF49000D6E064026003021B52A33B
:10198600E0FF64736008EF64436003021B5290013A
:1019960024E024D5F582E43400F583E06403600393
:1019A600021B529001FDF0A3F0D20CD2079000F773
:1019B600F09000D7E0B44304D20D8002C20D90022D
:1019C600587402F0900124E0FC900258E0FEC39C9B
:1019D600502174D62EF582E43400F583E0B42D0B45
:1019E600EE04900058F0900258ECF0900258E00493
:1019F600F080D1900058E024D6F582E43400F583D7
:101A0600E0900022F09002587402F0900058E0FF37
:101A160014FE900258E0FDC39E502674D62DF58222
:101A2600E43400F583E0FE74C62DF582E43401F556
:101A360083EEF09000F7E004F0900258E004F080A6
:101A4600CAEF24029001AAF0E0FF04F074D62FF545
:101A560082E43400F583E0900122F09001AAE0FFD1
:101A660004F074D62FF582E43400F583E09000FB91
:101A7600F09001AAE0FF04F074D62FF582E434005A
:101A8600F583E0900195F09001AAE0FF04F074D68A
:101A96002FF582E43400F583E0900196F09001AAD8
:101AA600E0FF04F074D62FF582E43400F583E0906D
:101AB600010FF09001AAE004F0E0FF04F074D62FC5
:101AC600F582E43400F583E0900123F09001AAE06A
:101AD600FF04F074D62FF582E43400F583E090001D
:101AE600FDF09001AAE0FF04F074D62FF582E434ED
:101AF60000F583E0900197F09001AAE0FF04F074EE
:101B0600D62FF582E43400F583E0900198F0900139
:101B1600AAE0FF04F074D62FF582E43400F583E0E2
:101B2600900110F09001AAE004F0E0FF04F074D6F2
:101B36002FF582E43400F583E09000FCF0E4900198
:101B4600ACF0900202E04401F0021FE59000D6E0FE
:101B560064026003021C12A3E064646003021C12A8
:101B6600900124E0FF24D5F582E43400F583E06497
:101B7600036003021C12EF64096003021C12124C7C
:101B8600C27F80124D557F53124D0F7F61124D0F4C
:101B96007F6C124D0F7F64124D0F7F6F124D0F7FBA
:101BA60020124D0F7F44124D0F7F69124D0F7F7328
:101BB600124D0F7F70124D0F7F6F124D0F7F6E12F9
:101BC6004D0F7F69124D0F7F62124D0F7F6C124DC4
:101BD6000F7F65124D0F124CDC7FC0124D559002DF
:101BE600587402F0900258E0FFC394087480948001
:101BF6004003021FF474D62FF582E43400F583E027
:101C0600FF124D0F900258E004F080D8900124E0B6
:101C1600900091F0124CC2E49000FCF0900258F053
:101C2600900091E0FF900258E0FEC39F502A74D6C0
:101C36002EF582E43400F583E0B42E1474D72EF525
:101C460082E43400F583E09000FCF0900258EFF057
:101C5600900258E004F080C89000FCE06007900015
:101C660091E024FEF0C20DC224E4900259F09002E5
:101C760058F0900091E0FB900258E0FEC39B502A7A
:101C860074D62EF582E43400F583E0B42D14900268
:101C960058A3E0FD04F0745B2DF582E43402F5836D
:101CA600EEF0900258E004F080C8900259E0600B14
:101CB60090025BE00490025AF0800590025AEBF025
:101CC6007F80124D55E4900258F090025AE0FF9042
:101CD6000258E0FEC39F4003021D6574D62EF582AE
:101CE600E43400F583E0C39430401074D62EF582B8
:101CF600E43400F583E0D39439403D74D62EF58262
:101D0600E43400F583E0C39441401074D62EF58286
:101D1600E43400F583E0D3945A401D74D62EF58240
:101D2600E43400F583E0642D600E74D62EF582E46B
:101D36003400F583E0B42E04D2258008C225EF04D2
:101D4600900258F0900258E024D6F582E43400F56B
:101D560083E0FF124D0F900258E004F0021CD020E1
:101D66002503021FF4E49001FDF0A3F0900202E0C7
:101D76004401F0900259E07003021FAE6401600353
:101D8600021EED900091E024FFFFE434FFFE900276
:101D96005BE0FDC3EF9DFFEE9400FEEF64014E7025
:101DA6005A900258F0900091E0FF900258E0FEC36E
:101DB6009F502074D62EF582E43400F583E0FD743E
:101DC600C82EF582E43401F583EDF0900258E00464
:101DD600F080D2D22474C72FF582E43401F583E073
:101DE600900022F07F44124D0F900022E0FF124D2A
:101DF6000F900091E024FEF0021FE5C224E4900259
:101E060058F090025BE0FF900258E0FEC39F50201E
:101E160074D62EF582E43400F583E0FD74C82EF501
:101E260082E43401F583EDF0900258E004F080D2AC
:101E3600900091E024FFFDE434FFFCC3ED9FFFEC2E
:101E46009400FEEF64054E6003021EE2D20D7F434E
:101E5600124D0F7F61124D0F7F6A124D0F7F651273
:101E66004D0F7F72124D0F7F6F124D0F90025BE088
:101E7600049001AAF0E0FF04F074D62FF582E43452
:101E860000F583E0900122F09001AAE0FF04F074CF
:101E9600D62FF582E43400F583E09000FBF0900144
:101EA600AAE0FF04F074D62FF582E43400F583E04F
:101EB600900195F09001AAE0FF04F074D62FF58208
:101EC600E43400F583E0900196F09001AAE024D670
:101ED600F582E43400F583E090010FF090025BE0B8
:101EE600900091F0021FE5E4900258F090025BE04A
:101EF600FF900258E0FEC39F502074D62EF582E470
:101F06003400F583E0FF74C82EF582E43401F583CE
:101F1600EFF0900258E004F080D2D22490025BE009
:101F2600FD24C9F582E43401F583E0900022F0D265
:101F36000D90025CE0049001AAF0E0FF04F074D674
:101F46002FF582E43400F583E0900122F09001AA97
:101F5600E0FF04F074D62FF582E43400F583E090B8
:101F660000FBF09001AAE0FF04F074D62FF582E49E
:101F76003400F583E0900195F09001AAE0FF04F0AB
:101F860074D62FF582E43400F583E0900196F09044
:101F960001AAE024D6F582E43400F583E090010F2F
:101FA600F0900091EDF08037E4900258F0900091A7
:101FB600E0FF900258E0FEC39F502074D62EF582B3
:101FC600E43400F583E0FF74C82EF582E43401F5AD
:101FD60083EFF0900258E004F080D2C224C20D9044
:101FE60000F6741EF0900023E4F0A3741EF0208D1A
:101FF600030221D1C28D9000FAE0600714F0E07070
:1020060002D2109001DDE07002A3E0600E9001DEC6
:10201600E024FFF09001DDE034FFF09001FFE07076
:1020260002A3E0600E900200E024FFF09001FFE0C2
:1020360034FFF09001FDE07002A3E0603F9001FEE6
:10204600E024FFF09001FDE034FFF0E07002A3E031
:10205600702A90005AE090029FF090005BE0900298
:10206600A0F090005CE09002A1F0900202E0440231
:10207600F09001E1E4F0A37405F0C20B20B71B90C9
:1020860000F9E0FF640E6003EF7013300106C2949E
:10209600C201800AD294D2018004D294D21F900049
:1020A600F9E014F0E060030221D13022139001AB75
:1020B600E0600214F09001ABE0700B12457E8000E8
:1020C6009001AB7405F0900023E07002A3E060334A
:1020D600900024E024FFF0900023E034FFF0E0704D
:1020E60002A3E0701E900202E054FEF0E490012686
:1020F600F0C20CC2079000FC7420F0C20D3022031F
:10210600124CC29001E1E07002A3E060209001E26F
:10211600E024FFF09001E1E034FFF0E07002A3E07C
:10212600700B900202E054FDF0C20BC21C9000F648
:10213600E0607314F0E0706E741EF07F80124D55EF
:10214600E4900258F0900258E0C394107480948092
:10215600500D7F20124D0F900258E004F080E6905B
:102166000202E054FEF054FDF054FBF0D222E4905B
:102176000126F0C21CC20DC20CC207C21C7FC012CF
:102186004D55E4900258F0900258E02447F582E459
:102196003400F583E0FF600B124D0F900258E00407
:1021A600F080E412457EC20AC296C295C218C28069
:1021B600C219C281C21AC282C21BC2839000F974BC
:1021C6001CF0E4F58CF58AC28DC21E30103B30B48B
:1021D60038C210E490025DF09001DCE0FF90025DF1
:1021E600E0FEC39F502074E92EF582E43401F583A6
:1021F600E0FD74D62EF582E43400F583EDF090020E
:102206005DE004F080D21245863016077F06124D37
:10221600C6C216900125E0FF64036005EF640770EF
:102226000312224130000E30B40BC20074AB1245CB
:0B22360080E4124580124C400201269B
:104AB9002575004552524F52204445204C454354D8
:104AC90055524100804020100804020100000000F6
:104AD90000004C4543542E31202020202020202046
:044AE9002020200069
:1041C3004102CB004102CA004102C80041029E00E5
:0C41D3004102A3004102A4004102C90007
:0300030002491897
:10491800C0E0C0F0C083C082C0D075D000C000C065
:1049280001C002C003C004C005C006C0079002CB86
:10493800E024A5F582E43402F5837430F09002CBCC
:10494800E004F020B2FD120006D007D006D005D052
:1049580004D003D002D001D000D0D0D082D083D0F0
:04496800F0D0E03279
:0300130002496C33
:10496C00C0E0C0F0C083C082C0D075D000C000C011
:10497C0001C002C003C004C005C006C0079002CB32
:10498C00E024A5F582E43402F5837431F09002CB77
:10499C00E004F020B3FD120006D007D006D005D0FD
:1049AC0004D003D002D001D000D0D0D082D083D09C
:0449BC00F0D0E03225
:03000B00024C6440
:104C6400C0E0C083C0829002C9E070097406F0A35A
:104C74007401F080069002C9E014F0C28DD082D095
:044C840083D0E032C7
:05000600C28DD2A92209
:034DD900C2A9224A
:05000E00D288D2A822F7
:054DD400D28AD2AA22E0
:034DDC00D2AF2231
:0C00160012000E124DD4124DDC024A47BD
:104A4700E4FFEFC3942374809480501774A52FF567
:104A570082E43402F583E4F09002CBF09002CAF0CE
:104A67000F80DFE49002C8F090029EF09002A3F05E
:084A7700A3F09002C97406F0DF
:014A7F002214
:104A07009002CBE064227F0170201244CE1244C78B
:104A170090029EEFF07F111244CE9002A3EFF07F39
:104A2700191244CE9002A4EFF0221244CE1244C7CA
:104A370090029EEFF07F111244CE9002A3EFF02276
:104A8000124A079002CBE06422701390029EE0A3CA
:104A9000F09002A3E09002A0F09002A48013900294
:104AA000C8E090029FF090029EE09002A0F0900279
:094AB000A3E09002A1F0024625EA
:0744C7009002C8EFF07F092D
:0544CE0090025EEFF01A
:1044D300785F7C027D017BFF7A4A79BC7E007F1185
:1044E300123EE1E4900272F078737C027D017BFF5F
:1044F3007A4A79CDFE7F08123EE190025EE0FE2407
:1045030008900270F0A3EEF0900270E0FFA3E0FECB
:10451300C39F506174A52EF582E43402F583E0F95C
:10452300B43129900272E0FF90025EE0FD900271C7
:10453300E0C39DFDE49400FC74732DF58274023C8A
:10454300F583E0FEEF4E900272F08021E9D39431BF
:104553005006E9C3943050157F80124D557B017A84
:1045630002795F124B9EE4900272F0800890027110
:0A457300E004F08093900272E0FF74
:01457D00221B
:10462500785E7C027D017BFF7A4A79D57E007F0624
:10463500123EE178647C027D017BFF7A4A79DB7E5C
:10464500007F12123EE1124DCE7F80124D557B0147
:104655007A027964124B9E7F87124D5590029FE036
:10466500FF7E0090027974FFF0A3744AF0A374B939
:10467500F0A3EEF0A3EFF07B017A02795E123B1115
:104685007B017A02795E124B9E7F2D124D0F9002AF
:10469500A0E0FEA3E0FDEDFF90027974FFF0A374A6
:1046A5004AF0A374B9F0A3EEF0A3EFF07B017A0210
:0E46B500795E123B117B017A02795E024B9E08
:0441DF004102CC00CD
:104CF600C20F759850438780438920758840758D0B
:094D0600F4758BF4D28ED2AC22BC
:084DC600200FFD8F99D20F228E
:0300230002361092
:0B361000C0E0C083C082C0D075D008AD
:10361B00209803023A9CAB99C298900125E0146064
:10362B003C14605824FD70030236CC14700302372F
:10363B006B24FE700302370A24086003023A97904A
:10364B0000D4E4F0AF0BEBFD3395E0FCED64054CDF
:10365B006003023A9C90012504F0023A9C9000F41E
:10366B00E0AF0B900125B50B0E7402F09000F674D1
:10367B001EF0C222023A9CE4F0023A9CAF0BEB2400
:10368B00AD602024F0602924FE600F24EE6012242C
:10369B0007702B9001257403805C900125740880C2
:1036AB0055800D9001257405F0D216D223023A9C59
:1036BB009001257405F07F06124DC6023A90023A2E
:1036CB0097AF0BEBFD3395E0FCED64024C701D9056
:1036DB0000D4F0E0FE04F074272EF582E43401F5FB
:1036EB0083EFF09001257406F0023A9CED64054CD3
:1036FB00900125700504F0023A90E4F0023A9CAF79
:10370B000B9000D4E0FE04F074272EF582E4340114
:10371B00F583EFF09000D4E0D3943C748094804018
:10372B0003023A97AF0BEBFD3395E0FCED64034CD2
:10373B00701D900125F0900202E054FEF0900126DE
:10374B00E4F0C20CC207900023F0A3F0023A9CED08
:10375B0064054C6003023A9C90012504F0023A90F8
:10376B00AF0B9000D4E0FE04F074272EF582E43406
:10377B0001F583EFF09000D4E0D3943C74809480F7
:10378B004003023A97AF0BEBFD3395E0FCED64037E
:10379B004C6003023A7E30233CC223D2069001DFF9
:1037AB00F09000D4E0FE9001DFE0FDC39E5020744A
:1037BB00272DF582E43401F583E0FE74922DF5821A
:1037CB00E43400F583EEF09001DFE004F080D2905A
:1037DB0001257407F09000D4E0FD7C0064066003C3
:1037EB000238DA900128E0FE64446044EE644170D4
:1037FB003F9001DDE07002A3E0601B9001DDE4F07F
:10380B00A3F0D200900202E054FDF09001FFE4F02F
:10381B00A37454F0801A9001FFE07002A3E07010C3
:10382B00D2969000F9741CF0758C00758A00C28DCD
:10383B00900129E0FF644470030238CEEF644160CD
:10384B00030238CE300360D200302146301174C2EF
:10385B0011900202E054FDF09001DDE07002A3E054
:10386B00601DC20B9001DDE4F0A3F0D200900202C8
:10387B00E054FDF09001FFE4F0A37454F080449009
:10388B0001FFE07002A3E0703AD2959000F9741C2E
:10389B008028301109C211900202E054FDF0D2953C
:1038AB009000F9742A8013301109C211900202E0C2
:1038BB0054FDF0D2959000F9742AF0758C00758A3E
:1038CB0000C28D900125E4F09000D4F0023A9CEDFB
:1038DB0064074C703D900128E064636003023A9CDE
:1038EB009001DFF09000D4E0FF9001DFE0FEC39F7A
:1038FB00505D74272EF582E43401F583E0FF74D616
:10390B002EF582E43400F583EFF09001DFE004F054
:10391B0080D29000D4E0FF7E006419703B9001DFF1
:10392B00F09000D4E0FD9001DFE0FCC39D502074CB
:10393B00272CF582E43401F583E0FD74922CF5829B
:10394B00E43400F583EDF09001DFE004F080D290D9
:10395B0001257407F0023A9CC3EF9426EE64809421
:10396B00805003023A9C900128E06441703E900124
:10397B00DDE07002A3E0601A900202E054FDF090CB
:10398B0001DDE4F0A3F0D2009001FFF0A37454F03A
:10399B00801A9001FFE07002A3E07010D2969000A5
:1039AB00F9741CF0758C00758A00C28D900129E0AA
:1039BB0064416003023A41D20030035E302146304D
:1039CB001174C211900202E054FDF09001DDE07021
:1039DB0002A3E0601DC20B9001DDE4F0A3F0D20066
:1039EB00900202E054FDF09001FFE4F0A37454F058
:1039FB0080449001FFE07002A3E0703AD2959000F2
:103A0B00F9741C8028301109C211900202E054FD98
:103A1B00F0D2959000F9742A8013301119C21190CD
:103A2B000202E054FDF0D2959000F9742AF0758CE7
:103A3B0000758A00C28D9001DFE4F09001DFE0C3D6
:103A4B009426748094805021E0FF2427F582E4347F
:103A5B0001F583E0FE74922FF582E43400F583EEDA
:103A6B00F09001DFE004F080D29001257407F0D2D2
:103A7B0015801EAF0BEF3395E0FEEF64054E701112
:103A8B0090012504F09000D4E4F08005900125E42A
:083A9B00F0309904C299C20F3A
:093AA300D0D0D082D083D0E032F3
:024CA600AE0757
:104CA800E4FDEDC39E501274632DF582E43401F5E2
:094CB80083E0FF124DC60D80E9F6
:014CC10022D0
:104C8800E4FFFE9000D4E0FDEEC39D501074922E18
:0D4C9800F582E43400F583E06FFF0E80E646
:014CA50022EC
:1048B400124C889000D4E0FE04F074D62EF582E405
:1048C4003400F583EFF0E4FF9000D4E0FEEFC39EE4
:1048D400501B74D62FF582E43400F583E0FE74CDCA
:1048E4002FF582E43402F583EEF00F80DB9000D4E0
:1048F400E0FF24CEF582E43402F583E4F074D72F8C
:10490400F582E43400F583E4F09002CCEFF0124534
:044914008602474F81
:104B7400E4FE9002CCE0FFEEC39F501B74CD2EF5F3
:104B840082E43402F583E0FD74D62EF582E4340029
:0A4B9400F583EDF00E80DB0245868C
:10474F009002677401F0A37400F0A374DCF0A3E48B
:10475F00F0A37402F07B017A02796012484CE49066
:10476F000262F0900260E0540FC454F0FFA3E054D3
:10477F000F4FFFC3940374809480404D9002677471
:10478F0001F0A37400F0A374E1F0A3E4F0A37402AA
:10479F00F07B017A02796012484CE4900262F0904B
:1047AF000260E0540FC454F0FFA3E0540F4FC394C2
:1047BF00167480948040129000D67402F0A3745542
:0947CF00F0A37403F0FF1245860B
:0147D80022BE
:0100220022BB
:104B1B00E4900059F0301805E04401F022301908F8
:104B2B00900059E04402F022301A08900059E044FA
:0E4B3B0004F022301B07900059E04408F022DD
:104D6B00E4FDFCC3ED9FEC9E500A1200220DBD002A
:044D7B00010C80EFB8
:014D7F002211
:034D8000124D4D84
:104D8300E4FFFE1200220FBF00010EEF64024E701B
:014D9300F22D
:014D940022FC
:104DA800E4FFFE1200220FBF00010EEF64024E70F6
:014DB800F208
:014DB90022D7
:0E4D3F00124B1BED54F0FF900059E04FF58031
:084D4D00D291124D83C29122A4
:104D5500AD07C290124D3FEDC454F0FD54F0FFE095
:064D65004FF580024D4DE8
:104D28007F01124D55E4FFFE1200220FBF00010E55
:064D3800EF64FA4E70F278
:014D3E002252
:1049C000C290124D83C291124D83758039124D8071
:1049D000124D80124D4D124D83758029124D4D128E
:1049E0004D837F0C124D55124D281200227F061266
:1049F0004D551200227F80124D55124D83124B1BD4
:074A0000900059E0F580224F
:104D0F00AD07D290120022124D3FEDC454F0FD5466
:094D1F00F0FFE04FF580024D4D5C
:104BF200AE07ED14600F14601114601324037016D5
:104C0200EE2480800DEE24C08008EE24948003EE12
:074C120024D4FF124D5522CE
:0B4B9E0090027BEBF0A3EAF0A3E9F02B
:104BA900E4FC90027BE0FBA3E0FAA3E0F98C8275B8
:0E4BB9008300123F07FF6006124D0F0C80E4D0
:014BC70022CB
:0C4DBA00AE07AF05AD06124BF2024B9E97
:104BC800C292C293124D839000F47431F030920374
:104BD800E004F03093079000F4E02402F07FC9125B
:0A4BE8004D559000F4E0FF024D0F60
:104CC2007F80124D55E4FCECC394107480948050A4
:094CD200087F20124D0F0C80EE4A
:014CDB0022B6
:104CDC007FC0124D55E4FCECC3941074809480504A
:094CEC00087F20124D0F0C80EE30
:014CF500229C
:064DCE00124CC2024CDC95
:030000000246C3F2
:0C46C300787FE4F6D8FD75812502470AD7
:103E1100E709F608DFFA8046E709F208DFFA803E93
:103E210088828C83E709F0A3DFFA8032E309F60880
:103E3100DFFA8078E309F208DFFA807088828C83E8
:103E4100E309F0A3DFFA806489828A83E0A3F6089C
:103E5100DFFA805889828A83E0A3F208DFFA804C76
:103E610080D280FA80C680D4806980F2803380104D
:103E710080A680EA809A80A880DA80E280CA8033B6
:103E810089828A83ECFAE493A3C8C582C8CCC5832E
:103E9100CCF0A3C8C582C8CCC583CCDFE9DEE780FE
:103EA1000D89828A83E493A3F608DFF9ECFAA9F07D
:103EB100EDFB2289828A83ECFAE0A3C8C582C8CCD3
:103EC100C583CCF0A3C8C582C8CCC583CCDFEADEEC
:103ED100E880DB89828A83E493A3F208DFF980CC4E
:103EE10088F0EF60010E4E60C388F0ED2402B40447
:103EF1000050B9F582EB2402B4040050AF232345EE
:063F01008223903E617373
:103F0700BB010CE58229F582E5833AF583E022506F
:103F170006E92582F8E622BBFE06E92582F8E222B9
:0D3F2700E58229F582E5833AF583E49322D3
:0C3F3400ECF0A3EDF0A3EEF0A3EFF02200
:103F4000A8828583F0D083D082123F57123F571248
:103F50003F57123F57E473E493A3C583C5F0C5836D
:103F6000C8C582C8F0A3C583C5F0C583C8C582C8CB
:013F7000222E
:103AAC00E5102479F582E43402F583E005102290C8
:103ABC000276302D03900279E475F001123FEA0290
:103ACC003F712026E97F2ED2268018EF540F2490C8
:103ADC00D43440D4FF302A0BEF24BFB41A00500367
:103AEC002461FFE511600215110514E5147002053F
:103AFC0013302D0E900276E475F001123FEAEF02BE
:103B0C003F8A024C197403D22D8003E4C22DF510A8
:103B1C00900276124001E4F511F513F514E51160ED
:103B2C00077F20123AEF80F57512FFC227C226C21A
:103B3C0028C229C22BC22CC22E123ABBFF700D30E8
:103B4C002D057F00123B00AF14AE1322B4255FC2CB
:103B5C00D5C22A123ABBFF24D0B40A00501A75F011
:103B6C000A781130D50508B6FF0106C6A426F62042
:103B7C00D5047002D22980D924CFB41A00EF500496
:103B8C00C2E5D22A023D01D22780C6D22680C0D2FD
:103B9C002880BCD2D580BAD22B80B47F20123AEFC9
:103BAC002028077401B5110040F1123AACFF123A0B
:103BBC00EF023B29D22ED22C8095123AACFB123A52
:103BCC00ACFA123AACF94A4B700679D27A3D7BFFCB
:103BDC0020282EE511602A7E008E82758300123F0C
:103BEC000760060EEE651270F0C2D5EBC0E0EAC0BD
:103BFC00E0E9C0E0EE123D48D0E0F9D0E0FAD0E0C8
:103C0C00FB123F71FF60AAEBC0E0EAC0E0E9C0E044
:103C1C00123AEFD0E02401F9D0E03400FAD0E0FB06
:103C2C00E5120460DCD512D980877BFF7A3D79449C
:103C3C00D228809C791080027908C22CC22E800870
:103C4C00D2D5790A8004790AC2D5E512047002F53E
:103C5C0012E4FAFDFEFF123AACFC7B08202713128B
:103C6C003AACFD7B1030260A123AACFE123AACFF8D
:103C7C007B20EC3382D592D55013C3E43026069FBB
:103C8C00FFE49EFEE42027039DFDE49CFCE4CBF8BE
:103C9C00C227EC700CCFCECDCCE824F8F870F380B2
:103CAC0017C3EF33FFEE33FEED33FDEC33FCEB3398
:103CBC00FB994002FB0FD8E9EB302705F8D0E0C4A4
:103CCC0048B227C0E00AEC4D4E4F78207B0070C202
:103CDC00EAB5120040BCC0E0123D4AD0F0D0E02062
:103CEC002704C4C0E0C4B227C0F0123AD8D0F0D533
:103CFC00F0EB023B2912400A3BC6533C40583B9721
:103D0C004C3B93423C444F3C4C443C4C493BAC43B5
:083D1C003C52553C36463C3692
:103D2400453C36473DF2503B9B2D3B9F2E3BC22BDF
:103D34003BA3233BC0203DDB2A3B5B4800003BBA4E
:103D44003F3F3F00790AA2D5202914302B09B9102E
:103D5400020404B9080104A2D5202C025001042055
:103D640028689228B511005034C0E07F203029190A
:103D74007F30A228722C722B500F123DA1C228C290
:103D84002CC22BC22E7F30800F302B03E9C0E012EF
:103D94003AEF302B03D0E0F9D0E0B511CC302B173B
:103DA4007F30B9100C123AEF7F58302A077F7880A1
:103DB40003B90803123AEF3028057F2D023AEF7F4A
:103DC40020202EF87F2B202CF322922880CF286EDF
:103DD400756C6C2900D227123AAC3027F8C22778C8
:103DE4001130D50108F6023B5B2D50434958123A75
:103DF400AC2403B405004001E4903DED93123AE095
:0D3E0400743A123AE0D229751104023C40D4
:10484C00900264EBF0A3EAF0A3E9F0E490026CF0C0
:10485C00A3F090026A74FFF5F0123FD445F0603C6F
:10486C00900267E0FBA3E0FAA3E0F9123F71FF901E
:10487C000264E0FBA3E0FAA3E0F990026CE475F0AB
:10488C0001123FD485F082F583EF123F9CEF60C29A
:10489C00900268E475F001123FBE80B6900264E0AD
:0848AC00FBA3E0FAA3E0F922EE
:1046CF00020026E493A3F8E493A34003F68001F2DB
:1046DF0008DFF48029E493A3F85407240CC8C333EC
:1046EF00C4540F4420C8834004F456800146F6DFBB
:1046FF00E4800B0102040810204080904030E47EDB
:10470F00019360BCA3FF543F30E509541FFEE493AF
:10471F00A360010ECF54C025E060A840B8E493A376
:10472F00FAE493A3F8E493A3C8C582C8CAC583CAA1
:10473F00F0A3C8C582C8CAC583CADFE9DEE780BE59
:0141E30000DB
:103F7100BB010689828A83E0225002E722BBFE024E
:093F8100E32289828A83E4932281
:103F8A00BB010689828A83F0225002F722BBFE0116
:023F9A00F32210
:103F9C00F8BB010DE58229F582E5833AF583E8F05B
:103FAC00225006E92582C8F622BBFE05E92582C807
:023FBC00F222EF
:103FBE00C5F0F8A3E028F0C5F0F8E582158270028E
:063FCE001583E038F0222B
:103FD400A3F8E0C5F025F0F0E582158270021583A0
:063FE400E0C838F0E822FD
:103FEA00F8E0FBA3A3E0F925F0F0E5821582700260
:073FFA001583E0FA38F02204
:09400100EBF0A3EAF0A3E9F022C0
:10400A00D083D082F8E4937012740193700DA3A345
:10401A0093F8740193F5828883E473740293686059
:06402A00EFA3A3A380DF59
:104C1900EFB40A07740D124C24740A309811A8993C
:104C2900B8130CC2983098FDA899C298B811F630FB
:074C390099FDC299F59922D3
:00000001FF
