:1042AF002041636365735363616E2076342E35202E
:1042BF0000494E484142494C49544144412E2E2E0B
:1042CF0020004552524F5220454E204C4F4F502EFA
:1042DF002E2E005441524A45544120494E56414CCE
:1042EF00494441004E4F20524547495354524120B3
:1042FF005041474F005441522E2053494E20464FB4
:10430F00524D41544F00444952494A41534520416F
:10431F002043414A412000466563686120486F721F
:10432F00613A20202020200049445F434C49454EEC
:10433F0054453A00434F445F5041524B3A00434F6C
:10434F004D5041524143494F4E3A202020200020EA
:10435F002020416464723A20202020202020200059
:10436F002053494E20524553505545535441202018
:10437F000020504C414341204E4F20494755414C5E
:10438F00200020454E5649414E444F204441544F42
:03439F00532000A8
:103FE5005101114552524F523A20204C4F4F50200B
:103FF5003120200051004720465545524120444577
:10400500204C494E454120005100C3204552524F96
:1040150052204D4946415245202020005101B745C7
:1040250052524F5220434F442E20504152512E00A0
:10403500510011202053494E20494E475245534FB8
:10404500202020005100B24E4F205245474953547D
:104055005241205041474F0051005E455843454469
:104065004520542E47524143494120005101992092
:1040750041434345534F204E454741444F2020007F
:1040850051002520202053494E2053414C4944419D
:10409500202020005100FE4552524F5220475241E8
:1040A500424143494F4E2000510080414345525102
:1040B5005545534520412043414A410051006F5326
:1040C500455249453A20202020202020202020004C
:1040D500510036434F4D504152414E444F20504CB4
:1040E500414341005100005441524A455441205634
:1040F500454E4349444120004100D4004100F4317C
:104105004201FD00004201DD00004101DC004101EA
:104115002500410202004100D5004101E0004100B7
:10412500F7004101AC004101AB054100FA00420135
:10413500FF0000C10FC102C101C123C115C116C1D4
:1041450018C119C11AC11BC11EC122C124C125C173
:1041550008C111C121C184C106C105C112C10AC16D
:104165009FC11CC10CC107C100C10BC109C18EC1D2
:0341750020C11056
:104CA600C2B6124CB9124CB9124CB9D2B6124CB9A2
:034CB600024CB9F4
:0845280074B69000D6F07F018B
:05453000900264EFF0B1
:10453500D2B6C226C2B5900266123EF500000FA0A3
:1045450030B445202642900266E0FCA3E0FDA3E0DE
:10455500FEA3E0FFEF24FFFFEE34FFFEED34FFFD89
:10456500EC34FFFC900266123EE9900266E0FCA383
:10457500E0FDA3E0FEA3E0FFEC4D4E4F70C2D22656
:10458500D2B6D2B4D2B580B8202629E4900265F01F
:10459500900264E0FFA3E0FEC39F501874D62EF589
:1045A50082E43400F583E0F5A0124CA6900265E0A4
:1045B50004F080DCD2B6D2B520260C124C94124CF5
:0945C50094124C94124C94A226AD
:0145CE0022CA
:10477C0090025FE02402F09000FBE024D0FF900256
:07478C005FE0FD3395E0FC46
:08479300900260ECF0A3EDF0D0
:10479B00E4A3F0A3F0FEFDFCEFC39464748094805B
:1047AB004007749C2FFF0E80EFEFC3940A74809424
:1047BB0080400774F62FFF0D80EFAC07ED4430FF00
:1047CB00900260E0FAA3E0FB2463F58274013AF5F2
:1047DB0083EFF0EC4430FF74642BF58274013AF5EF
:0347EB0083EFF069
:0147EE0022A8
:104B5900301804D2808002C280301904D2818002C8
:104B6900C281301A04D2828002C282301B03D283EE
:044B790022C28322AF
:10419500E4900263F0D2B5900124F030B4030242FA
:1041A500AC900262F0C2B5A3F0900263E0C3941E26
:1041B5007480948040030242AC90025E123EF5008A
:1041C50000003C30B64A20B447900262E07041904E
:1041D500025EE0FCA3E0FDA3E0FEA3E0FFEF24FF09
:1041E500FFEE34FFFEED34FFFDEC34FFFC90025E84
:1041F500123EE990025EE0FCA3E0FDA3E0FEA3E031
:10420500FFEC4D4E4F70BCA304F0A3741FF080B3B8
:1042150030B60302429A900262E0707920B476A328
:10422500E024D6F582E43400F583E5A0F09001247E
:10423500E004F090025E123EF50000002320B65522
:10424500900262E0704FA3E024D6F582E43400F5D5
:1042550083E5A0F090025EE0FCA3E0FDA3E0FEA3F1
:10426500E0FFEF24FFFFEE34FFFEED34FFFDEC34FD
:10427500FFFC90025E123EE990025EE0FCA3E0FDC9
:10428500A3E0FEA3E0FFEC4D4E4F70B1A304F0A3F5
:10429500741FF080A830B406900263741FF090027A
:0942A50063E004F00241AED2B561
:0142AE0022ED
:054A110090025EEFF0D1
:104A16007E0054F0FFEEC4F854F0C868FEEFC454AC
:104A26000F484430FF124C2090025EE07E00540F87
:064A36004430FF024C2099
:1043A2009000D67402F0EF24FE600B04700E9000B1
:1043B200D77456F080069000D7744FF09002607464
:1043C20015F0900260E0D39425748094805021E02F
:1043D200FF2427F582E43401F583E0FE74C32FF550
:1043E20082E43400F583EEF0900260E004F080D2C3
:1043F2009000E87403F030B43D7F131245309220F0
:10440200302072E4900260F0900260E0C394137472
:104412008094805054E0FF24D6F582E43400F58382
:10442200E0FE74E92FF582E43401F583EEF09002A8
:1044320060E004F080D2E4900260F0900260E0C399
:104442009413748094805021E0FF24D6F582E434E2
:1044520000F583E0FE74E92FF582E43401F583EE82
:10446200F0900260E004F080D29001DC7413F090CE
:0544720000FA741CF0CB
:014477002222
:104AE300900260EFF030B40BE012452A92203020A0
:104AF3001680009001DC7401F0900260E09001E9FF
:084B0300F09000FA742AF02280
:10223B00900125E024F97003022EE12404600302CF
:10224B0035BF900202E0701B7F04124CCBE490016F
:10225B0025F020B7030235C49000D674AAF07F0195
:10226B00024530900202E054016401600302290828
:10227B00200C0302272E90025FF0E0FF04F0EF33F7
:10228B0095E0FE74632FF58274013EF5837402F0C2
:10229B0090025FE0FF04200D15F0EF3395E0FE7424
:1022AB00632FF58274013EF5837461F08013F0EFB8
:1022BB003395E0FE74632FF58274013EF58374430E
:1022CB00F0E490025EF09000F7E0FF90025EE0FD1C
:1022DB00FB3395E0FAC3EB9F7480F86A985033EDAB
:1022EB00FF3395E0FE74C82FF58274013EF583E051
:1022FB00FF90025FE0FE04F0EEFD3395E0FC7463AB
:10230B002DF58274013CF583EFF090025EE004F052
:10231B0080B490025FE0FF04F0EF3395E0FE74634E
:10232B002FF58274013EF583742CF030072090005A
:10233B0022E0FF90025FE0FE04F0EEFD3395E0FC3F
:10234B0074632DF58274013CF583EFF080199002D4
:10235B005FE0FF04F0EF3395E0FE74632FF58274BA
:10236B00013EF5837430F0200E0302244A9000FCEA
:10237B00E0FFB4481890025FE0FE04F0EEFD3395E9
:10238B00E0FC74632DF58274013C0224A8EFB45475
:10239B001790025FE0FF04F0EF3395E0FE74632FBC
:1023AB00F58274013E0224A89000FCE0FFB44D18A6
:1023BB0090025FE0FE04F0EEFD3395E0FC74632DBC
:1023CB00F58274013C02248DEFB4431790025FE059
:1023DB00FF04F0EF3395E0FE74632FF58274013E3A
:1023EB000224A830084320972A90025FE0FF0420C4
:1023FB00B711F0EF3395E0FE74632FF58274013E55
:10240B000224A8F0EF3395E0FE74632FF58274017C
:10241B003E806F90025FE0FF04F0EF3395E0FE74B7
:10242B00632FF58274013E805990025FE0FF04F048
:10243B00EF3395E0FE74632FF58274013E805E30BE
:10244B00084720972990025FE0FF0420B710F0EFB8
:10245B003395E0FE74632FF58274013E803FF0EFFD
:10246B003395E0FE74632FF58274013E8014900265
:10247B005FE0FF04F0EF3395E0FE74632FF5827499
:10248B00013EF5837431F0801990025FE0FF04F098
:10249B00EF3395E0FE74632FF58274013EF5837480
:1024AB0030F090025FE0FF04F0EF3395E0FE7463D1
:1024BB002FF58274013EF583742CF09001221247A4
:1024CB008612477C90025FE02402F0900195124740
:1024DB008690025FE02402F09001961247869002EC
:1024EB005FE02402F090010F12478690025FE02418
:1024FB0002F0300D0302270EE0FF04F0EF3395E0FE
:10250B00FE74632FF58274013EF583742CF0300753
:10251B007390012312478690025FE02402F0900033
:10252B00FD12478690025FE02402F090019712475C
:10253B008690025FE02402F0900198124786900289
:10254B005FE02402F090011012478690025FE024B6
:10255B0002F0E0FF04F0EF3395E0FE74632FF58299
:10256B0074013EF583742CF090025FE0FF04F0EFF2
:10257B003395E0FE74632FF58274013EF58374206E
:10258B00F00226F390025FE0FF04F0EF3395E0FEDC
:10259B0074632FF58274013EF5837430F090025F03
:1025AB00E0FF04F0EF3395E0FE74632FF5827401C6
:1025BB003EF5837430F090025FE0FF04F0EF33954B
:1025CB00E0FE74632FF58274013EF5837430F09056
:1025DB00025FE0FF04F0EF3395E0FE74632FF582AA
:1025EB0074013EF5837430F090025FE0FF04F0EF6E
:1025FB003395E0FE74632FF58274013EF5837430DE
:10260B00F090025FE0FF04F0EF3395E0FE74632F70
:10261B00F58274013EF5837430F090025FE0FF04A5
:10262B00F0EF3395E0FE74632FF58274013EF58372
:10263B007430F090025FE0FF04F0EF3395E0FE742E
:10264B00632FF58274013EF5837430F090025FE0E6
:10265B00FF04F0EF3395E0FE74632FF58274013EB7
:10266B00F5837430F090025FE0FF04F0EF3395E0F8
:10267B00FE74632FF58274013EF5837430F0900283
:10268B005FE0FF04F0EF3395E0FE74632FF5827487
:10269B00013EF583742CF0E490025EF09001ACE007
:1026AB00FF90025EE0FDFB3395E0FAC3EB9F748075
:1026BB00F86A985033EDFF3395E0FE74AD2FF58239
:1026CB0074013EF583E0FF90025FE0FE04F0EEFD47
:1026DB003395E0FC74632DF58274013CF583EFF0C8
:1026EB0090025EE004F080B490025FE0FF04F0EF34
:1026FB003395E0FE74632FF58274013EF583742CE1
:10270B00F0800090025FE0FF04F0EF3395E0FE7481
:10271B00632FF58274013EF5837403F090025FE042
:10272B000229019001637402F0900126E0FF701002
:10273B00900164200D057441F0800A7443F080050C
:10274B00900164EFF0900091E090025FF0E4900252
:10275B005EF0900091E0FF90025EE0FD3395E0FCAF
:10276B00C3ED9F7480F86C985026E0FF3395E0FE24
:10277B0074C82FF58274013EF583E0FF74652DF567
:10278B008274013CF583EFF090025EE004F080C2AE
:10279B0090025FE0FF3395E0FE74652FF5827401C4
:1027AB003EF583742CF0302413900022E0FD746608
:1027BB002FF58274013EF583EDF0801690025FE0F9
:1027CB00FF3395E0FE74662FF58274013EF583743A
:1027DB0030F03004679000FCE0FFB448089000F83C
:1027EB007404F08039EFB454089000F87403F0804F
:1027FB002DEFB442089000F87402F08021EFB44D35
:10280B0002800EEFB44302801030080D2097028037
:10281B00089000F87401F08005E49000F8F0900047
:10282B00F8E02430FF90025FE0FD3395E0FC746725
:10283B002DF58274013CF583EFF0803630081D9046
:10284B00025FE0FF3395E0FE74672F20970280183C
:10285B00F58274013EF5837431F0801690025FE0CF
:10286B00FF3395E0FE74672FF58274013EF5837498
:10287B0030F090025FE0FF300D673395E0FE746837
:10288B002FF58274013EF583742CF090025FE024E7
:10289B0006F090012212478612477C90025FE024DB
:1028AB0002F090019512478690025FE02402F090AF
:1028BB00019612478690025FE02402F090010F12FE
:1028CB00478690025FE02402F0E0FFFD3395E0FCC9
:1028DB0074632DF58274013CF5837403F0EF04806F
:1028EB0015FD3395E0FC74682DF58274013CF5837E
:1028FB007403F0EF2406FF124BB70235BF900202B0
:10290B00E0540264026003022ECCD2119000F974E1
:10291B001CF0E4F58CF58AC28D300503022B7A206E
:10292B000B03022B069001637402F0A37477F090F3
:10293B00029FE0FDC4540F2430900165F0ED540F5D
:10294B002430A3F09002A0E0FDC4540F243090017A
:10295B0067F0ED540F2430A3F09002A1E0FDC454B6
:10296B000F2430900169F0ED540F2430A3F0A374C1
:10297B002CF0A37430F03004559000FCE0FFB44809
:10298B00089000F87404F08039EFB454089000F804
:10299B007403F0802DEFB442089000F87402F080BD
:1029AB0021EFB44D02800EEFB44302801030080DBE
:1029BB0020970280089000F87401F08005E49000E5
:1029CB00F8F09000F8E0243090016DF0801630089C
:1029DB000D90016D20970280087431F080069001F4
:1029EB006D7430F090016E742CF0900122E024D0C5
:1029FB00FF7D0C7C001247939000FBE024D0FF7D01
:102A0B000E7C00124793900195E024D0FF7D107C43
:102A1B0000124793900196E024D0FF7D127C0012A8
:102A2B00479390010FE024D0FF7D147C0012479355
:102A3B00900179742CF0900123E024D0FF7D177C5A
:102A4B00001247939000FDE024D0FF7D197C00120B
:102A5B004793900197E024D0FF7D1B7C0012479396
:102A6B00900198E024D0FF7D1D7C001247939001CC
:102A7B0010E024D0FF7D1F7C001247939000F5746B
:102A8B0021F0E0FF04F074632FF582E43401F58349
:102A9B00742CF0301C4EE490025EF09000D5E0FFF9
:102AAB0090025EE0FDFB3395E0FAC3EB9F7480F878
:102ABB006A984003022D3CEDFF3395E0FE74AD2F79
:102ACB00F58274013EF583E0FF9000F5E0FE04F023
:102ADB0074632EF582E43401F583EFF090025EE02F
:102AEB0004F080B79000F5E0FF04F074632FF582DB
:102AFB00E43401F5837420F0022D3C9001637402E1
:102B0B00F0A37442F090029FE0FDC4540F24309068
:102B1B000165F0ED540F2430A3F09002A0E0FDC44A
:102B2B00540F2430900167F0ED540F2430A3F09034
:102B3B0002A1E0FDC4540F2430900169F0ED540F55
:102B4B002430A3F0A3742CF0A37430F030080F20C2
:102B5B009704A3F0800E90016D7431F08006900104
:102B6B006D7430F090016E7403F07F0C022EC690E2
:102B7B0001637402F0A37477F090029FE0FDC454DC
:102B8B000F2430900165F0ED540F2430A3F0900228
:102B9B00A0E0FDC4540F2430900167F0ED540F24D6
:102BAB0030A3F09002A1E0FDC4540F2430900169D2
:102BBB00F0ED540F2430A3F0A3742CF0A37430F079
:102BCB003004559000FCE0FFB448089000F8740402
:102BDB00F08039EFB454089000F87403F0802DEFB7
:102BEB00B442089000F87402F08021EFB44D0280DB
:102BFB000EEFB44302801030080D2097028008902E
:102C0B0000F87401F08005E49000F8F09000F8E013
:102C1B00243090016DF0801630080D90016D2097D7
:102C2B000280087431F0800690016D7430F09001D1
:102C3B006E742CF0900122E024D0FF7D0C7C0012EE
:102C4B0047939000FBE024D0FF7D0E7C001247934E
:102C5B00900195E024D0FF7D107C001247939001EA
:102C6B0096E024D0FF7D127C0012479390010FE079
:102C7B0024D0FF7D147C00124793201203022DB049
:102C8B00900179742CF0900123E024D0FF7D177C08
:102C9B00001247939000FDE024D0FF7D197C0012B9
:102CAB004793900197E024D0FF7D1B7C0012479344
:102CBB00900198E024D0FF7D1D7C0012479390017A
:102CCB0010E024D0FF7D1F7C001247939000F57419
:102CDB0021F0E0FF04F074632FF582E43401F583F7
:102CEB00742CF0301C7BE490025EF09000D5E0FF7A
:102CFB0090025EE0FDFB3395E0FAC3EB9F7480F826
:102D0B006A98502DEDFF3395E0FE74AD2FF582746C
:102D1B00013EF583E0FF9000F5E0FE04F074632EB6
:102D2B00F582E43401F583EFF090025EE004F0806D
:102D3B00BA9000F5E0FF04F074632FF582E43401E0
:102D4B00F583742CF09000F5E0FF04F074632FF51D
:102D5B0082E43401F5837403F09000F5E0FF022E5A
:102D6B00C69000F5E0FF04F074632FF582E43401A4
:102D7B00F5837420F09000F5E0FF04F074632FF5F9
:102D8B0082E43401F583742CF09000F5E0FF04F03D
:102D9B0074632FF582E43401F5837403F09000F52E
:102DAB00E0FF022EC6900179742CF07D177C00E4B5
:102DBB00FF1247937D197C00E4FF1247937D1B7C28
:102DCB0000E4FF1247937D1D7C00E4FF1247937DC7
:102DDB001F7C00E4FF1247939000F57421F0E0FF95
:102DEB0004F074632FF582E43401F583742CF02026
:102DFB001C03022E85C21CE490025EF09000D5E00D
:102E0B0024FFFFE434FFFE90025EE0FDFB3395E010
:102E1B00FAC3EB9FEE6480F8EA648098502DEDFFC7
:102E2B003395E0FE74AD2FF58274013EF583E0FF20
:102E3B009000F5E0FE04F074632EF582E43401F5A6
:102E4B0083EFF090025EE004F080B19000F5E0FFBC
:102E5B0004F074632FF582E43401F583742CF09045
:102E6B0000F5E0FF04F074632FF582E43401F58381
:102E7B007403F09000F5E0FF80419000F5E0FF0453
:102E8B00F074632FF582E43401F5837420F0900025
:102E9B00F5E0FF04F074632FF582E43401F58374DD
:102EAB002CF09000F5E0FF04F074632FF582E4340E
:102EBB0001F5837403F09000F5E0FF124BB7023578
:102ECB00BF900202E0FF5404640460030235C4EFB8
:102EDB0054FBF00235BF9000D4E02492F582E43429
:102EEB0000F583E4F030064CC20690025EF09000D1
:102EFB00D4E0FFFD90025EE0FEFB3395E0FAC3EBFE
:102F0B009D7480F86A985026EEFD3395E0FC749220
:102F1B002DF58274003CF583E0FE74D62DF582749A
:102F2B00003CF583EEF090025EE004F080C01245A9
:102F3B0030022FBF9000D4E064196003022FC990B8
:102F4B0000F4E0FF900093E06F7073A3E0644870AF
:102F5B006D1248BBE490025EF09000D4E0FF90024B
:102F6B005EE0FDFB3395E0FAC3EB9F7480F86A9843
:102F7B005026EDFF3395E0FE74922FF58274003EE0
:102F8B00F583E0FD74D62FF58274003EF583EDF0EA
:102F9B0090025EE004F080C11248577F80124C66AD
:102FAB007F53124C207F59124C207F4E124C207FA6
:102FBB0043124C20D216E4900125F00235B7900055
:102FCB00D4E0FF7E00C394067480948050030235D6
:102FDB00B7EF9407748094804011900128E0B4639C
:102FEB000A124530D216E4900125F0900129E0FF3A
:102FFB0064446025EF6441702030031D302108309C
:10300B001117200B148003200B0FD2959000F9742D
:10301B002AF0E4F58CF58AC28D2015030235B7C270
:10302B0015900097E064417031A3E06443702BA3CB
:10303B00E064457025A3E06452701FA3E0645170F7
:10304B0019A3E0B45514A3E0B4450FA3E0B4530A9D
:10305B00A3E0B445057FA102351B900097E06455B2
:10306B007045A3E0644E703FA3E064207039A3E089
:10307B00644D70337F09124AE3900202E054FEF074
:10308B0054FDF0C21CC20CC207C20DE4900126F025
:10309B00900023F0A3F09001E1F0A3F0C20B90009D
:1030AB00FC7420F002351E900093E06458703CA332
:1030BB00E064417036A3E064587030A3E06458704C
:1030CB002AA3E064477024A3E06452701EA3E0645B
:1030DB00417018A3E0B44313A3E0B4490EA3E0B4CA
:1030EB004109A3E0B453047F018054900093E06442
:1030FB00587052A3E06458704CA3E064587046A318
:10310B00E064587040A3E06442703AA3E0644970F5
:10311B0034A3E06445702EA3E0644E7028A3E064F2
:10312B00567022A3E06445701CA3E0B44E17A3E0D5
:10313B00B44912A3E0B4440DA3E0B44F087F0212CC
:10314B0043A202351E900093E06458706DA3E064B7
:10315B00587067A3E064587061A3E06458705BA378
:10316B00E0644D7055A3E06445704FA3E0644E706E
:10317B0049A3E064537043A3E06455703DA3E0643E
:10318B00417037A3E0644C7031A3E06420702BA333
:10319B00E0644E7025A3E0644F701FA3E0642070C1
:1031AB0019A3E0B44514A3E0B4530FA3E0B4540A3D
:1031BB00A3E0B441057FB202351B900093E0645845
:1031CB00706DA3E064587067A3E064587061A3E06E
:1031DB006458705BA3E0644D7055A3E06445704F79
:1031EB00A3E0644E7049A3E064537043A3E06455BD
:1031FB00703DA3E064417037A3E0644C7031A3E0F1
:10320B006420702BA3E064597025A3E06441701F08
:10321B00A3E064207019A3E0B44514A3E0B4530FEA
:10322B00A3E0B4540AA3E0B441057FB302351B906D
:10323B000093E064587079A3E064587073A3E06462
:10324B0058706DA3E064587067A3E0644D7061A380
:10325B00E06445705BA3E0644E7055A3E06453706B
:10326B004FA3E064557049A3E064417043A3E0644D
:10327B004C703DA3E064207037A3E064467031A32B
:10328B00E06455702BA3E064457025A3E064527095
:10329B001FA3E064417019A3E0B42014A3E0B4446D
:1032AB000FA3E0B4450AA3E0B452057FB402351B6B
:1032BB00900093E064587079A3E064587073A3E0B6
:1032CB006458706DA3E064587067A3E0644D70613F
:1032DB00A3E06445705BA3E0644E7055A3E06453B8
:1032EB00704FA3E064557049A3E064417043A3E0C1
:1032FB00644C703DA3E064207037A3E064467031EA
:10330B00A3E06455702BA3E064457025A3E06452E1
:10331B00701FA3E064417019A3E0B42014A3E0B4C0
:10332B00440FA3E0B4450AA3E0B448057FB50235CA
:10333B001B900093E06458704FA3E064587049A34E
:10334B00E064587043A3E06458703DA3E0644E7092
:10335B0037A3E0644F7031A3E06420702BA3E064CB
:10336B00457025A3E06453701FA3E064207019A37C
:10337B00E0B44D14A3E0B4450FA3E0B44E0AA3E0B0
:10338B00B453057FB102351B900093E06458704F26
:10339B00A3E064587049A3E064587043A3E06458F9
:1033AB00703DA3E0644E7037A3E0644F7031A3E02F
:1033BB006420702BA3E064527025A3E06445701F5A
:1033CB00A3E064477019A3E0B44914A3E0B4530F0E
:1033DB00A3E0B4540AA3E0B452057F0402351B905A
:1033EB000093E06458704FA3E064587049A3E06405
:1033FB00587043A3E06458703DA3E0644C7037A34E
:10340B00E0644F7031A3E06454702BA3E06445700B
:10341B0025A3E06420701FA3E064417019A3E0B4FE
:10342B005314A3E0B4490FA3E0B4470AA3E0B44E8E
:10343B00057F0502351B900093E064587066A3E08E
:10344B0064587060A3E06458705AA3E064587054D9
:10345B00A3E0644D704EA3E064457048A3E0644E56
:10346B007042A3E06453703CA3E064557036A3E054
:10347B0064417030A3E0644C702AA3E06420702494
:10348B00A3E06445701EA3E064587018A3E0B44336
:10349B0013A3E0B4450EA3E0B44409A3E0B4450480
:1034AB007F07806C900093E064587067A3E06458CA
:1034BB007061A3E06458705BA3E064587055A3E09F
:1034CB00644D704FA3E064457049A3E0644E7043B4
:1034DB00A3E06453703DA3E064557037A3E06441EF
:1034EB007031A3E0644C702BA3E064207025A3E043
:1034FB00644E701FA3E0644F7019A3E0B42014A3B3
:10350B00E0B4500FA3E0B4410AA3E0B447057F0831
:10351B00124AE37F80124C6690025E7405F09002B3
:10352B005EE0FFFD3395E0FCC3ED9415EC648094F5
:10353B0080502BEF3395E0FE74922FF58274003E92
:10354B00F583E06403601774922FF58274003EF5E7
:10355B0083E0FF124C2090025EE004F080C07FC03D
:10356B00124C6690025E7415F090025EE0FFFD3324
:10357B0095E0FCD3ED9426EC64809480502EEF33D1
:10358B0095E0FE74922FF58274003EF583E06403A0
:10359B00601A201E0F74922FF58274003EF583E0A3
:1035AB00FF124C2090025EE004F080BDE4900125F8
:0935BB00F0D21622E4900125F083
:0135C40022E4
:1000260078037C027D017BFF7A43794D7E007F1148
:10003600123E9678147C027D017BFF7A43795E7EC0
:10004600007F11123E9678257C027D017BFF7A4364
:10005600796F7E007F11123E9678367C027D017B99
:10006600FF7A4379807E007F11123E9678477C02A4
:100076007D017BFF7A4379917E007F11123E9612B5
:100086004C071200061248BBE58954F04401F58975
:10009600C28DE4F58CF58AD28CC296C295C294D2F2
:1000A600B6D201900023F0A3F09001E1F0A3F09006
:1000B60000F6741EF09000F9741CF0C213C280C2E0
:1000C60018C281C219C282C21AC283C21BC20DE4FF
:1000D600900126F0C205C20CC2079000FAF090010A
:1000E600DDF0A3F0C2009001FDF0A3F0C210C21D26
:1000F600D203D208D20ED221D204A3F0A3F0C209B1
:100106007BFF7A4279AFFDFF1200167FC0124C6664
:100116007B017A027914124A66124A90D2B5D2B697
:1001260075A0FF90025DE5A0F09002C8E064016052
:100136000302041930B703020419201F030201FE4B
:100146009000F6741EF0124B9B1249B0301D5D9064
:1001560001FDE07002A3E070519000D67402F0A396
:100166007457F090029FE0FF9000D8F09002A0E054
:10017600FE9000D9F09002A1E0FD9000DAF0A374A1
:1001860003F090005AEFF0A3EEF0A3EDF09000D448
:100196007406F0FF124530900202E054FDF0900123
:1001A600FD7402F0A37430F0806280599000D6741A
:1001B60002F0A37457F090029FE09000D8F09002EE
:1001C600A0E09000D9F09002A1E09000DAF0A374CC
:1001D60003F09000D47406F0FF12453090020274CA
:1001E60002F0C20B9001E1E4F0A37405F090012542
:1001F6007403F012223B80147BFF7A4279C0E4FD3F
:100206007F01120016900202E054FDF0200903025D
:10021600044090029FE0FF7E006476700CA3E064C9
:10022600D67006A3E0640B603DEF64244E700E901A
:1002360002A0E064547006A3E064E4607B90029F31
:10024600E06495700AA3E07006A3E064D560699047
:10025600029FE0FF7E00645F700FA3E064D7700921
:10026600A3E064847003020406EF64954E700C905C
:1002760002A0E07006A3E064F2603D90029FE06495
:1002860060700CA3E064407006A3E064946029905B
:10029600029FE0FF7E006495700AA3E07006A3E06B
:1002A60064F36014EF64374E70119002A0E0643678
:1002B6007009A3E06424700302040690029FE064C0
:1002C60095700CA3E064017006A3E06410603F9093
:1002D600029FE0FF7E00647F700CA3E064757006E9
:1002E600A3E064446028EF64954E700E9002A0E08F
:1002F60064017006A3E06411601490029FE0641725
:10030600700FA3E064EE7009A3E064247003020496
:100316000690029FE0FF7E006495700CA3E0644F98
:100326007006A3E064D7603FEF64674E700E9002DC
:10033600A0E064177006A3E064B4602B90029FE00F
:100346006494700CA3E064EA7006A3E06475601719
:1003560090029FE0FF7E00647C700FA3E064DE7075
:1003660009A3E064347003020406EF64944E700E31
:100376009002A0E064EB7006A3E06458602B900244
:100386009FE06417700CA3E064167006A3E064D4C3
:10039600601790029FE0FF7E00648F700EA3E064FA
:1003A600427008A3E064D670028055EF64954E70E3
:1003B6000E9002A0E0641D7006A3E064BC60149079
:1003C600029FE06426700EA3E064127008A3E06446
:1003D600847002802B90029FE0FF7E006482700C86
:1003E600A3E064887006A3E064146014EF64514EC1
:1003F60070489002A0E064C17040A3E06414703AB3
:10040600D296D2959000F9742AF0E4F58CF58AC25A
:100416008D80279002C8E06401701F124B9B124921
:10042600B07F06124AE37BFF7A4279D1E4FD7F0171
:10043600120016900202E054FDF030B403021FEEE3
:100446009000D674FFF0A3F0124195900124E0705D
:1004560003021FEE6401700A9000D6E06406700283
:10046600D21F900124E0640160030207969000D633
:10047600E0FF7E00C394DF748094805003020796E9
:10048600D3EF94EF7480948040030207961248BB22
:100496009000D6E0FF64E2600AEF64E36005EF6473
:1004A600E4703A7FC0124C66E4900258F09002580D
:1004B600E024C3F582E43400F583E0FF600B124CC0
:1004C60020900258E004F080E47FCE124C66900043
:1004D600D6E0540F2430FF124C200207849000D639
:1004E600E064E070297FC0124C66E4900258F090F8
:1004F6000258E02411F582E43401F583E0FF70032D
:10050600020784124C20900258E004F080E190002B
:10051600D6E064E1700F7BFF7A4279E2FD7F01123B
:1005260000160207849000D6E064E570297FC012A9
:100536004C66E4900258F0900258E024B7F582E445
:100546003401F583E0FF7003020784124C20900209
:1005560058E004F080E19000D6E064E670297FC0A0
:10056600124C66E4900258F0900258E02411F5828D
:10057600E43400F583E0FF7003020784124C2090F8
:100586000258E004F080E19000D6E064E770187F3E
:10059600C0124C667BFF7A4279F3124A667F107E60
:1005A60027124C7C0207849000D6E064E870297F0D
:1005B600C0124C66E4900258F0900258E0245EF5B2
:1005C60082E43400F583E0FF7003020784124C20B6
:1005D600900258E004F080E19000D6E064E97029CA
:1005E6007FC0124C66E4900258F0900258E0242531
:1005F600F582E43400F583E0FF7003020784124CB1
:1006060020900258E004F080E19000D6E064EA70A1
:10061600297FC0124C66E4900258F0900258E024FC
:10062600FEF582E43400F583E0FF700302078412CE
:100636004C20900258E004F080E19000D6E064EB94
:1006460070297FC0124C66E4900258F0900258E080
:100656002480F582E43400F583E0FF70030207840A
:10066600124C20900258E004F080E19000D6E0643D
:10067600EC70297FC0124C66E4900258F090025844
:10068600E02400F582E43400F583E0FF70030207FE
:1006960084124C20900258E004F080E19000D6E0ED
:1006A60064ED70297FC0124C66E4900258F0900207
:1006B60058E02425F582E43402F583E0FF70030256
:1006C6000784124C20900258E004F080E19000D696
:1006D600E064EE70297FC0124C66E4900258F090F8
:1006E6000258E02436F582E43402F583E0FF700315
:1006F600020784124C20900258E004F080E190003A
:10070600D6E064EF705F7FC0124C667F54124C20B7
:100716007F41124C207F52124C207F4A124C207F80
:1007260045124C207F54124C207F41124C207F20D2
:10073600124C207F41124C207F54124C207F4112D4
:100746004C207F53124C207F43124C207F41124C89
:10075600207F44124C207F41124C20D20A9000F98F
:10076600741CF080199000D6E064DF70111248BB4B
:100776007FC0124C667BFF7A437904124A66D21E0A
:100786009000F9741CF0E4F58CF58AC28D021FEE18
:10079600900124E0FF7E006401700E9000D6E064B4
:1007A600A07006D218D280803BEF64014E70219073
:1007B60000D6E064A17019D219D2819000F9741C98
:1007C600F07BFF7A437915E4FDFF120016021FEE57
:1007D600900124E0640170159000D6E064A2700DCB
:1007E600D21AD2829000F9741CF0021FEE900124F6
:1007F600E0FF7E00640170159000D6E064A3700DE2
:10080600D21BD2839000F9742AF0021FEEEF640126
:100816004E70589000D6E064AF70507FC0124C66A0
:100826007F43124C207F4F124C207F4E124C207F6C
:1008360054124C207F2E124C207F20124C207F45D4
:10084600124C207F56124C207F4E124C207F2012D5
:100856004C207F49124C207F4E124C207F49124C6F
:10086600207F43124C207F49020AAB900124E064AA
:100876000170429000D6E0644E703AD2037F801237
:100886004C66E4900258F0900258E02403F582E4A6
:100896003402F583E0FF600B124C20900258E0040E
:1008A600F080E47F8D124C667F4E124C20201D0393
:1008B600021FEE8048900124E06401704A9000D641
:1008C600E064537042C2037F80124C66E490025883
:1008D600F0900258E02403F582E43402F583E0FF49
:1008E600600B124C20900258E004F080E47F8D12D9
:1008F6004C667F53124C20201D03021FEE7F2012F0
:100906004C207F4D021067900124E0640170329004
:1009160000D6E0B4502BC2037FC0124C66E49002AE
:1009260058F0900258E02436F582E43400F583E06E
:10093600FF7003021FEE124C20900258E004F08074
:10094600E1900124E0640170309000D6E0B44429BF
:100956007FC0124C66E4900258F0900258E024479B
:10096600F582E43402F583E0FF7003021FEE124CB9
:1009760020900258E004F080E1900124E0640170C8
:100986005D9000D6E064F170557FC0124C667F55CD
:10099600124C207F4E124C207F20124C207F4D128D
:1009A6004C207F4F124C207F4D124C207F45124C1D
:1009B600207F4E124C207F54124C207F4F124C2029
:1009C6007F2E124C207F2E124C207F2E124C207F21
:1009D60020124C207F20124C207F200210679001AD
:1009E60024E06401705D9000D6E064F370557FC02A
:1009F600124C667F50124C207F49124C207F4312C6
:100A06004C207F4F124C207F20124C207F59124CD5
:100A1600207F20124C207F50124C207F4C124C20FD
:100A26007F41124C207F43124C207F41124C207F85
:100A36002E124C207F2E124C207F2E124C207F200F
:100A4600021067900124E0640170629000D6E064B1
:100A5600F8705A7FC0124C667F56124C207F4512A2
:100A66004C207F48124C207F49124C207F2E124C7E
:100A7600207F20124C207F49124C207F4E124C20A2
:100A86007F56124C207F41124C207F4C124C207F07
:100A960049124C207F44124C207F4F124C207F2E4F
:100AA600124C207F2E124C207F2E021067900124BC
:100AB600E06401705D9000D6E064F970557FC01265
:100AC6004C667F53124C207F41124C207F4C124CB7
:100AD600207F49124C207F44124C207F41124C202B
:100AE6007F20124C207F52124C207F45124C207FD3
:100AF60043124C207F48124C207F41124C207F5AD3
:100B0600124C207F41124C207F44124C207F410220
:100B16001067900124E06401705D9000D6E064FAED
:100B260070557FC0124C667F53124C207F49124C81
:100B3600207F4E124C207F20124C207F54124C20D6
:100B46007F41124C207F52124C207F4A124C207F4C
:100B560045124C207F54124C207F41124C207F536B
:100B6600124C207F20124C207F20124C207F201216
:100B76004C207F20021067900124E06401705D9094
:100B860000D6E064B570557FC0124C667F46124CA5
:100B9600207F55124C207F45124C207F52124C204C
:100BA6007F41124C207F20124C207F44124C207F24
:100BB60045124C207F20124C207F48124C207F4F3C
:100BC600124C207F52124C207F41124C207F521231
:100BD6004C207F49124C207F4F021067900124E081
:100BE60064016003020CA29000D6E064B8600302C0
:100BF6000CA27F80124C667F20124C207F45124C3F
:100C0600207F4E124C207F54124C207F52124C20D3
:100C16007F41124C207F44124C207F41124C207F92
:100C260020124C207F46124C207F55124C207F45C7
:100C3600124C207F52124C207F41124C207F2012F2
:100C46004C207F20124C207FC0124C667F44124CF1
:100C5600207F45124C207F20124C207F48124C20CA
:100C66007F4F124C207F52124C207F41124C207F26
:100C760052124C207F49124C207F4F124C207F206D
:100C8600124C207F2D124C207F43124C207F4112A4
:100C96004C207F4A124C207F41021067900124E0CD
:100CA60064016003020D629000D6E064B96003023D
:100CB6000D627F80124C667F44124C207F49124C95
:100CC600207F41124C207F20124C207F44124C2062
:100CD6007F45124C207F20124C207F41124C207FF2
:100CE60043124C207F43124C207F45124C207F53E9
:100CF600124C207F4F124C207F20124C207F201256
:100D06004C207F20124C207FC0124C667F49124C2B
:100D1600207F4E124C207F56124C207F41124C20D1
:100D26007F4C124C207F49124C207F44124C207F6E
:100D36004F124C207F20124C207F20124C207F2007
:100D4600124C207F20124C207F20124C207F201234
:100D56004C207F20124C207F20021067900124E057
:100D66006401705D9000D6E064FB70557FC0124C44
:100D7600667F45124C207F52124C207F52124C2027
:100D86007F4F124C207F52124C207F20124C207F26
:100D960054124C207F52124C207F41124C207F4E21
:100DA600124C207F53124C207F50124C207F4F1242
:100DB6004C207F52124C207F54124C207F4502104B
:100DC60067900124E06401705D9000D6E064FC70D9
:100DD600557FC0124C667F4E124C207F4F124C201E
:100DE6007F20124C207F45124C207F53124C207FCF
:100DF60020124C207F4D124C207F45124C207F4EF6
:100E0600124C207F53124C207F55124C207F4112EA
:100E16004C207F4C124C207F2E124C207F2E124CE1
:100E2600207F2E021067900124E06401705D90001F
:100E3600D6E064FD70557FC0124C667F4E124C2082
:100E46007F4F124C207F20124C207F45124C207F72
:100E560053124C207F20124C207F44124C207F4599
:100E6600124C207F20124C207F52124C207F4F12B2
:100E76004C207F54124C207F41124C207F43124C51
:100E8600207F49124C207F4F021067900124E064B6
:100E960001705D9000D6E064FE70557FC0124C660E
:100EA6007F42124C207F49124C207F45124C207FF6
:100EB6004E124C207F56124C207F45124C207F4EFE
:100EC600124C207F49124C207F44124C207F4F1237
:100ED6004C207F20124C207F20124C207F20124C69
:100EE600207F20124C207F20124C207F200210678A
:100EF600900124E06401705C9000D6E0F470557FA8
:100F060080124C667F47124C207F52124C207F4144
:100F1600124C207F43124C207F49124C207F4112F5
:100F26004C207F53124C207F2E124C207F2E124CC9
:100F3600207F2E124C207F20124C207F20124C2026
:100F46007F20124C207F20124C207F20124C207FC5
:100F5600200210679000D6E06402600302106DA3C1
:100F6600E06469600302106D1248BB7BFF7A437927
:100F760026E4FDFF1200167FC0124C669000D8E0F2
:100F8600FF124A117F2F124C209000D9E0FF124A1F
:100F9600117F2F124C209000DAE0FF124A117F20B9
:100FA600124C209000DBE0FF124A117F3A124C20CF
:100FB6009000DCE0FF124A119000DDE0FF124A11BA
:100FC6007F8C124C669000DEE06401700F7F441245
:100FD6004C207F6F124C207F6D0210679000DEE080
:100FE6006402700E7F4C124C207F75124C207F6E6F
:100FF600806F9000DEE06403700E7F4D124C207F00
:1010060061124C207F7280599000DEE06404700EFD
:101016007F4D124C207F69124C207F6580439000E3
:10102600DEE06405700E7F4A124C207F75124C205C
:101036007F65802D9000DEE06406700E7F56124CB0
:10104600207F69124C207F6580179000DEE06407E0
:101056006003021FEE7F53124C207F61124C207FEB
:1010660062124C20021FEE9000D6E064026003027A
:10107600112BA3E06449600302112B7F80124C669A
:10108600E4900258F0900258E0246FF582E43400B0
:10109600F583E0FF600B124C20900258E004F080CC
:1010A600E4900124E024FE90025DF07FC0124C66BD
:1010B600E49001E3F0900258F090025DE0FF9002A8
:1010C60058E0FEC39F503774D82EF582E43400F5FD
:1010D60083E064037008EF04900258F080189002D1
:1010E60058E024D8F582E43400F583E0FF124C2062
:1010F6009001E3E004F0900258E004F080BBE49035
:101106000258F09001E3E0FFC374109FFF9002586D
:10111600E0C39F4003021FEE7F20124C209002582E
:10112600E004F080DE9000D6E0640260030211C79E
:10113600A3E0644460030211C71248BB7F80124CCF
:10114600667BFF7A437937124A669002587402F03A
:10115600900258E0FF24D6F582E43400F583E0647B
:101166003B601774D62FF582E43400F583E0FF1256
:101176004C20900258E004F080D67FC0124C669056
:101186000258E004F07BFF7A437943124A669002E4
:10119600597402F0900258E0FF24D6F582E4340038
:1011A600F583E0643B7003021FEE74D62FF582E4EC
:1011B6003400F583E0FF124C20900258E004F080E2
:1011C600D39000D6E064027012A3E06405700CA30D
:1011D600E064037006124A3C021FEE9000D6E0FB64
:1011E6007A006402600302128EA3E0645760030271
:1011F600128E900124E0FF24D5F582E43400F583B5
:10120600E06403600302128EEF6412707B9001FDAE
:10121600F0A3F0C205D20B9000DAE090029FF090A6
:1012260000D9E09002A0F09000D8E09002A1F090E2
:1012360000DCE0900122F09000DDE09000FBF090F1
:1012460000DEE0900195F09000DFE0900196F090CE
:1012560000E0E090010FF09000E1E0900123F090B3
:1012660000E2E09000FDF09000E3E0900197F0903E
:1012760000E4E0900198F09000E5E0900110F09015
:1012860000E6E09000FC802FEB64024A703D90007F
:10129600D7E0645770359001FDF0A3F0C205C20B8C
:1012A6009000DAE090029FF09000D9E09002A0F062
:1012B6009000D8E09002A1F0900202E04402F09083
:1012C60001E1E4F0A37405F0021FEE9000D6E0649D
:1012D600027045A3E0644D703F9001FDF0A3F0124B
:1012E60045CFC2059000DAE090029FF09000D9E069
:1012F6009002A0F09000D8E09002A1F0900202E0E7
:101306004402F09001E1E4F0A37405F09001DDE4FD
:10131600F0A3748CF0021FEE9000D6E0FB7A006416
:1013260002600302149DA3E06477600302149D909B
:101336000124E0FF24D5F582E43400F583E064035C
:10134600600302149D9001FDF0A3F0D205C212C203
:101356001C9000DAE090029FF09000D9E09002A085
:10136600F09000D8E09002A1F09000DCE09001221D
:10137600F09000DDE09000FBF09000DEE09001953B
:10138600F09000DFE0900196F09000E0E090010F11
:10139600F07E00EF641270379000E1E0900123F0D8
:1013A6009000E2E09000FDF09000E3E0900197F0FD
:1013B6009000E4E0900198F09000E5E0900110F0D4
:1013C6009000E6E09000FCF0D212C21C02148AD310
:1013D600EF9412EE6480948050030214809000E132
:1013E600E0900123F09000E2E09000FDF09000E331
:1013F600E0900197F09000E4E0900198F09000E50D
:10140600E0900110F0900124E024D4F582E4340049
:10141600F583E09000FCF0D212D21CE49000D5F0E7
:101426009001E0740AF09002587410F0900124E0E4
:10143600FF24FEFE900258E0FDC39E504774D62D51
:10144600F582E43400F583E064039002586021E0FD
:10145600FE24D6F582E43400F583E0FD749D2EF576
:1014660082E43401F583EDF09000D5E004F08002CB
:10147600EFF0900258E004F080B29000E1E09000B6
:10148600FCF0C212900202E04402F09001E1E4F0A6
:10149600A3740AF0021FEEEB64024A6003021616FA
:1014A6009000D7E0FF64506017EF64546012EF6459
:1014B60056600DEF64456008EF6447600302161638
:1014C600E49001FDF0A3F0900126EFF0900124E0F6
:1014D600900091F0124BD3C20DC2247F80124C664D
:1014E6009002587403F0900091E0FF900258E0FEDD
:1014F600C39F400302158174D62EF582E43400F5AD
:1015060083E0C39430401074D62EF582E43400F59F
:1015160083E0D39439403D74D62EF582E43400F549
:1015260083E0C39441401074D62EF582E43400F56E
:1015360083E0D3945A401D74D62EF582E43400F528
:1015460083E0642D600E74D62EF582E43400F583B4
:10155600E0B42E04D2258008C225EF04900258F08C
:10156600900258E024D6F582E43400F583E0FF12B9
:101576004C20900258E004F00214EC202503021FD0
:10158600DFE4900259F09000FCF0900258F09000D1
:1015960091E0FF900258E0FEC39F502A74D62EF5C4
:1015A60082E43400F583E0B42E1474D72EF582E479
:1015B6003400F583E09000FCF0900258EFF09002C2
:1015C60058E004F080C89000FCE06007900091E0CD
:1015D60024FBF0900202E04401F0E4900258F090FF
:1015E6000091E0FF900258E0FEC39F4003021FDF18
:1015F60074D92EF582E43400F583E0FF74C82EF525
:1016060082E43401F583EFF0900258E004F080CFD5
:101616009000D6E064026003021772A3E064616082
:1016260003021772900124E024D5F582E43400F514
:1016360083E0640360030217729001FDF0A3F0D209
:101646000CC2079000F7F09002587402F090012443
:10165600E0FC900258E0FEC39C502174D62EF58221
:10166600E43400F583E0B42D0BEE049001AAF0906B
:101676000258ECF0900258E004F080D190025874C1
:1016860002F09001AAE014FF900258E0FEC39F50BA
:101696002674D62EF582E43400F583E0FF74C62E58
:1016A600F582E43401F583EFF09000F7E004F09062
:1016B6000258E004F080CB9001AAE0FF04F074D653
:1016C6002FF582E43400F583E0900122F09001AA20
:1016D600E0FF04F074D62FF582E43400F583E09041
:1016E60000FBF09001AAE0FF04F074D62FF582E427
:1016F6003400F583E0900195F09001AAE0FF04F034
:1017060074D62FF582E43400F583E0900196F090CC
:1017160001AAE0FF04F074D62FF582E43400F583C5
:10172600E090010FF0E49001ACF09001AAE0049083
:101736000258F0900124E014FF900258E0FEC39F87
:101746004003021B4274D62EF582E43400F583E092
:10175600FF9001ACE0FE04F074AD2EF582E4340196
:10176600F583EFF0900258E004F080C79000D6E0D1
:1017760064026003021974900124E024D5F582E422
:101786003400F583E0640360030219749000D7E027
:10179600FF646D6017EF646E6012EF646F600DEFAB
:1017A60064416008EF64526003021974EF646E705E
:1017B600499001FDF0A3F0C21D7F80124C66E490B3
:1017C6000258F0900258E02403F582E43402F583CF
:1017D600E0FF600B124C20900258E004F080E47F9A
:1017E6008D124C663003047F4E80027F53124C20CC
:1017F6007F20124C207F4E0218EF9000D7E0646DD8
:101806007043D21D7F80124C66E4900258F090021D
:1018160058E02403F582E43402F583E0FF600B12FE
:101826004C20900258E004F080E47F8D124C663024
:1018360003047F4E80027F53124C207F20124C20DF
:101846007F4D0218EF9000D7E0646F60030218F432
:10185600A3E064307048C21D9001FDF0A3F07F80C4
:10186600124C66E4900258F0900258E02403F58288
:10187600E43402F583E0FF600B124C20900258E03E
:1018860004F080E47F8D124C663003047F4E8002A4
:101896007F53124C207F20124C207F6F804B90008C
:1018A600D8E06431600302196BD21D7F80124C664A
:1018B600E4900258F0900258E02403F582E43402E2
:1018C600F583E0FF600B124C20900258E004F08094
:1018D600E47F8D124C663003047F4E80027F5312E4
:1018E6004C207F20124C207F4D124C208077900098
:1018F600D7E0FD6441703D9001FDE07002A3E06019
:1019060064E49001FDF0A3F090005AE090029FF08D
:1019160090005BE09002A0F090005CE09002A1F0E5
:10192600900202E04402F09001E1E4F0A37405F0B5
:10193600C20B8031EDB4522DE49001FDF0A3F07F8F
:1019460080124C66E4900258F0900258E02499F513
:1019560082E43401F583E0FF600B124C20900258BC
:10196600E004F080E49000D774FFF0021FEE9000D0
:10197600D6E064026003021B4CA3E0FF64736008B8
:10198600EF64436003021B4C900124E024D5F582EA
:10199600E43400F583E064036003021B4C9001FD10
:1019A600F0A3F0D20CD2079000F7F09000D7E0B485
:1019B6004304D20D8002C20D9002587402F09001C9
:1019C60024E0FC900258E0FEC39C502174D62EF50C
:1019D60082E43400F583E0B42D0BEE04900058F059
:1019E600900258ECF0900258E004F080D190005834
:1019F600E024D6F582E43400F583E0900022F090EE
:101A060002587402F0900058E0FF14FE900258E06D
:101A1600FDC39E502674D62DF582E43400F583E08E
:101A2600FE74C62DF582E43401F583EEF09000F7DE
:101A3600E004F0900258E004F080CAEF240290011E
:101A4600AAF0E0FF04F074D62FF582E43400F583A3
:101A5600E0900122F09001AAE0FF04F074D62FF581
:101A660082E43400F583E09000FBF09001AAE0FFE9
:101A760004F074D62FF582E43400F583E0900195E6
:101A8600F09001AAE0FF04F074D62FF582E434004A
:101A9600F583E0900196F09001AAE0FF04F074D679
:101AA6002FF582E43400F583E090010FF09001AA4F
:101AB600E004F0E0FF04F074D62FF582E43400F57C
:101AC60083E0900123F09001AAE0FF04F074D62F82
:101AD600F582E43400F583E09000FDF09001AAE081
:101AE600FF04F074D62FF582E43400F583E090010C
:101AF60097F09001AAE0FF04F074D62FF582E43443
:101B060000F583E0900198F09001AAE0FF04F074DC
:101B1600D62FF582E43400F583E0900110F09001B1
:101B2600AAE004F0E0FF04F074D62FF582E4340056
:101B3600F583E09000FCF0E49001ACF0900202E046
:101B46004401F0021FDF9000D6E064026003021C2D
:101B56000CA3E064646003021C0C900124E0FF24E3
:101B6600D5F582E43400F583E064036003021C0CBF
:101B7600EF64096003021C0C124BD37F80124C6683
:101B86007F53124C207F61124C207F6C124C207FB9
:101B960064124C207F6F124C207F20124C207F4411
:101BA600124C207F69124C207F73124C207F7012DA
:101BB6004C207F6F124C207F6E124C207F69124C96
:101BC600207F62124C207F6C124C207F65124C20C5
:101BD600124BED7FC0124C669002587402F09002D0
:101BE60058E0FFC39408748094804003021FEE748B
:101BF600D62FF582E43400F583E0FF124C209002E4
:101C060058E004F080D8900124E0900091F0124B47
:101C1600D3E49000FCF0900258F0900091E0FF9021
:101C26000258E0FEC39F502A74D62EF582E4340093
:101C3600F583E0B42E1474D72EF582E43400F583D0
:101C4600E09000FCF0900258EFF0900258E004F0AB
:101C560080C89000FCE06007900091E024FEF0C28E
:101C66000DC224E4900259F0900258F0900091E0E1
:101C7600FB900258E0FEC39B502A74D62EF582E4F0
:101C86003400F583E0B42D14900258A3E0FD04F06F
:101C9600745B2DF582E43402F583EEF0900258E091
:101CA60004F080C8900259E0600B90025BE004905B
:101CB600025AF0800590025AEBF07F80124C66E4DF
:101CC600900258F090025AE0FF900258E0FEC39F3F
:101CD6004003021D5F74D62EF582E43400F583E0DE
:101CE600C39430401074D62EF582E43400F583E0B8
:101CF600D39439403D74D62EF582E43400F583E062
:101D0600C39441401074D62EF582E43400F583E086
:101D1600D3945A401D74D62EF582E43400F583E040
:101D2600642D600E74D62EF582E43400F583E0B49B
:101D36002E04D2258008C225EF04900258F09002A6
:101D460058E024D6F582E43400F583E0FF124C20F7
:101D5600900258E004F0021CCA202503021FEEE49C
:101D66009001FDF0A3F0900202E04401F0900259C8
:101D7600E07003021FA864016003021EE790009151
:101D8600E024FFFFE434FFFE90025BE0FDC3EF9D1D
:101D9600FFEE9400FEEF64014E705A900258F090E8
:101DA6000091E0FF900258E0FEC39F502074D62EAB
:101DB600F582E43400F583E0FD74C82EF582E43440
:101DC60001F583EDF0900258E004F080D2D224743D
:101DD600C72FF582E43401F583E0900022F07F44BA
:101DE600124C20900022E0FF124C20900091E0243B
:101DF600FEF0021FDFC224E4900258F090025BE07E
:101E0600FF900258E0FEC39F502074D62EF582E460
:101E16003400F583E0FD74C82EF582E43401F583C1
:101E2600EDF0900258E004F080D2900091E024FF9B
:101E3600FDE434FFFCC3ED9FFFEC9400FEEF640568
:101E46004E6003021EDCD20D7F43124C207F6112CE
:101E56004C207F6A124C207F65124C207F72124CF8
:101E6600207F6F124C2090025BE0049001AAF0E004
:101E7600FF04F074D62FF582E43400F583E0900178
:101E860022F09001AAE0FF04F074D62FF582E43424
:101E960000F583E09000FBF09001AAE0FF04F074E7
:101EA600D62FF582E43400F583E0900195F0900199
:101EB600AAE0FF04F074D62FF582E43400F583E03F
:101EC600900196F09001AAE024D6F582E43400F55C
:101ED60083E090010FF090025BE0900091F0021F0A
:101EE600DFE4900258F090025BE0FF900258E0FEBB
:101EF600C39F502074D62EF582E43400F583E0FFAC
:101F060074C82EF582E43401F583EFF0900258E0B0
:101F160004F080D2D22490025BE0FD24C9F582E46D
:101F26003401F583E0900022F0D20D90025CE004CB
:101F36009001AAF0E0FF04F074D62FF582E4340095
:101F4600F583E0900122F09001AAE0FF04F074D638
:101F56002FF582E43400F583E09000FBF09001AAAF
:101F6600E0FF04F074D62FF582E43400F583E090A8
:101F76000195F09001AAE0FF04F074D62FF582E4F3
:101F86003400F583E0900196F09001AAE024D6F59E
:101F960082E43400F583E090010FF0900091EDF0BB
:101FA6008037E4900258F0900091E0FF900258E0EC
:101FB600FEC39F502074D62EF582E43400F583E0EC
:101FC600FF74C82EF582E43401F583EFF0900258D1
:101FD600E004F080D2C224C20D9000F6741EF09088
:101FE6000023E4F0A3741EF0208D030221CBC28DE2
:101FF6009000FAE0600714F0E07002D2109001DD64
:10200600E07002A3E0600E9001DEE024FFF0900194
:10201600DDE034FFF09001FFE07002A3E0600E9077
:102026000200E024FFF09001FFE034FFF09001FD94
:10203600E07002A3E0603F9001FEE024FFF0900113
:10204600FDE034FFF0E07002A3E0702A90005AE051
:1020560090029FF090005BE09002A0F090005CE0A0
:102066009002A1F0900202E04402F09001E1E4F057
:10207600A37405F0C20B20B71B9000F9E0FF640EB5
:102086006003EF7013300106C294C201800AD29435
:10209600D2018004D294D21F9000F9E014F0E060DF
:1020A600030221CB3022139001ABE0600214F090C2
:1020B60001ABE0700B12452880009001AB7405F06F
:1020C600900023E07002A3E06033900024E024FF38
:1020D600F0900023E034FFF0E07002A3E0701E9061
:1020E6000202E054FEF0E4900126F0C20CC2079012
:1020F60000FC7420F0C20D302203124BD39001E194
:10210600E07002A3E060209001E2E024FFF090017D
:10211600E1E034FFF0E07002A3E0700B900202E011
:1021260054FDF0C20BC21C9000F6E0607314F0E0A0
:10213600706E741EF07F80124C66E4900258F09028
:102146000258E0C3941074809480500D7F20124C86
:1021560020900258E004F080E6900202E054FEF07F
:1021660054FDF054FBF0D222E4900126F0C21CC2CA
:102176000DC20CC207C21C7FC0124C66E490025806
:10218600F0900258E02447F582E43400F583E0FF3E
:10219600600B124C20900258E004F080E4124528AF
:1021A600C20AC296C295C218C280C219C281C21A98
:1021B600C282C21BC2839000F9741CF0E4F58CF550
:1021C6008AC28DC21E30103B30B438C210E4900271
:1021D6005DF09001DCE0FF90025DE0FEC39F5020C1
:1021E60074E92EF582E43401F583E0FD74D62EF50C
:1021F60082E43400F583EDF090025DE004F080D2D5
:102206001245303016077F06124CCBC216900125B8
:10221600E0FF64036005EF6407700312223B3000A1
:102226000E30B40BC20074AB12452AE412452A12D2
:052236004B59020126D6
:10497C002575004552524F52204445204C45435416
:10498C005552410080402010080402010000000034
:10499C0000004C4543542E31202020202020202084
:0449AC0020202000A7
:104178004102C9004102C8004102C70041029E0035
:084188004102A3004102A40062
:03000300024902AD
:10490200C0E0C083C082C0D09002C9E024A5F58275
:10491200E43402F5837430F09002C9E004F06421BB
:1049220070129002C804F0A3E024A6F582E43402D7
:0D493200F583E4F0D0D0D082D083D0E03205
:0300130002493F60
:10493F00C0E0C083C082C0D09002C9E024A5F58238
:10494F00E43402F5837431F09002C9E004F064217D
:10495F0070129002C804F0A3E024A6F582E434029A
:0D496F00F583E4F0D0D0D082D083D0E032C8
:054CD900D288D2A822E0
:054CDE00D28AD2AA22D7
:034CE300D2AF222B
:0C000600124CD9124CDE124CE30249B03F
:1049B000E4FFEFC3942274809480501774A52FF500
:1049C00082E43402F583E4F09002C9F09002C8F06A
:1049D0000F80DFE49002C7F090029EF09002A3F0F7
:0249E000A3F042
:0149E20022B2
:104ABA007F011244789002C7EFF07F091244789080
:104ACA00029EEFF07F111244789002A3EFF07F1953
:094ADA001244789002A4EFF022CE
:104B9B00124ABA90029EE0A3F09002A3E09002A00A
:0C4BAB00F09002A4E09002A1F00245CFBF
:0544780090025EEFF070
:10447D00785F7C027D017BFF7A49797F7E007F1119
:10448D00123E96E4900272F078737C027D017BFF00
:10449D007A497990FE7F08123E9690025EE0FE24E6
:1044AD0008900270F0A3EEF0900270E0FFA3E0FE22
:1044BD00C39F506174A52EF582E43402F583E0F9B3
:1044CD00B43129900272E0FF90025EE0FD9002711E
:1044DD00E0C39DFDE49400FC74732DF58274023CE1
:1044ED00F583E0FEEF4E900272F08021E9D3943116
:1044FD005006E9C3943050157F80124C667B017ACB
:10450D0002795F124A66E4900272F080089002719F
:0A451D00E004F08093900272E0FFCA
:014527002271
:1045CF00785E7C027D017BFF7A4979987E007F06B9
:1045DF00123E9678647C027D017BFF7A49799E7E3C
:1045EF00007F12123E96124CD37F80124C667B01D5
:1045FF007A027964124A667F87124C6690029FE0B6
:10460F00FF7E0090027974FFF0A37449F0A3747CCD
:10461F00F0A3EEF0A3EFF07B017A02795E123AC6B7
:10462F007B017A02795E124A667F2D124C2090022E
:10463F00A0E0FEA3E0FDEDFF90027974FFF0A374FC
:10464F0049F0A3747CF0A3EEF0A3EFF07B017A02A4
:0E465F00795E123AC67B017A02795E024A66E3
:044190004102CA001E
:104C0700C20F759850438780438920758840758DFA
:094C1700F4758BF4D28ED2AC22AC
:084CCB00200FFD8F99D20F228A
:030023000235C5DE
:0B35C500C0E0C083C082C0D075D008F9
:1035D000209803023A51AB99C298900125E01460FB
:1035E0003C14605824FD70030236811470030237C6
:1035F0002024FE70030236BF24086003023A4C9078
:1036000000D4E4F0AF0BEBFD3395E0FCED64054C2A
:103610006003023A5190012504F0023A519000F4FF
:10362000E0AF0B900125B50B0E7402F09000F6741C
:103630001EF0C222023A51E4F0023A51AF0BEB24E1
:10364000AD602024F0602924FE600F24EE60122477
:1036500007702B9001257403805C9001257408800D
:1036600055800D9001257405F0D216D223023A51EF
:103670009001257405F07F06124CCB023A45023AC0
:103680004CAF0BEBFD3395E0FCED64024C701D90EC
:1036900000D4F0E0FE04F074272EF582E43401F546
:1036A00083EFF09001257406F0023A51ED64054C69
:1036B000900125700504F0023A45E4F0023A51AF5A
:1036C0000B9000D4E0FE04F074272EF582E4340160
:1036D000F583EFF09000D4E0D3943C748094804064
:1036E00003023A4CAF0BEBFD3395E0FCED64034C69
:1036F000701D900125F0900202E054FEF09001262A
:10370000E4F0C20CC207900023F0A3F0023A51ED9E
:1037100064054C6003023A5190012504F0023A45D9
:10372000AF0B9000D4E0FE04F074272EF582E43451
:1037300001F583EFF09000D4E0D3943C7480948042
:103740004003023A4CAF0BEBFD3395E0FCED640314
:103750004C6003023A3330233CC223D2069001DF8F
:10376000F09000D4E0FE9001DFE0FDC39E50207495
:10377000272DF582E43401F583E0FE74922DF58265
:10378000E43400F583EEF09001DFE004F080D290A5
:1037900001257407F09000D4E0FD7C00640660030E
:1037A00002388F900128E0FE64446044EE6441706A
:1037B0003F9001DDE07002A3E0601B9001DDE4F0CA
:1037C000A3F0D200900202E054FDF09001FFE4F07B
:1037D000A37454F0801A9001FFE07002A3E070100F
:1037E000D2969000F9741CF0758C00758A00C28D19
:1037F000900129E0FF64447003023883EF64416064
:1038000003023883300360D200302146301174C285
:1038100011900202E054FDF09001DDE07002A3E09F
:10382000601DC20B9001DDE4F0A3F0D20090020213
:10383000E054FDF09001FFE4F0A37454F080449054
:1038400001FFE07002A3E0703AD2959000F9741C79
:103850008028301109C211900202E054FDF0D29587
:103860009000F9742A8013301109C211900202E00D
:1038700054FDF0D2959000F9742AF0758C00758A89
:1038800000C28D900125E4F09000D4F0023A51ED91
:1038900064074C703D900128E064636003023A5174
:1038A0009001DFF09000D4E0FF9001DFE0FEC39FC5
:1038B000505D74272EF582E43401F583E0FF74D661
:1038C0002EF582E43400F583EFF09001DFE004F0A0
:1038D00080D29000D4E0FF7E006419703B9001DF3D
:1038E000F09000D4E0FD9001DFE0FCC39D50207417
:1038F000272CF582E43401F583E0FD74922CF582E7
:10390000E43400F583EDF09001DFE004F080D29024
:1039100001257407F0023A51C3EF9426EE648094B7
:10392000805003023A51900128E06441703E9001BA
:10393000DDE07002A3E0601A900202E054FDF09016
:1039400001DDE4F0A3F0D2009001FFF0A37454F085
:10395000801A9001FFE07002A3E07010D2969000F0
:10396000F9741CF0758C00758A00C28D900129E0F5
:10397000644160030239F6D20030035E30214630E4
:103980001174C211900202E054FDF09001DDE0706C
:1039900002A3E0601DC20B9001DDE4F0A3F0D200B1
:1039A000900202E054FDF09001FFE4F0A37454F0A3
:1039B00080449001FFE07002A3E0703AD29590003D
:1039C000F9741C8028301109C211900202E054FDE4
:1039D000F0D2959000F9742A8013301119C2119019
:1039E0000202E054FDF0D2959000F9742AF0758C33
:1039F00000758A00C28D9001DFE4F09001DFE0C322
:103A00009426748094805021E0FF2427F582E434CA
:103A100001F583E0FE74922FF582E43400F583EE25
:103A2000F09001DFE004F080D29001257407F0D21D
:103A300015801EAF0BEF3395E0FEEF64054E70115D
:103A400090012504F09000D4E4F08005900125E475
:083A5000F0309904C299C20F85
:093A5800D0D0D082D083D0E0323E
:024BB700AE0747
:104BB900E4FDEDC39E501274632DF582E43401F5D2
:094BC90083E0FF124CCB0D80E9E2
:014BD20022C0
:104B7D00E4FFFE9000D4E0FDEEC39D501074922E24
:0D4B8D00F582E43400F583E06FFF0E80E652
:014B9A0022F8
:10485700124B7D9000D4E0FE04F074D62EF582E46E
:104867003400F583EFF0E4FF9000D4E0FEEFC39E41
:10487700501B74D62FF582E43400F583E0FE74CB29
:104887002FF582E43402F583EEF00F80DB9000D43D
:10489700E0FF24CCF582E43402F583E4F074D72FEB
:1048A700F582E43400F583E4F09002CAEFF0124594
:0448B700300246F98C
:104A3C00E4FE9002CAE0FFEEC39F501B74CB2EF530
:104A4C0082E43402F583E0FD74D62EF582E4340062
:0A4A5C00F583EDF00E80DB0245301B
:1046F9009002677401F0A37400F0A374DCF0A3E4E2
:10470900F0A37402F07B017A0279601247EFE4901A
:104719000262F0900260E0540FC454F0FFA3E05429
:104729000F4FFFC3940274809480404690026774CF
:1047390001F0A37400F0A374E1F0A3E4F0A3740200
:10474900F07B017A0279601247EFE4900262F090FF
:104759000260E0540FC454F0FFA3E0540F4FC39418
:104769001674809480400B9000D67455F07F011226
:024779004530C9
:01477B00221B
:0100120022CB
:1049E300E4900059F0301805E04401F02230190832
:1049F300900059E04402F022301A08900059E04434
:0E4A030004F022301B07900059E04408F02216
:104C7C00E4FDFCC3ED9FEC9E500A1200120DBD002A
:044C8C00010C80EFA8
:014C90002201
:034C9100124C5E64
:104C9400E4FFFE1200120FBF00010EEF64024E701B
:014CA400F21D
:014CA50022EC
:104CB900E4FFFE1200120FBF00010EEF64024E70F6
:014CC900F2F8
:014CCA0022C7
:0E4C50001249E3ED54F0FF900059E04FF5805B
:084C5E00D291124C94C2912284
:104C6600AD07C290124C50EDC454F0FD54F0FFE075
:064C76004FF580024C5EC8
:104C39007F01124C66E4FFFE1200120FBF00010E45
:064C4900EF64FA4E70F268
:014C4F002242
:1048BB00C290124C94C291124C94758039124C9147
:1048CB00124C91124C5E124C94758029124C5E1254
:1048DB004C947F0C124C66124C391200127F06124C
:1048EB004C661200127F80124C66124C941249E3F4
:0748FB00900059E0F5802256
:104C2000AD07D290120012124C50EDC454F0FD5456
:094C3000F0FFE04FF580024C5E3C
:104B0B00AE07ED14600F14601114601324037016BC
:104B1B00EE2480800DEE24C08008EE24948003EEFA
:074B2B0024D4FF124C6622A6
:0B4A660090027BEBF0A3EAF0A3E9F064
:104A7100E4FC90027BE0FBA3E0FAA3E0F98C8275F1
:0E4A81008300123EBCFF6006124C200C80E445
:014A8F002204
:0C001600AE07AF05AD06124B0B024A66A8
:104A9000C292C293124C949000F47431F03092039D
:104AA000E004F03093079000F4E02402F07FC91294
:0A4AB0004C669000F4E0FF024C2079
:104BD3007F80124C66E4FCECC39410748094805084
:094BE300087F20124C200C80EE2A
:014BEC0022A6
:104BED007FC0124C66E4FCECC3941074809480502A
:094BFD00087F20124C200C80EE10
:014C0600228B
:064CD300124BD3024BED71
:0300000002466D48
:0C466D00787FE4F6D8FD7581250246B484
:103DC600E709F608DFFA8046E709F208DFFA803EDF
:103DD60088828C83E709F0A3DFFA8032E309F608CC
:103DE600DFFA8078E309F208DFFA807088828C8334
:103DF600E309F0A3DFFA806489828A83E0A3F608E8
:103E0600DFFA805889828A83E0A3F208DFFA804CC1
:103E160080D280FA80C680D4806980F28033801098
:103E260080A680EA809A80A880DA80E280CA803301
:103E360089828A83ECFAE493A3C8C582C8CCC58379
:103E4600CCF0A3C8C582C8CCC583CCDFE9DEE78049
:103E56000D89828A83E493A3F608DFF9ECFAA9F0C8
:103E6600EDFB2289828A83ECFAE0A3C8C582C8CC1E
:103E7600C583CCF0A3C8C582C8CCC583CCDFEADE37
:103E8600E880DB89828A83E493A3F208DFF980CC99
:103E960088F0EF60010E4E60C388F0ED2402B40492
:103EA6000050B9F582EB2402B4040050AF23234539
:063EB6008223903E16730A
:103EBC00BB010CE58229F582E5833AF583E02250BB
:103ECC0006E92582F8E622BBFE06E92582F8E22205
:0D3EDC00E58229F582E5833AF583E493221F
:0C3EE900ECF0A3EDF0A3EEF0A3EFF0224C
:103EF500A8828583F0D083D082123F0C123F0C122A
:103F05003F0C123F0CE473E493A3C583C5F0C5834E
:103F1500C8C582C8F0A3C583C5F0C583C8C582C816
:013F25002279
:103A6100E5102479F582E43402F583E00510229013
:103A71000276302D03900279E475F001123F9F0226
:103A81003F262026E97F2ED2268018EF540F24905E
:103A9100D43440D4FF302A0BEF24BFB41A005003B2
:103AA1002461FFE511600215110514E5147002058A
:103AB10013302D0E900276E475F001123F9FEF0254
:103AC1003F3F024B327403D22D8003E4C22DF51027
:103AD100900276123FB6E4F511F513F514E5116085
:103AE100077F20123AA480F57512FFC227C226C2B1
:103AF10028C229C22BC22CC22E123A70FF700D307F
:103B01002D057F00123AB5AF14AE1322B4255FC262
:103B1100D5C22A123A70FF24D0B40A00501A75F0A7
:103B21000A781130D50508B6FF0106C6A426F6208D
:103B3100D5047002D22980D924CFB41A00EF5004E1
:103B4100C2E5D22A023CB6D22780C6D22680C0D294
:103B51002880BCD2D580BAD22B80B47F20123AA45F
:103B61002028077401B5110040F1123A61FF123AA1
:103B7100A4023ADED22ED22C8095123A61FB123A7F
:103B810061FA123A61F94A4B700679877A3D7BFFF7
:103B910020282EE511602A7E008E82758300123E58
:103BA100BC60060EEE651270F0C2D5EBC0E0EAC053
:103BB100E0E9C0E0EE123CFDD0E0F9D0E0FAD0E05F
:103BC100FB123F26FF60AAEBC0E0EAC0E0E9C0E0DB
:103BD100123AA4D0E02401F9D0E03400FAD0E0FB9D
:103BE100E5120460DCD512D980877BFF7A3C79F934
:103BF100D228809C791080027908C22CC22E8008BC
:103C0100D2D5790A8004790AC2D5E512047002F589
:103C110012E4FAFDFEFF123A61FC7B082027131221
:103C21003A61FD7B1030260A123A61FE123A61FFB9
:103C31007B20EC3382D592D55013C3E43026069F06
:103C4100FFE49EFEE42027039DFDE49CFCE4CBF809
:103C5100C227EC700CCFCECDCCE824F8F870F380FD
:103C610017C3EF33FFEE33FEED33FDEC33FCEB33E3
:103C7100FB994002FB0FD8E9EB302705F8D0E0C4EF
:103C810048B227C0E00AEC4D4E4F78207B0070C24D
:103C9100EAB5120040BCC0E0123CFFD0F0D0E020F9
:103CA1002704C4C0E0C4B227C0F0123A8DD0F0D5C9
:103CB100F0EB023ADE123FBF3B7B533BF5583B4CE6
:103CC1004C3B48423BF94F3C01443C01493B614379
:083CD1003C07553BEB463BEBC1
:103CD900453BEB473DA7503B502D3B542E3B772BA3
:103CE9003B58233B75203D902A3B104800003B6F11
:103CF9003F3F3F00790AA2D5202914302B09B9107A
:103D0900020404B9080104A2D5202C0250010420A0
:103D190028689228B511005034C0E07F2030291955
:103D29007F30A228722C722B500F123D56C228C226
:103D39002CC22BC22E7F30800F302B03E9C0E0123A
:103D49003AA4302B03D0E0F9D0E0B511CC302B17D1
:103D59007F30B9100C123AA47F58302A077F788037
:103D690003B90803123AA43028057F2D023AA47F2B
:103D790020202EF87F2B202CF322922880CF286E2A
:103D8900756C6C2900D227123A613027F8C227785E
:103D99001130D50108F6023B102D50434958123A0B
:103DA900612403B405004001E4903DA293123A95C1
:0D3DB900743A123A95D229751104023BF5B7
:1047EF00900264EBF0A3EAF0A3E9F0E490026CF01E
:1047FF00A3F090026A74FFF5F0123F8945F0603C18
:10480F00900267E0FBA3E0FAA3E0F9123F26FF90C6
:10481F000264E0FBA3E0FAA3E0F990026CE475F008
:10482F0001123F8985F082F583EF123F51EF60C28D
:10483F00900268E475F001123F7380B6900264E055
:08484F00FBA3E0FAA3E0F9224B
:10467900020026E493A3F8E493A34003F68001F231
:1046890008DFF48029E493A3F85407240CC8C33342
:10469900C4540F4420C8834004F456800146F6DF11
:1046A900E4800B0102040810204080903FE5E47E7D
:1046B900019360BCA3FF543F30E509541FFEE49306
:1046C900A360010ECF54C025E060A840B8E493A3CD
:1046D900FAE493A3F8E493A3C8C582C8CAC583CAF8
:1046E900F0A3C8C582C8CAC583CADFE9DEE780BEB0
:01419400002A
:103F2600BB010689828A83E0225002E722BBFE0299
:093F3600E32289828A83E49322CC
:103F3F00BB010689828A83F0225002F722BBFE0161
:023F4F00F3225B
:103F5100F8BB010DE58229F582E5833AF583E8F0A6
:103F6100225006E92582C8F622BBFE05E92582C852
:023F7100F2223A
:103F7300C5F0F8A3E028F0C5F0F8E58215827002D9
:063F83001583E038F02276
:103F8900A3F8E0C5F025F0F0E582158270021583EB
:063F9900E0C838F0E82248
:103F9F00F8E0FBA3A3E0F925F0F0E58215827002AB
:073FAF001583E0FA38F0224F
:093FB600EBF0A3EAF0A3E9F0220C
:103FBF00D083D082F8E4937012740193700DA3A391
:103FCF0093F8740193F5828883E4737402936860A5
:063FDF00EFA3A3A380DFA5
:104B3200EFB40A07740D124B3D740A309811A8990C
:104B4200B8130CC2983098FDA899C298B811F630E3
:074B520099FDC299F59922BB
:00000001FF
