:1042C7002041636365735363616E2076342E352016
:1042D70000494E484142494C49544144412E2E2EF3
:1042E70020004552524F5220454E204C4F4F502EE2
:1042F7002E2E005441524A45544120494E56414CB6
:10430700494441004E4F205245474953545241209A
:104317005041474F005441522E2053494E20464F9B
:10432700524D41544F00444952494A415345204157
:104337002043414A412000466563686120486F7207
:10434700613A20202020200049445F434C49454ED4
:1043570054453A00434F445F5041524B3A00434F54
:104367004D5041524143494F4E3A202020200020D2
:104377002020416464723A20202020202020200041
:104387002053494E20524553505545535441202000
:104397000020504C414341204E4F20494755414C46
:1043A700200020454E5649414E444F204441544F2A
:0343B70053200090
:103FF9005101124552524F523A20204C4F4F5020F6
:104009003120200051004820465545524120444561
:10401900204C494E454120005100C4204552524F81
:1040290052204D4946415245202020005101B845B2
:1040390052524F5220434F442E20504152512E008C
:10404900510012202053494E20494E475245534FA3
:10405900202020005100B34E4F2052454749535468
:104069005241205041474F0051005F455843454454
:104079004520542E475241434941200051019A207D
:1040890041434345534F204E454741444F2020006B
:1040990051002620202053494E2053414C49444188
:1040A900202020005100FF4552524F5220475241D3
:1040B900424143494F4E20005100814143455251ED
:1040C9005545534520412043414A41005100705311
:1040D900455249453A202020202020202020200038
:1040E900510037434F4D504152414E444F20504C9F
:1040F900414341005100015441524A45544120561F
:10410900454E4349444120004100D5004100F53165
:104119004201FE00004201DE00004101DD004101D3
:104129002600410203004100D6004101E10041009F
:10413900F8004101AD004101AC054100FB0042021C
:10414900000000C10FC102C101C123C115C116C1BF
:1041590018C119C11AC11BC11EC122C124C125C15F
:1041690008C111C121C184C106C105C112C10AC159
:104179009FC11CC10CC107C100C10BC109C18EC1BE
:0741890020C11041000000FD
:104CC100C2B6124CD4124CD4124CD4D2B6124CD41B
:034CD100024CD4BE
:0845400074B69000D7F07F0172
:05454800900265EFF098
:10454D00D2B6C226C2B5900267123F0900000FA075
:10455D0030B445202642900267E0FCA3E0FDA3E0C5
:10456D00FEA3E0FFEF24FFFFEE34FFFEED34FFFD71
:10457D00EC34FFFC900267123EFD900267E0FCA355
:10458D00E0FDA3E0FEA3E0FFEC4D4E4F70C2D2263E
:10459D00D2B6D2B4D2B580B8202629E4900266F006
:1045AD00900265E0FFA3E0FEC39F501874D72EF56F
:1045BD0082E43400F583E0F5A0124CC1900266E070
:1045CD0004F080DCD2B6D2B520260C124CAF124CC2
:0945DD00AF124CAF124CAFA22644
:0145E60022B2
:10479B00900260E02402F09000FCE024D0FF900235
:0747AB0060E0FD3395E0FC26
:0847B200900261ECF0A3EDF0B0
:1047BA00E4A3F0A3F0FEFDFCEFC39464748094803C
:1047CA004007749C2FFF0E80EFEFC3940A74809405
:1047DA0080400774F62FFF0D80EFAC07ED4430FFE1
:1047EA00900261E0FAA3E0FB2464F58274013AF5D1
:1047FA0083EFF0EC4430FF74652BF58274013AF5CF
:03480A0083EFF049
:01480D002288
:104B5500301804D2808002C280301904D2818002CC
:104B6500C281301A04D2828002C282301B03D283F2
:044B750022C28322B3
:1041AD00E4900264F0D2B5900125F030B4030242E0
:1041BD00C4900263F0C2B5A3F0900264E0C3941EF4
:1041CD007480948040030242C490025F123F090044
:1041DD0000003C30B64A20B447900263E070419035
:1041ED00025FE0FCA3E0FDA3E0FEA3E0FFEF24FFF0
:1041FD00FFEE34FFFEED34FFFDEC34FFFC90025F6B
:10420D00123EFD90025FE0FCA3E0FDA3E0FEA3E003
:10421D00FFEC4D4E4F70BCA304F0A3741FF080B3A0
:10422D0030B6030242B2900263E0707920B476A3F7
:10423D00E024D7F582E43400F583E5A0F090012564
:10424D00E004F090025F123F090000002320B655F4
:10425D00900263E0704FA3E024D7F582E43400F5BB
:10426D0083E5A0F090025FE0FCA3E0FDA3E0FEA3D8
:10427D00E0FFEF24FFFFEE34FFFEED34FFFDEC34E5
:10428D00FFFC90025F123EFD90025FE0FCA3E0FD9B
:10429D00A3E0FEA3E0FFEC4D4E4F70B1A304F0A3DD
:1042AD00741FF080A830B406900264741FF0900261
:0942BD0064E004F00241C6D2B530
:0142C60022D5
:054A5E0090025FEFF083
:104A63007E0054F0FFEEC4F854F0C868FEEFC4545F
:104A73000F484430FF124C3B90025FE07E00540F1E
:064A83004430FF024C3B31
:1043BA009000D77402F0EF24FE600B04700E900098
:1043CA00D87456F080069000D8744FF09002617449
:1043DA0015F0900261E0D39425748094805021E016
:1043EA00FF2428F582E43401F583E0FE74C42FF536
:1043FA0082E43400F583EEF0900261E004F080D2AA
:10440A009000E97403F030B43D7F131245489220BE
:10441A00302072E4900261F0900261E0C394137458
:10442A008094805054E0FF24D7F582E43400F58369
:10443A00E0FE74EA2FF582E43401F583EEF090028F
:10444A0061E004F080D2E4900261F0900261E0C37E
:10445A009413748094805021E0FF24D7F582E434C9
:10446A0000F583E0FE74EA2FF582E43401F583EE69
:10447A00F0900261E004F080D29001DD7413F090B4
:05448A0000FB741CF0B2
:01448F00220A
:104A0200900261EFF030B411124CAF900261E012EB
:104A12004542922030201680009001DD7401F09012
:0E4A22000261E09001EAF09000FB742AF0229D
:10224100900126E024F97003022EF52404600302B4
:1022510035D3900203E070297F04124CE6E490012B
:1022610026F020B7030235D8900000E06403700A1D
:1022710074AA124542E4900000F0900000E004F0DE
:1022810022900203E054016401600302291C200C26
:1022910003022742900260F0E0FF04F0EF3395E083
:1022A100FE74642FF58274013EF5837402F090028E
:1022B10060E0FF04200D15F0EF3395E0FE74642F0C
:1022C100F58274013EF5837461F08013F0EF33956C
:1022D100E0FE74642FF58274013EF5837443F0E4EB
:1022E10090025FF09000F8E0FF90025FE0FDFB33A9
:1022F10095E0FAC3EB9F7480F86A985033EDFF3391
:1023010095E0FE74C92FF58274013EF583E0FF90DC
:102311000260E0FE04F0EEFD3395E0FC74642DF5FF
:102321008274013CF583EFF090025FE004F080B429
:10233100900260E0FF04F0EF3395E0FE74642FF546
:102341008274013EF583742CF0300720900023E065
:10235100FF900260E0FE04F0EEFD3395E0FC746452
:102361002DF58274013CF583EFF08019900260E055
:10237100FF04F0EF3395E0FE74642FF58274013EA3
:10238100F5837430F0200E0302245E9000FDE0FF1F
:10239100B44818900260E0FE04F0EEFD3395E0FCD5
:1023A10074642DF58274013C0224BCEFB45417907F
:1023B1000260E0FF04F0EF3395E0FE74642FF582D4
:1023C10074013E0224BC9000FDE0FFB44D18900260
:1023D10060E0FE04F0EEFD3395E0FC74642DF582BF
:1023E10074013C0224A1EFB44317900260E0FF04A2
:1023F100F0EF3395E0FE74642FF58274013E022400
:10240100BC30084320972A900260E0FF0420B711F6
:10241100F0EF3395E0FE74642FF58274013E0224DF
:10242100BCF0EF3395E0FE74642FF58274013E80B9
:102431006F900260E0FF04F0EF3395E0FE74642FCB
:10244100F58274013E8059900260E0FF04F0EF33A1
:1024510095E0FE74642FF58274013E805E3008477A
:10246100209729900260E0FF0420B710F0EF339528
:10247100E0FE74642FF58274013E803FF0EF3395E6
:10248100E0FE74642FF58274013E8014900260E0D6
:10249100FF04F0EF3395E0FE74642FF58274013E82
:1024A100F5837431F08019900260E0FF04F0EF339E
:1024B10095E0FE74642FF58274013EF5837430F06B
:1024C100900260E0FF04F0EF3395E0FE74642FF5B5
:1024D1008274013EF583742CF09001231247A512FA
:1024E100479B900260E02402F09001961247A5906C
:1024F1000260E02402F09001971247A5900260E08B
:102501002402F09001101247A5900260E02402F02D
:10251100300D03022722E0FF04F0EF3395E0FE7453
:10252100642FF58274013EF583742CF030077390AB
:1025310001241247A5900260E02402F09000FE12EF
:1025410047A5900260E02402F09001981247A590FF
:102551000260E02402F09001991247A5900260E028
:102561002402F09001111247A5900260E02402F0CC
:10257100E0FF04F0EF3395E0FE74642FF5827401FF
:102581003EF583742CF0900260E0FF04F0EF339588
:10259100E0FE74642FF58274013EF5837420F0022D
:1025A1002707900260E0FF04F0EF3395E0FE7464CA
:1025B1002FF58274013EF5837430F0900260E0FFE4
:1025C10004F0EF3395E0FE74642FF58274013EF55B
:1025D100837430F0900260E0FF04F0EF3395E0FE89
:1025E10074642FF58274013EF5837430F0900260BB
:1025F100E0FF04F0EF3395E0FE74642FF58274017F
:102601003EF5837430F0900260E0FF04F0EF339503
:10261100E0FE74642FF58274013EF5837430F0900E
:102621000260E0FF04F0EF3395E0FE74642FF58261
:1026310074013EF5837430F0900260E0FF04F0EF26
:102641003395E0FE74642FF58274013EF583743096
:10265100F0900260E0FF04F0EF3395E0FE74642F28
:10266100F58274013EF5837430F0900260E0FF045E
:10267100F0EF3395E0FE74642FF58274013EF5832B
:102681007430F0900260E0FF04F0EF3395E0FE74E7
:10269100642FF58274013EF5837430F0900260E09E
:1026A100FF04F0EF3395E0FE74642FF58274013E70
:1026B100F583742CF0E490025FF09001ADE0FF909F
:1026C100025FE0FDFB3395E0FAC3EB9F7480F86A8B
:1026D100985033EDFF3395E0FE74AE2FF58274010F
:1026E1003EF583E0FF900260E0FE04F0EEFD3395DD
:1026F100E0FC74642DF58274013CF583EFF09002E7
:102701005FE004F080B4900260E0FF04F0EF3395E5
:10271100E0FE74642FF58274013EF583742CF08021
:1027210000900260E0FF04F0EF3395E0FE74642F47
:10273100F58274013EF5837403F0900260E0022992
:10274100159001647402F0900127E0FF7010900170
:1027510065200D057441F0800A7443F080059001F5
:1027610065EFF0900092E0900260F0E490025FF07B
:10277100900092E0FF90025FE0FD3395E0FCC3ED35
:102781009F7480F86C985026E0FF3395E0FE74C981
:102791002FF58274013EF583E0FF74662DF5827496
:1027A100013CF583EFF090025FE004F080C29002FB
:1027B10060E0FF3395E0FE74662FF58274013EF50B
:1027C10083742CF0302413900023E0FD74672FF5FF
:1027D1008274013EF583EDF08016900260E0FF33D4
:1027E10095E0FE74672FF58274013EF5837430F035
:1027F1003004679000FDE0FFB448089000F97404CC
:10280100F08039EFB454089000F97403F0802DEF93
:10281100B442089000F97402F08021EFB44D0280B7
:102821000EEFB44302801030080D2097028008900B
:1028310000F97401F08005E49000F9F09000F9E0EE
:102841002430FF900260E0FD3395E0FC74682DF5C3
:102851008274013CF583EFF0803630081D900260F0
:10286100E0FF3395E0FE74682F2097028018F5820F
:1028710074013EF5837431F08016900260E0FF33FD
:1028810095E0FE74682FF58274013EF5837430F093
:10289100900260E0FF300D673395E0FE74692FF51B
:1028A1008274013EF583742CF0900260E02406F0FE
:1028B1009001231247A512479B900260E02402F089
:1028C1009001961247A5900260E02402F0900197D2
:1028D1001247A5900260E02402F09001101247A572
:1028E100900260E02402F0E0FFFD3395E0FC7464A7
:1028F1002DF58274013CF5837403F0EF048015FD1E
:102901003395E0FC74692DF58274013CF583740301
:10291100F0EF2406FF124BD20235D3900203E054AC
:102921000264026003022EE0D2119000FA741CF0DE
:10293100E4F58CF58AC28D300503022B8E200B0342
:10294100022B1A9001647402F0A37477F09002A034
:10295100E0FDC4540F2430900166F0ED540F243093
:10296100A3F09002A1E0FDC4540F2430900168F05F
:10297100ED540F2430A3F09002A2E0FDC4540F24C3
:102981003090016AF0ED540F2430A3F0A3742CF0C1
:10299100A37430F03004559000FDE0FFB448089076
:1029A10000F97404F08039EFB454089000F974030D
:1029B100F0802DEFB442089000F97402F08021EF0D
:1029C100B44D02800EEFB44302801030080D209701
:1029D1000280089000F97401F08005E49000F9F09C
:1029E1009000F9E0243090016EF0801630080D90CF
:1029F100016E20970280087431F0800690016E7498
:102A010030F090016F742CF0900123E024D0FF7D11
:102A11000C7C001247B29000FCE024D0FF7D0E7CBC
:102A2100001247B2900196E024D0FF7D107C001285
:102A310047B2900197E024D0FF7D127C001247B28B
:102A4100900110E024D0FF7D147C001247B2900168
:102A51007A742CF0900124E024D0FF7D177C0012C1
:102A610047B29000FEE024D0FF7D197C001247B2EE
:102A7100900198E024D0FF7D1B7C001247B29001A9
:102A810099E024D0FF7D1D7C001247B2900111E036
:102A910024D0FF7D1F7C001247B29000F67421F014
:102AA100E0FF04F074642FF582E43401F583742CA3
:102AB100F0301C4EE490025FF09000D6E0FF9002EF
:102AC1005FE0FDFB3395E0FAC3EB9F7480F86A98F1
:102AD1004003022D50EDFF3395E0FE74AE2FF582D9
:102AE10074013EF583E0FF9000F6E0FE04F07464AB
:102AF1002EF582E43401F583EFF090025FE004F0FB
:102B010080B79000F6E0FF04F074642FF582E4349E
:102B110001F5837420F0022D509001647402F0A33A
:102B21007442F09002A0E0FDC4540F24309001667D
:102B3100F0ED540F2430A3F09002A1E0FDC4540F36
:102B41002430900168F0ED540F2430A3F09002A2DC
:102B5100E0FDC4540F243090016AF0ED540F24308D
:102B6100A3F0A3742CF0A37430F030080F20970465
:102B7100A3F0800E90016E7431F0800690016E74A6
:102B810030F090016F7403F07F0C022EDA90016433
:102B91007402F0A37477F09002A0E0FDC4540F24F6
:102BA10030900166F0ED540F2430A3F09002A1E0C3
:102BB100FDC4540F2430900168F0ED540F2430A36C
:102BC100F09002A2E0FDC4540F243090016AF0EDB0
:102BD100540F2430A3F0A3742CF0A37430F030040C
:102BE100559000FDE0FFB448089000F97404F080AE
:102BF10039EFB454089000F97403F0802DEFB4421A
:102C0100089000F97402F08021EFB44D02800EEFBC
:102C1100B44302801030080D20970280089000F91B
:102C21007401F08005E49000F9F09000F9E024309F
:102C310090016EF0801630080D90016E2097028091
:102C4100087431F0800690016E7430F090016F7459
:102C51002CF0900123E024D0FF7D0C7C001247B2C0
:102C61009000FCE024D0FF7D0E7C001247B2900161
:102C710096E024D0FF7D107C001247B2900197E0CE
:102C810024D0FF7D127C001247B2900110E024D0C5
:102C9100FF7D147C001247B2201203022DC4900163
:102CA1007A742CF0900124E024D0FF7D177C00126F
:102CB10047B29000FEE024D0FF7D197C001247B29C
:102CC100900198E024D0FF7D1B7C001247B2900157
:102CD10099E024D0FF7D1D7C001247B2900111E0E4
:102CE10024D0FF7D1F7C001247B29000F67421F0C2
:102CF100E0FF04F074642FF582E43401F583742C51
:102D0100F0301C7BE490025FF09000D6E0FF90026F
:102D11005FE0FDFB3395E0FAC3EB9F7480F86A989E
:102D2100502DEDFF3395E0FE74AE2FF58274013E18
:102D3100F583E0FF9000F6E0FE04F074642EF58266
:102D4100E43401F583EFF090025FE004F080BA9083
:102D510000F6E0FF04F074642FF582E43401F5839A
:102D6100742CF09000F6E0FF04F074642FF582E417
:102D71003401F5837403F09000F6E0FF022EDA903F
:102D810000F6E0FF04F074642FF582E43401F5836A
:102D91007420F09000F6E0FF04F074642FF582E4F3
:102DA1003401F583742CF09000F6E0FF04F07464B4
:102DB1002FF582E43401F5837403F09000F6E0FF0F
:102DC100022EDA90017A742CF07D177C00E4FF1258
:102DD10047B27D197C00E4FF1247B27D1B7C00E401
:102DE100FF1247B27D1D7C00E4FF1247B27D1F7CBC
:102DF10000E4FF1247B29000F67421F0E0FF04F006
:102E010074642FF582E43401F583742CF0201C03E3
:102E1100022E99C21CE490025FF09000D6E024FFDC
:102E2100FFE434FFFE90025FE0FDFB3395E0FAC35F
:102E3100EB9FEE6480F8EA648098502DEDFF3395A6
:102E4100E0FE74AE2FF58274013EF583E0FF900041
:102E5100F6E0FE04F074642EF582E43401F583EFAC
:102E6100F090025FE004F080B19000F6E0FF04F022
:102E710074642FF582E43401F583742CF09000F62C
:102E8100E0FF04F074642FF582E43401F5837403E8
:102E9100F09000F6E0FF80419000F6E0FF04F0744E
:102EA100642FF582E43401F5837420F09000F6E09C
:102EB100FF04F074642FF582E43401F583742CF07F
:102EC1009000F6E0FF04F074642FF582E43401F51C
:102ED100837403F09000F6E0FF124BD20235D390D9
:102EE1000203E0FF5404640460030235D8EF54FB8D
:102EF100F00235D39000D5E02493F582E43400F557
:102F010083E4F030064CC20690025FF09000D5E0F9
:102F1100FFFD90025FE0FEFB3395E0FAC3EB9D7489
:102F210080F86A985026EEFD3395E0FC74932DF5F8
:102F31008274003CF583E0FE74D72DF58274003C69
:102F4100F583EEF090025FE004F080C01245480284
:102F51002FD39000D5E064196003022FDD9000F5B6
:102F6100E0FF900094E06F7073A3E06448706D120D
:102F710048DAE490025FF09000D5E0FF90025FE054
:102F8100FDFB3395E0FAC3EB9F7480F86A985026F5
:102F9100EDFF3395E0FE74932FF58274003EF583C7
:102FA100E0FD74D72FF58274003EF583EDF09002B9
:102FB1005FE004F080C11248767F80124C817F531C
:102FC100124C3B7F59124C3B7F4E124C3B7F4312BC
:102FD1004C3BD216E4900126F00235CB9000D5E0AF
:102FE100FF7E00C394067480948050030235CBEFBA
:102FF1009407748094804011900129E0B4630A120F
:103001004548D216E4900126F090012AE0FF64447D
:103011006025EF6441702030031D30210830111705
:10302100200B148003200B0FD2959000FA742AF024
:10303100E4F58CF58AC28D2015030235CBC21590BB
:103041000098E064417031A3E06443702BA3E06415
:10305100457025A3E06452701FA3E064517019A369
:10306100E0B45514A3E0B4450FA3E0B4530AA3E0C0
:10307100B445057FA102352F900098E06455704555
:10308100A3E0644E703FA3E064207039A3E0644D77
:1030910070337F09124A02900203E054FEF054FD9E
:1030A100F0C21CC20CC207C20DE4900127F09000CF
:1030B10024F0A3F09001E2F0A3F0C20B9000FD74A4
:1030C10020F0023532900094E06458703CA3E06433
:1030D100417036A3E064587030A3E06458702AA3AD
:1030E100E064477024A3E06452701EA3E064417061
:1030F10018A3E0B44313A3E0B4490EA3E0B441091B
:10310100A3E0B453047F018054900094E0645870AC
:1031110052A3E06458704CA3E064587046A3E06485
:10312100587040A3E06442703AA3E064497034A34C
:10313100E06445702EA3E0644E7028A3E0645670ED
:1031410022A3E06445701CA3E0B44E17A3E0B44988
:1031510012A3E0B4440DA3E0B44F087F021243BAB6
:10316100023532900094E06458706DA3E0645870A9
:1031710067A3E064587061A3E06458705BA3E064E6
:103181004D7055A3E06445704FA3E0644E7049A3B0
:10319100E064537043A3E06455703DA3E064417063
:1031A10037A3E0644C7031A3E06420702BA3E0648A
:1031B1004E7025A3E0644F701FA3E064207019A333
:1031C100E0B44514A3E0B4530FA3E0B4540AA3E060
:1031D100B441057FB202352F900094E06458706DC0
:1031E100A3E064587067A3E064587061A3E0645879
:1031F100705BA3E0644D7055A3E06445704FA3E09C
:10320100644E7049A3E064537043A3E06455703D7C
:10321100A3E064417037A3E0644C7031A3E0642003
:10322100702BA3E064597025A3E06441701FA3E0F3
:1032310064207019A3E0B44514A3E0B4530FA3E0D4
:10324100B4540AA3E0B441057FB302352F90009432
:10325100E064587079A3E064587073A3E064587017
:103261006DA3E064587067A3E0644D7061A3E064EE
:1032710045705BA3E0644E7055A3E06453704FA3A7
:10328100E064557049A3E064417043A3E0644C706D
:103291003DA3E064207037A3E064467031A3E0648D
:1032A10055702BA3E064457025A3E06452701FA301
:1032B100E064417019A3E0B42014A3E0B4440FA367
:1032C100E0B4450AA3E0B452057FB402352F900063
:1032D10094E064587079A3E064587073A3E0645873
:1032E100706DA3E064587067A3E0644D7061A3E062
:1032F1006445705BA3E0644E7055A3E06453704F66
:10330100A3E064557049A3E064417043A3E0644CB9
:10331100703DA3E064207037A3E064467031A3E000
:103321006455702BA3E064457025A3E06452701FBF
:10333100A3E064417019A3E0B42014A3E0B4440FE6
:10334100A3E0B4450AA3E0B448057FB502352F9048
:103351000094E06458704FA3E064587049A3E0649E
:10336100587043A3E06458703DA3E0644E7037A3E6
:10337100E0644F7031A3E06420702BA3E0644570DA
:1033810025A3E06453701FA3E064207019A3E0B487
:103391004D14A3E0B4450FA3E0B44E0AA3E0B45327
:1033A100057FB102352F900094E06458704FA3E07F
:1033B10064587049A3E064587043A3E06458703DB9
:1033C100A3E0644E7037A3E0644F7031A3E0642042
:1033D100702BA3E064527025A3E06445701FA3E045
:1033E10064477019A3E0B44914A3E0B4530FA3E0F8
:1033F100B4540AA3E0B452057F0402352F9000941F
:10340100E06458704FA3E064587049A3E0645870B9
:1034110043A3E06458703DA3E0644C7037A3E064BB
:103421004F7031A3E06454702BA3E064457025A371
:10343100E06420701FA3E064417019A3E0B4531449
:10344100A3E0B4490FA3E0B4470AA3E0B44E057F5B
:103451000502352F900094E064587066A3E064582B
:103461007060A3E06458705AA3E064587054A3E0FC
:10347100644D704EA3E064457048A3E0644E704211
:10348100A3E06453703CA3E064557036A3E064414B
:103491007030A3E0644C702AA3E064207024A3E0A0
:1034A1006445701EA3E064587018A3E0B44313A3ED
:1034B100E0B4450EA3E0B44409A3E0B445047F079A
:1034C100806C900094E064587067A3E06458706168
:1034D100A3E06458705BA3E064587055A3E0644DA9
:1034E100704FA3E064457049A3E0644E7043A3E0CC
:1034F1006453703DA3E064557037A3E064417031BB
:10350100A3E0644C702BA3E064207025A3E0644E1B
:10351100701FA3E0644F7019A3E0B42014A3E0B4BA
:10352100500FA3E0B4410AA3E0B447057F08124A53
:10353100027F80124C8190025F7405F090025FE07F
:10354100FFFD3395E0FCC3ED9415EC64809480504D
:103551002BEF3395E0FE74932FF58274003EF583D3
:10356100E06403601774932FF58274003EF583E0E5
:10357100FF124C3B90025FE004F080C07FC0124C10
:103581008190025F7415F090025FE0FFFD3395E0DA
:10359100FCD3ED9426EC64809480502EEF3395E0BB
:1035A100FE74932FF58274003EF583E06403601A84
:1035B100201E0F74932FF58274003EF583E0FF12F5
:1035C1004C3B90025FE004F080BDE4900126F0D214
:0735D1001622E4900126F030
:0135D80022D0
:1000260078047C027D017BFF7A4379657E007F112F
:10003600123EAA78157C027D017BFF7A4379767E93
:10004600007F11123EAA78267C027D017BFF7A434F
:1000560079877E007F11123EAA78377C027D017B6C
:10006600FF7A4379987E007F11123EAA78487C0277
:100076007D017BFF7A4379A97E007F11123EAA1289
:100086004C221200061248DAE58954F04401F5893B
:10009600C28DE4F58CF58AD28CC296C295C294D2F2
:1000A600B6D201900024F0A3F09001E2F0A3F09004
:1000B60000F7741EF09000FA741CF0C213C280C2DE
:1000C60018C281C219C282C21AC283C21BC20DE4FF
:1000D600900127F0C205C20CC2079000FBF0900108
:1000E600DEF0A3F0C2009001FEF0A3F0C210C21D24
:1000F600D203D208D20ED221D204A3F0A3F0C209B1
:100106007BFF7A4279C7FDFF1200167FC0124C8131
:100116007B017A027915124AB3124ADDD2B5D2B6FC
:1001260075A0FF90025EE5A0F09002C2E064016057
:100136000302041930B703020419201F030201FE4B
:100146009000F7741EF0124BB61249CF301D5D9029
:1001560001FEE07002A3E070519000D77402F0A394
:100166007457F09002A0E0FF9000D9F09002A1E051
:10017600FE9000DAF09002A2E0FD9000DBF0A3749E
:1001860003F090005BEFF0A3EEF0A3EDF09000D546
:100196007406F0FF124548900203E054FDF090010A
:1001A600FE7402F0A37430F0806280599000D77418
:1001B60002F0A37457F09002A0E09000D9F09002EC
:1001C600A1E09000DAF09002A2E09000DBF0A374C8
:1001D60003F09000D57406F0FF12454890020374B0
:1001E60002F0C20B9001E2E4F0A37405F090012640
:1001F6007403F012224180147BFF7A4279D8E4FD21
:100206007F01120016900203E054FDF0200903025C
:1002160004409002A0E0FF7E006476700CA3E064C8
:10022600D67006A3E0640B603DEF64244E700E901A
:1002360002A1E064547006A3E064E4607B9002A02F
:10024600E06495700AA3E07006A3E064D560699047
:1002560002A0E0FF7E00645F700FA3E064D7700920
:10026600A3E064847003020406EF64954E700C905C
:1002760002A1E07006A3E064F2603D9002A0E06493
:1002860060700CA3E064407006A3E064946029905B
:1002960002A0E0FF7E006495700AA3E07006A3E06A
:1002A60064F36014EF64374E70119002A1E0643677
:1002B6007009A3E0642470030204069002A0E064BF
:1002C60095700CA3E064017006A3E06410603F9093
:1002D60002A0E0FF7E00647F700CA3E064757006E8
:1002E600A3E064446028EF64954E700E9002A1E08E
:1002F60064017006A3E0641160149002A0E0641724
:10030600700FA3E064EE7009A3E064247003020496
:10031600069002A0E0FF7E006495700CA3E0644F97
:100326007006A3E064D7603FEF64674E700E9002DC
:10033600A1E064177006A3E064B4602B9002A0E00D
:100346006494700CA3E064EA7006A3E06475601719
:100356009002A0E0FF7E00647C700FA3E064DE7074
:1003660009A3E064347003020406EF64944E700E31
:100376009002A1E064EB7006A3E06458602B900243
:10038600A0E06417700CA3E064167006A3E064D4C2
:1003960060179002A0E0FF7E00648F700EA3E064F9
:1003A600427008A3E064D670028055EF64954E70E3
:1003B6000E9002A1E0641D7006A3E064BC60149078
:1003C60002A0E06426700EA3E064127008A3E06445
:1003D600847002802B9002A0E0FF7E006482700C85
:1003E600A3E064887006A3E064146014EF64514EC1
:1003F60070489002A1E064C17040A3E06414703AB2
:10040600D296D2959000FA742AF0E4F58CF58AC259
:100416008D80279002C2E06401701F124BB612490C
:10042600CF7F06124A027BFF7A4279E9E4FD7F011B
:10043600120016900203E054FDF030B403021FEEE2
:100446009000D774FFF0A3F01241AD900125E07043
:1004560003021FEE6401700A9000D7E06406700282
:10046600D21F900125E0640160030207969000D731
:10047600E0FF7E00C394DF748094805003020796E9
:10048600D3EF94EF7480948040030207961248DA03
:100496009000D7E0FF64E2600AEF64E36005EF6472
:1004A600E4703A7FC0124C81E4900259F0900259F0
:1004B600E024C4F582E43400F583E0FF600B124CBF
:1004C6003B900259E004F080E47FCE124C8190000C
:1004D600D7E0540F2430FF124C3B0207849000D71C
:1004E600E064E070297FC0124C81E4900259F090DC
:1004F6000259E02412F582E43401F583E0FF70032B
:10050600020784124C3B900259E004F080E190000F
:10051600D7E064E1700F7BFF7A4279FAFD7F011222
:1005260000160207849000D7E064E570297FC012A8
:100536004C81E4900259F0900259E024B8F582E427
:100546003401F583E0FF7003020784124C3B9002EE
:1005560059E004F080E19000D7E064E670297FC09E
:10056600124C81E4900259F0900259E02412F5826F
:10057600E43400F583E0FF7003020784124C3B90DD
:100586000259E004F080E19000D7E064E770187F3C
:10059600C0124C817BFF7A43790B124AB37F107EDF
:1005A60027124C970207849000D7E064E870297FF1
:1005B600C0124C81E4900259F0900259E0245FF594
:1005C60082E43400F583E0FF7003020784124C3B9B
:1005D600900259E004F080E19000D7E064E97029C8
:1005E6007FC0124C81E4900259F0900259E0242613
:1005F600F582E43400F583E0FF7003020784124CB1
:100606003B900259E004F080E19000D7E064EA7084
:10061600297FC0124C81E4900259F0900259E024DF
:10062600FFF582E43400F583E0FF700302078412CD
:100636004C3B900259E004F080E19000D7E064EB77
:1006460070297FC0124C81E4900259F0900259E063
:100656002481F582E43400F583E0FF700302078409
:10066600124C3B900259E004F080E19000D7E06420
:10067600EC70297FC0124C81E4900259F090025927
:10068600E02401F582E43400F583E0FF70030207FD
:1006960084124C3B900259E004F080E19000D7E0D0
:1006A60064ED70297FC0124C81E4900259F09002EB
:1006B60059E02426F582E43402F583E0FF70030254
:1006C6000784124C3B900259E004F080E19000D779
:1006D600E064EE70297FC0124C81E4900259F090DC
:1006E6000259E02437F582E43402F583E0FF700313
:1006F600020784124C3B900259E004F080E190001E
:10070600D7E064EF705F7FC0124C817F54124C3B80
:100716007F41124C3B7F52124C3B7F4A124C3B7F2F
:1007260045124C3B7F54124C3B7F41124C3B7F2081
:10073600124C3B7F41124C3B7F54124C3B7F411283
:100746004C3B7F53124C3B7F43124C3B7F41124C38
:100756003B7F44124C3B7F41124C3BD20A9000FA3D
:10076600741CF080199000D7E064DF70111248DA2B
:100776007FC0124C817BFF7A43791C124AB3D21E8A
:100786009000FA741CF0E4F58CF58AC28D021FEE17
:10079600900125E0FF7E006401700E9000D7E064B2
:1007A600A07006D218D280803BEF64014E70219073
:1007B60000D7E064A17019D219D2819000FA741C96
:1007C600F07BFF7A43792DE4FDFF120016021FEE3F
:1007D600900125E0640170159000D7E064A2700DC9
:1007E600D21AD2829000FA741CF0021FEE900125F4
:1007F600E0FF7E00640170159000D7E064A3700DE1
:10080600D21BD2839000FA742AF0021FEEEF640125
:100816004E70589000D7E064AF70507FC0124C8184
:100826007F43124C3B7F4F124C3B7F4E124C3B7F1B
:1008360054124C3B7F2E124C3B7F20124C3B7F4583
:10084600124C3B7F56124C3B7F4E124C3B7F201284
:100856004C3B7F49124C3B7F4E124C3B7F49124C1E
:100866003B7F43124C3B7F49020AAB900125E06473
:100876000170429000D7E0644E703AD2037F801236
:100886004C81E4900259F0900259E02404F582E488
:100896003402F583E0FF600B124C3B900259E004F2
:1008A600F080E47F8D124C817F4E124C3B201D035D
:1008B600021FEE8048900125E06401704A9000D73F
:1008C600E064537042C2037F80124C81E490025967
:1008D600F0900259E02404F582E43402F583E0FF47
:1008E600600B124C3B900259E004F080E47F8D12BD
:1008F6004C817F53124C3B201D03021FEE7F2012BA
:100906004C3B7F4D021067900125E06401703290E8
:1009160000D7E0B4502BC2037FC0124C81E4900292
:1009260059F0900259E02437F582E43400F583E06B
:10093600FF7003021FEE124C3B900259E004F08058
:10094600E1900125E0640170309000D7E0B44429BD
:100956007FC0124C81E4900259F0900259E024487D
:10096600F582E43402F583E0FF7003021FEE124CB9
:100976003B900259E004F080E1900125E0640170AB
:100986005D9000D7E064F170557FC0124C817F55B1
:10099600124C3B7F4E124C3B7F20124C3B7F4D123C
:1009A6004C3B7F4F124C3B7F4D124C3B7F45124CCC
:1009B6003B7F4E124C3B7F54124C3B7F4F124C3BBD
:1009C6007F2E124C3B7F2E124C3B7F2E124C3B7FD0
:1009D60020124C3B7F20124C3B7F20021067900177
:1009E60025E06401705D9000D7E064F370557FC028
:1009F600124C817F50124C3B7F49124C3B7F431275
:100A06004C3B7F4F124C3B7F20124C3B7F59124C84
:100A16003B7F20124C3B7F50124C3B7F4C124C3B91
:100A26007F41124C3B7F43124C3B7F41124C3B7F34
:100A36002E124C3B7F2E124C3B7F2E124C3B7F20BE
:100A4600021067900125E0640170629000D7E064AF
:100A5600F8705A7FC0124C817F56124C3B7F45126C
:100A66004C3B7F48124C3B7F49124C3B7F2E124C2D
:100A76003B7F20124C3B7F49124C3B7F4E124C3B36
:100A86007F56124C3B7F41124C3B7F4C124C3B7FB6
:100A960049124C3B7F44124C3B7F4F124C3B7F2EFE
:100AA600124C3B7F2E124C3B7F2E02106790012585
:100AB600E06401705D9000D7E064F970557FC01264
:100AC6004C817F53124C3B7F41124C3B7F4C124C66
:100AD6003B7F49124C3B7F44124C3B7F41124C3BBF
:100AE6007F20124C3B7F52124C3B7F45124C3B7F82
:100AF60043124C3B7F48124C3B7F41124C3B7F5A82
:100B0600124C3B7F41124C3B7F44124C3B7F4102CF
:100B16001067900125E06401705D9000D7E064FAEB
:100B260070557FC0124C817F53124C3B7F49124C4B
:100B36003B7F4E124C3B7F20124C3B7F54124C3B6A
:100B46007F41124C3B7F52124C3B7F4A124C3B7FFB
:100B560045124C3B7F54124C3B7F41124C3B7F531A
:100B6600124C3B7F20124C3B7F20124C3B7F2012C5
:100B76004C3B7F20021067900125E06401705D9078
:100B860000D7E064B570557FC0124C817F46124C89
:100B96003B7F55124C3B7F45124C3B7F52124C3BE0
:100BA6007F41124C3B7F20124C3B7F44124C3B7FD3
:100BB60045124C3B7F20124C3B7F48124C3B7F4FEB
:100BC600124C3B7F52124C3B7F41124C3B7F5212E0
:100BD6004C3B7F49124C3B7F4F021067900125E04A
:100BE60064016003020CA29000D7E064B8600302BF
:100BF6000CA27F80124C817F20124C3B7F45124C09
:100C06003B7F4E124C3B7F54124C3B7F52124C3B67
:100C16007F41124C3B7F44124C3B7F41124C3B7F41
:100C260020124C3B7F46124C3B7F55124C3B7F4576
:100C3600124C3B7F52124C3B7F41124C3B7F2012A1
:100C46004C3B7F20124C3B7FC0124C817F44124CA0
:100C56003B7F45124C3B7F20124C3B7F48124C3B5E
:100C66007F4F124C3B7F52124C3B7F41124C3B7FD5
:100C760052124C3B7F49124C3B7F4F124C3B7F201C
:100C8600124C3B7F2D124C3B7F43124C3B7F411253
:100C96004C3B7F4A124C3B7F41021067900125E096
:100CA60064016003020D629000D7E064B96003023C
:100CB6000D627F80124C817F44124C3B7F49124C5F
:100CC6003B7F41124C3B7F20124C3B7F44124C3BF6
:100CD6007F45124C3B7F20124C3B7F41124C3B7FA1
:100CE60043124C3B7F43124C3B7F45124C3B7F5398
:100CF600124C3B7F4F124C3B7F20124C3B7F201205
:100D06004C3B7F20124C3B7FC0124C817F49124CDA
:100D16003B7F4E124C3B7F56124C3B7F41124C3B65
:100D26007F4C124C3B7F49124C3B7F44124C3B7F1D
:100D36004F124C3B7F20124C3B7F20124C3B7F20B6
:100D4600124C3B7F20124C3B7F20124C3B7F2012E3
:100D56004C3B7F20124C3B7F20021067900125E020
:100D66006401705D9000D7E064FB70557FC0124C43
:100D7600817F45124C3B7F52124C3B7F52124C3BBB
:100D86007F4F124C3B7F52124C3B7F20124C3B7FD5
:100D960054124C3B7F52124C3B7F41124C3B7F4ED0
:100DA600124C3B7F53124C3B7F50124C3B7F4F12F1
:100DB6004C3B7F52124C3B7F54124C3B7F450210FA
:100DC60067900125E06401705D9000D7E064FC70D7
:100DD600557FC0124C817F4E124C3B7F4F124C3BCD
:100DE6007F20124C3B7F45124C3B7F53124C3B7F7E
:100DF60020124C3B7F4D124C3B7F45124C3B7F4EA5
:100E0600124C3B7F53124C3B7F55124C3B7F411299
:100E16004C3B7F4C124C3B7F2E124C3B7F2E124C90
:100E26003B7F2E021067900125E06401705D900003
:100E3600D7E064FD70557FC0124C817F4E124C3B4B
:100E46007F4F124C3B7F20124C3B7F45124C3B7F21
:100E560053124C3B7F20124C3B7F44124C3B7F4548
:100E6600124C3B7F20124C3B7F52124C3B7F4F1261
:100E76004C3B7F54124C3B7F41124C3B7F43124C00
:100E86003B7F49124C3B7F4F021067900125E0647F
:100E960001705D9000D7E064FE70557FC0124C81F2
:100EA6007F42124C3B7F49124C3B7F45124C3B7FA5
:100EB6004E124C3B7F56124C3B7F45124C3B7F4EAD
:100EC600124C3B7F49124C3B7F44124C3B7F4F12E6
:100ED6004C3B7F20124C3B7F20124C3B7F20124C18
:100EE6003B7F20124C3B7F20124C3B7F2002106739
:100EF600900125E06401705C9000D7E0F470557FA6
:100F060080124C817F47124C3B7F52124C3B7F41F3
:100F1600124C3B7F43124C3B7F49124C3B7F4112A4
:100F26004C3B7F53124C3B7F2E124C3B7F2E124C78
:100F36003B7F2E124C3B7F20124C3B7F20124C3BBA
:100F46007F20124C3B7F20124C3B7F20124C3B7F74
:100F5600200210679000D7E06402600302106DA3C0
:100F6600E06469600302106D1248DA7BFF7A437908
:100F76003EE4FDFF1200167FC0124C819000D9E0BE
:100F8600FF124A5E7F2F124C3B9000DAE0FF124AB6
:100F96005E7F2F124C3B9000DBE0FF124A5E7F2003
:100FA600124C3B9000DCE0FF124A5E7F3A124C3B4B
:100FB6009000DDE0FF124A5E9000DEE0FF124A5E1E
:100FC6007F8C124C819000DFE06401700F7F441229
:100FD6004C3B7F6F124C3B7F6D0210679000DFE049
:100FE6006402700E7F4C124C3B7F75124C3B7F6E39
:100FF600806F9000DFE06403700E7F4D124C3B7FE4
:1010060061124C3B7F7280599000DFE06404700EE1
:101016007F4D124C3B7F69124C3B7F6580439000AD
:10102600DFE06405700E7F4A124C3B7F75124C3B25
:101036007F65802D9000DFE06406700E7F56124CAF
:101046003B7F69124C3B7F6580179000DFE06407A9
:101056006003021FEE7F53124C3B7F61124C3B7FB5
:1010660062124C3B021FEE9000D7E064026003025E
:10107600112BA3E06449600302112B7F80124C817F
:10108600E4900259F0900259E02470F582E43400AD
:10109600F583E0FF600B124C3B900259E004F080B0
:1010A600E4900125E024FE90025EF07FC0124C81A0
:1010B600E49001E4F0900259F090025EE0FF9002A5
:1010C60059E0FEC39F503774D92EF582E43400F5FB
:1010D60083E064037008EF04900259F080189002D0
:1010E60059E024D9F582E43400F583E0FF124C3B45
:1010F6009001E4E004F0900259E004F080BBE49033
:101106000259F09001E4E0FFC374109FFF9002596A
:10111600E0C39F4003021FEE7F20124C3B90025912
:10112600E004F080DE9000D7E0640260030211C79D
:10113600A3E0644460030211C71248DA7F80124CB0
:10114600817BFF7A43794F124AB39002597402F0B9
:10115600900259E0FF24D7F582E43400F583E06479
:101166003B601774D72FF582E43400F583E0FF1255
:101176004C3B900259E004F080D67FC0124C81901F
:101186000259E004F07BFF7A43795B124AB390027E
:101196005A7402F0900259E0FF24D7F582E4340035
:1011A600F583E0643B7003021FEE74D72FF582E4EB
:1011B6003400F583E0FF124C3B900259E004F080C6
:1011C600D39000D7E064027012A3E06405700CA30C
:1011D600E064037006124A89021FEE9000D7E0FB16
:1011E6007A006402600302128EA3E0645760030271
:1011F600128E900125E0FF24D6F582E43400F583B3
:10120600E06403600302128EEF6412707B9001FEAD
:10121600F0A3F0C205D20B9000DBE09002A0F090A4
:1012260000DAE09002A1F09000D9E09002A2F090DE
:1012360000DDE0900123F09000DEE09000FCF090ED
:1012460000DFE0900196F09000E0E0900197F090CA
:1012560000E1E0900110F09000E2E0900124F090AF
:1012660000E3E09000FEF09000E4E0900198F0903A
:1012760000E5E0900199F09000E6E0900111F09011
:1012860000E7E09000FD802FEB64024A703D90007D
:10129600D8E0645770359001FEF0A3F0C205C20B8A
:1012A6009000DBE09002A0F09000DAE09002A1F05E
:1012B6009000D9E09002A2F0900203E04402F09080
:1012C60001E2E4F0A37405F0021FEE9000D7E0649B
:1012D600027045A3E0644D703F9001FEF0A3F0124A
:1012E60045E7C2059000DBE09002A0F09000DAE04E
:1012F6009002A1F09000D9E09002A2F0900203E0E3
:101306004402F09001E2E4F0A37405F09001DEE4FB
:10131600F0A3748CF0021FEE9000D7E0FB7A006415
:1013260002600302149DA3E06477600302149D909B
:101336000125E0FF24D6F582E43400F583E064035A
:10134600600302149D9001FEF0A3F0D205C212C202
:101356001C9000DBE09002A0F09000DAE09002A181
:10136600F09000D9E09002A2F09000DDE090012319
:10137600F09000DEE09000FCF09000DFE090019637
:10138600F09000E0E0900197F09000E1E09001100D
:10139600F07E00EF641270379000E2E0900124F0D6
:1013A6009000E3E09000FEF09000E4E0900198F0F9
:1013B6009000E5E0900199F09000E6E0900111F0D0
:1013C6009000E7E09000FDF0D212C21C02148AD30E
:1013D600EF9412EE6480948050030214809000E231
:1013E600E0900124F09000E3E09000FEF09000E42D
:1013F600E0900198F09000E5E0900199F09000E609
:10140600E0900111F0900125E024D5F582E4340046
:10141600F583E09000FDF0D212D21CE49000D6F0E5
:101426009001E1740AF09002597410F0900125E0E1
:10143600FF24FEFE900259E0FDC39E504774D72D4F
:10144600F582E43400F583E064039002596021E0FC
:10145600FE24D7F582E43400F583E0FD749E2EF574
:1014660082E43401F583EDF09000D6E004F08002CA
:10147600EFF0900259E004F080B29000E2E09000B4
:10148600FDF0C212900203E04402F09001E2E4F0A3
:10149600A3740AF0021FEEEB64024A6003021616FA
:1014A6009000D8E0FF64506017EF64546012EF6458
:1014B60056600DEF64456008EF6447600302161638
:1014C600E49001FEF0A3F0900127EFF0900125E0F3
:1014D600900092F0124BEEC20DC2247F80124C8116
:1014E6009002597403F0900092E0FF900259E0FEDA
:1014F600C39F400302158174D72EF582E43400F5AC
:1015060083E0C39430401074D72EF582E43400F59E
:1015160083E0D39439403D74D72EF582E43400F548
:1015260083E0C39441401074D72EF582E43400F56D
:1015360083E0D3945A401D74D72EF582E43400F527
:1015460083E0642D600E74D72EF582E43400F583B3
:10155600E0B42E04D2258008C225EF04900259F08B
:10156600900259E024D7F582E43400F583E0FF12B7
:101576004C3B900259E004F00214EC202503021FB4
:10158600DFE490025AF09000FDF0900259F09000CE
:1015960092E0FF900259E0FEC39F502A74D72EF5C1
:1015A60082E43400F583E0B42E1474D82EF582E478
:1015B6003400F583E09000FDF0900259EFF09002C0
:1015C60059E004F080C89000FDE06007900092E0CA
:1015D60024FBF0900203E04401F0E4900259F090FD
:1015E6000092E0FF900259E0FEC39F4003021FDF16
:1015F60074DA2EF582E43400F583E0FF74C92EF523
:1016060082E43401F583EFF0900259E004F080CFD4
:101616009000D7E064026003021772A3E064616081
:1016260003021772900125E024D6F582E43400F512
:1016360083E0640360030217729001FEF0A3F0D208
:101646000CC2079000F8F09002597402F090012540
:10165600E0FC900259E0FEC39C502174D72EF5821F
:10166600E43400F583E0B42D0BEE049001ABF0906A
:101676000259ECF0900259E004F080D190025974BE
:1016860002F09001ABE014FF900259E0FEC39F50B8
:101696002674D72EF582E43400F583E0FF74C72E56
:1016A600F582E43401F583EFF09000F8E004F09061
:1016B6000259E004F080CB9001ABE0FF04F074D750
:1016C6002FF582E43400F583E0900123F09001AB1E
:1016D600E0FF04F074D72FF582E43400F583E09040
:1016E60000FCF09001ABE0FF04F074D72FF582E424
:1016F6003400F583E0900196F09001ABE0FF04F032
:1017060074D72FF582E43400F583E0900197F090CA
:1017160001ABE0FF04F074D72FF582E43400F583C3
:10172600E0900110F0E49001ADF09001ABE0049080
:101736000259F0900125E014FF900259E0FEC39F84
:101746004003021B4274D72EF582E43400F583E091
:10175600FF9001ADE0FE04F074AE2EF582E4340194
:10176600F583EFF0900259E004F080C79000D7E0CF
:1017760064026003021974900125E024D6F582E420
:101786003400F583E0640360030219749000D8E026
:10179600FF646D6017EF646E6012EF646F600DEFAB
:1017A60064416008EF64526003021974EF646E705E
:1017B600499001FEF0A3F0C21D7F80124C81E49097
:1017C6000259F0900259E02404F582E43402F583CC
:1017D600E0FF600B124C3B900259E004F080E47F7E
:1017E6008D124C813003047F4E80027F53124C3B96
:1017F6007F20124C3B7F4E0218EF9000D8E0646DBC
:101806007043D21D7F80124C81E4900259F0900201
:1018160059E02404F582E43402F583E0FF600B12FC
:101826004C3B900259E004F080E47F8D124C8130ED
:1018360003047F4E80027F53124C3B7F20124C3BA9
:101846007F4D0218EF9000D8E0646F60030218F431
:10185600A3E064307048C21D9001FEF0A3F07F80C3
:10186600124C81E4900259F0900259E02404F5826A
:10187600E43402F583E0FF600B124C3B900259E022
:1018860004F080E47F8D124C813003047F4E800289
:101896007F53124C3B7F20124C3B7F6F804B900056
:1018A600D9E06431600302196BD21D7F80124C812E
:1018B600E4900259F0900259E02404F582E43402DF
:1018C600F583E0FF600B124C3B900259E004F08078
:1018D600E47F8D124C813003047F4E80027F5312C9
:1018E6004C3B7F20124C3B7F4D124C3B8077900047
:1018F600D8E0FD6441703D9001FEE07002A3E06017
:1019060064E49001FEF0A3F090005BE09002A0F08A
:1019160090005CE09002A1F090005DE09002A2F0E1
:10192600900203E04402F09001E2E4F0A37405F0B3
:10193600C20B8031EDB4522DE49001FEF0A3F07F8E
:1019460080124C81E4900259F0900259E0249AF5F5
:1019560082E43401F583E0FF600B124C3B900259A0
:10196600E004F080E49000D874FFF0021FEE9000CF
:10197600D7E064026003021B4CA3E0FF64736008B7
:10198600EF64436003021B4C900125E024D6F582E8
:10199600E43400F583E064036003021B4C9001FE0F
:1019A600F0A3F0D20CD2079000F8F09000D8E0B483
:1019B6004304D20D8002C20D9002597402F09001C8
:1019C60025E0FC900259E0FEC39C502174D72EF509
:1019D60082E43400F583E0B42D0BEE04900059F058
:1019E600900259ECF0900259E004F080D190005931
:1019F600E024D7F582E43400F583E0900023F090EC
:101A060002597402F0900059E0FF14FE900259E06A
:101A1600FDC39E502674D72DF582E43400F583E08D
:101A2600FE74C72DF582E43401F583EEF09000F8DC
:101A3600E004F0900259E004F080CAEF240290011D
:101A4600ABF0E0FF04F074D72FF582E43400F583A1
:101A5600E0900123F09001ABE0FF04F074D72FF57E
:101A660082E43400F583E09000FCF09001ABE0FFE7
:101A760004F074D72FF582E43400F583E0900196E4
:101A8600F09001ABE0FF04F074D72FF582E4340048
:101A9600F583E0900197F09001ABE0FF04F074D776
:101AA6002FF582E43400F583E0900110F09001AB4D
:101AB600E004F0E0FF04F074D72FF582E43400F57B
:101AC60083E0900124F09001ABE0FF04F074D72F7F
:101AD600F582E43400F583E09000FEF09001ABE07F
:101AE600FF04F074D72FF582E43400F583E090010B
:101AF60098F09001ABE0FF04F074D72FF582E43440
:101B060000F583E0900199F09001ABE0FF04F074DA
:101B1600D72FF582E43400F583E0900111F09001AF
:101B2600ABE004F0E0FF04F074D72FF582E4340054
:101B3600F583E09000FDF0E49001ADF0900203E043
:101B46004401F0021FDF9000D7E064026003021C2C
:101B56000CA3E064646003021C0C900125E0FF24E2
:101B6600D6F582E43400F583E064036003021C0CBE
:101B7600EF64096003021C0C124BEE7F80124C814D
:101B86007F53124C3B7F61124C3B7F6C124C3B7F68
:101B960064124C3B7F6F124C3B7F20124C3B7F44C0
:101BA600124C3B7F69124C3B7F73124C3B7F701289
:101BB6004C3B7F6F124C3B7F6E124C3B7F69124C45
:101BC6003B7F62124C3B7F6C124C3B7F65124C3B59
:101BD600124C087FC0124C819002597402F0900298
:101BE60059E0FFC39408748094804003021FEE748A
:101BF600D72FF582E43400F583E0FF124C3B9002C8
:101C060059E004F080D8900125E0900092F0124B44
:101C1600EEE49000FDF0900259F0900092E0FF9003
:101C26000259E0FEC39F502A74D72EF582E4340091
:101C3600F583E0B42E1474D82EF582E43400F583CF
:101C4600E09000FDF0900259EFF0900259E004F0A8
:101C560080C89000FDE06007900092E024FEF0C28C
:101C66000DC224E490025AF0900259F0900092E0DE
:101C7600FB900259E0FEC39B502A74D72EF582E4EE
:101C86003400F583E0B42D14900259A3E0FD04F06E
:101C9600745C2DF582E43402F583EEF0900259E08F
:101CA60004F080C890025AE0600B90025CE0049059
:101CB600025BF0800590025BEBF07F80124C81E4C2
:101CC600900259F090025BE0FF900259E0FEC39F3C
:101CD6004003021D5F74D72EF582E43400F583E0DD
:101CE600C39430401074D72EF582E43400F583E0B7
:101CF600D39439403D74D72EF582E43400F583E061
:101D0600C39441401074D72EF582E43400F583E085
:101D1600D3945A401D74D72EF582E43400F583E03F
:101D2600642D600E74D72EF582E43400F583E0B49A
:101D36002E04D2258008C225EF04900259F09002A5
:101D460059E024D7F582E43400F583E0FF124C3BDA
:101D5600900259E004F0021CCA202503021FEEE49B
:101D66009001FEF0A3F0900203E04401F090025AC5
:101D7600E07003021FA864016003021EE790009250
:101D8600E024FFFFE434FFFE90025CE0FDC3EF9D1C
:101D9600FFEE9400FEEF64014E705A900259F090E7
:101DA6000092E0FF900259E0FEC39F502074D72EA8
:101DB600F582E43400F583E0FD74C92EF582E4343F
:101DC60001F583EDF0900259E004F080D2D224743C
:101DD600C82FF582E43401F583E0900023F07F44B8
:101DE600124C3B900023E0FF124C3B900092E02403
:101DF600FEF0021FDFC224E4900259F090025CE07C
:101E0600FF900259E0FEC39F502074D72EF582E45E
:101E16003400F583E0FD74C92EF582E43401F583C0
:101E2600EDF0900259E004F080D2900092E024FF99
:101E3600FDE434FFFCC3ED9FFFEC9400FEEF640568
:101E46004E6003021EDCD20D7F43124C3B7F6112B3
:101E56004C3B7F6A124C3B7F65124C3B7F72124CA7
:101E66003B7F6F124C3B90025CE0049001ABF0E0CC
:101E7600FF04F074D72FF582E43400F583E0900177
:101E860023F09001ABE0FF04F074D72FF582E43421
:101E960000F583E09000FCF09001ABE0FF04F074E5
:101EA600D72FF582E43400F583E0900196F0900197
:101EB600ABE0FF04F074D72FF582E43400F583E03D
:101EC600900197F09001ABE024D7F582E43400F559
:101ED60083E0900110F090025CE0900092F0021F07
:101EE600DFE4900259F090025CE0FF900259E0FEB8
:101EF600C39F502074D72EF582E43400F583E0FFAB
:101F060074C92EF582E43401F583EFF0900259E0AE
:101F160004F080D2D22490025CE0FD24CAF582E46B
:101F26003401F583E0900023F0D20D90025DE004C9
:101F36009001ABF0E0FF04F074D72FF582E4340093
:101F4600F583E0900123F09001ABE0FF04F074D735
:101F56002FF582E43400F583E09000FCF09001ABAD
:101F6600E0FF04F074D72FF582E43400F583E090A7
:101F76000196F09001ABE0FF04F074D72FF582E4F0
:101F86003400F583E0900197F09001ABE024D7F59B
:101F960082E43400F583E0900110F0900092EDF0B9
:101FA6008037E4900259F0900092E0FF900259E0E9
:101FB600FEC39F502074D72EF582E43400F583E0EB
:101FC600FF74C92EF582E43401F583EFF0900259CF
:101FD600E004F080D2C224C20D9000F7741EF09087
:101FE6000024E4F0A3741EF0208D030221CBC28DE1
:101FF6009000FBE0600714F0E07002D2109001DE62
:10200600E07002A3E0600E9001DFE024FFF0900193
:10201600DEE034FFF0900200E07002A3E0600E9074
:102026000201E024FFF0900200E034FFF09001FE90
:10203600E07002A3E0603F9001FFE024FFF0900112
:10204600FEE034FFF0E07002A3E0702A90005BE04F
:102056009002A0F090005CE09002A1F090005DE09C
:102066009002A2F0900203E04402F09001E2E4F054
:10207600A37405F0C20B20B71B9000FAE0FF640EB4
:102086006003EF7013300106C294C201800AD29435
:10209600D2018004D294D21F9000FAE014F0E060DE
:1020A600030221CB3022139001ACE0600214F090C1
:1020B60001ACE0700B12454080009001AC7405F055
:1020C600900024E07002A3E06033900025E024FF36
:1020D600F0900024E034FFF0E07002A3E0701E9060
:1020E6000203E054FEF0E4900127F0C20CC2079010
:1020F60000FD7420F0C20D302203124BEE9001E277
:10210600E07002A3E060209001E3E024FFF090017C
:10211600E2E034FFF0E07002A3E0700B900203E00F
:1021260054FDF0C20BC21C9000F7E0607314F0E09F
:10213600706E741EF07F80124C81E4900259F0900C
:102146000259E0C3941074809480500D7F20124C85
:102156003B900259E004F080E6900203E054FEF062
:1021660054FDF054FBF0D222E4900127F0C21CC2C9
:102176000DC20CC207C21C7FC0124C81E4900259EA
:10218600F0900259E02448F582E43400F583E0FF3C
:10219600600B124C3B900259E004F080E41245407B
:1021A600C20AC296C295C218C280C219C281C21A98
:1021B600C282C21BC2839000FA741CF0E4F58CF54F
:1021C6008AC28DC21E30103B30B438C210E4900271
:1021D6005EF09001DDE0FF90025EE0FEC39F5020BE
:1021E60074EA2EF582E43401F583E0FD74D72EF50A
:1021F60082E43400F583EDF090025EE004F080D2D4
:102206001245483016077F06124CE6C21690012684
:10221600E0FF64036005EF6407700312224130009B
:102226001430B411C2009000D774ABF07F01124590
:0B22360048E4124542124B55020126FD
:10499B002575004552524F52204445204C454354F7
:1049AB005552410080402010080402010000000015
:1049BB0000004C4543542E31202020202020202065
:0449CB002020200088
:104190004102C3004102C2004102C10041029F002E
:0841A0004102A4004102A50048
:030003000249218E
:10492100C0E0C083C082C0D09002C3E024A6F5825B
:10493100E43402F5837430F09002C3E004F0641AA9
:1049410070129002C204F0A3E024A7F582E43402BD
:0D495100F583E4F0D0D0D082D083D0E032E6
:0300130002495E41
:10495E00C0E0C083C082C0D09002C3E024A6F5821E
:10496E00E43402F5837431F09002C3E004F0641A6B
:10497E0070129002C204F0A3E024A7F582E4340280
:0D498E00F583E4F0D0D0D082D083D0E032A9
:054CF400D288D2A822C5
:054CF900D28AD2AA22BC
:034CFE00D2AF2210
:0C000600124CF4124CF9124CFE0249CFCF
:1049CF00E4FFEFC3941B74809480501774A62FF5E7
:1049DF0082E43402F583E4F09002C3F09002C2F057
:1049EF000F80DFE49002C1F090029FF09002A4F0DC
:0249FF00A3F023
:014A01002292
:104B79007F011244909002C1EFF07F091244909096
:0F4B8900029FEFF07F111244909002A4EFF022F0
:104BB600124B799002C1E09002A0F090029FE0A310
:0C4BC600F09002A4E09002A1F00245E78C
:0544900090025FEFF057
:1044950078607C027D017BFF7A49799E7E007F11E1
:1044A500123EAAE4900273F078747C027D017BFFD2
:1044B5007A4979AFFE7F08123EAA90025FE0FE249A
:1044C50008900271F0A3EEF0900271E0FFA3E0FE08
:1044D500C39F506174A62EF582E43402F583E0F99A
:1044E500B43129900273E0FF90025FE0FD90027203
:1044F500E0C39DFDE49400FC74742DF58274023CC8
:10450500F583E0FEEF4E900273F08021E9D39431FC
:104515005006E9C3943050157F80124C817B017A97
:10452500027960124AB3E4900273F0800890027237
:0A453500E004F08093900273E0FFB1
:01453F002259
:1045E700785F7C027D017BFF7A4979B77E007F0681
:1045F700123EAA78657C027D017BFF7A4979BD7EF0
:10460700007F12123EAA124CEE7F80124C817B0172
:104617007A027965124AB37F87124C819002A0E033
:10462700FF7E0090027A74FFF0A37449F0A3749B95
:10463700F0A3EEF0A3EFF07B017A02795F123ADA8A
:104647007B017A02795F124AB37F2D124C3B9002AD
:10465700A1E0FEA3E0FDEDFF90027A74FFF0A374E2
:1046670049F0A3749BF0A3EEF0A3EFF07B017A026D
:0E467700795F123ADA7B017A02795F024AB368
:0441A8004102C4000C
:104C2200C20F759850438780438920758840758DDF
:094C3200F4758BF4D28ED2AC2291
:084CE600200FFD8F99D20F226F
:030023000235D9CA
:0B35D900C0E0C083C082C0D075D008E5
:1035E400209803023A65AB99C298900126E01460D2
:1035F4003C14605824FD700302369514700302379E
:103604003424FE70030236D324086003023A609027
:1036140000D5E4F0AF0BEBFD3395E0FCED64054C15
:103624006003023A6590012604F0023A659000F5C1
:10363400E0AF0B900126B50B0E7402F09000F77406
:103644001EF0C222023A65E4F0023A65AF0BEB24A5
:10365400AD602024F0602924FE600F24EE60122463
:1036640007702B9001267403805C900126740880F7
:1036740055800D9001267405F0D216D223023A65C6
:103684009001267405F07F06124CE6023A59023A7C
:1036940060AF0BEBFD3395E0FCED64024C701D90C4
:1036A40000D5F0E0FE04F074282EF582E43401F530
:1036B40083EFF09001267406F0023A65ED64054C40
:1036C400900126700504F0023A59E4F0023A65AF1D
:1036D4000B9000D5E0FE04F074282EF582E434014A
:1036E400F583EFF09000D5E0D3943C74809480404F
:1036F40003023A60AF0BEBFD3395E0FCED64034C41
:10370400701D900126F0900203E054FEF090012712
:10371400E4F0C20CC207900024F0A3F0023A65ED75
:1037240064054C6003023A6590012604F0023A599C
:10373400AF0B9000D5E0FE04F074282EF582E4343B
:1037440001F583EFF09000D5E0D3943C748094802D
:103754004003023A60AF0BEBFD3395E0FCED6403EC
:103764004C6003023A4730233CC223D2069001E066
:10377400F09000D5E0FE9001E0E0FDC39E5020747F
:10378400282DF582E43401F583E0FE74932DF5824F
:10379400E43400F583EEF09001E0E004F080D29090
:1037A40001267407F09000D5E0FD7C0064066003F8
:1037B4000238A3900129E0FE64446044EE64417041
:1037C4003F9001DEE07002A3E0601B9001DEE4F0B4
:1037D400A3F0D200900203E054FDF0900200E4F064
:1037E400A37454F0801A900200E07002A3E07010F9
:1037F400D2969000FA741CF0758C00758A00C28D04
:1038040090012AE0FF64447003023897EF6441603A
:1038140003023897300360D200302146301174C25D
:1038240011900203E054FDF09001DEE07002A3E089
:10383400601DC20B9001DEE4F0A3F0D200900203FD
:10384400E054FDF0900200E4F0A37454F08044903E
:103854000200E07002A3E0703AD2959000FA741C62
:103864008028301109C211900203E054FDF0D29572
:103874009000FA742A8013301109C211900203E0F7
:1038840054FDF0D2959000FA742AF0758C00758A74
:1038940000C28D900126E4F09000D5F0023A65ED67
:1038A40064074C703D900129E064636003023A654B
:1038B4009001E0F09000D5E0FF9001E0E0FEC39FAE
:1038C400505D74282EF582E43401F583E0FF74D74B
:1038D4002EF582E43400F583EFF09001E0E004F08B
:1038E40080D29000D5E0FF7E006419703B9001E027
:1038F400F09000D5E0FD9001E0E0FCC39D50207401
:10390400282CF582E43401F583E0FD74932CF582D0
:10391400E43400F583EDF09001E0E004F080D2900F
:1039240001267407F0023A65C3EF9426EE6480948E
:10393400805003023A65900129E06441703E900191
:10394400DEE07002A3E0601A900203E054FDF09000
:1039540001DEE4F0A3F0D200900200F0A37454F06E
:10396400801A900200E07002A3E07010D2969000DA
:10397400FA741CF0758C00758A00C28D90012AE0DF
:1039840064416003023A0AD20030035E30214630BB
:103994001174C211900203E054FDF09001DEE07056
:1039A40002A3E0601DC20B9001DEE4F0A3F0D2009C
:1039B400900203E054FDF0900200E4F0A37454F08C
:1039C4008044900200E07002A3E0703AD295900027
:1039D400FA741C8028301109C211900203E054FDCE
:1039E400F0D2959000FA742A8013301119C2119004
:1039F4000203E054FDF0D2959000FA742AF0758C1D
:103A040000758A00C28D9001E0E4F09001E0E0C30B
:103A14009426748094805021E0FF2428F582E434B5
:103A240001F583E0FE74932FF582E43400F583EE10
:103A3400F09001E0E004F080D29001267407F0D207
:103A440015801EAF0BEF3395E0FEEF64054E701149
:103A540090012604F09000D5E4F08005900126E45E
:083A6400F0309904C299C20F71
:093A6C00D0D0D082D083D0E0322A
:024BD200AE072C
:104BD400E4FDEDC39E501274642DF582E43401F5B6
:094BE40083E0FF124CE60D80E9AC
:014BED0022A5
:104B9800E4FFFE9000D5E0FDEEC39D501074932E07
:0D4BA800F582E43400F583E06FFF0E80E637
:014BB50022DD
:10487600124B989000D5E0FE04F074D72EF582E432
:104886003400F583EFF0E4FF9000D5E0FEEFC39E21
:10489600501B74D72FF582E43400F583E0FE74C50F
:1048A6002FF582E43402F583EEF00F80DB9000D51D
:1048B600E0FF24C6F582E43402F583E4F074D82FD1
:1048C600F582E43400F583E4F09002C4EFF012457B
:0448D600480247113C
:104A8900E4FE9002C4E0FFEEC39F501B74C52EF5EF
:104A990082E43402F583E0FD74D72EF582E4340014
:0A4AA900F583EDF00E80DB024548B6
:104711009002687401F0A37400F0A374DDF0A3E4C7
:10472100F0A37402F07B017A02796112480EE490E1
:104731000263F0900261E0540FC454F0FFA3E0540F
:104741000F4FFFC3940274809480404D90026874AF
:1047510001F0A37400F0A374E2F0A3E4F0A37402E7
:10476100F07B017A02796112480EE4900263F090C5
:104771000261E0540FC454F0FFA3E0540F4FC394FF
:10478100167480948040129000D77402F0A374557F
:09479100F0A37403F0FF12454887
:01479A0022FC
:0100120022CB
:104A3000E490005AF0301805E04401F022301908E3
:104A400090005AE04402F022301A0890005AE044E4
:0E4A500004F022301B0790005AE04408F022C8
:104C9700E4FDFCC3ED9FEC9E500A1200120DBD000F
:044CA700010C80EF8D
:014CAB0022E6
:034CAC00124C792E
:104CAF00E4FFFE1200120FBF00010EEF64024E7000
:014CBF00F202
:014CC00022D1
:104CD400E4FFFE1200120FBF00010EEF64024E70DB
:014CE400F2DD
:014CE50022AC
:0E4C6B00124A30ED54F0FF90005AE04FF580F1
:084C7900D291124CAFC291224E
:104C8100AD07C290124C6BEDC454F0FD54F0FFE03F
:064C91004FF580024C7992
:104C54007F01124C81E4FFFE1200120FBF00010E0F
:064C6400EF64FA4E70F24D
:014C6A002227
:1048DA00C290124CAFC291124CAF758039124CACD7
:1048EA00124CAC124C79124CAF758029124C7912C9
:1048FA004CAF7F0C124C81124C541200127F0612DC
:10490A004C811200127F80124C81124CAF124A3035
:07491A0090005AE0F5802235
:104C3B00AD07D290120012124C6BEDC454F0FD5420
:094C4B00F0FFE04FF580024C7906
:104B0700AE07ED14600F14601114601324037016C0
:104B1700EE2480800DEE24C08008EE24948003EEFE
:074B270024D4FF124C81228F
:0B4AB30090027CEBF0A3EAF0A3E9F016
:104ABE00E4FC90027CE0FBA3E0FAA3E0F98C8275A3
:0E4ACE008300123ED0FF6006124C3B0C80E4C9
:014ADC0022B7
:0C001600AE07AF05AD06124B07024AB35F
:104ADD00C292C293124CAF9000F57431F030920334
:104AED00E004F03093079000F5E02402F07FC91246
:0A4AFD004C819000F5E0FF024C3BF5
:104BEE007F80124C81E4FCECC3941074809480504E
:094BFE00087F20124C3B0C80EEF4
:014C0700228A
:104C08007FC0124C81E4FCECC394107480948050F3
:094C1800087F20124C3B0C80EED9
:014C21002270
:064CEE00124BEE024C081F
:0300000002468530
:0C468500787FE4F6D8FD7581250246CC54
:103DDA00E709F608DFFA8046E709F208DFFA803ECB
:103DEA0088828C83E709F0A3DFFA8032E309F608B8
:103DFA00DFFA8078E309F208DFFA807088828C8320
:103E0A00E309F0A3DFFA806489828A83E0A3F608D3
:103E1A00DFFA805889828A83E0A3F208DFFA804CAD
:103E2A0080D280FA80C680D4806980F28033801084
:103E3A0080A680EA809A80A880DA80E280CA8033ED
:103E4A0089828A83ECFAE493A3C8C582C8CCC58365
:103E5A00CCF0A3C8C582C8CCC583CCDFE9DEE78035
:103E6A000D89828A83E493A3F608DFF9ECFAA9F0B4
:103E7A00EDFB2289828A83ECFAE0A3C8C582C8CC0A
:103E8A00C583CCF0A3C8C582C8CCC583CCDFEADE23
:103E9A00E880DB89828A83E493A3F208DFF980CC85
:103EAA0088F0EF60010E4E60C388F0ED2402B4047E
:103EBA000050B9F582EB2402B4040050AF23234525
:063ECA008223903E2A73E2
:103ED000BB010CE58229F582E5833AF583E02250A7
:103EE00006E92582F8E622BBFE06E92582F8E222F1
:0D3EF000E58229F582E5833AF583E493220B
:0C3EFD00ECF0A3EDF0A3EEF0A3EFF02238
:103F0900A8828583F0D083D082123F20123F2012ED
:103F19003F20123F20E473E493A3C583C5F0C58312
:103F2900C8C582C8F0A3C583C5F0C583C8C582C802
:013F39002265
:103A7500E510247AF582E43402F583E005102290FE
:103A85000277302D0390027AE475F001123FB302FC
:103A95003F3A2026E97F2ED2268018EF540F249036
:103AA500D43440D4FF302A0BEF24BFB41A0050039E
:103AB5002461FFE511600215110514E51470020576
:103AC50013302D0E900277E475F001123FB3EF022B
:103AD5003F53024B2E7403D22D8003E4C22DF51003
:103AE500900277123FCAE4F511F513F514E511605C
:103AF500077F20123AB880F57512FFC227C226C289
:103B050028C229C22BC22CC22E123A84FF700D3056
:103B15002D057F00123AC9AF14AE1322B4255FC23A
:103B2500D5C22A123A84FF24D0B40A00501A75F07F
:103B35000A781130D50508B6FF0106C6A426F62079
:103B4500D5047002D22980D924CFB41A00EF5004CD
:103B5500C2E5D22A023CCAD22780C6D22680C0D26C
:103B65002880BCD2D580BAD22B80B47F20123AB837
:103B75002028077401B5110040F1123A75FF123A79
:103B8500B8023AF2D22ED22C8095123A75FB123A2F
:103B950075FA123A75F94A4B7006799B7A3D7BFFA7
:103BA50020282EE511602A7E008E82758300123E44
:103BB500D060060EEE651270F0C2D5EBC0E0EAC02B
:103BC500E0E9C0E0EE123D11D0E0F9D0E0FAD0E036
:103BD500FB123F3AFF60AAEBC0E0EAC0E0E9C0E0B3
:103BE500123AB8D0E02401F9D0E03400FAD0E0FB75
:103BF500E5120460DCD512D980877BFF7A3D790D0B
:103C0500D228809C791080027908C22CC22E8008A7
:103C1500D2D5790A8004790AC2D5E512047002F575
:103C250012E4FAFDFEFF123A75FC7B0820271312F9
:103C35003A75FD7B1030260A123A75FE123A75FF69
:103C45007B20EC3382D592D55013C3E43026069FF2
:103C5500FFE49EFEE42027039DFDE49CFCE4CBF8F5
:103C6500C227EC700CCFCECDCCE824F8F870F380E9
:103C750017C3EF33FFEE33FEED33FDEC33FCEB33CF
:103C8500FB994002FB0FD8E9EB302705F8D0E0C4DB
:103C950048B227C0E00AEC4D4E4F78207B0070C239
:103CA500EAB5120040BCC0E0123D13D0F0D0E020D0
:103CB5002704C4C0E0C4B227C0F0123AA1D0F0D5A1
:103CC500F0EB023AF2123FD33B8F533C09583B606D
:103CD5004C3B5C423C0D4F3C15443C15493B754300
:083CE5003C1B553BFF463BFF71
:103CED00453BFF473DBB503B642D3B682E3B8B2B2B
:103CFD003B6C233B89203DA42A3B244800003B8399
:103D0D003F3F3F00790AA2D5202914302B09B91065
:103D1D00020404B9080104A2D5202C02500104208C
:103D2D0028689228B511005034C0E07F2030291941
:103D3D007F30A228722C722B500F123D6AC228C2FE
:103D4D002CC22BC22E7F30800F302B03E9C0E01226
:103D5D003AB8302B03D0E0F9D0E0B511CC302B17A9
:103D6D007F30B9100C123AB87F58302A077F78800F
:103D7D0003B90803123AB83028057F2D023AB87FEF
:103D8D0020202EF87F2B202CF322922880CF286E16
:103D9D00756C6C2900D227123A753027F8C2277836
:103DAD001130D50108F6023B242D50434958123AE3
:103DBD00752403B405004001E4903DB693123AA971
:0D3DCD00743A123AA9D229751104023C097A
:10480E00900265EBF0A3EAF0A3E9F0E490026DF0FC
:10481E00A3F090026B74FFF5F0123F9D45F0603CE3
:10482E00900268E0FBA3E0FAA3E0F9123F3AFF9092
:10483E000265E0FBA3E0FAA3E0F990026DE475F0E7
:10484E0001123F9D85F082F583EF123F65EF60C246
:10485E00900269E475F001123F8780B6900265E020
:08486E00FBA3E0FAA3E0F9222C
:10469100020026E493A3F8E493A34003F68001F219
:1046A10008DFF48029E493A3F85407240CC8C3332A
:1046B100C4540F4420C8834004F456800146F6DFF9
:1046C100E4800B0102040810204080903FF9E47E51
:1046D100019360BCA3FF543F30E509541FFEE493EE
:1046E100A360010ECF54C025E060A840B8E493A3B5
:1046F100FAE493A3F8E493A3C8C582C8CAC583CAE0
:10470100F0A3C8C582C8CAC583CADFE9DEE780BE97
:0141AC000012
:103F3A00BB010689828A83E0225002E722BBFE0285
:093F4A00E32289828A83E49322B8
:103F5300BB010689828A83F0225002F722BBFE014D
:023F6300F32247
:103F6500F8BB010DE58229F582E5833AF583E8F092
:103F7500225006E92582C8F622BBFE05E92582C83E
:023F8500F22226
:103F8700C5F0F8A3E028F0C5F0F8E58215827002C5
:063F97001583E038F02262
:103F9D00A3F8E0C5F025F0F0E582158270021583D7
:063FAD00E0C838F0E82234
:103FB300F8E0FBA3A3E0F925F0F0E5821582700297
:073FC3001583E0FA38F0223B
:093FCA00EBF0A3EAF0A3E9F022F8
:103FD300D083D082F8E4937012740193700DA3A37D
:103FE30093F8740193F5828883E473740293686091
:063FF300EFA3A3A380DF91
:104B2E00EFB40A07740D124B39740A309811A89914
:104B3E00B8130CC2983098FDA899C298B811F630E7
:074B4E0099FDC299F59922BF
:00000001FF
