:10428C002041636365735363616E2076342E352051
:10429C0000494E484142494C49544144412E2E2E2E
:1042AC0020004552524F5220454E204C4F4F502E1D
:1042BC002E2E005441524A45544120494E56414CF1
:1042CC00494441004E4F20524547495354524120D6
:1042DC005041474F005441522E2053494E20464FD7
:1042EC00524D41544F00444952494A415345204193
:1042FC002043414A412000466563686120486F7243
:10430C00613A20202020200049445F434C49454E0F
:10431C0054453A00434F445F5041524B3A0072654A
:10432C006369626F207472616D6120486F72613ACB
:10433C002000434F4D5041524143494F4E3A2020AB
:10434C00202000202020416464723A20202020206C
:10435C00202020002053494E2052455350554553A0
:10436C00544120200020504C414341204E4F2049C5
:10437C004755414C200020454E5649414E444F2054
:07438C004441544F5320008F
:103FC2005101114552524F523A20204C4F4F50202E
:103FD200312020005100472046554552412044459A
:103FE200204C494E454120005100C3204552524FBA
:103FF20052204D4946415245202020005101B745EB
:1040020052524F5220434F442E20504152512E00C3
:10401200510011202053494E20494E475245534FDB
:10402200202020005100B24E4F20524547495354A0
:104032005241205041474F0051005E45584345448C
:104042004520542E475241434941200051019920B5
:1040520041434345534F204E454741444F202000A2
:1040620051002520202053494E2053414C494441C0
:10407200202020005100FE4552524F52204752410B
:10408200424143494F4E2000510080414345525125
:104092005545534520412043414A410051006F5349
:1040A200455249453A20202020202020202020006F
:1040B200510036434F4D504152414E444F20504CD7
:1040C200414341005100005441524A455441205657
:1040D200454E4349444120004100D4004100F4319F
:1040E2004201FD00004201DD00004101DC0041010E
:1040F2002500410202004100D5004101E0004100DB
:10410200F7004101AC004101AB054100FA00420158
:10411200FF0000C10FC102C101C123C115C116C1F7
:1041220018C119C11AC11BC11EC122C124C125C196
:1041320008C111C121C184C106C105C112C10AC190
:104142009FC11CC10CC107C100C10BC109C18EC1F5
:0341520020C11079
:104BF900C2B6124C0C124C0C124C0CD2B6124C0C04
:034C0900024C0C4E
:0845190074B69000D6F07F019A
:05452100900261EFF0C3
:10452600D2B6C226C2B5900263123F2000000FA089
:1045360030B445202642900263E0FCA3E0FDA3E0F0
:10454600FEA3E0FFEF24FFFFEE34FFFEED34FFFD98
:10455600EC34FFFC900263123F14900263E0FCA36C
:10456600E0FDA3E0FEA3E0FFEC4D4E4F70C2D22665
:10457600D2B6D2B4D2B580B8202629E4900262F031
:10458600900261E0FFA3E0FEC39F501874D62EF59B
:1045960082E43400F583E0F5A0124BF9900262E064
:1045A60004F080DCD2B6D2B520260C124BE7124BB3
:0945B600E7124BE7124BE7A226C5
:0145BF0022D9
:1046EA0090025FE02402F09000FBE024D0FF9002E9
:0746FA005FE0FD3395E0FCD9
:08470100900260ECF0A3EDF062
:10470900E4A3F0A3F0FEFDFCEFC3946474809480ED
:104719004007749C2FFF0E80EFEFC3940A748094B6
:1047290080400774F62FFF0D80EFAC07ED4430FF92
:10473900900260E0FAA3E0FB2463F58274013AF584
:1047490083EFF0EC4430FF74642BF58274013AF581
:0347590083EFF0FB
:01475C00223A
:104A8D00301804D2808002C280301904D281800295
:104A9D00C281301A04D2828002C282301B03D283BB
:044AAD0022C283227C
:10417200E4900263F0D2B5900124F030B40302421D
:1041820089900262F0C2B5A3F0900263E0C3941E6C
:1041920074809480400302428990025E123F2000A4
:1041A20000003C30B64A20B447900262E070419071
:1041B200025EE0FCA3E0FDA3E0FEA3E0FFEF24FF2C
:1041C200FFEE34FFFEED34FFFDEC34FFFC90025EA7
:1041D200123F1490025EE0FCA3E0FDA3E0FEA3E028
:1041E200FFEC4D4E4F70BCA304F0A3741FF080B3DC
:1041F20030B603024277900262E0707920B476A36F
:10420200E024D6F582E43400F583E5A0F0900124A1
:10421200E004F090025E123F200000002320B65519
:10422200900262E0704FA3E024D6F582E43400F5F8
:1042320083E5A0F090025EE0FCA3E0FDA3E0FEA314
:10424200E0FFEF24FFFFEE34FFFEED34FFFDEC3420
:10425200FFFC90025E123F1490025EE0FCA3E0FDC0
:10426200A3E0FEA3E0FFEC4D4E4F70B1A304F0A318
:10427200741FF080A830B406900263741FF090029D
:0942820063E004F002418BD2B5A7
:01428B002210
:05491B0090025EEFF0C8
:104920007E0054F0FFEEC4F854F0C868FEEFC454A3
:104930000F484430FF124B7390025EE07E00540F2C
:064940004430FF024B733E
:104393009000D67402F0EF24FE600B04700E9000C0
:1043A300D77456F080069000D7744FF09002607473
:1043B30015F0900260E0D39425748094805021E03E
:1043C300FF2427F582E43401F583E0FE74C32FF55F
:1043D30082E43400F583EEF0900260E004F080D2D2
:1043E3009000E87403F030B43D7F1312452192200E
:1043F300302072E4900260F0900260E0C394137482
:104403008094805054E0FF24D6F582E43400F58391
:10441300E0FE74E92FF582E43401F583EEF09002B7
:1044230060E004F080D2E4900260F0900260E0C3A8
:104433009413748094805021E0FF24D6F582E434F1
:1044430000F583E0FE74E92FF582E43401F583EE91
:10445300F0900260E004F080D29001DC7413F090DD
:0544630000FA741CF0DA
:014468002231
:104A1700900260EFF030B40BE012451B922030207B
:104A27001680009001DC7401F0900260E09001E9CB
:084A3700F09000FA742AF0224D
:10224400900125E024F97003022EEA2404600302BD
:1022540035EA900202E0701B7F04124C1EE49001E8
:1022640025F020B7030235EF9000D674AAF07F0161
:10227400024521900202E054016401600302291125
:10228400200C0302273790025FF0E0FF04F0EF33E5
:1022940095E0FE74632FF58274013EF5837402F0B9
:1022A40090025FE0FF04200D15F0EF3395E0FE741B
:1022B400632FF58274013EF5837461F08013F0EFAF
:1022C4003395E0FE74632FF58274013EF583744305
:1022D400F0E490025EF09000F7E0FF90025EE0FD13
:1022E400FB3395E0FAC3EB9F7480F86A985033EDA2
:1022F400FF3395E0FE74C82FF58274013EF583E048
:10230400FF90025FE0FE04F0EEFD3395E0FC7463A1
:102314002DF58274013CF583EFF090025EE004F049
:1023240080B490025FE0FF04F0EF3395E0FE746345
:102334002FF58274013EF583742CF0300720900051
:1023440022E0FF90025FE0FE04F0EEFD3395E0FC36
:1023540074632DF58274013CF583EFF080199002CB
:102364005FE0FF04F0EF3395E0FE74632FF58274B1
:10237400013EF5837430F0200E030224539000FCD8
:10238400E0FFB4481890025FE0FE04F0EEFD3395E0
:10239400E0FC74632DF58274013C0224B1EFB45463
:1023A4001790025FE0FF04F0EF3395E0FE74632FB3
:1023B400F58274013E0224B19000FCE0FFB44D1894
:1023C40090025FE0FE04F0EEFD3395E0FC74632DB3
:1023D400F58274013C022496EFB4431790025FE047
:1023E400FF04F0EF3395E0FE74632FF58274013E31
:1023F4000224B130084320972A90025FE0FF0420B2
:10240400B711F0EF3395E0FE74632FF58274013E4B
:102414000224B1F0EF3395E0FE74632FF58274016A
:102424003E806F90025FE0FF04F0EF3395E0FE74AE
:10243400632FF58274013E805990025FE0FF04F03F
:10244400EF3395E0FE74632FF58274013E805E30B5
:10245400084720972990025FE0FF0420B710F0EFAF
:102464003395E0FE74632FF58274013E803FF0EFF4
:102474003395E0FE74632FF58274013E801490025C
:102484005FE0FF04F0EF3395E0FE74632FF5827490
:10249400013EF5837431F0801990025FE0FF04F08F
:1024A400EF3395E0FE74632FF58274013EF5837477
:1024B40030F090025FE0FF04F0EF3395E0FE7463C8
:1024C4002FF58274013EF583742CF090012212469C
:1024D400F41246EA90025FE02402F090019512465D
:1024E400F490025FE02402F09001961246F4900208
:1024F4005FE02402F090010F1246F490025FE024A2
:1025040002F0300D03022717E0FF04F0EF3395E0EB
:10251400FE74632FF58274013EF583742CF030074A
:10252400739001231246F490025FE02402F09000BD
:10253400FD1246F490025FE02402F09001971246E7
:10254400F490025FE02402F09001981246F49002A5
:102554005FE02402F09001101246F490025FE02440
:1025640002F0E0FF04F0EF3395E0FE74632FF58290
:1025740074013EF583742CF090025FE0FF04F0EFE9
:102584003395E0FE74632FF58274013EF583742065
:10259400F00226FC90025FE0FF04F0EF3395E0FECA
:1025A40074632FF58274013EF5837430F090025FFA
:1025B400E0FF04F0EF3395E0FE74632FF5827401BD
:1025C4003EF5837430F090025FE0FF04F0EF339542
:1025D400E0FE74632FF58274013EF5837430F0904D
:1025E400025FE0FF04F0EF3395E0FE74632FF582A1
:1025F40074013EF5837430F090025FE0FF04F0EF65
:102604003395E0FE74632FF58274013EF5837430D4
:10261400F090025FE0FF04F0EF3395E0FE74632F67
:10262400F58274013EF5837430F090025FE0FF049C
:10263400F0EF3395E0FE74632FF58274013EF58369
:102644007430F090025FE0FF04F0EF3395E0FE7425
:10265400632FF58274013EF5837430F090025FE0DD
:10266400FF04F0EF3395E0FE74632FF58274013EAE
:10267400F5837430F090025FE0FF04F0EF3395E0EF
:10268400FE74632FF58274013EF5837430F090027A
:102694005FE0FF04F0EF3395E0FE74632FF582747E
:1026A400013EF583742CF0E490025EF09001ACE0FE
:1026B400FF90025EE0FDFB3395E0FAC3EB9F74806C
:1026C400F86A985033EDFF3395E0FE74AD2FF58230
:1026D40074013EF583E0FF90025FE0FE04F0EEFD3E
:1026E4003395E0FC74632DF58274013CF583EFF0BF
:1026F40090025EE004F080B490025FE0FF04F0EF2B
:102704003395E0FE74632FF58274013EF583742CD7
:10271400F0800090025FE0FF04F0EF3395E0FE7478
:10272400632FF58274013EF5837403F090025FE039
:1027340002290A9001637402F0900126E0FF7010F0
:10274400900164200D057441F0800A7443F0800503
:10275400900164EFF0900091E090025FF0E4900249
:102764005EF0900091E0FF90025EE0FD3395E0FCA6
:10277400C3ED9F7480F86C985026E0FF3395E0FE1B
:1027840074C82FF58274013EF583E0FF74652DF55E
:102794008274013CF583EFF090025EE004F080C2A5
:1027A40090025FE0FF3395E0FE74652FF5827401BB
:1027B4003EF583742CF0302413900022E0FD7466FF
:1027C4002FF58274013EF583EDF0801690025FE0F0
:1027D400FF3395E0FE74662FF58274013EF5837431
:1027E40030F03004679000FCE0FFB448089000F833
:1027F4007404F08039EFB454089000F87403F08046
:102804002DEFB442089000F87402F08021EFB44D2B
:1028140002800EEFB44302801030080D209702802E
:10282400089000F87401F08005E49000F8F090003E
:10283400F8E02430FF90025FE0FD3395E0FC74671C
:102844002DF58274013CF583EFF0803630081D903D
:10285400025FE0FF3395E0FE74672F209702801833
:10286400F58274013EF5837431F0801690025FE0C6
:10287400FF3395E0FE74672FF58274013EF583748F
:1028840030F090025FE0FF300D673395E0FE74682E
:102894002FF58274013EF583742CF090025FE024DE
:1028A40006F09001221246F41246EA90025FE024F8
:1028B40002F09001951246F490025FE02402F09039
:1028C40001961246F490025FE02402F090010F1288
:1028D40046F490025FE02402F0E0FFFD3395E0FC53
:1028E40074632DF58274013CF5837403F0EF048066
:1028F40015FD3395E0FC74682DF58274013CF58375
:102904007403F0EF2406FF124B0A0235EA90020228
:10291400E0540264026003022ED5D2119000F974CF
:102924001CF0E4F58CF58AC28D300503022B83205C
:102934000B03022B0F9001637402F0A37477F090E1
:10294400029FE0FDC4540F2430900165F0ED540F54
:102954002430A3F09002A0E0FDC4540F2430900171
:1029640067F0ED540F2430A3F09002A1E0FDC454AD
:102974000F2430900169F0ED540F2430A3F0A374B8
:102984002CF0A37430F03004559000FCE0FFB44800
:10299400089000F87404F08039EFB454089000F8FB
:1029A4007403F0802DEFB442089000F87402F080B4
:1029B40021EFB44D02800EEFB44302801030080DB5
:1029C40020970280089000F87401F08005E49000DC
:1029D400F8F09000F8E0243090016DF08016300893
:1029E4000D90016D20970280087431F080069001EB
:1029F4006D7430F090016E742CF0900122E024D0BC
:102A0400FF7D0C7C001247019000FBE024D0FF7D89
:102A14000E7C00124701900195E024D0FF7D107CCC
:102A240000124701900196E024D0FF7D127C001231
:102A3400470190010FE024D0FF7D147C0012470170
:102A4400900179742CF0900123E024D0FF7D177C51
:102A5400001247019000FDE024D0FF7D197C001294
:102A64004701900197E024D0FF7D1B7C00124701B1
:102A7400900198E024D0FF7D1D7C00124701900155
:102A840010E024D0FF7D1F7C001247019000F574F4
:102A940021F0E0FF04F074632FF582E43401F58340
:102AA400742CF0301C4EE490025EF09000D5E0FFF0
:102AB40090025EE0FDFB3395E0FAC3EB9F7480F86F
:102AC4006A984003022D45EDFF3395E0FE74AD2F67
:102AD400F58274013EF583E0FF9000F5E0FE04F01A
:102AE40074632EF582E43401F583EFF090025EE026
:102AF40004F080B79000F5E0FF04F074632FF582D2
:102B0400E43401F5837420F0022D459001637402CE
:102B1400F0A37442F090029FE0FDC4540F2430905F
:102B24000165F0ED540F2430A3F09002A0E0FDC441
:102B3400540F2430900167F0ED540F2430A3F0902B
:102B440002A1E0FDC4540F2430900169F0ED540F4C
:102B54002430A3F0A3742CF0A37430F030080F20B9
:102B64009704A3F0800E90016D7431F080069001FB
:102B74006D7430F090016E7403F07F0C022ECF90D0
:102B840001637402F0A37477F090029FE0FDC454D3
:102B94000F2430900165F0ED540F2430A3F090021F
:102BA400A0E0FDC4540F2430900167F0ED540F24CD
:102BB40030A3F09002A1E0FDC4540F2430900169C9
:102BC400F0ED540F2430A3F0A3742CF0A37430F070
:102BD4003004559000FCE0FFB448089000F87404F9
:102BE400F08039EFB454089000F87403F0802DEFAE
:102BF400B442089000F87402F08021EFB44D0280D2
:102C04000EEFB44302801030080D20970280089024
:102C140000F87401F08005E49000F8F09000F8E00A
:102C2400243090016DF0801630080D90016D2097CE
:102C34000280087431F0800690016D7430F09001C8
:102C44006E742CF0900122E024D0FF7D0C7C0012E5
:102C540047019000FBE024D0FF7D0E7C0012470169
:102C6400900195E024D0FF7D107C00124701900173
:102C740096E024D0FF7D127C0012470190010FE002
:102C840024D0FF7D147C00124701201203022DB9C9
:102C9400900179742CF0900123E024D0FF7D177CFF
:102CA400001247019000FDE024D0FF7D197C001242
:102CB4004701900197E024D0FF7D1B7C001247015F
:102CC400900198E024D0FF7D1D7C00124701900103
:102CD40010E024D0FF7D1F7C001247019000F574A2
:102CE40021F0E0FF04F074632FF582E43401F583EE
:102CF400742CF0301C7BE490025EF09000D5E0FF71
:102D040090025EE0FDFB3395E0FAC3EB9F7480F81C
:102D14006A98502DEDFF3395E0FE74AD2FF5827463
:102D2400013EF583E0FF9000F5E0FE04F074632EAD
:102D3400F582E43401F583EFF090025EE004F08064
:102D4400BA9000F5E0FF04F074632FF582E43401D7
:102D5400F583742CF09000F5E0FF04F074632FF514
:102D640082E43401F5837403F09000F5E0FF022E51
:102D7400CF9000F5E0FF04F074632FF582E4340192
:102D8400F5837420F09000F5E0FF04F074632FF5F0
:102D940082E43401F583742CF09000F5E0FF04F034
:102DA40074632FF582E43401F5837403F09000F525
:102DB400E0FF022ECF900179742CF07D177C00E4A3
:102DC400FF1247017D197C00E4FF1247017D1B7C43
:102DD40000E4FF1247017D1D7C00E4FF1247017DE2
:102DE4001F7C00E4FF1247019000F57421F0E0FF1E
:102DF40004F074632FF582E43401F583742CF0201D
:102E04001C03022E8EC21CE490025EF09000D5E0FA
:102E140024FFFFE434FFFE90025EE0FDFB3395E007
:102E2400FAC3EB9FEE6480F8EA648098502DEDFFBE
:102E34003395E0FE74AD2FF58274013EF583E0FF17
:102E44009000F5E0FE04F074632EF582E43401F59D
:102E540083EFF090025EE004F080B19000F5E0FFB3
:102E640004F074632FF582E43401F583742CF0903C
:102E740000F5E0FF04F074632FF582E43401F58378
:102E84007403F09000F5E0FF80419000F5E0FF044A
:102E9400F074632FF582E43401F5837420F090001C
:102EA400F5E0FF04F074632FF582E43401F58374D4
:102EB4002CF09000F5E0FF04F074632FF582E43405
:102EC40001F5837403F09000F5E0FF124B0A02351C
:102ED400EA900202E0FF5404640460030235EFEF59
:102EE40054FBF00235EA9000D4E02492F582E434F5
:102EF40000F583E4F030064CC20690025EF09000C8
:102F0400D4E0FFFD90025EE0FEFB3395E0FAC3EBF4
:102F14009D7480F86A985026EEFD3395E0FC749217
:102F24002DF58274003CF583E0FE74D62DF5827491
:102F3400003CF583EEF090025EE004F080C01245A0
:102F440021022FEA9000D4E064196003022FF49068
:102F540000F4E0FF900093E06F6003022FF4A3E01D
:102F640064486003022FF41247C5E490025EF090B7
:102F740000D4E0FF90025EE0FDFB3395E0FAC3EB82
:102F84009F7480F86A985026EDFF3395E0FE7492A2
:102F94002FF58274003EF583E0FD74D62FF582741C
:102FA400003EF583EDF090025EE004F080C1124A29
:102FB400B190025EE0FE04F0EEFD3395E0FC74D6C1
:102FC4002DF58274003CF583EFF012475D7F80128B
:102FD4004BB97F53124B737F59124B737F4E124B75
:102FE400737F43124B73D216E4900125F00235E24D
:102FF4009000D4E0FF7E00C3940674809480500354
:103004000235E2EF9407748094804011900128E027
:10301400B4630A124521D216E4900125F0900129E7
:10302400E0FF64446025EF6441702030031D3021CB
:1030340008301117200B148003200B0FD295900039
:10304400F9742AF0E4F58CF58AC28D201503023553
:10305400E2C215900097E064417031A3E0644370CC
:103064002BA3E064457025A3E06452701FA3E064C1
:10307400517019A3E0B45514A3E0B4450FA3E0B410
:10308400530AA3E0B445057FA1023546900097E0BA
:1030940064557045A3E0644E703FA3E0642070392A
:1030A400A3E0644D70337F09124A17900202E05482
:1030B400FEF054FDF0C21CC20CC207C20DE4900124
:1030C40026F0900023F0A3F09001E1F0A3F0C20BEE
:1030D4009000FC7420F0023549900093E06458702D
:1030E4003CA3E064417036A3E064587030A3E0640C
:1030F40058702AA3E064477024A3E06452701EA3AE
:10310400E064417018A3E0B44313A3E0B4490EA3F0
:10311400E0B44109A3E0B453047F018054900093C8
:10312400E064587052A3E06458704CA3E064587093
:1031340046A3E064587040A3E06442703AA3E0649C
:10314400497034A3E06445702EA3E0644E7028A354
:10315400E064567022A3E06445701CA3E0B44E17EB
:10316400A3E0B44912A3E0B4440DA3E0B44F087F34
:1031740002124393023549900093E06458706DA3A2
:10318400E064587067A3E064587061A3E064587009
:103194005BA3E0644D7055A3E06445704FA3E06405
:1031A4004E7049A3E064537043A3E06455703DA39B
:1031B400E064417037A3E0644C7031A3E064207094
:1031C4002BA3E0644E7025A3E0644F701FA3E0645A
:1031D400207019A3E0B44514A3E0B4530FA3E0B4E2
:1031E400540AA3E0B441057FB2023546900093E04F
:1031F4006458706DA3E064587067A3E0645870610C
:10320400A3E06458705BA3E0644D7055A3E064458B
:10321400704FA3E0644E7049A3E064537043A3E08D
:103224006455703DA3E064417037A3E0644C703191
:10323400A3E06420702BA3E064597025A3E06441EB
:10324400701FA3E064207019A3E0B44514A3E0B494
:10325400530FA3E0B4540AA3E0B441057FB302358D
:1032640046900093E064587079A3E064587073A3A7
:10327400E06458706DA3E064587067A3E0644D7017
:1032840061A3E06445705BA3E0644E7055A3E06401
:1032940053704FA3E064557049A3E064417043A3A5
:1032A400E0644C703DA3E064207037A3E064467092
:1032B40031A3E06455702BA3E064457025A3E0645A
:1032C40052701FA3E064417019A3E0B42014A3E07A
:1032D400B4440FA3E0B4450AA3E0B452057FB4029A
:1032E4003546900093E064587079A3E06458707395
:1032F400A3E06458706DA3E064587067A3E0644D64
:103304007061A3E06445705BA3E0644E7055A3E074
:103314006453704FA3E064557049A3E06441704363
:10332400A3E0644C703DA3E064207037A3E06446DE
:103334007031A3E06455702BA3E064457025A3E0CD
:103344006452701FA3E064417019A3E0B42014A375
:10335400E0B4440FA3E0B4450AA3E0B448057FB544
:10336400023546900093E06458704FA3E0645870AF
:1033740049A3E064587043A3E06458703DA3E0643B
:103384004E7037A3E0644F7031A3E06420702BA328
:10339400E064457025A3E06453701FA3E0642070CB
:1033A40019A3E0B44D14A3E0B4450FA3E0B44E0A4E
:1033B400A3E0B453057FB1023546900093E064580E
:1033C400704FA3E064587049A3E064587043A3E0CD
:1033D4006458703DA3E0644E7037A3E0644F7031CD
:1033E400A3E06420702BA3E064527025A3E064453D
:1033F400701FA3E064477019A3E0B44914A3E0B4B8
:10340400530FA3E0B4540AA3E0B452057F04023579
:1034140046900093E06458704FA3E064587049A349
:10342400E064587043A3E06458703DA3E0644C70BA
:1034340037A3E0644F7031A3E06454702BA3E064BD
:10344400457025A3E06420701FA3E064417019A3B4
:10345400E0B45314A3E0B4490FA3E0B4470AA3E0D3
:10346400B44E057F05023546900093E064587066BB
:10347400A3E064587060A3E06458705AA3E06458F1
:103484007054A3E0644D704EA3E064457048A3E01B
:10349400644E7042A3E06453703CA3E064557036FC
:1034A400A3E064417030A3E0644C702AA3E064207C
:1034B4007024A3E06445701EA3E064587018A3E070
:1034C400B44313A3E0B4450EA3E0B44409A3E0B4A9
:1034D40045047F07806C900093E064587067A3E014
:1034E40064587061A3E06458705BA3E0645870553D
:1034F400A3E0644D704FA3E064457049A3E0644EBB
:103504007043A3E06453703DA3E064557037A3E0B7
:1035140064417031A3E0644C702BA3E064207025F7
:10352400A3E0644E701FA3E0644F7019A3E0B420BD
:1035340014A3E0B4500FA3E0B4410AA3E0B44705D8
:103544007F08124A177F80124BB990025E7405F00F
:1035540090025EE0FFFD3395E0FCC3ED9415EC644E
:10356400809480502BEF3395E0FE74922FF5827493
:10357400003EF583E06403601774922FF5827400B3
:103584003EF583E0FF124B7390025EE004F080C0CE
:103594007FC0124BB990025E7415F090025EE0FF9A
:1035A400FD3395E0FCD3ED9426EC64809480502E9A
:1035B400EF3395E0FE74922FF58274003EF583E0BC
:1035C4006403601A201E0F74922FF58274003EF576
:1035D40083E0FF124B7390025EE004F080BDE49040
:0B35E4000125F0D21622E4900125F032
:0135EF0022B9
:1000260078037C027D017BFF7A43793E7E007F1157
:10003600123EC178147C027D017BFF7A43794F7EA4
:10004600007F11123EC178257C027D017BFF7A4339
:1000560079607E007F11123EC178367C027D017B7D
:10006600FF7A4379717E007F11123EC178477C0288
:100076007D017BFF7A4379827E007F11123EC11299
:100086004B5A1200061247C5E58954F04401F5891A
:10009600C28DE4F58CF58AD28CC296C295C294D2F2
:1000A600B6D201900023F0A3F09001E1F0A3F09006
:1000B60000F6741EF09000F9741CF0C213C280C2E0
:1000C60018C281C219C282C21AC283C21BC20DE4FF
:1000D600900126F0C205C20CC2079000FAF090010A
:1000E600DDF0A3F0C2009001FDF0A3F0C210C21D26
:1000F600D203D208D20ED221D204A3F0A3F0C209B1
:100106007BFF7A42798CFDFF1200167FC0124BB935
:100116007B017A02791412499A1249C4D2B5D2B631
:1001260075A0FF90025DE5A0F09002C8E064016052
:100136000302041930B703020419201F030201FE4B
:100146009000F6741EF0124AEE1248BA301D5D9009
:1001560001FDE07002A3E070519000D67402F0A396
:100166007457F090029FE0FF9000D8F09002A0E054
:10017600FE9000D9F09002A1E0FD9000DAF0A374A1
:1001860003F090005AEFF0A3EEF0A3EDF09000D448
:100196007406F0FF124521900202E054FDF0900132
:1001A600FD7402F0A37430F0806280599000D6741A
:1001B60002F0A37457F090029FE09000D8F09002EE
:1001C600A0E09000D9F09002A1E09000DAF0A374CC
:1001D60003F09000D47406F0FF12452190020274D9
:1001E60002F0C20B9001E1E4F0A37405F090012542
:1001F6007403F012224480147BFF7A42799DE4FD59
:100206007F01120016900202E054FDF0200903025D
:10021600044090029FE0FF7E006476700CA3E064C9
:10022600D67006A3E0640B603DEF64244E700E901A
:1002360002A0E064547006A3E064E4607B90029F31
:10024600E06495700AA3E07006A3E064D560699047
:10025600029FE0FF7E00645F700FA3E064D7700921
:10026600A3E064847003020406EF64954E700C905C
:1002760002A0E07006A3E064F2603D90029FE06495
:1002860060700CA3E064407006A3E064946029905B
:10029600029FE0FF7E006495700AA3E07006A3E06B
:1002A60064F36014EF64374E70119002A0E0643678
:1002B6007009A3E06424700302040690029FE064C0
:1002C60095700CA3E064017006A3E06410603F9093
:1002D600029FE0FF7E00647F700CA3E064757006E9
:1002E600A3E064446028EF64954E700E9002A0E08F
:1002F60064017006A3E06411601490029FE0641725
:10030600700FA3E064EE7009A3E064247003020496
:100316000690029FE0FF7E006495700CA3E0644F98
:100326007006A3E064D7603FEF64674E700E9002DC
:10033600A0E064177006A3E064B4602B90029FE00F
:100346006494700CA3E064EA7006A3E06475601719
:1003560090029FE0FF7E00647C700FA3E064DE7075
:1003660009A3E064347003020406EF64944E700E31
:100376009002A0E064EB7006A3E06458602B900244
:100386009FE06417700CA3E064167006A3E064D4C3
:10039600601790029FE0FF7E00648F700EA3E064FA
:1003A600427008A3E064D670028055EF64954E70E3
:1003B6000E9002A0E0641D7006A3E064BC60149079
:1003C600029FE06426700EA3E064127008A3E06446
:1003D600847002802B90029FE0FF7E006482700C86
:1003E600A3E064887006A3E064146014EF64514EC1
:1003F60070489002A0E064C17040A3E06414703AB3
:10040600D296D2959000F9742AF0E4F58CF58AC25A
:100416008D80279002C8E06401701F124AEE1248D0
:10042600BA7F06124A177BFF7A4279AEE4FD7F0156
:10043600120016900202E054FDF030B403021FF7DA
:100446009000D674FFF0A3F0124172900124E07080
:1004560003021FF76401700A9000D6E0640670027A
:10046600D21F900124E0640160030207969000D633
:10047600E0FF7E00C394DF748094805003020796E9
:10048600D3EF94EF7480948040030207961247C519
:100496009000D6E0FF64E2600AEF64E36005EF6473
:1004A600E4703A7FC0124BB9E4900258F0900258BB
:1004B600E024C3F582E43400F583E0FF600B124BC1
:1004C60073900258E004F080E47FCE124BB990009E
:1004D600D6E0540F2430FF124B730207849000D6E7
:1004E600E064E070297FC0124BB9E4900258F090A6
:1004F6000258E02411F582E43401F583E0FF70032D
:10050600020784124B73900258E004F080E19000D9
:10051600D6E064E1700F7BFF7A4279BFFD7F01125E
:1005260000160207849000D6E064E570297FC012A9
:100536004BB9E4900258F0900258E024B7F582E4F3
:100546003401F583E0FF7003020784124B739002B7
:1005560058E004F080E19000D6E064E670297FC0A0
:10056600124BB9E4900258F0900258E02411F5823B
:10057600E43400F583E0FF7003020784124B7390A6
:100586000258E004F080E19000D6E064E770187F3E
:10059600C0124BB97BFF7A4279D012499A7F107EFE
:1005A60027124BCF0207849000D6E064E870297FBB
:1005B600C0124BB9E4900258F0900258E0245EF560
:1005C60082E43400F583E0FF7003020784124B7364
:1005D600900258E004F080E19000D6E064E97029CA
:1005E6007FC0124BB9E4900258F0900258E02425DF
:1005F600F582E43400F583E0FF7003020784124BB2
:1006060073900258E004F080E19000D6E064EA704E
:10061600297FC0124BB9E4900258F0900258E024AA
:10062600FEF582E43400F583E0FF700302078412CE
:100636004B73900258E004F080E19000D6E064EB42
:1006460070297FC0124BB9E4900258F0900258E02E
:100656002480F582E43400F583E0FF70030207840A
:10066600124B73900258E004F080E19000D6E064EB
:10067600EC70297FC0124BB9E4900258F0900258F2
:10068600E02400F582E43400F583E0FF70030207FE
:1006960084124B73900258E004F080E19000D6E09B
:1006A60064ED70297FC0124BB9E4900258F09002B5
:1006B60058E02425F582E43402F583E0FF70030256
:1006C6000784124B73900258E004F080E19000D644
:1006D600E064EE70297FC0124BB9E4900258F090A6
:1006E6000258E02436F582E43402F583E0FF700315
:1006F600020784124B73900258E004F080E19000E8
:10070600D6E064EF705F7FC0124BB97F54124B7313
:100716007F41124B737F52124B737F4A124B737F8A
:1007260045124B737F54124B737F41124B737F20DC
:10073600124B737F41124B737F54124B737F4112DE
:100746004B737F53124B737F43124B737F41124B94
:10075600737F44124B737F41124B73D20A9000F998
:10076600741CF080199000D6E064DF70111247C542
:100776007FC0124BB97BFF7A4279E112499AD21EA9
:100786009000F9741CF0E4F58CF58AC28D021FF70F
:10079600900124E0FF7E006401700E9000D6E064B4
:1007A600A07006D218D280803BEF64014E70219073
:1007B60000D6E064A17019D219D2819000F9741C98
:1007C600F07BFF7A4279F2E4FDFF120016021FF772
:1007D600900124E0640170159000D6E064A2700DCB
:1007E600D21AD2829000F9741CF0021FF7900124ED
:1007F600E0FF7E00640170159000D6E064A3700DE2
:10080600D21BD2839000F9742AF0021FF7EF64011D
:100816004E70589000D6E064AF70507FC0124BB94E
:100826007F43124B737F4F124B737F4E124B737F76
:1008360054124B737F2E124B737F20124B737F45DE
:10084600124B737F56124B737F4E124B737F2012DF
:100856004B737F49124B737F4E124B737F49124B7A
:10086600737F43124B737F49020AAB900124E06405
:100876000170429000D6E0644E703AD2037F801237
:100886004BB9E4900258F0900258E02403F582E454
:100896003402F583E0FF600B124B73900258E004BC
:1008A600F080E47F8D124BB97F4E124B73201D03EF
:1008B600021FF78048900124E06401704A9000D638
:1008C600E064537042C2037F80124BB9E490025831
:1008D600F0900258E02403F582E43402F583E0FF49
:1008E600600B124B73900258E004F080E47F8D1287
:1008F6004BB97F53124B73201D03021FF77F201243
:100906004B737F4D021067900124E06401703290B2
:1009160000D6E0B4502BC2037FC0124BB9E490025C
:1009260058F0900258E02436F582E43400F583E06E
:10093600FF7003021FF7124B73900258E004F08019
:10094600E1900124E0640170309000D6E0B44429BF
:100956007FC0124BB9E4900258F0900258E0244749
:10096600F582E43402F583E0FF7003021FF7124BB1
:1009760073900258E004F080E1900124E064017075
:100986005D9000D6E064F170557FC0124BB97F557B
:10099600124B737F4E124B737F20124B737F4D1297
:1009A6004B737F4F124B737F4D124B737F45124B28
:1009B600737F4E124B737F54124B737F4F124B73E0
:1009C6007F2E124B737F2E124B737F2E124B737F2B
:1009D60020124B737F20124B737F20021067900109
:1009E60024E06401705D9000D6E064F370557FC02A
:1009F600124BB97F50124B737F49124B737F4312D0
:100A06004B737F4F124B737F20124B737F59124BE0
:100A1600737F20124B737F50124B737F4C124B73B4
:100A26007F41124B737F43124B737F41124B737F8F
:100A36002E124B737F2E124B737F2E124B737F2019
:100A4600021067900124E0640170629000D6E064B1
:100A5600F8705A7FC0124BB97F56124B737F4512FE
:100A66004B737F48124B737F49124B737F2E124B89
:100A7600737F20124B737F49124B737F4E124B7359
:100A86007F56124B737F41124B737F4C124B737F11
:100A960049124B737F44124B737F4F124B737F2E59
:100AA600124B737F2E124B737F2E02106790012418
:100AB600E06401705D9000D6E064F970557FC01265
:100AC6004BB97F53124B737F41124B737F4C124BC2
:100AD600737F49124B737F44124B737F41124B73E2
:100AE6007F20124B737F52124B737F45124B737FDD
:100AF60043124B737F48124B737F41124B737F5ADD
:100B0600124B737F41124B737F44124B737F41022A
:100B16001067900124E06401705D9000D6E064FAED
:100B260070557FC0124BB97F53124B737F49124BDE
:100B3600737F4E124B737F20124B737F54124B738D
:100B46007F41124B737F52124B737F4A124B737F56
:100B560045124B737F54124B737F41124B737F5375
:100B6600124B737F20124B737F20124B737F201220
:100B76004B737F20021067900124E06401705D9042
:100B860000D6E064B570557FC0124BB97F46124B54
:100B9600737F55124B737F45124B737F52124B7303
:100BA6007F41124B737F20124B737F44124B737F2E
:100BB60045124B737F20124B737F48124B737F4F46
:100BC600124B737F52124B737F41124B737F52123B
:100BD6004B737F49124B737F4F021067900124E0DD
:100BE60064016003020CA29000D6E064B8600302C0
:100BF6000CA27F80124BB97F20124B737F45124B9C
:100C0600737F4E124B737F54124B737F52124B738A
:100C16007F41124B737F44124B737F41124B737F9C
:100C260020124B737F46124B737F55124B737F45D1
:100C3600124B737F52124B737F41124B737F2012FC
:100C46004B737F20124B737FC0124BB97F44124BFC
:100C5600737F45124B737F20124B737F48124B7381
:100C66007F4F124B737F52124B737F41124B737F30
:100C760052124B737F49124B737F4F124B737F2077
:100C8600124B737F2D124B737F43124B737F4112AE
:100C96004B737F4A124B737F41021067900124E029
:100CA60064016003020D629000D6E064B96003023D
:100CB6000D627F80124BB97F44124B737F49124BF2
:100CC600737F41124B737F20124B737F44124B7319
:100CD6007F45124B737F20124B737F41124B737FFC
:100CE60043124B737F43124B737F45124B737F53F3
:100CF600124B737F4F124B737F20124B737F201260
:100D06004B737F20124B737FC0124BB97F49124B36
:100D1600737F4E124B737F56124B737F41124B7388
:100D26007F4C124B737F49124B737F44124B737F78
:100D36004F124B737F20124B737F20124B737F2011
:100D4600124B737F20124B737F20124B737F20123E
:100D56004B737F20124B737F20021067900124E0B3
:100D66006401705D9000D6E064FB70557FC0124B45
:100D7600B97F45124B737F52124B737F52124B73DE
:100D86007F4F124B737F52124B737F20124B737F30
:100D960054124B737F52124B737F41124B737F4E2B
:100DA600124B737F53124B737F50124B737F4F124C
:100DB6004B737F52124B737F54124B737F45021055
:100DC60067900124E06401705D9000D6E064FC70D9
:100DD600557FC0124BB97F4E124B737F4F124B7328
:100DE6007F20124B737F45124B737F53124B737FD9
:100DF60020124B737F4D124B737F45124B737F4E00
:100E0600124B737F53124B737F55124B737F4112F4
:100E16004B737F4C124B737F2E124B737F2E124BEC
:100E2600737F2E021067900124E06401705D9000CC
:100E3600D6E064FD70557FC0124BB97F4E124B73DE
:100E46007F4F124B737F20124B737F45124B737F7C
:100E560053124B737F20124B737F44124B737F45A3
:100E6600124B737F20124B737F52124B737F4F12BC
:100E76004B737F54124B737F41124B737F43124B5C
:100E8600737F49124B737F4F021067900124E06411
:100E960001705D9000D6E064FE70557FC0124BB9BC
:100EA6007F42124B737F49124B737F45124B737F00
:100EB6004E124B737F56124B737F45124B737F4E08
:100EC600124B737F49124B737F44124B737F4F1241
:100ED6004B737F20124B737F20124B737F20124B74
:100EE600737F20124B737F20124B737F2002106793
:100EF600900124E06401705C9000D6E0F470557FA8
:100F060080124BB97F47124B737F52124B737F414E
:100F1600124B737F43124B737F49124B737F4112FF
:100F26004B737F53124B737F2E124B737F2E124BD4
:100F3600737F2E124B737F20124B737F20124B73DD
:100F46007F20124B737F20124B737F20124B737FCF
:100F5600200210679000D6E06402600302106DA3C1
:100F6600E06469600302106D1247C57BFF7A43791E
:100F760003E4FDFF1200167FC0124BB99000D8E0C3
:100F8600FF12491B7F2F124B739000D9E0FF1249C5
:100F96001B7F2F124B739000DAE0FF12491B7F2054
:100FA600124B739000DBE0FF12491B7F3A124B7322
:100FB6009000DCE0FF12491B9000DDE0FF12491BA8
:100FC6007F8C124BB99000DEE06401700F7F4412F3
:100FD6004B737F6F124B737F6D0210679000DEE0DC
:100FE6006402700E7F4C124B737F75124B737F6ECB
:100FF600806F9000DEE06403700E7F4D124B737FAE
:1010060061124B737F7280599000DEE06404700EAB
:101016007F4D124B737F69124B737F65804390003F
:10102600DEE06405700E7F4A124B737F75124B73B8
:101036007F65802D9000DEE06406700E7F56124BB1
:10104600737F69124B737F6580179000DEE064073B
:101056006003021FF77F53124B737F61124B737F3E
:1010660062124B73021FF79000D6E064026003021F
:10107600112BA3E06449600302112B7F80124BB948
:10108600E4900258F0900258E0246FF582E43400B0
:10109600F583E0FF600B124B73900258E004F0807A
:1010A600E4900124E024FE90025DF07FC0124BB96B
:1010B600E49001E3F0900258F090025DE0FF9002A8
:1010C60058E0FEC39F503774D82EF582E43400F5FD
:1010D60083E064037008EF04900258F080189002D1
:1010E60058E024D8F582E43400F583E0FF124B7310
:1010F6009001E3E004F0900258E004F080BBE49035
:101106000258F09001E3E0FFC374109FFF9002586D
:10111600E0C39F4003021FF77F20124B73900258D3
:10112600E004F080DE9000D6E0640260030211C79E
:10113600A3E0644460030211C71247C57F80124BC7
:10114600B97BFF7A43791412499A9002587402F0D7
:10115600900258E0FF24D6F582E43400F583E0647B
:101166003B601774D62FF582E43400F583E0FF1256
:101176004B73900258E004F080D67FC0124BB990B2
:101186000258E004F07BFF7A43792012499A9002D4
:10119600597402F0900258E0FF24D6F582E4340038
:1011A600F583E0643B7003021FF774D62FF582E4E3
:1011B6003400F583E0FF124B73900258E004F08090
:1011C600D39000D6E06402701BA3E064057015A3FB
:1011D600E06403700F7BFF7A43792A12494612496D
:1011E60070021FF79000D6E0FB7A006402600302EB
:1011F6001297A3E064576003021297900124E0FF60
:1012060024D5F582E43400F583E06403600302121A
:1012160097EF6412707B9001FDF0A3F0C205D20B2C
:101226009000DAE090029FF09000D9E09002A0F0E2
:101236009000D8E09002A1F09000DCE0900122F04E
:101246009000DDE09000FBF09000DEE0900195F06C
:101256009000DFE0900196F09000E0E090010FF042
:101266009000E1E0900123F09000E2E09000FDF0B4
:101276009000E3E0900197F09000E4E0900198F090
:101286009000E5E0900110F09000E6E09000FC8010
:101296002FEB64024A703D9000D7E064577035909A
:1012A60001FDF0A3F0C205C20B9000DAE090029FA8
:1012B600F09000D9E09002A0F09000D8E09002A152
:1012C600F0900202E04402F09001E1E4F0A374051C
:1012D600F0021FF79000D6E064027045A3E0644D6B
:1012E600703F9001FDF0A3F01245C0C2059000DAF0
:1012F600E090029FF09000D9E09002A0F09000D814
:10130600E09002A1F0900202E04402F09001E1E4D4
:10131600F0A37405F09001DDE4F0A3748CF0021FD5
:10132600F79000D6E0FB7A00640260030214A6A3DD
:10133600E0647760030214A6900124E0FF24D5F54B
:1013460082E43400F583E0640360030214A690018E
:10135600FDF0A3F0D205C212C21C9000DAE09002A2
:101366009FF09000D9E09002A0F09000D8E09002A3
:10137600A1F09000DCE0900122F09000DDE090000A
:10138600FBF09000DEE0900195F09000DFE0900128
:1013960096F09000E0E090010FF07E00EF6412708E
:1013A600379000E1E0900123F09000E2E09000FD2C
:1013B600F09000E3E0900197F09000E4E09001984F
:1013C600F09000E5E0900110F09000E6E09000FC5F
:1013D600F0D212C21C021493D3EF9412EE648094DE
:1013E6008050030214899000E1E0900123F0900000
:1013F600E2E09000FDF09000E3E0900197F09000AD
:10140600E4E0900198F09000E5E0900110F0900182
:1014160024E024D4F582E43400F583E09000FCF067
:10142600D212D21CE49000D5F09001E0740AF0903C
:1014360002587410F0900124E0FF24FEFE9002583A
:10144600E0FDC39E504774D62DF582E43400F58343
:10145600E064039002586021E0FE24D6F582E4346D
:1014660000F583E0FD749D2EF582E43401F583EDED
:10147600F09000D5E004F08002EFF0900258E0040E
:10148600F080B29000E1E09000FCF0C212900202FF
:10149600E04402F09001E1E4F0A3740AF0021FF7C1
:1014A600EB64024A600302161F9000D7E0FF645007
:1014B6006017EF64546012EF6456600DEF64456088
:1014C60008EF6447600302161FE49001FDF0A3F0E5
:1014D600900126EFF0900124E0900091F0124B2647
:1014E600C20DC2247F80124BB99002587403F0904B
:1014F6000091E0FF900258E0FEC39F400302158A68
:1015060074D62EF582E43400F583E0C3943040109F
:1015160074D62EF582E43400F583E0D39439403D49
:1015260074D62EF582E43400F583E0C3944140106E
:1015360074D62EF582E43400F583E0D3945A401D28
:1015460074D62EF582E43400F583E0642D600E74C3
:10155600D62EF582E43400F583E0B42E04D225803D
:1015660008C225EF04900258F0900258E024D6F500
:1015760082E43400F583E0FF124B73900258E004D6
:10158600F00214F5202503021FE8E4900259F090BA
:1015960000FCF0900258F0900091E0FF900258E0B5
:1015A600FEC39F502A74D62EF582E43400F583E0FC
:1015B600B42E1474D72EF582E43400F583E090003F
:1015C600FCF0900258EFF0900258E004F080C890CA
:1015D60000FCE06007900091E024FBF0900202E03E
:1015E6004401F0E4900258F0900091E0FF90025818
:1015F600E0FEC39F4003021FE874D92EF582E4344F
:1016060000F583E0FF74C82EF582E43401F583EF1C
:10161600F0900258E004F080CF9000D6E0640260BB
:101626000302177BA3E06461600302177B90012429
:10163600E024D5F582E43400F583E0640360030218
:10164600177B9001FDF0A3F0D20CC2079000F7F0D3
:101656009002587402F0900124E0FC900258E0FEDB
:10166600C39C502174D62EF582E43400F583E0B491
:101676002D0BEE049001AAF0900258ECF09002585F
:10168600E004F080D19002587402F09001AAE014B0
:10169600FF900258E0FEC39F502674D62EF582E4D2
:1016A6003400F583E0FF74C62EF582E43401F58339
:1016B600EFF09000F7E004F0900258E004F080CBE1
:1016C6009001AAE0FF04F074D62FF582E43400F509
:1016D60083E0900122F09001AAE0FF04F074D62F77
:1016E600F582E43400F583E09000FBF09001AAE077
:1016F600FF04F074D62FF582E43400F583E0900100
:1017060095F09001AAE0FF04F074D62FF582E43438
:1017160000F583E0900196F09001AAE0FF04F074D2
:10172600D62FF582E43400F583E090010FF0E490C3
:1017360001ACF09001AAE004900258F0900124E078
:1017460014FF900258E0FEC39F4003021B4B74D661
:101756002EF582E43400F583E0FF9001ACE0FE0450
:10176600F074AD2EF582E43401F583EFF090025863
:10177600E004F080C79000D6E06402600302197DA1
:10178600900124E024D5F582E43400F583E0640377
:10179600600302197D9000D7E0FF646D6017EF6467
:1017A6006E6012EF646F600DEF64416008EF645283
:1017B600600302197DEF646E70499001FDF0A3F09D
:1017C600C21D7F80124BB9E4900258F0900258E097
:1017D6002403F582E43402F583E0FF600B124B73B9
:1017E600900258E004F080E47F8D124BB930030478
:1017F6007F4E80027F53124B737F20124B737F4EB6
:101806000218F89000D7E0646D7043D21D7F8012F5
:101816004BB9E4900258F0900258E02403F582E4B4
:101826003402F583E0FF600B124B73900258E0041C
:10183600F080E47F8D124BB93003047F4E80027F27
:1018460053124B737F20124B737F4D0218F8900092
:10185600D7E0646F60030218FDA3E064307048C2ED
:101866001D9001FDF0A3F07F80124BB9E490025861
:10187600F0900258E02403F582E43402F583E0FF99
:10188600600B124B73900258E004F080E47F8D12D7
:101896004BB93003047F4E80027F53124B737F2077
:1018A600124B737F6F804B9000D8E0643160030267
:1018B6001974D21D7F80124BB9E4900258F0900241
:1018C60058E02403F582E43402F583E0FF600B124E
:1018D6004B73900258E004F080E47F8D124BB930D0
:1018E60003047F4E80027F53124B737F20124B738B
:1018F6007F4D124B7380779000D7E0FD6441703DB9
:101906009001FDE07002A3E06064E49001FDF0A3A5
:10191600F090005AE090029FF090005BE09002A0E9
:10192600F090005CE09002A1F0900202E04402F028
:101936009001E1E4F0A37405F0C20B8031EDB452DE
:101946002DE49001FDF0A3F07F80124BB9E49002E4
:1019560058F0900258E02499F582E43401F583E0CA
:10196600FF600B124B73900258E004F080E4900085
:10197600D774FFF0021FF79000D6E06402600302FE
:101986001B55A3E0FF64736008EF64436003021B0A
:1019960055900124E024D5F582E43400F583E06413
:1019A600036003021B559001FDF0A3F0D20CD20791
:1019B6009000F7F09000D7E0B44304D20D8002C245
:1019C6000D9002587402F0900124E0FC900258E059
:1019D600FEC39C502174D62EF582E43400F583E0D4
:1019E600B42D0BEE04900058F0900258ECF09002E3
:1019F60058E004F080D1900058E024D6F582E43413
:101A060000F583E0900022F09002587402F09000F6
:101A160058E0FF14FE900258E0FDC39E502674D68F
:101A26002DF582E43400F583E0FE74C62DF582E4DC
:101A36003401F583EEF09000F7E004F0900258E0F0
:101A460004F080CAEF24029001AAF0E0FF04F074CB
:101A5600D62FF582E43400F583E0900122F0900160
:101A6600AAE0FF04F074D62FF582E43400F583E093
:101A76009000FBF09001AAE0FF04F074D62FF582E7
:101A8600E43400F583E0900195F09001AAE0FF04AC
:101A9600F074D62FF582E43400F583E0900196F0D9
:101AA6009001AAE0FF04F074D62FF582E43400F525
:101AB60083E090010FF09001AAE004F0E0FF04F04B
:101AC60074D62FF582E43400F583E0900123F0907C
:101AD60001AAE0FF04F074D62FF582E43400F58302
:101AE600E09000FDF09001AAE0FF04F074D62FF517
:101AF60082E43400F583E0900197F09001AAE0FFBC
:101B060004F074D62FF582E43400F583E090019852
:101B1600F09001AAE0FF04F074D62FF582E43400B9
:101B2600F583E0900110F09001AAE004F0E0FF04D4
:101B3600F074D62FF582E43400F583E09000FCF0D3
:101B4600E49001ACF0900202E04401F0021FE8903C
:101B560000D6E064026003021C15A3E0646460031F
:101B6600021C15900124E0FF24D5F582E43400F52B
:101B760083E064036003021C15EF64096003021C22
:101B860015124B267F80124BB97F53124B737F6120
:101B9600124B737F6C124B737F64124B737F6F1201
:101BA6004B737F20124B737F44124B737F69124B2A
:101BB600737F73124B737F70124B737F6F124B736D
:101BC6007F6E124B737F69124B737F62124B737F6A
:101BD6006C124B737F65124B73124B407FC0124BD6
:101BE600B99002587402F0900258E0FFC39408744A
:101BF6008094804003021FF774D62FF582E43400E8
:101C0600F583E0FF124B73900258E004F080D89001
:101C16000124E0900091F0124B26E49000FCF09035
:101C26000258F0900091E0FF900258E0FEC39F50EA
:101C36002A74D62EF582E43400F583E0B42E1474AB
:101C4600D72EF582E43400F583E09000FCF0900294
:101C560058EFF0900258E004F080C89000FCE06075
:101C660007900091E024FEF0C20DC224E4900259D0
:101C7600F0900258F0900091E0FB900258E0FEC30D
:101C86009B502A74D62EF582E43400F583E0B42DF9
:101C960014900258A3E0FD04F0745B2DF582E43441
:101CA60002F583EEF0900258E004F080C8900259E5
:101CB600E0600B90025BE00490025AF0800590020F
:101CC6005AEBF07F80124BB9E4900258F090025A1A
:101CD600E0FF900258E0FEC39F4003021D6874D6E1
:101CE6002EF582E43400F583E0C39430401074D6B8
:101CF6002EF582E43400F583E0D39439403D74D662
:101D06002EF582E43400F583E0C39441401074D686
:101D16002EF582E43400F583E0D3945A401D74D640
:101D26002EF582E43400F583E0642D600E74D62E21
:101D3600F582E43400F583E0B42E04D2258008C28F
:101D460025EF04900258F0900258E024D6F582E47C
:101D56003400F583E0FF124B73900258E004F00262
:101D66001CD3202503021FF7E49001FDF0A3F09099
:101D76000202E04401F0900259E07003021FB164D0
:101D8600016003021EF0900091E024FFFFE434FF9F
:101D9600FE90025BE0FDC3EF9DFFEE9400FEEF6454
:101DA600014E705A900258F0900091E0FF90025850
:101DB600E0FEC39F502074D62EF582E43400F583EE
:101DC600E0FD74C82EF582E43401F583EDF090024F
:101DD60058E004F080D2D22474C72FF582E434018F
:101DE600F583E0900022F07F44124B73900022E0CE
:101DF600FF124B73900091E024FEF0021FE8C2240C
:101E0600E4900258F090025BE0FF900258E0FEC3B7
:101E16009F502074D62EF582E43400F583E0FD74DD
:101E2600C82EF582E43401F583EDF0900258E00403
:101E3600F080D2900091E024FFFDE434FFFCC3ED76
:101E46009FFFEC9400FEEF64054E6003021EE5D290
:101E56000D7F43124B737F61124B737F6A124B7374
:101E66007F65124B737F72124B737F6F124B7390A9
:101E7600025BE0049001AAF0E0FF04F074D62FF5AF
:101E860082E43400F583E0900122F09001AAE0FF9D
:101E960004F074D62FF582E43400F583E09000FB5D
:101EA600F09001AAE0FF04F074D62FF582E4340026
:101EB600F583E0900195F09001AAE0FF04F074D656
:101EC6002FF582E43400F583E0900196F09001AAA4
:101ED600E024D6F582E43400F583E090010FF0901B
:101EE600025BE0900091F0021FE8E4900258F09047
:101EF600025BE0FF900258E0FEC39F502074D62E8E
:101F0600F582E43400F583E0FF74C82EF582E434EC
:101F160001F583EFF0900258E004F080D2D22490CD
:101F2600025BE0FD24C9F582E43401F583E090000C
:101F360022F0D20D90025CE0049001AAF0E0FF04CA
:101F4600F074D62FF582E43400F583E0900122F098
:101F56009001AAE0FF04F074D62FF582E43400F570
:101F660083E09000FBF09001AAE0FF04F074D62F06
:101F7600F582E43400F583E0900195F09001AAE043
:101F8600FF04F074D62FF582E43400F583E0900167
:101F960096F09001AAE024D6F582E43400F583E0B9
:101FA60090010FF0900091EDF08037E4900258F028
:101FB600900091E0FF900258E0FEC39F502074D637
:101FC6002EF582E43400F583E0FF74C82EF582E432
:101FD6003401F583EFF0900258E004F080D2C22479
:101FE600C20D9000F6741EF0900023E4F0A3741E58
:101FF600F0208D030221D4C28D9000FAE060071410
:10200600F0E07002D2109001DDE07002A3E0600EF5
:102016009001DEE024FFF09001DDE034FFF0900156
:10202600FFE07002A3E0600E900200E024FFF09053
:1020360001FFE034FFF09001FDE07002A3E0603F95
:102046009001FEE024FFF09001FDE034FFF0E07027
:1020560002A3E0702A90005AE090029FF090005B85
:10206600E09002A0F090005CE09002A1F0900202E5
:10207600E04402F09001E1E4F0A37405F0C20B2005
:10208600B71B9000F9E0FF640E6003EF7013300198
:1020960006C294C201800AD294D2018004D294D29C
:1020A6001F9000F9E014F0E060030221D4302213FF
:1020B6009001ABE0600214F09001ABE0700B1245AA
:1020C6001980009001AB7405F0900023E07002A324
:1020D600E06033900024E024FFF0900023E034FF1A
:1020E600F0E07002A3E0701E900202E054FEF0E4FD
:1020F600900126F0C20CC2079000FC7420F0C20DBD
:10210600302203124B269001E1E07002A3E060202A
:102116009001E2E024FFF09001E1E034FFF0E0708E
:1021260002A3E0700B900202E054FDF0C20BC21C49
:102136009000F6E0607314F0E0706E741EF07F801D
:10214600124BB9E4900258F0900258E0C394107410
:10215600809480500D7F20124B73900258E004F05B
:1021660080E6900202E054FEF054FDF054FBF0D2FB
:1021760022E4900126F0C21CC20DC20CC207C21C8A
:102186007FC0124BB9E4900258F0900258E0244701
:10219600F582E43400F583E0FF600B124B73900286
:1021A60058E004F080E4124519C20AC296C295C2EC
:1021B60018C280C219C281C21AC282C21BC28390CF
:1021C60000F9741CF0E4F58CF58AC28DC21E30103D
:1021D6003B30B438C210E490025DF09001DCE0FFC1
:1021E60090025DE0FEC39F502074E92EF582E43430
:1021F60001F583E0FD74D62EF582E43400F583ED17
:10220600F090025DE004F080D21245213016077F7F
:1022160006124C1EC216900125E0FF64036005EF0E
:102226006407700312224430000E30B40BC20074EF
:0E223600AB12451BE412451B124A8D02012615
:104886002575004552524F52204445204C4543540D
:10489600555241008040201008040201000000002B
:1048A60000004C4543542E3120202020202020207B
:0448B600202020009E
:104155004102C9004102C8004102C70041029E0058
:084165004102A3004102A40085
:0300030002480CA4
:10480C00C0E0C083C082C0D09002C9E024A5F5826C
:10481C00E43402F5837430F09002C9E004F06421B2
:10482C0070129002C804F0A3E024A6F582E43402CE
:0D483C00F583E4F0D0D0D082D083D0E032FC
:0300130002484957
:10484900C0E0C083C082C0D09002C9E024A5F5822F
:10485900E43402F5837431F09002C9E004F0642174
:1048690070129002C804F0A3E024A6F582E4340291
:0D487900F583E4F0D0D0D082D083D0E032BF
:054C2C00D288D2A8228D
:054C3100D28AD2AA2284
:034C3600D2AF22D8
:0C000600124C2C124C31124C360248BA3D
:1048BA00E4FFEFC3942274809480501774A52FF5F7
:1048CA0082E43402F583E4F09002C9F09002C8F061
:1048DA000F80DFE49002C7F090029EF09002A3F0EE
:0248EA00A3F039
:0148EC0022A9
:1049EE007F011244699002C7EFF07F09124469906B
:1049FE00029EEFF07F111244699002A3EFF07F192F
:094A0E001244699002A4EFF022A9
:104AEE001249EE90029EE0A3F09002A3E09002A085
:0C4AFE00F09002A4E09002A1F00245C07C
:0544690090025EEFF07F
:10446E00785F7C027D017BFF7A4879897E007F111F
:10447E00123EC1E4900272F078737C027D017BFFE4
:10448E007A48799AFE7F08123EC190025EE0FE24C1
:10449E0008900270F0A3EEF0900270E0FFA3E0FE31
:1044AE00C39F506174A52EF582E43402F583E0F9C2
:1044BE00B43129900272E0FF90025EE0FD9002712D
:1044CE00E0C39DFDE49400FC74732DF58274023CF0
:1044DE00F583E0FEEF4E900272F08021E9D3943125
:1044EE005006E9C3943050157F80124BB97B017A88
:1044FE0002795F12499AE4900272F080089002717C
:0A450E00E004F08093900272E0FFD9
:014518002280
:1045C000785E7C027D017BFF7A4879A27E007F06BF
:1045D000123EC178647C027D017BFF7A4879A87E17
:1045E000007F12123EC1124C267F80124BB97B0114
:1045F0007A02796412499A7F87124BB990029FE040
:10460000FF7E0090027974FFF0A37448F0A37486D3
:10461000F0A3EEF0A3EFF07B017A02795E123AF19B
:104620007B017A02795E12499A7F2D124B739002B8
:10463000A0E0FEA3E0FDEDFF90027974FFF0A3740B
:1046400048F0A37486F0A3EEF0A3EFF07B017A02AA
:0E465000795E123AF17B017A02795E02499A94
:104AD1006C6C65676F207561727420792073652035
:0D4AE1007472616E73666F726D6F000A0073
:04416D004102CA0041
:104B5A00C20F759850438780438920758840758DA8
:094B6A00F4758BF4D28ED2AC225A
:084C1E00200FFD8F99D20F2237
:030023000235F0B3
:0B35F000C0E0C083C082C0D075D008CE
:1035FB00209803023A7CAB99C298900125E01460A5
:10360B003C14605824FD70030236AC14700302376F
:10361B004B24FE70030236EA24086003023A7790CB
:10362B0000D4E4F0AF0BEBFD3395E0FCED64054CFF
:10363B006003023A7C90012504F0023A7C9000F47E
:10364B00E0AF0B900125B50B0E7402F09000F674F1
:10365B001EF0C222023A7CE4F0023A7CAF0BEB2460
:10366B00AD602024F0602924FE600F24EE6012244C
:10367B0007702B9001257403805C900125740880E2
:10368B0055800D9001257405F0D216D223023A7C99
:10369B009001257405F07F06124C1E023A70023A17
:1036AB0077AF0BEBFD3395E0FCED64024C701D9096
:1036BB0000D4F0E0FE04F074272EF582E43401F51B
:1036CB0083EFF09001257406F0023A7CED64054C13
:1036DB00900125700504F0023A70E4F0023A7CAFD9
:1036EB000B9000D4E0FE04F074272EF582E4340135
:1036FB00F583EFF09000D4E0D3943C748094804039
:10370B0003023A77AF0BEBFD3395E0FCED64034C12
:10371B00701D900125F0900202E054FEF0900126FE
:10372B00E4F0C20CC207900023F0A3F0023A7CED48
:10373B0064054C6003023A7C90012504F0023A7058
:10374B00AF0B9000D4E0FE04F074272EF582E43426
:10375B0001F583EFF09000D4E0D3943C7480948017
:10376B004003023A77AF0BEBFD3395E0FCED6403BE
:10377B004C6003023A5E30233CC223D2069001DF39
:10378B00F09000D4E0FE9001DFE0FDC39E5020746A
:10379B00272DF582E43401F583E0FE74922DF5823A
:1037AB00E43400F583EEF09001DFE004F080D2907A
:1037BB0001257407F09000D4E0FD7C0064066003E3
:1037CB000238BA900128E0FE64446044EE64417014
:1037DB003F9001DDE07002A3E0601B9001DDE4F09F
:1037EB00A3F0D200900202E054FDF09001FFE4F050
:1037FB00A37454F0801A9001FFE07002A3E07010E4
:10380B00D2969000F9741CF0758C00758A00C28DED
:10381B00900129E0FF644470030238AEEF6441600D
:10382B00030238AE300360D200302146301174C22F
:10383B0011900202E054FDF09001DDE07002A3E074
:10384B00601DC20B9001DDE4F0A3F0D200900202E8
:10385B00E054FDF09001FFE4F0A37454F080449029
:10386B0001FFE07002A3E0703AD2959000F9741C4E
:10387B008028301109C211900202E054FDF0D2955C
:10388B009000F9742A8013301109C211900202E0E2
:10389B0054FDF0D2959000F9742AF0758C00758A5E
:1038AB0000C28D900125E4F09000D4F0023A7CED3B
:1038BB0064074C703D900128E064636003023A7C1E
:1038CB009001DFF09000D4E0FF9001DFE0FEC39F9A
:1038DB00505D74272EF582E43401F583E0FF74D636
:1038EB002EF582E43400F583EFF09001DFE004F075
:1038FB0080D29000D4E0FF7E006419703B9001DF12
:10390B00F09000D4E0FD9001DFE0FCC39D502074EB
:10391B00272CF582E43401F583E0FD74922CF582BB
:10392B00E43400F583EDF09001DFE004F080D290F9
:10393B0001257407F0023A7CC3EF9426EE64809461
:10394B00805003023A7C900128E06441703E900164
:10395B00DDE07002A3E0601A900202E054FDF090EB
:10396B0001DDE4F0A3F0D2009001FFF0A37454F05A
:10397B00801A9001FFE07002A3E07010D2969000C5
:10398B00F9741CF0758C00758A00C28D900129E0CA
:10399B0064416003023A21D20030035E302146308D
:1039AB001174C211900202E054FDF09001DDE07041
:1039BB0002A3E0601DC20B9001DDE4F0A3F0D20086
:1039CB00900202E054FDF09001FFE4F0A37454F078
:1039DB0080449001FFE07002A3E0703AD295900012
:1039EB00F9741C8028301109C211900202E054FDB9
:1039FB00F0D2959000F9742A8013301119C21190EE
:103A0B000202E054FDF0D2959000F9742AF0758C07
:103A1B0000758A00C28D9001DFE4F09001DFE0C3F6
:103A2B009426748094805021E0FF2427F582E4349F
:103A3B0001F583E0FE74922FF582E43400F583EEFA
:103A4B00F09001DFE004F080D29001257407F0D2F2
:103A5B0015801EAF0BEF3395E0FEEF64054E701132
:103A6B0090012504F09000D4E4F08005900125E44A
:083A7B00F0309904C299C20F5A
:093A8300D0D0D082D083D0E03213
:0B494600900260EBF0A3EAF0A3E9F0A0
:10495100E4FE900260E0FBA3E0FAA3E0F98E827529
:0E4961008300123EE7FF6006124C1E0E80E43B
:01496F002225
:024B0A00AE07F4
:104B0C00E4FDEDC39E501274632DF582E43401F57F
:094B1C0083E0FF124C1E0D80E93C
:014B2500226D
:104AB100E4FFFE9000D4E0FDEEC39D501074922EF1
:0F4AC100F582E43400F583E06FFF0E80E67F029C
:014AD00022C3
:10475D00E4FF9000D4E0FE2401FDE433FCEFC39DA3
:10476D00EC6480F8748098501B74D62FF582E43475
:10477D0000F583E0FD74CB2FF582E43402F583ED73
:10478D00F00F80CE74D72EF582E43400F583E4F07B
:10479D007BFF7A4A79D11249467BFF7A4A79EC122E
:1047AD0049467B017A0079D61249469000D4E0043F
:0847BD00FF9002CAF002452141
:10497000E4FE9002CAE0FFEEC39F501B74CB2EF5FD
:1049800082E43402F583E0FD74D62EF582E434002F
:0A499000F583EDF00E80DB024521F7
:0100120022CB
:1048ED00E4900059F0301805E04401F02230190829
:1048FD00900059E04402F022301A08900059E0442B
:0E490D0004F022301B07900059E04408F0220D
:104BCF00E4FDFCC3ED9FEC9E500A1200120DBD00D8
:044BDF00010C80EF56
:014BE30022AF
:034BE400124BB1C0
:104BE700E4FFFE1200120FBF00010EEF64024E70C9
:014BF700F2CB
:014BF800229A
:104C0C00E4FFFE1200120FBF00010EEF64024E70A3
:014C1C00F2A5
:014C1D002274
:0E4BA3001248EDED54F0FF900059E04FF58000
:084BB100D291124BE7C29122E0
:104BB900AD07C290124BA3EDC454F0FD54F0FFE0D1
:064BC9004FF580024BB124
:104B8C007F01124BB9E4FFFE1200120FBF00010EA1
:064B9C00EF64FA4E70F216
:014BA20022F0
:1047C500C290124BE7C291124BE7758039124BE448
:1047D500124BE4124BB1124BE7758029124BB11203
:1047E5004BE77F0C124BB9124B8C1200127F06124D
:1047F5004BB91200127F80124BB9124BE71248EDEC
:07480500900059E0F580224C
:104B7300AD07D290120012124BA3EDC454F0FD54B2
:094B8300F0FFE04FF580024BB198
:104A3F00AE07ED14600F1460111460132403701689
:104A4F00EE2480800DEE24C08008EE24948003EEC7
:074A5F0024D4FF124BB92221
:0B499A0090027BEBF0A3EAF0A3E9F031
:1049A500E4FC90027BE0FBA3E0FAA3E0F98C8275BE
:0E49B5008300123EE7FF6006124B730C80E495
:0149C30022D1
:0C001600AE07AF05AD06124A3F02499A42
:1049C400C292C293124BE79000F47431F030920318
:1049D400E004F03093079000F4E02402F07FC91261
:0A49E4004BB99000F4E0FF024B73A2
:104B26007F80124BB9E4FCECC394107480948050DF
:094B3600087F20124B730C80EE85
:014B3F002253
:104B40007FC0124BB9E4FCECC39410748094805085
:094B5000087F20124B730C80EE6B
:014B59002239
:064C2600124B26024B4078
:0300000002465E57
:0C465E00787FE4F6D8FD7581250246A5A2
:103DF100E709F608DFFA8046E709F208DFFA803EB4
:103E010088828C83E709F0A3DFFA8032E309F608A0
:103E1100DFFA8078E309F208DFFA807088828C8308
:103E2100E309F0A3DFFA806489828A83E0A3F608BC
:103E3100DFFA805889828A83E0A3F208DFFA804C96
:103E410080D280FA80C680D4806980F2803380106D
:103E510080A680EA809A80A880DA80E280CA8033D6
:103E610089828A83ECFAE493A3C8C582C8CCC5834E
:103E7100CCF0A3C8C582C8CCC583CCDFE9DEE7801E
:103E81000D89828A83E493A3F608DFF9ECFAA9F09D
:103E9100EDFB2289828A83ECFAE0A3C8C582C8CCF3
:103EA100C583CCF0A3C8C582C8CCC583CCDFEADE0C
:103EB100E880DB89828A83E493A3F208DFF980CC6E
:103EC10088F0EF60010E4E60C388F0ED2402B40467
:103ED1000050B9F582EB2402B4040050AF2323450E
:063EE1008223903E4173B4
:103EE700BB010CE58229F582E5833AF583E0225090
:103EF70006E92582F8E622BBFE06E92582F8E222DA
:0D3F0700E58229F582E5833AF583E49322F3
:0C3F1400ECF0A3EDF0A3EEF0A3EFF02220
:103F2000A8828583F0D083D082123F37123F3712A8
:103F30003F37123F37E473E493A3C583C5F0C583CD
:103F4000C8C582C8F0A3C583C5F0C583C8C582C8EB
:013F5000224E
:103A8C00E5102479F582E43402F583E005102290E8
:103A9C000276302D03900279E475F001123F7C021E
:103AAC003F512026E97F2ED2268018EF540F249008
:103ABC00D43440D4FF302A0BEF24BFB41A00500387
:103ACC002461FFE511600215110514E5147002055F
:103ADC0013302D0E900276E475F001123F7CEF024C
:103AEC003F6A024A667403D22D8003E4C22DF5109E
:103AFC00900276123F93E4F511F513F514E511607D
:103B0C00077F20123ACF80F57512FFC227C226C25A
:103B1C0028C229C22BC22CC22E123A9BFF700D3028
:103B2C002D057F00123AE0AF14AE1322B4255FC20C
:103B3C00D5C22A123A9BFF24D0B40A00501A75F051
:103B4C000A781130D50508B6FF0106C6A426F62062
:103B5C00D5047002D22980D924CFB41A00EF5004B6
:103B6C00C2E5D22A023CE1D22780C6D22680C0D23E
:103B7C002880BCD2D580BAD22B80B47F20123ACF09
:103B8C002028077401B5110040F1123A8CFF123A4B
:103B9C00CF023B09D22ED22C8095123A8CFB123AD2
:103BAC008CFA123A8CF94A4B700679B27A3D7BFF4B
:103BBC0020282EE511602A7E008E82758300123E2D
:103BCC00E760060EEE651270F0C2D5EBC0E0EAC0FD
:103BDC00E0E9C0E0EE123D28D0E0F9D0E0FAD0E008
:103BEC00FB123F51FF60AAEBC0E0EAC0E0E9C0E085
:103BFC00123ACFD0E02401F9D0E03400FAD0E0FB47
:103C0C00E5120460DCD512D980877BFF7A3D7924DC
:103C1C00D228809C791080027908C22CC22E800890
:103C2C00D2D5790A8004790AC2D5E512047002F55E
:103C3C0012E4FAFDFEFF123A8CFC7B0820271312CB
:103C4C003A8CFD7B1030260A123A8CFE123A8CFF0D
:103C5C007B20EC3382D592D55013C3E43026069FDB
:103C6C00FFE49EFEE42027039DFDE49CFCE4CBF8DE
:103C7C00C227EC700CCFCECDCCE824F8F870F380D2
:103C8C0017C3EF33FFEE33FEED33FDEC33FCEB33B8
:103C9C00FB994002FB0FD8E9EB302705F8D0E0C4C4
:103CAC0048B227C0E00AEC4D4E4F78207B0070C222
:103CBC00EAB5120040BCC0E0123D2AD0F0D0E020A2
:103CCC002704C4C0E0C4B227C0F0123AB8D0F0D573
:103CDC00F0EB023B09123F9C3BA6533C20583B7730
:103CEC004C3B73423C244F3C2C443C2C493B8C4376
:083CFC003C32553C16463C1613
:103D0400453C16473DD2503B7B2D3B7F2E3BA22B9F
:103D14003B83233BA0203DBB2A3B3B4800003B9A0E
:103D24003F3F3F00790AA2D5202914302B09B9104E
:103D3400020404B9080104A2D5202C025001042075
:103D440028689228B511005034C0E07F203029192A
:103D54007F30A228722C722B500F123D81C228C2D0
:103D64002CC22BC22E7F30800F302B03E9C0E0120F
:103D74003ACF302B03D0E0F9D0E0B511CC302B177B
:103D84007F30B9100C123ACF7F58302A077F7880E1
:103D940003B90803123ACF3028057F2D023ACF7FAA
:103DA40020202EF87F2B202CF322922880CF286EFF
:103DB400756C6C2900D227123A8C3027F8C2277808
:103DC4001130D50108F6023B3B2D50434958123AB5
:103DD4008C2403B405004001E4903DCD93123AC015
:0D3DE400743A123AC0D229751104023C2035
:10466A00020026E493A3F8E493A34003F68001F240
:10467A0008DFF48029E493A3F85407240CC8C33351
:10468A00C4540F4420C8834004F456800146F6DF20
:10469A00E4800B0102040810204080903FC2E47EAF
:1046AA00019360BCA3FF543F30E509541FFEE49315
:1046BA00A360010ECF54C025E060A840B8E493A3DC
:1046CA00FAE493A3F8E493A3C8C582C8CAC583CA07
:1046DA00F0A3C8C582C8CAC583CADFE9DEE780BEBF
:01417100004D
:103F5100BB010689828A83E0225002E722BBFE026E
:093F6100E32289828A83E49322A1
:103F6A00BB010689828A83F0225002F722BBFE0136
:023F7A00F32230
:103F7C00F8E0FBA3A3E0F925F0F0E58215827002CE
:073F8C001583E0FA38F02272
:093F9300EBF0A3EAF0A3E9F0222F
:103F9C00D083D082F8E4937012740193700DA3A3B4
:103FAC0093F8740193F5828883E4737402936860C8
:063FBC00EFA3A3A380DFC8
:104A6600EFB40A07740D124A71740A309811A899A6
:104A7600B8130CC2983098FDA899C298B811F630B0
:074A860099FDC299F5992288
:00000001FF
