:104310002041636365735363616E2076342E3520CC
:1043200000494E484142494C49544144412E2E2EA9
:1043300020004552524F5220454E204C4F4F502E98
:104340002E2E005441524A45544120494E56414C6C
:10435000494441004E4F2052454749535452412051
:104360005041474F005441522E2053494E20464F52
:10437000524D41544F00444952494A41534520410E
:104380002043414A412000466563686120486F72BE
:10439000613A20202020200049445F434C49454E8B
:1043A00054453A00434F445F5041524B3A00434F0B
:1043B0004D5041524143494F4E3A20202020002089
:1043C0002020416464723A202020202020202000F8
:1043D0002053494E205245535055455354412020B7
:1043E0000020504C414341204E4F20494755414CFD
:1043F000200020454E5649414E444F204441544FE1
:0344000053200046
:10403E005101124552524F523A20204C4F4F5020B0
:10404E00312020005100482046554552412044451C
:10405E00204C494E454120005100C4204552524F3C
:10406E0052204D4946415245202020005101B8456D
:10407E0052524F5220434F442E20504152512E0047
:10408E00510012202053494E20494E475245534F5E
:10409E00202020005100B34E4F2052454749535423
:1040AE005241205041474F0051005F45584345440F
:1040BE004520542E475241434941200051019A2038
:1040CE0041434345534F204E454741444F20200026
:1040DE0051002620202053494E2053414C49444143
:1040EE00202020005100FF4552524F52204752418E
:1040FE00424143494F4E20005100814143455251A8
:10410E005545534520412043414A410051007053CB
:10411E00455249453A2020202020202020202000F2
:10412E00510037434F4D504152414E444F20504C59
:10413E00414341005100015441524A4554412056D9
:10414E00454E4349444120004100D5004100F53120
:10415E004201FE00004201DE00004101DD0041018E
:10416E002600410203004100D6004101E10041005A
:10417E00F8004101AD004101AC054100FB004202D7
:10418E00000000C10FC102C101C123C115C116C17A
:10419E0018C119C11AC11BC11EC122C124C125C11A
:1041AE0008C111C121C184C106C105C112C10AC114
:1041BE009FC11CC10CC107C100C10BC109C18EC179
:0741CE0020C11041000000B8
:104D5D00C2B6124D70124D70124D70D2B6124D700A
:034D6D00024D7084
:0845900074B69000D7F07F0122
:05459800900265EFF048
:10459D00D2B6C226C2B5900267123F4E00000FA0E0
:1045AD0030B445202642900267E0FCA3E0FDA3E075
:1045BD00FEA3E0FFEF24FFFFEE34FFFEED34FFFD21
:1045CD00EC34FFFC900267123F42900267E0FCA3BF
:1045DD00E0FDA3E0FEA3E0FFEC4D4E4F70C2D226EE
:1045ED00D2B6D2B4D2B580B8202629E4900266F0B6
:1045FD00900265E0FFA3E0FEC39F501874D72EF51F
:10460D0082E43400F583E0F5A0124D5D900266E082
:10461D0004F080DCD2B6D2B520260C124D4B124DD3
:09462D004B124D4B124D4BA2261D
:014636002261
:1047EB00900260E02402F09000FCE024D0FF9002E5
:0747FB0060E0FD3395E0FCD6
:08480200900261ECF0A3EDF05F
:10480A00E4A3F0A3F0FEFDFCEFC3946474809480EB
:10481A004007749C2FFF0E80EFEFC3940A748094B4
:10482A0080400774F62FFF0D80EFAC07ED4430FF90
:10483A00900261E0FAA3E0FB2464F58274013AF580
:10484A0083EFF0EC4430FF74652BF58274013AF57E
:03485A0083EFF0F9
:01485D002238
:104C2C00301804D2808002C280301904D2818002F4
:104C3C00C281301A04D2828002C282301B03D2831A
:044C4C0022C28322DB
:1041F600E4900264F0D2B5900125F030B403024396
:104206000D900263F0C2B5A3F0900264E0C3941E61
:1042160074809480400302430D90025F123F4E006B
:1042260000003C30B64A20B447900263E0704190EB
:10423600025FE0FCA3E0FDA3E0FEA3E0FFEF24FFA6
:10424600FFEE34FFFEED34FFFDEC34FFFC90025F21
:10425600123F4290025FE0FCA3E0FDA3E0FEA3E074
:10426600FFEC4D4E4F70BCA304F0A3741FF080B357
:1042760030B6030242FB900263E0707920B476A365
:10428600E024D7F582E43400F583E5A0F09001251B
:10429600E004F090025F123F4E0000002320B65566
:1042A600900263E0704FA3E024D7F582E43400F572
:1042B60083E5A0F090025FE0FCA3E0FDA3E0FEA38F
:1042C600E0FFEF24FFFFEE34FFFEED34FFFDEC349C
:1042D600FFFC90025F123F4290025FE0FCA3E0FD0C
:1042E600A3E0FEA3E0FFEC4D4E4F70B1A304F0A394
:1042F600741FF080A830B406900264741FF0900218
:0943060064E004F002420FD2B59C
:01430F00228B
:054AE10090025FEFF000
:104AE6007E0054F0FFEEC4F854F0C868FEEFC454DC
:104AF6000F484430FF124CD790025FE07E00540FFF
:064B06004430FF024CD711
:104403009000D77402F0EF24FE600B04700E90004E
:10441300D87456F080069000D8744FF090026174FF
:1044230015F0900261E0D39425748094805021E0CC
:10443300FF2428F582E43401F583E0FE74C42FF5EC
:1044430082E43400F583EEF0900261E004F080D260
:104453009000E97403F030B43D7F13124598922025
:10446300302072E4900261F0900261E0C39413740F
:104473008094805054E0FF24D7F582E43400F58320
:10448300E0FE74EA2FF582E43401F583EEF0900246
:1044930061E004F080D2E4900261F0900261E0C335
:1044A3009413748094805021E0FF24D7F582E43480
:1044B30000F583E0FE74EA2FF582E43401F583EE20
:1044C300F0900261E004F080D29001DD7413F0906B
:0544D30000FB741CF069
:0144D80022C1
:104A8500900261EFF030B411124D4B900261E012CB
:104A95004592922030201680009001DD7401F0903F
:0E4AA5000261E09001EAF09000FB742AF0221A
:10224100900126E024F97003022EF52404600302B4
:102251003618900203E070297F04124DA1E4900129
:1022610026F020B70302361D900000E06403700AD7
:1022710074AA124592E4900000F0900000E004F08E
:1022810022900203E054016401600302291C200C26
:1022910003022742900260F0E0FF04F0EF3395E083
:1022A100FE74642FF58274013EF5837402F090028E
:1022B10060E0FF04200D15F0EF3395E0FE74642F0C
:1022C100F58274013EF5837461F08013F0EF33956C
:1022D100E0FE74642FF58274013EF5837443F0E4EB
:1022E10090025FF09000F8E0FF90025FE0FDFB33A9
:1022F10095E0FAC3EB9F7480F86A985033EDFF3391
:1023010095E0FE74C92FF58274013EF583E0FF90DC
:102311000260E0FE04F0EEFD3395E0FC74642DF5FF
:102321008274013CF583EFF090025FE004F080B429
:10233100900260E0FF04F0EF3395E0FE74642FF546
:102341008274013EF583742CF0300720900023E065
:10235100FF900260E0FE04F0EEFD3395E0FC746452
:102361002DF58274013CF583EFF08019900260E055
:10237100FF04F0EF3395E0FE74642FF58274013EA3
:10238100F5837430F0200E0302245E9000FDE0FF1F
:10239100B44818900260E0FE04F0EEFD3395E0FCD5
:1023A10074642DF58274013C0224BCEFB45417907F
:1023B1000260E0FF04F0EF3395E0FE74642FF582D4
:1023C10074013E0224BC9000FDE0FFB44D18900260
:1023D10060E0FE04F0EEFD3395E0FC74642DF582BF
:1023E10074013C0224A1EFB44317900260E0FF04A2
:1023F100F0EF3395E0FE74642FF58274013E022400
:10240100BC30084320972A900260E0FF0420B711F6
:10241100F0EF3395E0FE74642FF58274013E0224DF
:10242100BCF0EF3395E0FE74642FF58274013E80B9
:102431006F900260E0FF04F0EF3395E0FE74642FCB
:10244100F58274013E8059900260E0FF04F0EF33A1
:1024510095E0FE74642FF58274013E805E3008477A
:10246100209729900260E0FF0420B710F0EF339528
:10247100E0FE74642FF58274013E803FF0EF3395E6
:10248100E0FE74642FF58274013E8014900260E0D6
:10249100FF04F0EF3395E0FE74642FF58274013E82
:1024A100F5837431F08019900260E0FF04F0EF339E
:1024B10095E0FE74642FF58274013EF5837430F06B
:1024C100900260E0FF04F0EF3395E0FE74642FF5B5
:1024D1008274013EF583742CF09001231247F512AA
:1024E10047EB900260E02402F09001961247F590CC
:1024F1000260E02402F09001971247F5900260E03B
:102501002402F09001101247F5900260E02402F0DD
:10251100300D03022722E0FF04F0EF3395E0FE7453
:10252100642FF58274013EF583742CF030077390AB
:1025310001241247F5900260E02402F09000FE129F
:1025410047F5900260E02402F09001981247F5905F
:102551000260E02402F09001991247F5900260E0D8
:102561002402F09001111247F5900260E02402F07C
:10257100E0FF04F0EF3395E0FE74642FF5827401FF
:102581003EF583742CF0900260E0FF04F0EF339588
:10259100E0FE74642FF58274013EF5837420F0022D
:1025A1002707900260E0FF04F0EF3395E0FE7464CA
:1025B1002FF58274013EF5837430F0900260E0FFE4
:1025C10004F0EF3395E0FE74642FF58274013EF55B
:1025D100837430F0900260E0FF04F0EF3395E0FE89
:1025E10074642FF58274013EF5837430F0900260BB
:1025F100E0FF04F0EF3395E0FE74642FF58274017F
:102601003EF5837430F0900260E0FF04F0EF339503
:10261100E0FE74642FF58274013EF5837430F0900E
:102621000260E0FF04F0EF3395E0FE74642FF58261
:1026310074013EF5837430F0900260E0FF04F0EF26
:102641003395E0FE74642FF58274013EF583743096
:10265100F0900260E0FF04F0EF3395E0FE74642F28
:10266100F58274013EF5837430F0900260E0FF045E
:10267100F0EF3395E0FE74642FF58274013EF5832B
:102681007430F0900260E0FF04F0EF3395E0FE74E7
:10269100642FF58274013EF5837430F0900260E09E
:1026A100FF04F0EF3395E0FE74642FF58274013E70
:1026B100F583742CF0E490025FF09001ADE0FF909F
:1026C100025FE0FDFB3395E0FAC3EB9F7480F86A8B
:1026D100985033EDFF3395E0FE74AE2FF58274010F
:1026E1003EF583E0FF900260E0FE04F0EEFD3395DD
:1026F100E0FC74642DF58274013CF583EFF09002E7
:102701005FE004F080B4900260E0FF04F0EF3395E5
:10271100E0FE74642FF58274013EF583742CF08021
:1027210000900260E0FF04F0EF3395E0FE74642F47
:10273100F58274013EF5837403F0900260E0022992
:10274100159001647402F0900127E0FF7010900170
:1027510065200D057441F0800A7443F080059001F5
:1027610065EFF0900092E0900260F0E490025FF07B
:10277100900092E0FF90025FE0FD3395E0FCC3ED35
:102781009F7480F86C985026E0FF3395E0FE74C981
:102791002FF58274013EF583E0FF74662DF5827496
:1027A100013CF583EFF090025FE004F080C29002FB
:1027B10060E0FF3395E0FE74662FF58274013EF50B
:1027C10083742CF0302413900023E0FD74672FF5FF
:1027D1008274013EF583EDF08016900260E0FF33D4
:1027E10095E0FE74672FF58274013EF5837430F035
:1027F1003004679000FDE0FFB448089000F97404CC
:10280100F08039EFB454089000F97403F0802DEF93
:10281100B442089000F97402F08021EFB44D0280B7
:102821000EEFB44302801030080D2097028008900B
:1028310000F97401F08005E49000F9F09000F9E0EE
:102841002430FF900260E0FD3395E0FC74682DF5C3
:102851008274013CF583EFF0803630081D900260F0
:10286100E0FF3395E0FE74682F2097028018F5820F
:1028710074013EF5837431F08016900260E0FF33FD
:1028810095E0FE74682FF58274013EF5837430F093
:10289100900260E0FF300D673395E0FE74692FF51B
:1028A1008274013EF583742CF0900260E02406F0FE
:1028B1009001231247F51247EB900260E02402F0E9
:1028C1009001961247F5900260E02402F090019782
:1028D1001247F5900260E02402F09001101247F5D2
:1028E100900260E02402F0E0FFFD3395E0FC7464A7
:1028F1002DF58274013CF5837403F0EF048015FD1E
:102901003395E0FC74692DF58274013CF583740301
:10291100F0EF2406FF124C6E023618900203E054C9
:102921000264026003022EE0D2119000FA741CF0DE
:10293100E4F58CF58AC28D300503022B8E200B0342
:10294100022B1A9001647402F0A37477F09002A034
:10295100E0FDC4540F2430900166F0ED540F243093
:10296100A3F09002A1E0FDC4540F2430900168F05F
:10297100ED540F2430A3F09002A2E0FDC4540F24C3
:102981003090016AF0ED540F2430A3F0A3742CF0C1
:10299100A37430F03004559000FDE0FFB448089076
:1029A10000F97404F08039EFB454089000F974030D
:1029B100F0802DEFB442089000F97402F08021EF0D
:1029C100B44D02800EEFB44302801030080D209701
:1029D1000280089000F97401F08005E49000F9F09C
:1029E1009000F9E0243090016EF0801630080D90CF
:1029F100016E20970280087431F0800690016E7498
:102A010030F090016F742CF0900123E024D0FF7D11
:102A11000C7C001248029000FCE024D0FF7D0E7C6B
:102A210000124802900196E024D0FF7D107C001234
:102A31004802900197E024D0FF7D127C00124802E9
:102A4100900110E024D0FF7D147C00124802900117
:102A51007A742CF0900124E024D0FF7D177C0012C1
:102A610048029000FEE024D0FF7D197C001248024C
:102A7100900198E024D0FF7D1B7C00124802900158
:102A810099E024D0FF7D1D7C00124802900111E0E5
:102A910024D0FF7D1F7C001248029000F67421F0C3
:102AA100E0FF04F074642FF582E43401F583742CA3
:102AB100F0301C4EE490025FF09000D6E0FF9002EF
:102AC1005FE0FDFB3395E0FAC3EB9F7480F86A98F1
:102AD1004003022D50EDFF3395E0FE74AE2FF582D9
:102AE10074013EF583E0FF9000F6E0FE04F07464AB
:102AF1002EF582E43401F583EFF090025FE004F0FB
:102B010080B79000F6E0FF04F074642FF582E4349E
:102B110001F5837420F0022D509001647402F0A33A
:102B21007442F09002A0E0FDC4540F24309001667D
:102B3100F0ED540F2430A3F09002A1E0FDC4540F36
:102B41002430900168F0ED540F2430A3F09002A2DC
:102B5100E0FDC4540F243090016AF0ED540F24308D
:102B6100A3F0A3742CF0A37430F030080F20970465
:102B7100A3F0800E90016E7431F0800690016E74A6
:102B810030F090016F7403F07F0C022EDA90016433
:102B91007402F0A37477F09002A0E0FDC4540F24F6
:102BA10030900166F0ED540F2430A3F09002A1E0C3
:102BB100FDC4540F2430900168F0ED540F2430A36C
:102BC100F09002A2E0FDC4540F243090016AF0EDB0
:102BD100540F2430A3F0A3742CF0A37430F030040C
:102BE100559000FDE0FFB448089000F97404F080AE
:102BF10039EFB454089000F97403F0802DEFB4421A
:102C0100089000F97402F08021EFB44D02800EEFBC
:102C1100B44302801030080D20970280089000F91B
:102C21007401F08005E49000F9F09000F9E024309F
:102C310090016EF0801630080D90016E2097028091
:102C4100087431F0800690016E7430F090016F7459
:102C51002CF0900123E024D0FF7D0C7C001248026F
:102C61009000FCE024D0FF7D0E7C00124802900110
:102C710096E024D0FF7D107C00124802900197E07D
:102C810024D0FF7D127C00124802900110E024D074
:102C9100FF7D147C00124802201203022DC4900112
:102CA1007A742CF0900124E024D0FF7D177C00126F
:102CB10048029000FEE024D0FF7D197C00124802FA
:102CC100900198E024D0FF7D1B7C00124802900106
:102CD10099E024D0FF7D1D7C00124802900111E093
:102CE10024D0FF7D1F7C001248029000F67421F071
:102CF100E0FF04F074642FF582E43401F583742C51
:102D0100F0301C7BE490025FF09000D6E0FF90026F
:102D11005FE0FDFB3395E0FAC3EB9F7480F86A989E
:102D2100502DEDFF3395E0FE74AE2FF58274013E18
:102D3100F583E0FF9000F6E0FE04F074642EF58266
:102D4100E43401F583EFF090025FE004F080BA9083
:102D510000F6E0FF04F074642FF582E43401F5839A
:102D6100742CF09000F6E0FF04F074642FF582E417
:102D71003401F5837403F09000F6E0FF022EDA903F
:102D810000F6E0FF04F074642FF582E43401F5836A
:102D91007420F09000F6E0FF04F074642FF582E4F3
:102DA1003401F583742CF09000F6E0FF04F07464B4
:102DB1002FF582E43401F5837403F09000F6E0FF0F
:102DC100022EDA90017A742CF07D177C00E4FF1258
:102DD10048027D197C00E4FF1248027D1B7C00E45F
:102DE100FF1248027D1D7C00E4FF1248027D1F7C1A
:102DF10000E4FF1248029000F67421F0E0FF04F0B5
:102E010074642FF582E43401F583742CF0201C03E3
:102E1100022E99C21CE490025FF09000D6E024FFDC
:102E2100FFE434FFFE90025FE0FDFB3395E0FAC35F
:102E3100EB9FEE6480F8EA648098502DEDFF3395A6
:102E4100E0FE74AE2FF58274013EF583E0FF900041
:102E5100F6E0FE04F074642EF582E43401F583EFAC
:102E6100F090025FE004F080B19000F6E0FF04F022
:102E710074642FF582E43401F583742CF09000F62C
:102E8100E0FF04F074642FF582E43401F5837403E8
:102E9100F09000F6E0FF80419000F6E0FF04F0744E
:102EA100642FF582E43401F5837420F09000F6E09C
:102EB100FF04F074642FF582E43401F583742CF07F
:102EC1009000F6E0FF04F074642FF582E43401F51C
:102ED100837403F09000F6E0FF124C6E02361890F6
:102EE1000203E0FF54046404600302361DEF54FB47
:102EF100F00236189000D5E02493F582E43400F511
:102F010083E4F030064CC20690025FF09000D5E0F9
:102F1100FFFD90025FE0FEFB3395E0FAC3EB9D7489
:102F210080F86A985026EEFD3395E0FC74932DF5F8
:102F31008274003CF583E0FE74D72DF58274003C69
:102F4100F583EEF090025FE004F080C01245980234
:102F51002FD39000D5E064196003022FDD9000F5B6
:102F6100E0FF900094E06F7073A3E06448706D120D
:102F7100492AE490025FF09000D5E0FF90025FE003
:102F8100FDFB3395E0FAC3EB9F7480F86A985026F5
:102F9100EDFF3395E0FE74932FF58274003EF583C7
:102FA100E0FD74D72FF58274003EF583EDF09002B9
:102FB1005FE004F080C11248C67F80124D1D7F532F
:102FC100124CD77F59124CD77F4E124CD77F4312E8
:102FD1004CD7D216E4900126F00236109000D5E0CD
:102FE100FF7E00C39406748094805003023610EF74
:102FF1009407748094804011900129E0B4630A120F
:103001004598D216E4900126F090012AE0FF64442D
:103011006025EF6441702030031D30210830111705
:10302100200B148003200B0FD2959000FA742AF024
:10303100E4F58CF58AC28D201503023610C2159075
:103041000098E064417031A3E06443702BA3E06415
:10305100457025A3E06452701FA3E064517019A369
:10306100E0B45514A3E0B4450FA3E0B4530AA3E0C0
:10307100B445057FA1023574900098E06455704510
:10308100A3E0644E703FA3E064207039A3E0644D77
:1030910070337F09124A85900203E054FEF054FD1B
:1030A100F0C21CC20CC207C20DE4900127F09000CF
:1030B10024F0A3F09001E2F0A3F0C20B9000FD74A4
:1030C10020F0023577900094E06458703CA3E064EE
:1030D100417036A3E064587030A3E06458702AA3AD
:1030E100E064477024A3E06452701EA3E064417061
:1030F10018A3E0B44313A3E0B4490EA3E0B441091B
:10310100A3E0B453047F018054900094E0645870AC
:1031110052A3E06458704CA3E064587046A3E06485
:10312100587040A3E06442703AA3E064497034A34C
:10313100E06445702EA3E0644E7028A3E0645670ED
:1031410022A3E06445701CA3E0B44E17A3E0B44988
:1031510012A3E0B4440DA3E0B44F087F021244036C
:10316100023577900094E06458706DA3E064587064
:1031710067A3E064587061A3E06458705BA3E064E6
:103181004D7055A3E06445704FA3E0644E7049A3B0
:10319100E064537043A3E06455703DA3E064417063
:1031A10037A3E0644C7031A3E06420702BA3E0648A
:1031B1004E7025A3E0644F701FA3E064207019A333
:1031C100E0B44514A3E0B4530FA3E0B4540AA3E060
:1031D100B441057FB2023574900094E06458706D7B
:1031E100A3E064587067A3E064587061A3E0645879
:1031F100705BA3E0644D7055A3E06445704FA3E09C
:10320100644E7049A3E064537043A3E06455703D7C
:10321100A3E064417037A3E0644C7031A3E0642003
:10322100702BA3E064597025A3E06441701FA3E0F3
:1032310064207019A3E0B44514A3E0B4530FA3E0D4
:10324100B4540AA3E0B441057FB3023574900094ED
:10325100E064587079A3E064587073A3E064587017
:103261006DA3E064587067A3E0644D7061A3E064EE
:1032710045705BA3E0644E7055A3E06453704FA3A7
:10328100E064557049A3E064417043A3E0644C706D
:103291003DA3E064207037A3E064467031A3E0648D
:1032A10055702BA3E064457025A3E06452701FA301
:1032B100E064417019A3E0B42014A3E0B4440FA367
:1032C100E0B4450AA3E0B452057FB402357490001E
:1032D10094E064587079A3E064587073A3E0645873
:1032E100706DA3E064587067A3E0644D7061A3E062
:1032F1006445705BA3E0644E7055A3E06453704F66
:10330100A3E064557049A3E064417043A3E0644CB9
:10331100703DA3E064207037A3E064467031A3E000
:103321006455702BA3E064457025A3E06452701FBF
:10333100A3E064417019A3E0B42014A3E0B4440FE6
:10334100A3E0B4450AA3E0B448057FB50235749003
:103351000094E06458704FA3E064587049A3E0649E
:10336100587043A3E06458703DA3E0644E7037A3E6
:10337100E0644F7031A3E06420702BA3E0644570DA
:1033810025A3E06453701FA3E064207019A3E0B487
:103391004D14A3E0B4450FA3E0B44E0AA3E0B45327
:1033A100057FB1023574900094E06458704FA3E03A
:1033B10064587049A3E064587043A3E06458703DB9
:1033C100A3E0644E7037A3E0644F7031A3E0642042
:1033D100702BA3E064527025A3E06445701FA3E045
:1033E10064477019A3E0B44914A3E0B4530FA3E0F8
:1033F100B4540AA3E0B452057F04023574900094DA
:10340100E06458704FA3E064587049A3E0645870B9
:1034110043A3E06458703DA3E0644C7037A3E064BB
:103421004F7031A3E06454702BA3E064457025A371
:10343100E06420701FA3E064417019A3E0B4531449
:10344100A3E0B4490FA3E0B4470AA3E0B44E057F5B
:1034510005023574900094E064587067A3E06458E5
:103461007061A3E06458705BA3E064587055A3E0F9
:10347100644D704FA3E064457049A3E0644E70430E
:10348100A3E06453703DA3E064557037A3E0644149
:103491007031A3E0644C702BA3E064207025A3E09D
:1034A1006445701FA3E064587019A3E0B44314A3EA
:1034B100E0B4450FA3E0B4440AA3E0B445057F0797
:1034C100023574900094E064587066A3E06458700B
:1034D10060A3E06458705AA3E064587054A3E06498
:1034E1004D704EA3E064457048A3E0644E7042A362
:1034F100E06453703CA3E064557036A3E06441700E
:1035010030A3E0644C702AA3E064207024A3E0643B
:103511004E701EA3E0644F7018A3E0B42013A3E023
:10352100B4500EA3E0B44109A3E0B447047F08807E
:1035310042900094E06458703DA3E064587037A352
:10354100E064587031A3E06458702BA3E0644E70BE
:1035510025A3E0644F701FA3E064207019A3E0B4B9
:103561005014A3E0B4410FA3E0B4470AA3E0B44F61
:10357100057FE7124A857F80124D1D90025F740519
:10358100F090025FE0FFFD3395E0FCC3ED9415EC94
:1035910064809480502BEF3395E0FE74932FF58275
:1035A10074003EF583E06403601774932FF5827411
:1035B100003EF583E0FF124CD790025FE004F080FB
:1035C100C07FC0124D1D90025F7415F090025FE044
:1035D100FFFD3395E0FCD3ED9426EC64809480509C
:1035E1002EEF3395E0FE74932FF58274003EF58340
:1035F100E06403601A201E0F74932FF58274003E5D
:10360100F583E0FF124CD790025FE004F080BDE447
:0C361100900126F0D21622E4900126F071
:01361D00228A
:1000260078047C027D017BFF7A4379AE7E007F11E6
:10003600123EEF78157C027D017BFF7A4379BF7E05
:10004600007F11123EEF78267C027D017BFF7A430A
:1000560079D07E007F11123EEF78377C027D017BDE
:10006600FF7A4379E17E007F11123EEF78487C02E9
:100076007D017BFF7A4379F27E007F11123EEF12FB
:100086004CBE124D9212492AE58954F04401F58975
:10009600C28DE4F58CF58AD28CC296C295C294D2F2
:1000A600B6D201900024F0A3F09001E2F0A3F09004
:1000B60000F7741EF09000FA741CF0C213C280C2DE
:1000C60018C281C219C282C21AC283C21BC20DE4FF
:1000D600900127F0C205C20CC2079000FBF0900108
:1000E600DEF0A3F0C2009001FEF0A3F0C210C21D24
:1000F600D203D208D20ED221D204A3F0A3F0C209B1
:100106007BFF7A437910FDFF1200167FC0124D1D4A
:100116007B017A027915124B8A124BB4D2B5D2B64C
:1001260075A0FF90025EE5A0F09002C3E064016056
:100136000302041930B703020419201F030201FE4B
:100146009000F7741EF01249B1124A52301D5D90AC
:1001560001FEE07002A3E070519000D77402F0A394
:100166007457F09002A0E0FF9000D9F09002A1E051
:10017600FE9000DAF09002A2E0FD9000DBF0A3749E
:1001860003F090005BEFF0A3EEF0A3EDF09000D546
:100196007406F0FF124598900203E054FDF09001BA
:1001A600FE7402F0A37430F0806280599000D77418
:1001B60002F0A37457F09002A0E09000D9F09002EC
:1001C600A1E09000DAF09002A2E09000DBF0A374C8
:1001D60003F09000D57406F0FF1245989002037460
:1001E60002F0C20B9001E2E4F0A37405F090012640
:1001F6007403F012224180147BFF7A437921E4FDD7
:100206007F01120016900203E054FDF0200903025C
:1002160004409002A0E0FF7E006476700CA3E064C8
:10022600D67006A3E0640B603DEF64244E700E901A
:1002360002A1E064547006A3E064E4607B9002A02F
:10024600E06495700AA3E07006A3E064D560699047
:1002560002A0E0FF7E00645F700FA3E064D7700920
:10026600A3E064847003020406EF64954E700C905C
:1002760002A1E07006A3E064F2603D9002A0E06493
:1002860060700CA3E064407006A3E064946029905B
:1002960002A0E0FF7E006495700AA3E07006A3E06A
:1002A60064F36014EF64374E70119002A1E0643677
:1002B6007009A3E0642470030204069002A0E064BF
:1002C60095700CA3E064017006A3E06410603F9093
:1002D60002A0E0FF7E00647F700CA3E064757006E8
:1002E600A3E064446028EF64954E700E9002A1E08E
:1002F60064017006A3E0641160149002A0E0641724
:10030600700FA3E064EE7009A3E064247003020496
:10031600069002A0E0FF7E006495700CA3E0644F97
:100326007006A3E064D7603FEF64674E700E9002DC
:10033600A1E064177006A3E064B4602B9002A0E00D
:100346006494700CA3E064EA7006A3E06475601719
:100356009002A0E0FF7E00647C700FA3E064DE7074
:1003660009A3E064347003020406EF64944E700E31
:100376009002A1E064EB7006A3E06458602B900243
:10038600A0E06417700CA3E064167006A3E064D4C2
:1003960060179002A0E0FF7E00648F700EA3E064F9
:1003A600427008A3E064D670028055EF64954E70E3
:1003B6000E9002A1E0641D7006A3E064BC60149078
:1003C60002A0E06426700EA3E064127008A3E06445
:1003D600847002802B9002A0E0FF7E006482700C85
:1003E600A3E064887006A3E064146014EF64514EC1
:1003F60070489002A1E064C17040A3E06414703AB2
:10040600D296D2959000FA742AF0E4F58CF58AC259
:100416008D80279002C3E06401701F1249B1124A11
:10042600527F06124A857BFF7A437932E4FD7F01CB
:10043600120016900203E054FDF030B403021FEEE2
:100446009000D774FFF0A3F01241F6900125E070FA
:1004560003021FEE6401700A9000D7E06406700282
:10046600D21F900125E0640160030207969000D731
:10047600E0FF7E00C394DF748094805003020796E9
:10048600D3EF94EF74809480400302079612492AB2
:100496009000D7E0FF64E2600AEF64E36005EF6472
:1004A600E4703A7FC0124D1DE4900259F090025953
:1004B600E024C4F582E43400F583E0FF600B124CBF
:1004C600D7900259E004F080E47FCE124D1D9000D3
:1004D600D7E0540F2430FF124CD70207849000D780
:1004E600E064E070297FC0124D1DE4900259F0903F
:1004F6000259E02412F582E43401F583E0FF70032B
:10050600020784124CD7900259E004F080E1900073
:10051600D7E064E1700F7BFF7A437943FD7F0112D8
:1005260000160207849000D7E064E570297FC012A8
:100536004D1DE4900259F0900259E024B8F582E48A
:100546003401F583E0FF7003020784124CD7900252
:1005560059E004F080E19000D7E064E670297FC09E
:10056600124D1DE4900259F0900259E02412F582D2
:10057600E43400F583E0FF7003020784124CD79041
:100586000259E004F080E19000D7E064E770187F3C
:10059600C0124D1D7BFF7A437954124B8A7F107E21
:1005A60027124D330207849000D7E064E870297F54
:1005B600C0124D1DE4900259F0900259E0245FF5F7
:1005C60082E43400F583E0FF7003020784124CD7FF
:1005D600900259E004F080E19000D7E064E97029C8
:1005E6007FC0124D1DE4900259F0900259E0242676
:1005F600F582E43400F583E0FF7003020784124CB1
:10060600D7900259E004F080E19000D7E064EA70E8
:10061600297FC0124D1DE4900259F0900259E02442
:10062600FFF582E43400F583E0FF700302078412CD
:100636004CD7900259E004F080E19000D7E064EBDB
:1006460070297FC0124D1DE4900259F0900259E0C6
:100656002481F582E43400F583E0FF700302078409
:10066600124CD7900259E004F080E19000D7E06484
:10067600EC70297FC0124D1DE4900259F09002598A
:10068600E02401F582E43400F583E0FF70030207FD
:1006960084124CD7900259E004F080E19000D7E034
:1006A60064ED70297FC0124D1DE4900259F090024E
:1006B60059E02426F582E43402F583E0FF70030254
:1006C6000784124CD7900259E004F080E19000D7DD
:1006D600E064EE70297FC0124D1DE4900259F0903F
:1006E6000259E02437F582E43402F583E0FF700313
:1006F600020784124CD7900259E004F080E1900082
:10070600D7E064EF705F7FC0124D1D7F54124CD747
:100716007F41124CD77F52124CD77F4A124CD77F5B
:1007260045124CD77F54124CD77F41124CD77F20AD
:10073600124CD77F41124CD77F54124CD77F4112AF
:100746004CD77F53124CD77F43124CD77F41124C64
:10075600D77F44124CD77F41124CD7D20A9000FA69
:10076600741CF080199000D7E064DF701112492ADA
:100776007FC0124D1D7BFF7A437965124B8AD21ECC
:100786009000FA741CF0E4F58CF58AC28D021FEE17
:10079600900125E0FF7E006401700E9000D7E064B2
:1007A600A07006D218D280803BEF64014E70219073
:1007B60000D7E064A17019D219D2819000FA741C96
:1007C600F07BFF7A437976E4FDFF120016021FEEF6
:1007D600900125E0640170159000D7E064A2700DC9
:1007E600D21AD2829000FA741CF0021FEE900125F4
:1007F600E0FF7E00640170159000D7E064A3700DE1
:10080600D21BD2839000FA742AF0021FEEEF640125
:100816004E70589000D7E064AF70507FC0124D1DE7
:100826007F43124CD77F4F124CD77F4E124CD77F47
:1008360054124CD77F2E124CD77F20124CD77F45AF
:10084600124CD77F56124CD77F4E124CD77F2012B0
:100856004CD77F49124CD77F4E124CD77F49124C4A
:10086600D77F43124CD77F49020AAB900125E0643B
:100876000170429000D7E0644E703AD2037F801236
:100886004D1DE4900259F0900259E02404F582E4EB
:100896003402F583E0FF600B124CD7900259E00456
:1008A600F080E47F8D124D1D7F4E124CD7201D0324
:1008B600021FEE8048900125E06401704A9000D73F
:1008C600E064537042C2037F80124D1DE4900259CA
:1008D600F0900259E02404F582E43402F583E0FF47
:1008E600600B124CD7900259E004F080E47F8D1221
:1008F6004D1D7F53124CD7201D03021FEE7F201281
:100906004CD77F4D021067900125E064017032904C
:1009160000D7E0B4502BC2037FC0124D1DE49002F5
:1009260059F0900259E02437F582E43400F583E06B
:10093600FF7003021FEE124CD7900259E004F080BC
:10094600E1900125E0640170309000D7E0B44429BD
:100956007FC0124D1DE4900259F0900259E02448E0
:10096600F582E43402F583E0FF7003021FEE124CB9
:10097600D7900259E004F080E1900125E06401700F
:100986005D9000D7E064F170557FC0124D1D7F5514
:10099600124CD77F4E124CD77F20124CD77F4D1268
:1009A6004CD77F4F124CD77F4D124CD77F45124CF8
:1009B600D77F4E124CD77F54124CD77F4F124CD74D
:1009C6007F2E124CD77F2E124CD77F2E124CD77FFC
:1009D60020124CD77F20124CD77F2002106790013F
:1009E60025E06401705D9000D7E064F370557FC028
:1009F600124D1D7F50124CD77F49124CD77F4312A0
:100A06004CD77F4F124CD77F20124CD77F59124CB0
:100A1600D77F20124CD77F50124CD77F4C124CD721
:100A26007F41124CD77F43124CD77F41124CD77F60
:100A36002E124CD77F2E124CD77F2E124CD77F20EA
:100A4600021067900125E0640170629000D7E064AF
:100A5600F8705A7FC0124D1D7F56124CD77F451233
:100A66004CD77F48124CD77F49124CD77F2E124C59
:100A7600D77F20124CD77F49124CD77F4E124CD7C6
:100A86007F56124CD77F41124CD77F4C124CD77FE2
:100A960049124CD77F44124CD77F4F124CD77F2E2A
:100AA600124CD77F2E124CD77F2E0210679001254D
:100AB600E06401705D9000D7E064F970557FC01264
:100AC6004D1D7F53124CD77F41124CD77F4C124C91
:100AD600D77F49124CD77F44124CD77F41124CD74F
:100AE6007F20124CD77F52124CD77F45124CD77FAE
:100AF60043124CD77F48124CD77F41124CD77F5AAE
:100B0600124CD77F41124CD77F44124CD77F4102FB
:100B16001067900125E06401705D9000D7E064FAEB
:100B260070557FC0124D1D7F53124CD77F49124C12
:100B3600D77F4E124CD77F20124CD77F54124CD7FA
:100B46007F41124CD77F52124CD77F4A124CD77F27
:100B560045124CD77F54124CD77F41124CD77F5346
:100B6600124CD77F20124CD77F20124CD77F2012F1
:100B76004CD77F20021067900125E06401705D90DC
:100B860000D7E064B570557FC0124D1D7F46124CEC
:100B9600D77F55124CD77F45124CD77F52124CD770
:100BA6007F41124CD77F20124CD77F44124CD77FFF
:100BB60045124CD77F20124CD77F48124CD77F4F17
:100BC600124CD77F52124CD77F41124CD77F52120C
:100BD6004CD77F49124CD77F4F021067900125E012
:100BE60064016003020CA29000D7E064B8600302BF
:100BF6000CA27F80124D1D7F20124CD77F45124CD0
:100C0600D77F4E124CD77F54124CD77F52124CD7F7
:100C16007F41124CD77F44124CD77F41124CD77F6D
:100C260020124CD77F46124CD77F55124CD77F45A2
:100C3600124CD77F52124CD77F41124CD77F2012CD
:100C46004CD77F20124CD77FC0124D1D7F44124CCB
:100C5600D77F45124CD77F20124CD77F48124CD7EE
:100C66007F4F124CD77F52124CD77F41124CD77F01
:100C760052124CD77F49124CD77F4F124CD77F2048
:100C8600124CD77F2D124CD77F43124CD77F41127F
:100C96004CD77F4A124CD77F41021067900125E05E
:100CA60064016003020D629000D7E064B96003023C
:100CB6000D627F80124D1D7F44124CD77F49124C26
:100CC600D77F41124CD77F20124CD77F44124CD786
:100CD6007F45124CD77F20124CD77F41124CD77FCD
:100CE60043124CD77F43124CD77F45124CD77F53C4
:100CF600124CD77F4F124CD77F20124CD77F201231
:100D06004CD77F20124CD77FC0124D1D7F49124C05
:100D1600D77F4E124CD77F56124CD77F41124CD7F5
:100D26007F4C124CD77F49124CD77F44124CD77F49
:100D36004F124CD77F20124CD77F20124CD77F20E2
:100D4600124CD77F20124CD77F20124CD77F20120F
:100D56004CD77F20124CD77F20021067900125E0E8
:100D66006401705D9000D7E064FB70557FC0124D42
:100D76001D7F45124CD77F52124CD77F52124CD74B
:100D86007F4F124CD77F52124CD77F20124CD77F01
:100D960054124CD77F52124CD77F41124CD77F4EFC
:100DA600124CD77F53124CD77F50124CD77F4F121D
:100DB6004CD77F52124CD77F54124CD77F45021026
:100DC60067900125E06401705D9000D7E064FC70D7
:100DD600557FC0124D1D7F4E124CD77F4F124CD7F8
:100DE6007F20124CD77F45124CD77F53124CD77FAA
:100DF60020124CD77F4D124CD77F45124CD77F4ED1
:100E0600124CD77F53124CD77F55124CD77F4112C5
:100E16004CD77F4C124CD77F2E124CD77F2E124CBC
:100E2600D77F2E021067900125E06401705D900067
:100E3600D7E064FD70557FC0124D1D7F4E124CD712
:100E46007F4F124CD77F20124CD77F45124CD77F4D
:100E560053124CD77F20124CD77F44124CD77F4574
:100E6600124CD77F20124CD77F52124CD77F4F128D
:100E76004CD77F54124CD77F41124CD77F43124C2C
:100E8600D77F49124CD77F4F021067900125E06447
:100E960001705D9000D7E064FE70557FC0124D1D55
:100EA6007F42124CD77F49124CD77F45124CD77FD1
:100EB6004E124CD77F56124CD77F45124CD77F4ED9
:100EC600124CD77F49124CD77F44124CD77F4F1212
:100ED6004CD77F20124CD77F20124CD77F20124C44
:100EE600D77F20124CD77F20124CD77F2002106765
:100EF600900125E06401705C9000D7E0F470557FA6
:100F060080124D1D7F47124CD77F52124CD77F411E
:100F1600124CD77F43124CD77F49124CD77F4112D0
:100F26004CD77F53124CD77F2E124CD77F2E124CA4
:100F3600D77F2E124CD77F20124CD77F20124CD74A
:100F46007F20124CD77F20124CD77F20124CD77FA0
:100F5600200210679000D7E06402600302106DA3C0
:100F6600E06469600302106D12492A7BFF7A4379B7
:100F760087E4FDFF1200167FC0124D1D9000D9E0D8
:100F8600FF124AE17F2F124CD79000DAE0FF124A97
:100F9600E17F2F124CD79000DBE0FF124AE17F2061
:100FA600124CD79000DCE0FF124AE17F3A124CD790
:100FB6009000DDE0FF124AE19000DEE0FF124AE118
:100FC6007F8C124D1D9000DFE06401700F7F44128C
:100FD6004CD77F6F124CD77F6D0210679000DFE011
:100FE6006402700E7F4C124CD77F75124CD77F6E01
:100FF600806F9000DFE06403700E7F4D124CD77F48
:1010060061124CD77F7280599000DFE06404700E45
:101016007F4D124CD77F69124CD77F658043900075
:10102600DFE06405700E7F4A124CD77F75124CD7ED
:101036007F65802D9000DFE06406700E7F56124CAF
:10104600D77F69124CD77F6580179000DFE0640771
:101056006003021FEE7F53124CD77F61124CD77F7D
:1010660062124CD7021FEE9000D7E06402600302C2
:10107600112BA3E06449600302112B7F80124D1DE2
:10108600E4900259F0900259E02470F582E43400AD
:10109600F583E0FF600B124CD7900259E004F08014
:1010A600E4900125E024FE90025EF07FC0124D1D03
:1010B600E49001E4F0900259F090025EE0FF9002A5
:1010C60059E0FEC39F503774D92EF582E43400F5FB
:1010D60083E064037008EF04900259F080189002D0
:1010E60059E024D9F582E43400F583E0FF124CD7A9
:1010F6009001E4E004F0900259E004F080BBE49033
:101106000259F09001E4E0FFC374109FFF9002596A
:10111600E0C39F4003021FEE7F20124CD790025976
:10112600E004F080DE9000D7E0640260030211C79D
:10113600A3E0644460030211C712492A7F80124D5E
:101146001D7BFF7A437998124B8A9002597402F0FC
:10115600900259E0FF24D7F582E43400F583E06479
:101166003B601774D72FF582E43400F583E0FF1255
:101176004CD7900259E004F080D67FC0124D1D90E6
:101186000259E004F07BFF7A4379A4124B8A90025D
:101196005A7402F0900259E0FF24D7F582E4340035
:1011A600F583E0643B7003021FEE74D72FF582E4EB
:1011B6003400F583E0FF124CD7900259E004F0802A
:1011C600D39000D7E064027012A3E06405700CA30C
:1011D600E064037006124B60021FEE9000D7E0FB3E
:1011E6007A006402600302128EA3E0645760030271
:1011F600128E900125E0FF24D6F582E43400F583B3
:10120600E06403600302128EEF6412707B9001FEAD
:10121600F0A3F0C205D20B9000DBE09002A0F090A4
:1012260000DAE09002A1F09000D9E09002A2F090DE
:1012360000DDE0900123F09000DEE09000FCF090ED
:1012460000DFE0900196F09000E0E0900197F090CA
:1012560000E1E0900110F09000E2E0900124F090AF
:1012660000E3E09000FEF09000E4E0900198F0903A
:1012760000E5E0900199F09000E6E0900111F09011
:1012860000E7E09000FD802FEB64024A703D90007D
:10129600D8E0645770359001FEF0A3F0C205C20B8A
:1012A6009000DBE09002A0F09000DAE09002A1F05E
:1012B6009000D9E09002A2F0900203E04402F09080
:1012C60001E2E4F0A37405F0021FEE9000D7E0649B
:1012D600027045A3E0644D703F9001FEF0A3F0124A
:1012E6004637C2059000DBE09002A0F09000DAE0FD
:1012F6009002A1F09000D9E09002A2F0900203E0E3
:101306004402F09001E2E4F0A37405F09001DEE4FB
:10131600F0A3748CF0021FEE9000D7E0FB7A006415
:1013260002600302149DA3E06477600302149D909B
:101336000125E0FF24D6F582E43400F583E064035A
:10134600600302149D9001FEF0A3F0D205C212C202
:101356001C9000DBE09002A0F09000DAE09002A181
:10136600F09000D9E09002A2F09000DDE090012319
:10137600F09000DEE09000FCF09000DFE090019637
:10138600F09000E0E0900197F09000E1E09001100D
:10139600F07E00EF641270379000E2E0900124F0D6
:1013A6009000E3E09000FEF09000E4E0900198F0F9
:1013B6009000E5E0900199F09000E6E0900111F0D0
:1013C6009000E7E09000FDF0D212C21C02148AD30E
:1013D600EF9412EE6480948050030214809000E231
:1013E600E0900124F09000E3E09000FEF09000E42D
:1013F600E0900198F09000E5E0900199F09000E609
:10140600E0900111F0900125E024D5F582E4340046
:10141600F583E09000FDF0D212D21CE49000D6F0E5
:101426009001E1740AF09002597410F0900125E0E1
:10143600FF24FEFE900259E0FDC39E504774D72D4F
:10144600F582E43400F583E064039002596021E0FC
:10145600FE24D7F582E43400F583E0FD749E2EF574
:1014660082E43401F583EDF09000D6E004F08002CA
:10147600EFF0900259E004F080B29000E2E09000B4
:10148600FDF0C212900203E04402F09001E2E4F0A3
:10149600A3740AF0021FEEEB64024A6003021616FA
:1014A6009000D8E0FF64506017EF64546012EF6458
:1014B60056600DEF64456008EF6447600302161638
:1014C600E49001FEF0A3F0900127EFF0900125E0F3
:1014D600900092F0124C8AC20DC2247F80124D1DDC
:1014E6009002597403F0900092E0FF900259E0FEDA
:1014F600C39F400302158174D72EF582E43400F5AC
:1015060083E0C39430401074D72EF582E43400F59E
:1015160083E0D39439403D74D72EF582E43400F548
:1015260083E0C39441401074D72EF582E43400F56D
:1015360083E0D3945A401D74D72EF582E43400F527
:1015460083E0642D600E74D72EF582E43400F583B3
:10155600E0B42E04D2258008C225EF04900259F08B
:10156600900259E024D7F582E43400F583E0FF12B7
:101576004CD7900259E004F00214EC202503021F18
:10158600DFE490025AF09000FDF0900259F09000CE
:1015960092E0FF900259E0FEC39F502A74D72EF5C1
:1015A60082E43400F583E0B42E1474D82EF582E478
:1015B6003400F583E09000FDF0900259EFF09002C0
:1015C60059E004F080C89000FDE06007900092E0CA
:1015D60024FBF0900203E04401F0E4900259F090FD
:1015E6000092E0FF900259E0FEC39F4003021FDF16
:1015F60074DA2EF582E43400F583E0FF74C92EF523
:1016060082E43401F583EFF0900259E004F080CFD4
:101616009000D7E064026003021772A3E064616081
:1016260003021772900125E024D6F582E43400F512
:1016360083E0640360030217729001FEF0A3F0D208
:101646000CC2079000F8F09002597402F090012540
:10165600E0FC900259E0FEC39C502174D72EF5821F
:10166600E43400F583E0B42D0BEE049001ABF0906A
:101676000259ECF0900259E004F080D190025974BE
:1016860002F09001ABE014FF900259E0FEC39F50B8
:101696002674D72EF582E43400F583E0FF74C72E56
:1016A600F582E43401F583EFF09000F8E004F09061
:1016B6000259E004F080CB9001ABE0FF04F074D750
:1016C6002FF582E43400F583E0900123F09001AB1E
:1016D600E0FF04F074D72FF582E43400F583E09040
:1016E60000FCF09001ABE0FF04F074D72FF582E424
:1016F6003400F583E0900196F09001ABE0FF04F032
:1017060074D72FF582E43400F583E0900197F090CA
:1017160001ABE0FF04F074D72FF582E43400F583C3
:10172600E0900110F0E49001ADF09001ABE0049080
:101736000259F0900125E014FF900259E0FEC39F84
:101746004003021B4274D72EF582E43400F583E091
:10175600FF9001ADE0FE04F074AE2EF582E4340194
:10176600F583EFF0900259E004F080C79000D7E0CF
:1017760064026003021974900125E024D6F582E420
:101786003400F583E0640360030219749000D8E026
:10179600FF646D6017EF646E6012EF646F600DEFAB
:1017A60064416008EF64526003021974EF646E705E
:1017B600499001FEF0A3F0C21D7F80124D1DE490FA
:1017C6000259F0900259E02404F582E43402F583CC
:1017D600E0FF600B124CD7900259E004F080E47FE2
:1017E6008D124D1D3003047F4E80027F53124CD75D
:1017F6007F20124CD77F4E0218EF9000D8E0646D20
:101806007043D21D7F80124D1DE4900259F0900264
:1018160059E02404F582E43402F583E0FF600B12FC
:101826004CD7900259E004F080E47F8D124D1D30B4
:1018360003047F4E80027F53124CD77F20124CD771
:101846007F4D0218EF9000D8E0646F60030218F431
:10185600A3E064307048C21D9001FEF0A3F07F80C3
:10186600124D1DE4900259F0900259E02404F582CD
:10187600E43402F583E0FF600B124CD7900259E086
:1018860004F080E47F8D124D1D3003047F4E8002EC
:101896007F53124CD77F20124CD77F6F804B90001E
:1018A600D9E06431600302196BD21D7F80124D1D91
:1018B600E4900259F0900259E02404F582E43402DF
:1018C600F583E0FF600B124CD7900259E004F080DC
:1018D600E47F8D124D1D3003047F4E80027F53122C
:1018E6004CD77F20124CD77F4D124CD78077900073
:1018F600D8E0FD6441703D9001FEE07002A3E06017
:1019060064E49001FEF0A3F090005BE09002A0F08A
:1019160090005CE09002A1F090005DE09002A2F0E1
:10192600900203E04402F09001E2E4F0A37405F0B3
:10193600C20B8031EDB4522DE49001FEF0A3F07F8E
:1019460080124D1DE4900259F0900259E0249AF558
:1019560082E43401F583E0FF600B124CD790025904
:10196600E004F080E49000D874FFF0021FEE9000CF
:10197600D7E064026003021B4CA3E0FF64736008B7
:10198600EF64436003021B4C900125E024D6F582E8
:10199600E43400F583E064036003021B4C9001FE0F
:1019A600F0A3F0D20CD2079000F8F09000D8E0B483
:1019B6004304D20D8002C20D9002597402F09001C8
:1019C60025E0FC900259E0FEC39C502174D72EF509
:1019D60082E43400F583E0B42D0BEE04900059F058
:1019E600900259ECF0900259E004F080D190005931
:1019F600E024D7F582E43400F583E0900023F090EC
:101A060002597402F0900059E0FF14FE900259E06A
:101A1600FDC39E502674D72DF582E43400F583E08D
:101A2600FE74C72DF582E43401F583EEF09000F8DC
:101A3600E004F0900259E004F080CAEF240290011D
:101A4600ABF0E0FF04F074D72FF582E43400F583A1
:101A5600E0900123F09001ABE0FF04F074D72FF57E
:101A660082E43400F583E09000FCF09001ABE0FFE7
:101A760004F074D72FF582E43400F583E0900196E4
:101A8600F09001ABE0FF04F074D72FF582E4340048
:101A9600F583E0900197F09001ABE0FF04F074D776
:101AA6002FF582E43400F583E0900110F09001AB4D
:101AB600E004F0E0FF04F074D72FF582E43400F57B
:101AC60083E0900124F09001ABE0FF04F074D72F7F
:101AD600F582E43400F583E09000FEF09001ABE07F
:101AE600FF04F074D72FF582E43400F583E090010B
:101AF60098F09001ABE0FF04F074D72FF582E43440
:101B060000F583E0900199F09001ABE0FF04F074DA
:101B1600D72FF582E43400F583E0900111F09001AF
:101B2600ABE004F0E0FF04F074D72FF582E4340054
:101B3600F583E09000FDF0E49001ADF0900203E043
:101B46004401F0021FDF9000D7E064026003021C2C
:101B56000CA3E064646003021C0C900125E0FF24E2
:101B6600D6F582E43400F583E064036003021C0CBE
:101B7600EF64096003021C0C124C8A7F80124D1D13
:101B86007F53124CD77F61124CD77F6C124CD77F94
:101B960064124CD77F6F124CD77F20124CD77F44EC
:101BA600124CD77F69124CD77F73124CD77F7012B5
:101BB6004CD77F6F124CD77F6E124CD77F69124C71
:101BC600D77F62124CD77F6C124CD77F65124CD7E9
:101BD600124CA47FC0124D1D9002597402F090025F
:101BE60059E0FFC39408748094804003021FEE748A
:101BF600D72FF582E43400F583E0FF124CD790022C
:101C060059E004F080D8900125E0900092F0124C43
:101C16008AE49000FDF0900259F0900092E0FF9067
:101C26000259E0FEC39F502A74D72EF582E4340091
:101C3600F583E0B42E1474D82EF582E43400F583CF
:101C4600E09000FDF0900259EFF0900259E004F0A8
:101C560080C89000FDE06007900092E024FEF0C28C
:101C66000DC224E490025AF0900259F0900092E0DE
:101C7600FB900259E0FEC39B502A74D72EF582E4EE
:101C86003400F583E0B42D14900259A3E0FD04F06E
:101C9600745C2DF582E43402F583EEF0900259E08F
:101CA60004F080C890025AE0600B90025CE0049059
:101CB600025BF0800590025BEBF07F80124D1DE425
:101CC600900259F090025BE0FF900259E0FEC39F3C
:101CD6004003021D5F74D72EF582E43400F583E0DD
:101CE600C39430401074D72EF582E43400F583E0B7
:101CF600D39439403D74D72EF582E43400F583E061
:101D0600C39441401074D72EF582E43400F583E085
:101D1600D3945A401D74D72EF582E43400F583E03F
:101D2600642D600E74D72EF582E43400F583E0B49A
:101D36002E04D2258008C225EF04900259F09002A5
:101D460059E024D7F582E43400F583E0FF124CD73E
:101D5600900259E004F0021CCA202503021FEEE49B
:101D66009001FEF0A3F0900203E04401F090025AC5
:101D7600E07003021FA864016003021EE790009250
:101D8600E024FFFFE434FFFE90025CE0FDC3EF9D1C
:101D9600FFEE9400FEEF64014E705A900259F090E7
:101DA6000092E0FF900259E0FEC39F502074D72EA8
:101DB600F582E43400F583E0FD74C92EF582E4343F
:101DC60001F583EDF0900259E004F080D2D224743C
:101DD600C82FF582E43401F583E0900023F07F44B8
:101DE600124CD7900023E0FF124CD7900092E024CB
:101DF600FEF0021FDFC224E4900259F090025CE07C
:101E0600FF900259E0FEC39F502074D72EF582E45E
:101E16003400F583E0FD74C92EF582E43401F583C0
:101E2600EDF0900259E004F080D2900092E024FF99
:101E3600FDE434FFFCC3ED9FFFEC9400FEEF640568
:101E46004E6003021EDCD20D7F43124CD77F611217
:101E56004CD77F6A124CD77F65124CD77F72124CD3
:101E6600D77F6F124CD790025CE0049001ABF0E094
:101E7600FF04F074D72FF582E43400F583E0900177
:101E860023F09001ABE0FF04F074D72FF582E43421
:101E960000F583E09000FCF09001ABE0FF04F074E5
:101EA600D72FF582E43400F583E0900196F0900197
:101EB600ABE0FF04F074D72FF582E43400F583E03D
:101EC600900197F09001ABE024D7F582E43400F559
:101ED60083E0900110F090025CE0900092F0021F07
:101EE600DFE4900259F090025CE0FF900259E0FEB8
:101EF600C39F502074D72EF582E43400F583E0FFAB
:101F060074C92EF582E43401F583EFF0900259E0AE
:101F160004F080D2D22490025CE0FD24CAF582E46B
:101F26003401F583E0900023F0D20D90025DE004C9
:101F36009001ABF0E0FF04F074D72FF582E4340093
:101F4600F583E0900123F09001ABE0FF04F074D735
:101F56002FF582E43400F583E09000FCF09001ABAD
:101F6600E0FF04F074D72FF582E43400F583E090A7
:101F76000196F09001ABE0FF04F074D72FF582E4F0
:101F86003400F583E0900197F09001ABE024D7F59B
:101F960082E43400F583E0900110F0900092EDF0B9
:101FA6008037E4900259F0900092E0FF900259E0E9
:101FB600FEC39F502074D72EF582E43400F583E0EB
:101FC600FF74C92EF582E43401F583EFF0900259CF
:101FD600E004F080D2C224C20D9000F7741EF09087
:101FE6000024E4F0A3741EF0208D030221CBC28DE1
:101FF6009000FBE0600714F0E07002D2109001DE62
:10200600E07002A3E0600E9001DFE024FFF0900193
:10201600DEE034FFF0900200E07002A3E0600E9074
:102026000201E024FFF0900200E034FFF09001FE90
:10203600E07002A3E0603F9001FFE024FFF0900112
:10204600FEE034FFF0E07002A3E0702A90005BE04F
:102056009002A0F090005CE09002A1F090005DE09C
:102066009002A2F0900203E04402F09001E2E4F054
:10207600A37405F0C20B20B71B9000FAE0FF640EB4
:102086006003EF7013300106C294C201800AD29435
:10209600D2018004D294D21F9000FAE014F0E060DE
:1020A600030221CB3022139001ACE0600214F090C1
:1020B60001ACE0700B12459080009001AC7405F005
:1020C600900024E07002A3E06033900025E024FF36
:1020D600F0900024E034FFF0E07002A3E0701E9060
:1020E6000203E054FEF0E4900127F0C20CC2079010
:1020F60000FD7420F0C20D302203124C8A9001E2DA
:10210600E07002A3E060209001E3E024FFF090017C
:10211600E2E034FFF0E07002A3E0700B900203E00F
:1021260054FDF0C20BC21C9000F7E0607314F0E09F
:10213600706E741EF07F80124D1DE4900259F0906F
:102146000259E0C3941074809480500D7F20124C85
:10215600D7900259E004F080E6900203E054FEF0C6
:1021660054FDF054FBF0D222E4900127F0C21CC2C9
:102176000DC20CC207C21C7FC0124D1DE49002594D
:10218600F0900259E02448F582E43400F583E0FF3C
:10219600600B124CD7900259E004F080E41245908F
:1021A600C20AC296C295C218C280C219C281C21A98
:1021B600C282C21BC2839000FA741CF0E4F58CF54F
:1021C6008AC28DC21E30103B30B438C210E4900271
:1021D6005EF09001DDE0FF90025EE0FEC39F5020BE
:1021E60074EA2EF582E43401F583E0FD74D72EF50A
:1021F60082E43400F583EDF090025EE004F080D2D4
:102206001245983016077F06124DA1C21690012678
:10221600E0FF64036005EF6407700312224130009B
:102226001430B411C2009000D774ABF07F01124590
:0B22360098E4124592124C2C02012685
:104A1E002575004552524F52204445204C45435473
:104A2E005552410080402010080402010000000091
:104A3E0000004C4543542E312020202020202020E1
:044A4E002020200004
:1041D5004102C4004102C3004102C10041029F00E7
:0C41E5004102A4004102A5004102C203F7
:03000B000249EABD
:1049EA00C0E0C0F0C083C082C0D075D0109002C2AF
:1049FA00E0700E7403F0124DB49002C37401F0809B
:104A0A00069002C2E014F0C28DD0D0D082D083D0FA
:044A1A00F0D0E032C6
:104D8200E58954F04401F589E4F58CF58AD28C2248
:05000600C28DD2A92209
:034DB400C2A9226F
:03000300024B0CA1
:104B0C00C0E0C083C082C0D09002C4E004F0E024B6
:104B1C00A6F582E43402F5837430F030B2FD120055
:0A4B2C0006D0D0D082D083D0E03252
:03001300024B3667
:104B3600C0E0C083C082C0D09002C4E004F0E0248C
:104B4600A6F582E43402F5837431F030B3FD120029
:0A4B560006D0D0D082D083D0E03228
:05000E00D288D2A822F7
:054DAF00D28AD2AA2205
:034DB700D2AF2256
:0F4D920012000E124DAF124DB7124D82024A524F
:104A5200E4FFEFC3941B74809480501774A62FF563
:104A620082E43402F583E4F09002C4F09002C3F0D1
:104A72000F80DFE49002C1F090029FF09002A4F058
:024A8200A3F09F
:014A8400220F
:104971009002C4E064227F0170201244E01244D905
:1049810090029FEFF07F111244E09002A4EFF07FBC
:10499100191244E09002A5EFF0221244E01244D92A
:1049A10090029FEFF07F111244E09002A4EFF022F9
:1049B1001249719002C4E06422701390029FE0A337
:1049C100F09002A4E09002A1F09002A58013900261
:1049D100C1E09002A0F090029FE09002A1F090024D
:0949E100A4E09002A2F0024637A6
:0744D9009002C1EFF07F0922
:0544E00090025FEFF007
:1044E50078607C027D017BFF7A4A79217E007F110D
:1044F500123EEFE4900273F078747C027D017BFF3D
:104505007A4A7932FE7F08123EEF90025FE0FE2480
:1045150008900271F0A3EEF0900271E0FFA3E0FEB7
:10452500C39F506174A62EF582E43402F583E0F949
:10453500B43129900273E0FF90025FE0FD900272B2
:10454500E0C39DFDE49400FC74742DF58274023C77
:10455500F583E0FEEF4E900273F08021E9D39431AC
:104565005006E9C3943050157F80124D1D7B017AAA
:10457500027960124B8AE4900273F080089002720F
:0A458500E004F08093900273E0FF61
:01458F002209
:10463700785F7C027D017BFF7A4A793A7E007F06AC
:10464700123EEF78657C027D017BFF7A4A79407ED6
:10465700007F12123EEF124DA97F80124D1D7B0184
:104667007A027965124B8A7F87124D1D9002A0E06E
:10467700FF7E0090027A74FFF0A3744AF0A3741EC1
:10468700F0A3EEF0A3EFF07B017A02795F123B1FF4
:104697007B017A02795F124B8A7F2D124CD79002E9
:1046A700A1E0FEA3E0FDEDFF90027A74FFF0A37492
:1046B7004AF0A3741EF0A3EEF0A3EFF07B017A0299
:0E46C700795F123B1F7B017A02795F024B8AFA
:0441F1004102C500C2
:104CBE00C20F759850438780438920758840758D43
:094CCE00F4758BF4D28ED2AC22F5
:084DA100200FFD8F99D20F22B3
:0300230002361E84
:0B361E00C0E0C083C082C0D075D0089F
:10362900209803023AAAAB99C298900126E0146047
:103639003C14605824FD70030236DA147003023713
:103649007924FE700302371824086003023AA59012
:1036590000D5E4F0AF0BEBFD3395E0FCED64054CD0
:103669006003023AAA90012604F0023AAA9000F5F2
:10367900E0AF0B900126B50B0E7402F09000F774C1
:103689001EF0C222023AAAE4F0023AAAAF0BEB24D6
:10369900AD602024F0602924FE600F24EE6012241E
:1036A90007702B9001267403805C900126740880B2
:1036B90055800D9001267405F0D216D223023AAA3C
:1036C9009001267405F07F06124DA1023A9E023A36
:1036D900A5AF0BEBFD3395E0FCED64024C701D903A
:1036E90000D5F0E0FE04F074282EF582E43401F5EB
:1036F90083EFF09001267406F0023AAAED64054CB6
:10370900900126700504F0023A9EE4F0023AAAAF4D
:103719000B9000D5E0FE04F074282EF582E4340104
:10372900F583EFF09000D5E0D3943C748094804009
:1037390003023AA5AF0BEBFD3395E0FCED64034CB6
:10374900701D900126F0900203E054FEF0900127CD
:10375900E4F0C20CC207900024F0A3F0023AAAEDEB
:1037690064054C6003023AAA90012604F0023A9ECD
:10377900AF0B9000D5E0FE04F074282EF582E434F6
:1037890001F583EFF09000D5E0D3943C74809480E8
:103799004003023AA5AF0BEBFD3395E0FCED640362
:1037A9004C6003023A8C30233CC223D2069001E0DC
:1037B900F09000D5E0FE9001E0E0FDC39E5020743A
:1037C900282DF582E43401F583E0FE74932DF5820A
:1037D900E43400F583EEF09001E0E004F080D2904B
:1037E90001267407F09000D5E0FD7C0064066003B3
:1037F9000238E8900129E0FE64446044EE644170B7
:103809003F9001DEE07002A3E0601B9001DEE4F06E
:10381900A3F0D200900203E054FDF0900200E4F01E
:10382900A37454F0801A900200E07002A3E07010B3
:10383900D2969000FA741CF0758C00758A00C28DBE
:1038490090012AE0FF644470030238DCEF644160B0
:10385900030238DC300360D200302146301174C2D3
:1038690011900203E054FDF09001DEE07002A3E044
:10387900601DC20B9001DEE4F0A3F0D200900203B8
:10388900E054FDF0900200E4F0A37454F0804490F9
:103899000200E07002A3E0703AD2959000FA741C1D
:1038A9008028301109C211900203E054FDF0D2952D
:1038B9009000FA742A8013301109C211900203E0B2
:1038C90054FDF0D2959000FA742AF0758C00758A2F
:1038D90000C28D900126E4F09000D5F0023AAAEDDD
:1038E90064074C703D900129E064636003023AAAC1
:1038F9009001E0F09000D5E0FF9001E0E0FEC39F69
:10390900505D74282EF582E43401F583E0FF74D705
:103919002EF582E43400F583EFF09001E0E004F045
:1039290080D29000D5E0FF7E006419703B9001E0E1
:10393900F09000D5E0FD9001E0E0FCC39D502074BB
:10394900282CF582E43401F583E0FD74932CF5828B
:10395900E43400F583EDF09001E0E004F080D290CA
:1039690001267407F0023AAAC3EF9426EE64809404
:10397900805003023AAA900129E06441703E900107
:10398900DEE07002A3E0601A900203E054FDF090BB
:1039990001DEE4F0A3F0D200900200F0A37454F029
:1039A900801A900200E07002A3E07010D296900095
:1039B900FA741CF0758C00758A00C28D90012AE09A
:1039C90064416003023A4FD20030035E3021463031
:1039D9001174C211900203E054FDF09001DEE07011
:1039E90002A3E0601DC20B9001DEE4F0A3F0D20057
:1039F900900203E054FDF0900200E4F0A37454F047
:103A09008044900200E07002A3E0703AD2959000E1
:103A1900FA741C8028301109C211900203E054FD88
:103A2900F0D2959000FA742A8013301119C21190BE
:103A39000203E054FDF0D2959000FA742AF0758CD7
:103A490000758A00C28D9001E0E4F09001E0E0C3C6
:103A59009426748094805021E0FF2428F582E43470
:103A690001F583E0FE74932FF582E43400F583EECB
:103A7900F09001E0E004F080D29001267407F0D2C2
:103A890015801EAF0BEF3395E0FEEF64054E701104
:103A990090012604F09000D5E4F08005900126E419
:083AA900F0309904C299C20F2C
:093AB100D0D0D082D083D0E032E5
:024C6E00AE078F
:104C7000E4FDEDC39E501274642DF582E43401F519
:094C800083E0FF124DA10D80E953
:014C89002208
:104C5000E4FFFE9000D5E0FDEEC39D501074932E4E
:0D4C6000F582E43400F583E06FFF0E80E67E
:014C6D002224
:1048C600124C509000D5E0FE04F074D72EF582E429
:1048D6003400F583EFF0E4FF9000D5E0FEEFC39ED1
:1048E600501B74D72FF582E43400F583E0FE74C6BE
:1048F6002FF582E43402F583EEF00F80DB9000D5CD
:10490600E0FF24C7F582E43402F583E4F074D82F7F
:10491600F582E43400F583E4F09002C5EFF0124529
:04492600980247614B
:104B6000E4FE9002C5E0FFEEC39F501B74C62EF515
:104B700082E43402F583E0FD74D72EF582E434003C
:0A4B8000F583EDF00E80DB0245988E
:104761009002687401F0A37400F0A374DDF0A3E477
:10477100F0A37402F07B017A02796112485EE49041
:104781000263F0900261E0540FC454F0FFA3E054BF
:104791000F4FFFC3940274809480404D900268745F
:1047A10001F0A37400F0A374E2F0A3E4F0A3740297
:1047B100F07B017A02796112485EE4900263F09025
:1047C1000261E0540FC454F0FFA3E0540F4FC394AF
:1047D100167480948040129000D77402F0A374552F
:0947E100F0A37403F0FF124598E7
:0147EA0022AC
:0100220022BB
:104AB300E490005AF0301805E04401F02230190860
:104AC30090005AE04402F022301A0890005AE04461
:0E4AD30004F022301B0790005AE04408F02245
:104D3300E4FDFCC3ED9FEC9E500A1200220DBD0062
:044D4300010C80EFF0
:014D47002249
:034D4800124D15F4
:104D4B00E4FFFE1200220FBF00010EEF64024E7053
:014D5B00F265
:014D5C002234
:104D7000E4FFFE1200220FBF00010EEF64024E702E
:014D8000F240
:014D8100220F
:0E4D0700124AB3ED54F0FF90005AE04FF580D1
:084D1500D291124D4BC2912214
:104D1D00AD07C290124D07EDC454F0FD54F0FFE005
:064D2D004FF580024D1558
:104CF0007F01124D1DE4FFFE1200220FBF00010EC6
:064D0000EF64FA4E70F2B0
:014D0600228A
:10492A00C290124D4BC291124D4B758039124D48AF
:10493A00124D48124D15124D4B758029124D151204
:10494A004D4B7F0C124D1D124CF01200227F0612A5
:10495A004D1D1200227F80124D1D124D4B124AB37B
:07496A0090005AE0F58022E5
:104CD700AD07D290120022124D07EDC454F0FD54D7
:094CE700F0FFE04FF580024D15CD
:104BDE00AE07ED14600F14601114601324037016E9
:104BEE00EE2480800DEE24C08008EE24948003EE27
:074BFE0024D4FF124D1D221B
:0B4B8A0090027CEBF0A3EAF0A3E9F03E
:104B9500E4FC90027CE0FBA3E0FAA3E0F98C8275CB
:0E4BA5008300123F15FF6006124CD70C80E40F
:014BB30022DF
:0C001600AE07AF05AD06124BDE024B8AB0
:104BB400C292C293124D4B9000F57431F0309203BF
:104BC400E004F03093079000F5E02402F07FC9126E
:0A4BD4004D1D9000F5E0FF024CD7E4
:104C8A007F80124D1DE4FCECC39410748094805014
:094C9A00087F20124CD70C80EEBB
:014CA30022EE
:104CA4007FC0124D1DE4FCECC394107480948050BA
:094CB400087F20124CD70C80EEA1
:014CBD0022D4
:064DA900124C8A024CA42A
:030000000246D5E0
:0C46D500787FE4F6D8FD75812502471CB3
:103E1F00E709F608DFFA8046E709F208DFFA803E85
:103E2F0088828C83E709F0A3DFFA8032E309F60872
:103E3F00DFFA8078E309F208DFFA807088828C83DA
:103E4F00E309F0A3DFFA806489828A83E0A3F6088E
:103E5F00DFFA805889828A83E0A3F208DFFA804C68
:103E6F0080D280FA80C680D4806980F2803380103F
:103E7F0080A680EA809A80A880DA80E280CA8033A8
:103E8F0089828A83ECFAE493A3C8C582C8CCC58320
:103E9F00CCF0A3C8C582C8CCC583CCDFE9DEE780F0
:103EAF000D89828A83E493A3F608DFF9ECFAA9F06F
:103EBF00EDFB2289828A83ECFAE0A3C8C582C8CCC5
:103ECF00C583CCF0A3C8C582C8CCC583CCDFEADEDE
:103EDF00E880DB89828A83E493A3F208DFF980CC40
:103EEF0088F0EF60010E4E60C388F0ED2402B40439
:103EFF000050B9F582EB2402B4040050AF232345E0
:063F0F008223903E6F7357
:103F1500BB010CE58229F582E5833AF583E0225061
:103F250006E92582F8E622BBFE06E92582F8E222AB
:0D3F3500E58229F582E5833AF583E49322C5
:0C3F4200ECF0A3EDF0A3EEF0A3EFF022F2
:103F4E00A8828583F0D083D082123F65123F65121E
:103F5E003F65123F65E473E493A3C583C5F0C58343
:103F6E00C8C582C8F0A3C583C5F0C583C8C582C8BD
:013F7E002220
:103ABA00E518247AF582E43402F583E005182290A9
:103ACA000277302D0390027AE475F001123FF80272
:103ADA003F7F2026E97F2ED2268018EF540F2490AC
:103AEA00D43440D4FF302A0BEF24BFB41A00500359
:103AFA002461FFE51960021519051CE51C70020511
:103B0A001B302D0E900277E475F001123FF8EF0298
:103B1A003F98024C057403D22D8003E4C22DF51898
:103B2A0090027712400FE4F519F51BF51CE51960B0
:103B3A00077F20123AFD80F5751AFFC227C226C2F6
:103B4A0028C229C22BC22CC22E123AC9FF700D30CC
:103B5A002D057F00123B0EAF1CAE1B22B4255FC29F
:103B6A00D5C22A123AC9FF24D0B40A00501A75F0F5
:103B7A000A781930D50508B6FF0106C6A426F6202C
:103B8A00D5047002D22980D924CFB41A00EF500488
:103B9A00C2E5D22A023D0FD22780C6D22680C0D2E1
:103BAA002880BCD2D580BAD22B80B47F20123AFDAD
:103BBA002028077401B5190040F1123ABAFF123AE7
:103BCA00FD023B37D22ED22C8095123ABAFB123A1A
:103BDA00BAFA123ABAF94A4B700679E07A3D7BFF93
:103BEA0020282EE519602A7E008E82758300123FF6
:103BFA001560060EEE651A70F0C2D5EBC0E0EAC099
:103C0A00E0E9C0E0EE123D56D0E0F9D0E0FAD0E0AB
:103C1A00FB123F7FFF60AAEBC0E0EAC0E0E9C0E028
:103C2A00123AFDD0E02401F9D0E03400FAD0E0FBEA
:103C3A00E51A0460DCD51AD980877BFF7A3D795270
:103C4A00D228809C791080027908C22CC22E800862
:103C5A00D2D5790A8004790AC2D5E51A047002F528
:103C6A001AE4FAFDFEFF123ABAFC7B082027131267
:103C7A003ABAFD7B1030260A123ABAFE123ABAFF55
:103C8A007B20EC3382D592D55013C3E43026069FAD
:103C9A00FFE49EFEE42027039DFDE49CFCE4CBF8B0
:103CAA00C227EC700CCFCECDCCE824F8F870F380A4
:103CBA0017C3EF33FFEE33FEED33FDEC33FCEB338A
:103CCA00FB994002FB0FD8E9EB302705F8D0E0C496
:103CDA0048B227C0E00AEC4D4E4F78207B0070C2F4
:103CEA00EAB51A0040BCC0E0123D58D0F0D0E0203E
:103CFA002704C4C0E0C4B227C0F0123AE6D0F0D517
:103D0A00F0EB023B371240183BD4533C4E583BA5CC
:103D1A004C3BA1423C524F3C5A443C5A493BBA4361
:083D2A003C60553C44463C445A
:103D3200453C44473E00503BA92D3BAD2E3BD02B8A
:103D42003BB1233BCE203DE92A3B694800003BC8FA
:103D52003F3F3F00790AA2D5202914302B09B91020
:103D6200020404B9080104A2D5202C025001042047
:103D720028689228B519005034C0E07F20302919F4
:103D82007F30A228722C722B500F123DAFC228C274
:103D92002CC22BC22E7F30800F302B03E9C0E012E1
:103DA2003AFD302B03D0E0F9D0E0B519CC302B1717
:103DB2007F30B9100C123AFD7F58302A077F788085
:103DC20003B90803123AFD3028057F2D023AFD7F20
:103DD20020202EF87F2B202CF322922880CF286ED1
:103DE200756C6C2900D227123ABA3027F8C22778AC
:103DF2001930D50108F6023B692D50434958123A51
:103E0200BA2403B405004001E4903DFB93123AEE5C
:0D3E1200743A123AEED229751904023C4EA2
:10485E00900265EBF0A3EAF0A3E9F0E490026DF0AC
:10486E00A3F090026B74FFF5F0123FE245F0603C4E
:10487E00900268E0FBA3E0FAA3E0F9123F7FFF90FD
:10488E000265E0FBA3E0FAA3E0F990026DE475F097
:10489E0001123FE285F082F583EF123FAAEF60C26C
:1048AE00900269E475F001123FCC80B6900265E08B
:0848BE00FBA3E0FAA3E0F922DC
:1046E100020026E493A3F8E493A34003F68001F2C9
:1046F10008DFF48029E493A3F85407240CC8C333DA
:10470100C4540F4420C8834004F456800146F6DFA8
:10471100E4800B010204081020408090403EE47EBA
:10472100019360BCA3FF543F30E509541FFEE4939D
:10473100A360010ECF54C025E060A840B8E493A364
:10474100FAE493A3F8E493A3C8C582C8CAC583CA8F
:10475100F0A3C8C582C8CAC583CADFE9DEE780BE47
:0141F50000C9
:103F7F00BB010689828A83E0225002E722BBFE0240
:093F8F00E32289828A83E4932273
:103F9800BB010689828A83F0225002F722BBFE0108
:023FA800F32202
:103FAA00F8BB010DE58229F582E5833AF583E8F04D
:103FBA00225006E92582C8F622BBFE05E92582C8F9
:023FCA00F222E1
:103FCC00C5F0F8A3E028F0C5F0F8E5821582700280
:063FDC001583E038F0221D
:103FE200A3F8E0C5F025F0F0E58215827002158392
:063FF200E0C838F0E822EF
:103FF800F8E0FBA3A3E0F925F0F0E5821582700252
:074008001583E0FA38F022F5
:09400F00EBF0A3EAF0A3E9F022B2
:10401800D083D082F8E4937012740193700DA3A337
:1040280093F8740193F5828883E47374029368604B
:06403800EFA3A3A380DF4B
:104C0500EFB40A07740D124C10740A309811A89964
:104C1500B8130CC2983098FDA899C298B811F6300F
:074C250099FDC299F59922E7
:00000001FF
