:10425C002041636365735363616E2076342E352081
:10426C0000494E484142494C49544144412E2E2E5E
:10427C0020004552524F5220454E204C4F4F502E4D
:10428C002E2E005441524A45544120494E56414C21
:10429C00494441004E4F2052454749535452412006
:1042AC005041474F005441522E2053494E20464F07
:1042BC00524D41544F00444952494A4153452041C3
:1042CC002043414A412000466563686120486F7273
:1042DC00613A20202020200049445F434C49454E40
:1042EC0054453A00434F445F5041524B3A00434FC0
:1042FC004D5041524143494F4E3A2020202000203E
:10430C002020416464723A202020202020202000AC
:10431C002053494E2052455350554553544120206B
:10432C000020504C414341204E4F20494755414CB1
:10433C00200020454E5649414E444F204441544F95
:03434C00532000FB
:103F96005101114552524F523A20204C4F4F50205A
:103FA60031202000510047204655455241204445C6
:103FB600204C494E454120005100C3204552524FE6
:103FC60052204D4946415245202020005101B74517
:103FD60052524F5220434F442E20504152512E00F0
:103FE600510011202053494E20494E475245534F08
:103FF600202020005100B24E4F20524547495354CD
:104006005241205041474F0051005E4558434544B8
:104016004520542E475241434941200051019920E1
:1040260041434345534F204E454741444F202000CE
:1040360051002520202053494E2053414C494441EC
:10404600202020005100FE4552524F522047524137
:10405600424143494F4E2000510080414345525151
:104066005545534520412043414A410051006F5375
:10407600455249453A20202020202020202020009B
:10408600510036434F4D504152414E444F20504C03
:10409600414341005100005441524A455441205683
:1040A600454E4349444120004100D4004100F431CB
:1040B6004201FD00004201DD00004101DC0041013A
:1040C6002500410202004100D5004101E000410007
:1040D600F7004101AC004101AB054100FA00420185
:1040E600FF0000C10FC102C101C123C115C116C124
:1040F60018C119C11AC11BC11EC122C124C125C1C3
:1041060008C111C121C184C106C105C112C10AC1BC
:104116009FC11CC10CC107C100C10BC109C18EC121
:0341260020C110A5
:104B0E00C2B6124B21124B21124B21D2B6124B219F
:034B1E00024B2126
:0844D50074B69000D6F07F01DF
:0544DD00900261EFF008
:1044E200D2B6C226C2B5900263123EF400000FA0FB
:1044F20030B445202642900263E0FCA3E0FDA3E035
:10450200FEA3E0FFEF24FFFFEE34FFFEED34FFFDDC
:10451200EC34FFFC900263123EE8900263E0FCA3DD
:10452200E0FDA3E0FEA3E0FFEC4D4E4F70C2D226A9
:10453200D2B6D2B4D2B580B8202629E4900262F075
:10454200900261E0FFA3E0FEC39F501874D62EF5DF
:1045520082E43400F583E0F5A0124B0E900262E093
:1045620004F080DCD2B6D2B520260C124AFC124AE4
:09457200FC124AFC124AFCA226CC
:01457B00221D
:1046A60090025FE02402F09000FBE024D0FF90022D
:0746B6005FE0FD3395E0FC1D
:0846BD00900260ECF0A3EDF0A7
:1046C500E4A3F0A3F0FEFDFCEFC394647480948032
:1046D5004007749C2FFF0E80EFEFC3940A748094FB
:1046E50080400774F62FFF0D80EFAC07ED4430FFD7
:1046F500900260E0FAA3E0FB2463F58274013AF5C9
:1047050083EFF0EC4430FF74642BF58274013AF5C5
:0347150083EFF03F
:01471800227E
:1049C100301804D2808002C280301904D281800262
:1049D100C281301A04D2828002C282301B03D28388
:0449E10022C2832249
:10414200E4900263F0D2B5900124F030B40302424D
:1041520059900262F0C2B5A3F0900263E0C3941ECC
:1041620074809480400302425990025E123EF40031
:1041720000003C30B64A20B447900262E0704190A1
:10418200025EE0FCA3E0FDA3E0FEA3E0FFEF24FF5C
:10419200FFEE34FFFEED34FFFDEC34FFFC90025ED7
:1041A200123EE890025EE0FCA3E0FDA3E0FEA3E085
:1041B200FFEC4D4E4F70BCA304F0A3741FF080B30C
:1041C20030B603024247900262E0707920B476A3CF
:1041D200E024D6F582E43400F583E5A0F0900124D2
:1041E200E004F090025E123EF40000002320B65577
:1041F200900262E0704FA3E024D6F582E43400F529
:1042020083E5A0F090025EE0FCA3E0FDA3E0FEA344
:10421200E0FFEF24FFFFEE34FFFEED34FFFDEC3450
:10422200FFFC90025E123EE890025EE0FCA3E0FD1D
:10423200A3E0FEA3E0FFEC4D4E4F70B1A304F0A348
:10424200741FF080A830B406900263741FF09002CD
:0942520063E004F002415BD2B507
:01425B002240
:0548A30090025EEFF041
:1048A8007E0054F0FFEEC4F854F0C868FEEFC4541C
:1048B8000F484430FF124A8890025EE07E00540F91
:0648C8004430FF024A88A3
:10434F009000D67402F0EF24FE600B04700E900004
:10435F00D77456F080069000D7744FF090026074B7
:10436F0015F0900260E0D39425748094805021E082
:10437F00FF2427F582E43401F583E0FE74C32FF5A3
:10438F0082E43400F583EEF0900260E004F080D216
:10439F009000E87403F030B43D7F131244DD922097
:1043AF00302072E4900260F0900260E0C3941374C6
:1043BF008094805054E0FF24D6F582E43400F583D6
:1043CF00E0FE74E92FF582E43401F583EEF09002FC
:1043DF0060E004F080D2E4900260F0900260E0C3ED
:1043EF009413748094805021E0FF24D6F582E43436
:1043FF0000F583E0FE74E92FF582E43401F583EED6
:10440F00F0900260E004F080D29001DC7413F09021
:05441F0000FA741CF01E
:014424002275
:10494B00900260EFF030B40BE01244D7922030208D
:10495B001680009001DC7401F0900260E09001E998
:08496B00F09000FA742AF0221A
:10221E00900125E024F97003022EC4240460030209
:10222E0035BE900202E0701B7F04124B33E4900126
:10223E0025F020B7030235C39000D674AAF07F01B3
:10224E000244DD900202E05401640160030228EBB7
:10225E00200C0302271190025FF0E0FF04F0EF3331
:10226E0095E0FE74632FF58274013EF5837402F0DF
:10227E0090025FE0FF04200D15F0EF3395E0FE7441
:10228E00632FF58274013EF5837461F08013F0EFD5
:10229E003395E0FE74632FF58274013EF58374432B
:1022AE00F0E490025EF09000F7E0FF90025EE0FD39
:1022BE00FB3395E0FAC3EB9F7480F86A985033EDC8
:1022CE00FF3395E0FE74C82FF58274013EF583E06E
:1022DE00FF90025FE0FE04F0EEFD3395E0FC7463C8
:1022EE002DF58274013CF583EFF090025EE004F070
:1022FE0080B490025FE0FF04F0EF3395E0FE74636C
:10230E002FF58274013EF583742CF0300720900077
:10231E0022E0FF90025FE0FE04F0EEFD3395E0FC5C
:10232E0074632DF58274013CF583EFF080199002F1
:10233E005FE0FF04F0EF3395E0FE74632FF58274D7
:10234E00013EF5837430F0200E0302242D9000FC24
:10235E00E0FFB4481890025FE0FE04F0EEFD339506
:10236E00E0FC74632DF58274013C02248BEFB454AF
:10237E001790025FE0FF04F0EF3395E0FE74632FD9
:10238E00F58274013E02248B9000FCE0FFB44D18E0
:10239E0090025FE0FE04F0EEFD3395E0FC74632DD9
:1023AE00F58274013C022470EFB4431790025FE093
:1023BE00FF04F0EF3395E0FE74632FF58274013E57
:1023CE0002248B30084320972A90025FE0FF0420FE
:1023DE00B711F0EF3395E0FE74632FF58274013E72
:1023EE0002248BF0EF3395E0FE74632FF5827401B7
:1023FE003E806F90025FE0FF04F0EF3395E0FE74D5
:10240E00632FF58274013E805990025FE0FF04F065
:10241E00EF3395E0FE74632FF58274013E805E30DB
:10242E00084720972990025FE0FF0420B710F0EFD5
:10243E003395E0FE74632FF58274013E803FF0EF1A
:10244E003395E0FE74632FF58274013E8014900282
:10245E005FE0FF04F0EF3395E0FE74632FF58274B6
:10246E00013EF5837431F0801990025FE0FF04F0B5
:10247E00EF3395E0FE74632FF58274013EF583749D
:10248E0030F090025FE0FF04F0EF3395E0FE7463EE
:10249E002FF58274013EF583742CF09001221246C2
:1024AE00B01246A690025FE02402F090019512460B
:1024BE00B090025FE02402F09001961246B09002B6
:1024CE005FE02402F090010F1246B090025FE0240C
:1024DE0002F0300D030226F1E0FF04F0EF3395E039
:1024EE00FE74632FF58274013EF583742CF0300771
:1024FE00739001231246B090025FE02402F0900028
:10250E00FD1246B090025FE02402F0900197124651
:10251E00B090025FE02402F09001981246B0900253
:10252E005FE02402F09001101246B090025FE024AA
:10253E0002F0E0FF04F0EF3395E0FE74632FF582B6
:10254E0074013EF583742CF090025FE0FF04F0EF0F
:10255E003395E0FE74632FF58274013EF58374208B
:10256E00F00226D690025FE0FF04F0EF3395E0FE16
:10257E0074632FF58274013EF5837430F090025F20
:10258E00E0FF04F0EF3395E0FE74632FF5827401E3
:10259E003EF5837430F090025FE0FF04F0EF339568
:1025AE00E0FE74632FF58274013EF5837430F09073
:1025BE00025FE0FF04F0EF3395E0FE74632FF582C7
:1025CE0074013EF5837430F090025FE0FF04F0EF8B
:1025DE003395E0FE74632FF58274013EF5837430FB
:1025EE00F090025FE0FF04F0EF3395E0FE74632F8E
:1025FE00F58274013EF5837430F090025FE0FF04C3
:10260E00F0EF3395E0FE74632FF58274013EF5838F
:10261E007430F090025FE0FF04F0EF3395E0FE744B
:10262E00632FF58274013EF5837430F090025FE003
:10263E00FF04F0EF3395E0FE74632FF58274013ED4
:10264E00F5837430F090025FE0FF04F0EF3395E015
:10265E00FE74632FF58274013EF5837430F09002A0
:10266E005FE0FF04F0EF3395E0FE74632FF58274A4
:10267E00013EF583742CF0E490025EF09001ACE024
:10268E00FF90025EE0FDFB3395E0FAC3EB9F748092
:10269E00F86A985033EDFF3395E0FE74AD2FF58256
:1026AE0074013EF583E0FF90025FE0FE04F0EEFD64
:1026BE003395E0FC74632DF58274013CF583EFF0E5
:1026CE0090025EE004F080B490025FE0FF04F0EF51
:1026DE003395E0FE74632FF58274013EF583742CFE
:1026EE00F0800090025FE0FF04F0EF3395E0FE749F
:1026FE00632FF58274013EF5837403F090025FE060
:10270E000228E49001637402F0900126E0FF70103D
:10271E00900164200D057441F0800A7443F0800529
:10272E00900164EFF0900091E090025FF0E490026F
:10273E005EF0900091E0FF90025EE0FD3395E0FCCC
:10274E00C3ED9F7480F86C985026E0FF3395E0FE41
:10275E0074C82FF58274013EF583E0FF74652DF584
:10276E008274013CF583EFF090025EE004F080C2CB
:10277E0090025FE0FF3395E0FE74652FF5827401E1
:10278E003EF583742CF0302413900022E0FD746625
:10279E002FF58274013EF583EDF0801690025FE016
:1027AE00FF3395E0FE74662FF58274013EF5837457
:1027BE0030F03004679000FCE0FFB448089000F859
:1027CE007404F08039EFB454089000F87403F0806C
:1027DE002DEFB442089000F87402F08021EFB44D52
:1027EE0002800EEFB44302801030080D2097028055
:1027FE00089000F87401F08005E49000F8F0900065
:10280E00F8E02430FF90025FE0FD3395E0FC746742
:10281E002DF58274013CF583EFF0803630081D9063
:10282E00025FE0FF3395E0FE74672F209702801859
:10283E00F58274013EF5837431F0801690025FE0EC
:10284E00FF3395E0FE74672FF58274013EF58374B5
:10285E0030F090025FE0FF300D673395E0FE746854
:10286E002FF58274013EF583742CF090025FE02404
:10287E0006F09001221246B01246A690025FE024A6
:10288E0002F09001951246B090025FE02402F090A3
:10289E0001961246B090025FE02402F090010F12F2
:1028AE0046B090025FE02402F0E0FFFD3395E0FCBD
:1028BE0074632DF58274013CF5837403F0EF04808C
:1028CE0015FD3395E0FC74682DF58274013CF5839B
:1028DE007403F0EF2406FF124A1F0235BE90020267
:1028EE00E0540264026003022EAFD2119000F9741C
:1028FE001CF0E4F58CF58AC28D300503022B5D20A9
:10290E000B03022AE99001637402F0A37477F0902E
:10291E00029FE0FDC4540F2430900165F0ED540F7A
:10292E002430A3F09002A0E0FDC4540F2430900197
:10293E0067F0ED540F2430A3F09002A1E0FDC454D3
:10294E000F2430900169F0ED540F2430A3F0A374DE
:10295E002CF0A37430F03004559000FCE0FFB44826
:10296E00089000F87404F08039EFB454089000F821
:10297E007403F0802DEFB442089000F87402F080DA
:10298E0021EFB44D02800EEFB44302801030080DDB
:10299E0020970280089000F87401F08005E4900002
:1029AE00F8F09000F8E0243090016DF080163008B9
:1029BE000D90016D20970280087431F08006900111
:1029CE006D7430F090016E742CF0900122E024D0E2
:1029DE00FF7D0C7C001246BD9000FBE024D0FF7DF5
:1029EE000E7C001246BD900195E024D0FF7D107C38
:1029FE00001246BD900196E024D0FF7D127C00129D
:102A0E0046BD90010FE024D0FF7D147C001246BD20
:102A1E00900179742CF0900123E024D0FF7D177C77
:102A2E00001246BD9000FDE024D0FF7D197C0012FF
:102A3E0046BD900197E024D0FF7D1B7C001246BD61
:102A4E00900198E024D0FF7D1D7C001246BD9001C0
:102A5E0010E024D0FF7D1F7C001246BD9000F5745F
:102A6E0021F0E0FF04F074632FF582E43401F58366
:102A7E00742CF0301C4EE490025EF09000D5E0FF16
:102A8E0090025EE0FDFB3395E0FAC3EB9F7480F895
:102A9E006A984003022D1FEDFF3395E0FE74AD2FB3
:102AAE00F58274013EF583E0FF9000F5E0FE04F040
:102ABE0074632EF582E43401F583EFF090025EE04C
:102ACE0004F080B79000F5E0FF04F074632FF582F8
:102ADE00E43401F5837420F0022D1F90016374021B
:102AEE00F0A37442F090029FE0FDC4540F24309086
:102AFE000165F0ED540F2430A3F09002A0E0FDC468
:102B0E00540F2430900167F0ED540F2430A3F09051
:102B1E0002A1E0FDC4540F2430900169F0ED540F72
:102B2E002430A3F0A3742CF0A37430F030080F20DF
:102B3E009704A3F0800E90016D7431F08006900121
:102B4E006D7430F090016E7403F07F0C022EA9901C
:102B5E0001637402F0A37477F090029FE0FDC454F9
:102B6E000F2430900165F0ED540F2430A3F0900245
:102B7E00A0E0FDC4540F2430900167F0ED540F24F3
:102B8E0030A3F09002A1E0FDC4540F2430900169EF
:102B9E00F0ED540F2430A3F0A3742CF0A37430F096
:102BAE003004559000FCE0FFB448089000F874041F
:102BBE00F08039EFB454089000F87403F0802DEFD4
:102BCE00B442089000F87402F08021EFB44D0280F8
:102BDE000EEFB44302801030080D2097028008904B
:102BEE0000F87401F08005E49000F8F09000F8E031
:102BFE00243090016DF0801630080D90016D2097F5
:102C0E000280087431F0800690016D7430F09001EE
:102C1E006E742CF0900122E024D0FF7D0C7C00120B
:102C2E0046BD9000FBE024D0FF7D0E7C001246BD19
:102C3E00900195E024D0FF7D107C001246BD9001DE
:102C4E0096E024D0FF7D127C001246BD90010FE06D
:102C5E0024D0FF7D147C001246BD201203022D935A
:102C6E00900179742CF0900123E024D0FF7D177C25
:102C7E00001246BD9000FDE024D0FF7D197C0012AD
:102C8E0046BD900197E024D0FF7D1B7C001246BD0F
:102C9E00900198E024D0FF7D1D7C001246BD90016E
:102CAE0010E024D0FF7D1F7C001246BD9000F5740D
:102CBE0021F0E0FF04F074632FF582E43401F58314
:102CCE00742CF0301C7BE490025EF09000D5E0FF97
:102CDE0090025EE0FDFB3395E0FAC3EB9F7480F843
:102CEE006A98502DEDFF3395E0FE74AD2FF582748A
:102CFE00013EF583E0FF9000F5E0FE04F074632ED4
:102D0E00F582E43401F583EFF090025EE004F0808A
:102D1E00BA9000F5E0FF04F074632FF582E43401FD
:102D2E00F583742CF09000F5E0FF04F074632FF53A
:102D3E0082E43401F5837403F09000F5E0FF022E77
:102D4E00A99000F5E0FF04F074632FF582E43401DE
:102D5E00F5837420F09000F5E0FF04F074632FF516
:102D6E0082E43401F583742CF09000F5E0FF04F05A
:102D7E0074632FF582E43401F5837403F09000F54B
:102D8E00E0FF022EA9900179742CF07D177C00E4EF
:102D9E00FF1246BD7D197C00E4FF1246BD7D1B7CF3
:102DAE0000E4FF1246BD7D1D7C00E4FF1246BD7D92
:102DBE001F7C00E4FF1246BD9000F57421F0E0FF89
:102DCE0004F074632FF582E43401F583742CF02043
:102DDE001C03022E68C21CE490025EF09000D5E047
:102DEE0024FFFFE434FFFE90025EE0FDFB3395E02E
:102DFE00FAC3EB9FEE6480F8EA648098502DEDFFE5
:102E0E003395E0FE74AD2FF58274013EF583E0FF3D
:102E1E009000F5E0FE04F074632EF582E43401F5C3
:102E2E0083EFF090025EE004F080B19000F5E0FFD9
:102E3E0004F074632FF582E43401F583742CF09062
:102E4E0000F5E0FF04F074632FF582E43401F5839E
:102E5E007403F09000F5E0FF80419000F5E0FF0470
:102E6E00F074632FF582E43401F5837420F0900042
:102E7E00F5E0FF04F074632FF582E43401F58374FA
:102E8E002CF09000F5E0FF04F074632FF582E4342B
:102E9E0001F5837403F09000F5E0FF124A1F02352E
:102EAE00BE900202E0FF5404640460030235C3EFD7
:102EBE0054FBF00235BE30064DC206E490025EF0C1
:102ECE009000D4E0FFFD90025EE0FEFB3395E0FA49
:102EDE00C3EB9D7480F86A985026EEFD3395E0FCA6
:102EEE0074922DF58274003CF583E0FE74D62DF5B8
:102EFE008274003CF583EEF090025EE004F080C038
:102F0E001244DD022FBE9000D4E064196003022F3C
:102F1E00C89000F4E0FF900093E06F6003022FC8AA
:102F2E00A3E064486003022FC8124719E490025EC2
:102F3E00F09000D4E0FF90025EE0FDFB3395E0FAE6
:102F4E00C3EB9F7480F86A985026EDFF3395E0FE30
:102F5E0074922FF58274003EF583E0FD74D62FF542
:102F6E008274003EF583EDF090025EE004F080C1C5
:102F7E001249E590025EE0FE04F0EEFD3395E0FCB2
:102F8E0074D62DF58274003CF583EFF012480E9046
:102F9E0000D4E0FF1244DD7F80124ACE7F53124AE6
:102FAE00887F59124A887F4E124A887F43124A8878
:102FBE00D216E4900125F00235B69000D4E0FF7EE3
:102FCE0000C394067480948050030235B6EF9407C4
:102FDE00748094804011900128E0B4630A1244DD9D
:102FEE00D216E4900125F0900129E0FF644460259B
:102FFE00EF6441702030031D302108301117200B73
:10300E00148003200B0FD2959000F9742AF0E4F58A
:10301E008CF58AC28D2015030235B6C21590009725
:10302E00E064417031A3E06443702BA3E06445700B
:10303E0025A3E06452701FA3E064517019A3E0B49D
:10304E005514A3E0B4450FA3E0B4530AA3E0B4456E
:10305E00057FA102351A900097E064557045A3E0F4
:10306E00644E703FA3E064207039A3E0644D70336A
:10307E007F0912494B900202E054FEF054FDF0C25B
:10308E001CC20CC207C20DE4900126F0900023F082
:10309E00A3F09001E1F0A3F0C20B9000FC7420F0BD
:1030AE0002351D900093E06458703CA3E0644170BB
:1030BE0036A3E064587030A3E06458702AA3E0642D
:1030CE00477024A3E06452701EA3E064417018A3FD
:1030DE00E0B44313A3E0B4490EA3E0B44109A3E066
:1030EE00B453047F018054900093E064587052A34F
:1030FE00E06458704CA3E064587046A3E0645870C6
:10310E0040A3E06442703AA3E064497034A3E064E3
:10311E0045702EA3E0644E7028A3E064567022A37F
:10312E00E06445701CA3E0B44E17A3E0B44912A3AB
:10313E00E0B4440DA3E0B44F087F0212434F0235B2
:10314E001D900093E06458706DA3E064587067A3FF
:10315E00E064587061A3E06458705BA3E0644D7046
:10316E0055A3E06445704FA3E0644E7049A3E0643C
:10317E00537043A3E06455703DA3E064417037A3E0
:10318E00E0644C7031A3E06420702BA3E0644E70B9
:10319E0025A3E0644F701FA3E064207019A3E0B470
:1031AE004514A3E0B4530FA3E0B4540AA3E0B44112
:1031BE00057FB202351A900093E06458706DA3E05B
:1031CE0064587067A3E064587061A3E06458705B44
:1031DE00A3E0644D7055A3E06445704FA3E0644EC8
:1031EE007049A3E064537043A3E06455703DA3E0BF
:1031FE0064417037A3E0644C7031A3E06420702BFF
:10320E00A3E064597025A3E06441701FA3E064201D
:10321E007019A3E0B44514A3E0B4530FA3E0B45463
:10322E000AA3E0B441057FB302351A900093E0641F
:10323E00587079A3E064587073A3E06458706DA35E
:10324E00E064587067A3E0644D7061A3E06445705C
:10325E005BA3E0644E7055A3E06453704FA3E0642B
:10326E00557049A3E064417043A3E0644C703DA3E4
:10327E00E064207037A3E064467031A3E0645570BB
:10328E002BA3E064457025A3E06452701FA3E06495
:10329E00417019A3E0B42014A3E0B4440FA3E0B42A
:1032AE00450AA3E0B452057FB402351A900093E0AC
:1032BE0064587079A3E064587073A3E06458706D1D
:1032CE00A3E064587067A3E0644D7061A3E06445A9
:1032DE00705BA3E0644E7055A3E06453704FA3E09F
:1032EE0064557049A3E064417043A3E0644C703DA3
:1032FE00A3E064207037A3E064467031A3E0645508
:10330E00702BA3E064457025A3E06452701FA3E008
:10331E0064417019A3E0B42014A3E0B4440FA3E0F9
:10332E00B4450AA3E0B448057FB502351A90009360
:10333E00E06458704FA3E064587049A3E06458707D
:10334E0043A3E06458703DA3E0644E7037A3E0647D
:10335E004F7031A3E06420702BA3E064457025A369
:10336E00E06453701FA3E064207019A3E0B44D1401
:10337E00A3E0B4450FA3E0B44E0AA3E0B453057F17
:10338E00B102351A900093E06458704FA3E0645870
:10339E007049A3E064587043A3E06458703DA3E005
:1033AE00644E7037A3E0644F7031A3E06420702B3D
:1033BE00A3E064527025A3E06445701FA3E0644748
:1033CE007019A3E0B44914A3E0B4530FA3E0B454AE
:1033DE000AA3E0B452057F0402351A900093E0640C
:1033EE0058704FA3E064587049A3E064587043A32B
:1033FE00E06458703DA3E0644C7037A3E0644F70F6
:10340E0031A3E06454702BA3E064457025A3E064FF
:10341E0020701FA3E064417019A3E0B45314A3E01D
:10342E00B4490FA3E0B4470AA3E0B44E057F0502EA
:10343E00351A900093E064587066A3E0645870608B
:10344E00A3E06458705AA3E064587054A3E0644D2E
:10345E00704EA3E064457048A3E0644E7042A3E052
:10346E006453703CA3E064557036A3E06441703041
:10347E00A3E0644C702AA3E064207024A3E06445AA
:10348E00701EA3E064587018A3E0B44313A3E0B415
:10349E00450EA3E0B44409A3E0B445047F07806C55
:1034AE00900093E064587067A3E064587061A3E0E5
:1034BE006458705BA3E064587055A3E0644D704F80
:1034CE00A3E064457049A3E0644E7043A3E06453E7
:1034DE00703DA3E064557037A3E064417031A3E002
:1034EE00644C702BA3E064207025A3E0644E701F23
:1034FE00A3E0644F7019A3E0B42014A3E0B4500FFE
:10350E00A3E0B4410AA3E0B447057F0812494B7FFC
:10351E0080124ACE90025E7405F090025EE0FFFDCE
:10352E003395E0FCC3ED9415EC64809480502BEF42
:10353E003395E0FE74922FF58274003EF583E064BD
:10354E0003601774922FF58274003EF583E0FF122C
:10355E004A8890025EE004F080C07FC0124ACE908E
:10356E00025E7415F090025EE0FFFD3395E0FCD331
:10357E00ED9426EC64809480502EEF3395E0FE742B
:10358E00922FF58274003EF583E06403601A201ECC
:10359E000F74922FF58274003EF583E0FF124A8875
:1035AE0090025EE004F080BDE4900125F0D2162278
:0535BE00E4900125F07E
:0135C30022E5
:1000260078037C027D017BFF7A4279FA7E007F119C
:10003600123E9578147C027D017BFF7A43790B7E14
:10004600007F11123E9578257C027D017BFF7A4365
:10005600791C7E007F11123E9578367C027D017BED
:10006600FF7A43792D7E007F11123E9578477C02F8
:100076007D017BFF7A43793E7E007F11123E951209
:100086004A6F120006124719E58954F04401F589B2
:10009600C28DE4F58CF58AD28CC296C295C294D2F2
:1000A600B6D201900023F0A3F09001E1F0A3F09006
:1000B60000F6741EF09000F9741CF0C213C280C2E0
:1000C60018C281C219C282C21AC283C21BC20DE4FF
:1000D600900126F0C205C20CC2079000FAF090010A
:1000E600DDF0A3F0C2009001FDF0A3F0C210C21D26
:1000F600D203D208D20ED221D204A3F0A3F0C209B1
:100106007BFF7A42795CFDFF1200167FC0124ACE51
:100116007B017A0279141248CE1248F8D2B5D2B6CB
:1001260075A0FF90025DE5A0F09002C8E064016052
:100136000302041930B703020419201F030201FE4B
:100146009000F6741EF0124A03124842301D5D906C
:1001560001FDE07002A3E070519000D67402F0A396
:100166007457F090029FE0FF9000D8F09002A0E054
:10017600FE9000D9F09002A1E0FD9000DAF0A374A1
:1001860003F090005AEFF0A3EEF0A3EDF09000D448
:100196007406F0FF1244DD900202E054FDF0900177
:1001A600FD7402F0A37430F0806280599000D6741A
:1001B60002F0A37457F090029FE09000D8F09002EE
:1001C600A0E09000D9F09002A1E09000DAF0A374CC
:1001D60003F09000D47406F0FF1244DD900202741E
:1001E60002F0C20B9001E1E4F0A37405F090012542
:1001F6007403F012221E80147BFF7A42796DE4FDAF
:100206007F01120016900202E054FDF0200903025D
:10021600044090029FE0FF7E006476700CA3E064C9
:10022600D67006A3E0640B603DEF64244E700E901A
:1002360002A0E064547006A3E064E4607B90029F31
:10024600E06495700AA3E07006A3E064D560699047
:10025600029FE0FF7E00645F700FA3E064D7700921
:10026600A3E064847003020406EF64954E700C905C
:1002760002A0E07006A3E064F2603D90029FE06495
:1002860060700CA3E064407006A3E064946029905B
:10029600029FE0FF7E006495700AA3E07006A3E06B
:1002A60064F36014EF64374E70119002A0E0643678
:1002B6007009A3E06424700302040690029FE064C0
:1002C60095700CA3E064017006A3E06410603F9093
:1002D600029FE0FF7E00647F700CA3E064757006E9
:1002E600A3E064446028EF64954E700E9002A0E08F
:1002F60064017006A3E06411601490029FE0641725
:10030600700FA3E064EE7009A3E064247003020496
:100316000690029FE0FF7E006495700CA3E0644F98
:100326007006A3E064D7603FEF64674E700E9002DC
:10033600A0E064177006A3E064B4602B90029FE00F
:100346006494700CA3E064EA7006A3E06475601719
:1003560090029FE0FF7E00647C700FA3E064DE7075
:1003660009A3E064347003020406EF64944E700E31
:100376009002A0E064EB7006A3E06458602B900244
:100386009FE06417700CA3E064167006A3E064D4C3
:10039600601790029FE0FF7E00648F700EA3E064FA
:1003A600427008A3E064D670028055EF64954E70E3
:1003B6000E9002A0E0641D7006A3E064BC60149079
:1003C600029FE06426700EA3E064127008A3E06446
:1003D600847002802B90029FE0FF7E006482700C86
:1003E600A3E064887006A3E064146014EF64514EC1
:1003F60070489002A0E064C17040A3E06414703AB3
:10040600D296D2959000F9742AF0E4F58CF58AC25A
:100416008D80279002C8E06401701F124A031248BB
:10042600427F0612494B7BFF7A42797EE4FD7F01CB
:10043600120016900202E054FDF030B403021FD100
:100446009000D674FFF0A3F0124142900124E070B0
:1004560003021FD16401700A9000D6E064067002A0
:10046600D21F900124E0640160030207969000D633
:10047600E0FF7E00C394DF748094805003020796E9
:10048600D3EF94EF748094804003020796124719C5
:100496009000D6E0FF64E2600AEF64E36005EF6473
:1004A600E4703A7FC0124ACEE4900258F0900258A7
:1004B600E024C3F582E43400F583E0FF600B124AC2
:1004C60088900258E004F080E47FCE124ACE900075
:1004D600D6E0540F2430FF124A880207849000D6D3
:1004E600E064E070297FC0124ACEE4900258F09092
:1004F6000258E02411F582E43401F583E0FF70032D
:10050600020784124A88900258E004F080E19000C5
:10051600D6E064E1700F7BFF7A42798FFD7F01128E
:1005260000160207849000D6E064E570297FC012A9
:100536004ACEE4900258F0900258E024B7F582E4DF
:100546003401F583E0FF7003020784124A889002A3
:1005560058E004F080E19000D6E064E670297FC0A0
:10056600124ACEE4900258F0900258E02411F58227
:10057600E43400F583E0FF7003020784124A889092
:100586000258E004F080E19000D6E064E770187F3E
:10059600C0124ACE7BFF7A4279A01248CE7F107EE7
:1005A60027124AE40207849000D6E064E870297FA7
:1005B600C0124ACEE4900258F0900258E0245EF54C
:1005C60082E43400F583E0FF7003020784124A8850
:1005D600900258E004F080E19000D6E064E97029CA
:1005E6007FC0124ACEE4900258F0900258E02425CB
:1005F600F582E43400F583E0FF7003020784124AB3
:1006060088900258E004F080E19000D6E064EA7039
:10061600297FC0124ACEE4900258F0900258E02496
:10062600FEF582E43400F583E0FF700302078412CE
:100636004A88900258E004F080E19000D6E064EB2E
:1006460070297FC0124ACEE4900258F0900258E01A
:100656002480F582E43400F583E0FF70030207840A
:10066600124A88900258E004F080E19000D6E064D7
:10067600EC70297FC0124ACEE4900258F0900258DE
:10068600E02400F582E43400F583E0FF70030207FE
:1006960084124A88900258E004F080E19000D6E087
:1006A60064ED70297FC0124ACEE4900258F09002A1
:1006B60058E02425F582E43402F583E0FF70030256
:1006C6000784124A88900258E004F080E19000D630
:1006D600E064EE70297FC0124ACEE4900258F09092
:1006E6000258E02436F582E43402F583E0FF700315
:1006F600020784124A88900258E004F080E19000D4
:10070600D6E064EF705F7FC0124ACE7F54124A88EB
:100716007F41124A887F52124A887F4A124A887F4E
:1007260045124A887F54124A887F41124A887F20A0
:10073600124A887F41124A887F54124A887F4112A2
:100746004A887F53124A887F43124A887F41124A59
:10075600887F44124A887F41124A88D20A9000F95B
:10076600741CF080199000D6E064DF7011124719EE
:100776007FC0124ACE7BFF7A4279B11248CED21E92
:100786009000F9741CF0E4F58CF58AC28D021FD135
:10079600900124E0FF7E006401700E9000D6E064B4
:1007A600A07006D218D280803BEF64014E70219073
:1007B60000D6E064A17019D219D2819000F9741C98
:1007C600F07BFF7A4279C2E4FDFF120016021FD1C8
:1007D600900124E0640170159000D6E064A2700DCB
:1007E600D21AD2829000F9741CF0021FD190012413
:1007F600E0FF7E00640170159000D6E064A3700DE2
:10080600D21BD2839000F9742AF0021FD1EF640143
:100816004E70589000D6E064AF70507FC0124ACE3A
:100826007F43124A887F4F124A887F4E124A887F3A
:1008360054124A887F2E124A887F20124A887F45A2
:10084600124A887F56124A887F4E124A887F2012A3
:100856004A887F49124A887F4E124A887F49124A3F
:10086600887F43124A887F49020AAB900124E064DC
:100876000170429000D6E0644E703AD2037F801237
:100886004ACEE4900258F0900258E02403F582E440
:100896003402F583E0FF600B124A88900258E004A8
:1008A600F080E47F8D124ACE7F4E124A88201D03C7
:1008B600021FD18048900124E06401704A9000D65E
:1008C600E064537042C2037F80124ACEE49002581D
:1008D600F0900258E02403F582E43402F583E0FF49
:1008E600600B124A88900258E004F080E47F8D1273
:1008F6004ACE7F53124A88201D03021FD17F201241
:100906004A887F4D021067900124E064017032909E
:1009160000D6E0B4502BC2037FC0124ACEE4900248
:1009260058F0900258E02436F582E43400F583E06E
:10093600FF7003021FD1124A88900258E004F0802B
:10094600E1900124E0640170309000D6E0B44429BF
:100956007FC0124ACEE4900258F0900258E0244735
:10096600F582E43402F583E0FF7003021FD1124AD8
:1009760088900258E004F080E1900124E064017060
:100986005D9000D6E064F170557FC0124ACE7F5567
:10099600124A887F4E124A887F20124A887F4D125B
:1009A6004A887F4F124A887F4D124A887F45124AED
:1009B600887F4E124A887F54124A887F4F124A888F
:1009C6007F2E124A887F2E124A887F2E124A887FEF
:1009D60020124A887F20124A887F200210679001E1
:1009E60024E06401705D9000D6E064F370557FC02A
:1009F600124ACE7F50124A887F49124A887F431294
:100A06004A887F4F124A887F20124A887F59124AA5
:100A1600887F20124A887F50124A887F4C124A8863
:100A26007F41124A887F43124A887F41124A887F53
:100A36002E124A887F2E124A887F2E124A887F20DD
:100A4600021067900124E0640170629000D6E064B1
:100A5600F8705A7FC0124ACE7F56124A887F4512D6
:100A66004A887F48124A887F49124A887F2E124A4E
:100A7600887F20124A887F49124A887F4E124A8808
:100A86007F56124A887F41124A887F4C124A887FD5
:100A960049124A887F44124A887F4F124A887F2E1D
:100AA600124A887F2E124A887F2E021067900124F0
:100AB600E06401705D9000D6E064F970557FC01265
:100AC6004ACE7F53124A887F41124A887F4C124A87
:100AD600887F49124A887F44124A887F41124A8891
:100AE6007F20124A887F52124A887F45124A887FA1
:100AF60043124A887F48124A887F41124A887F5AA1
:100B0600124A887F41124A887F44124A887F4102EE
:100B16001067900124E06401705D9000D6E064FAED
:100B260070557FC0124ACE7F53124A887F49124AB7
:100B3600887F4E124A887F20124A887F54124A883C
:100B46007F41124A887F52124A887F4A124A887F1A
:100B560045124A887F54124A887F41124A887F5339
:100B6600124A887F20124A887F20124A887F2012E4
:100B76004A887F20021067900124E06401705D902E
:100B860000D6E064B570557FC0124ACE7F46124A41
:100B9600887F55124A887F45124A887F52124A88B2
:100BA6007F41124A887F20124A887F44124A887FF2
:100BB60045124A887F20124A887F48124A887F4F0A
:100BC600124A887F52124A887F41124A887F5212FF
:100BD6004A887F49124A887F4F021067900124E0B5
:100BE60064016003020CA29000D6E064B8600302C0
:100BF6000CA27F80124ACE7F20124A887F45124A75
:100C0600887F4E124A887F54124A887F52124A8839
:100C16007F41124A887F44124A887F41124A887F60
:100C260020124A887F46124A887F55124A887F4595
:100C3600124A887F52124A887F41124A887F2012C0
:100C46004A887F20124A887FC0124ACE7F44124AC1
:100C5600887F45124A887F20124A887F48124A8830
:100C66007F4F124A887F52124A887F41124A887FF4
:100C760052124A887F49124A887F4F124A887F203B
:100C8600124A887F2D124A887F43124A887F411272
:100C96004A887F4A124A887F41021067900124E001
:100CA60064016003020D629000D6E064B96003023D
:100CB6000D627F80124ACE7F44124A887F49124ACB
:100CC600887F41124A887F20124A887F44124A88C8
:100CD6007F45124A887F20124A887F41124A887FC0
:100CE60043124A887F43124A887F45124A887F53B7
:100CF600124A887F4F124A887F20124A887F201224
:100D06004A887F20124A887FC0124ACE7F49124AFB
:100D1600887F4E124A887F56124A887F41124A8837
:100D26007F4C124A887F49124A887F44124A887F3C
:100D36004F124A887F20124A887F20124A887F20D5
:100D4600124A887F20124A887F20124A887F201202
:100D56004A887F20124A887F20021067900124E08B
:100D66006401705D9000D6E064FB70557FC0124A46
:100D7600CE7F45124A887F52124A887F52124A888D
:100D86007F4F124A887F52124A887F20124A887FF4
:100D960054124A887F52124A887F41124A887F4EEF
:100DA600124A887F53124A887F50124A887F4F1210
:100DB6004A887F52124A887F54124A887F45021019
:100DC60067900124E06401705D9000D6E064FC70D9
:100DD600557FC0124ACE7F4E124A887F4F124A88EC
:100DE6007F20124A887F45124A887F53124A887F9D
:100DF60020124A887F4D124A887F45124A887F4EC4
:100E0600124A887F53124A887F55124A887F4112B8
:100E16004A887F4C124A887F2E124A887F2E124AB1
:100E2600887F2E021067900124E06401705D9000B7
:100E3600D6E064FD70557FC0124ACE7F4E124A88B6
:100E46007F4F124A887F20124A887F45124A887F40
:100E560053124A887F20124A887F44124A887F4567
:100E6600124A887F20124A887F52124A887F4F1280
:100E76004A887F54124A887F41124A887F43124A21
:100E8600887F49124A887F4F021067900124E064E8
:100E960001705D9000D6E064FE70557FC0124ACEA8
:100EA6007F42124A887F49124A887F45124A887FC4
:100EB6004E124A887F56124A887F45124A887F4ECC
:100EC600124A887F49124A887F44124A887F4F1205
:100ED6004A887F20124A887F20124A887F20124A39
:100EE600887F20124A887F20124A887F2002106756
:100EF600900124E06401705C9000D6E0F470557FA8
:100F060080124ACE7F47124A887F52124A887F4112
:100F1600124A887F43124A887F49124A887F4112C3
:100F26004A887F53124A887F2E124A887F2E124A99
:100F3600887F2E124A887F20124A887F20124A888C
:100F46007F20124A887F20124A887F20124A887F93
:100F5600200210679000D6E06402600302106DA3C1
:100F6600E06469600302106D1247197BFF7A4279CB
:100F7600D3E4FDFF1200167FC0124ACE9000D8E0DF
:100F8600FF1248A37F2F124A889000D9E0FF12482B
:100F9600A37F2F124A889000DAE0FF1248A37F2031
:100FA600124A889000DBE0FF1248A37F3A124A8873
:100FB6009000DCE0FF1248A39000DDE0FF1248A39A
:100FC6007F8C124ACE9000DEE06401700F7F4412DF
:100FD6004A887F6F124A887F6D0210679000DEE0B4
:100FE6006402700E7F4C124A887F75124A887F6EA3
:100FF600806F9000DEE06403700E7F4D124A887F9A
:1010060061124A887F7280599000DEE06404700E97
:101016007F4D124A887F69124A887F658043900017
:10102600DEE06405700E7F4A124A887F75124A8890
:101036007F65802D9000DEE06406700E7F56124AB2
:10104600887F69124A887F6580179000DEE0640712
:101056006003021FD17F53124A887F61124A887F3C
:1010660062124A88021FD19000D6E0640260030231
:10107600112BA3E06449600302112B7F80124ACE34
:10108600E4900258F0900258E0246FF582E43400B0
:10109600F583E0FF600B124A88900258E004F08066
:1010A600E4900124E024FE90025DF07FC0124ACE57
:1010B600E49001E3F0900258F090025DE0FF9002A8
:1010C60058E0FEC39F503774D82EF582E43400F5FD
:1010D60083E064037008EF04900258F080189002D1
:1010E60058E024D8F582E43400F583E0FF124A88FC
:1010F6009001E3E004F0900258E004F080BBE49035
:101106000258F09001E3E0FFC374109FFF9002586D
:10111600E0C39F4003021FD17F20124A88900258E5
:10112600E004F080DE9000D6E0640260030211C79E
:10113600A3E0644460030211C71247197F80124A74
:10114600CE7BFF7A4279E41248CE9002587402F0C0
:10115600900258E0FF24D6F582E43400F583E0647B
:101166003B601774D62FF582E43400F583E0FF1256
:101176004A88900258E004F080D67FC0124ACE908A
:101186000258E004F07BFF7A4279F01248CE9002D2
:10119600597402F0900258E0FF24D6F582E4340038
:1011A600F583E0643B7003021FD174D62FF582E409
:1011B6003400F583E0FF124A88900258E004F0807C
:1011C600D39000D6E064026003021271A3E0645774
:1011D6006003021271900124E0FF24D5F582E43405
:1011E60000F583E064036003021271EF6412707B02
:1011F6009001FDF0A3F0C205D20B9000DAE0900258
:101206009FF09000D9E09002A0F09000D8E0900204
:10121600A1F09000DCE0900122F09000DDE090006B
:10122600FBF09000DEE0900195F09000DFE0900189
:1012360096F09000E0E090010FF09000E1E0900160
:1012460023F09000E2E09000FDF09000E3E09001D2
:1012560097F09000E4E0900198F09000E5E09001AE
:1012660010F09000E6E09000FC80329000D6E0FDA1
:101276007C006402703BA3E0645770359001FDF07A
:10128600A3F0C205C20B9000DAE090029FF0900036
:10129600D9E09002A0F09000D8E09002A1F0900270
:1012A60002E04402F09001E1E4F0A37405F0021FAD
:1012B600D1ED64024C70479000D7E0644D703F90CA
:1012C60001FDF0A3F012457CC2059000DAE0900221
:1012D6009FF09000D9E09002A0F09000D8E0900234
:1012E600A1F0900202E04402F09001E1E4F0A37460
:1012F60005F09001DDE4F0A3748CF0021FD190009C
:10130600D6E064026003021480A3E06477600302FF
:101316001480900124E0FF24D5F582E43400F5839F
:10132600E0640360030214809001FDF0A3F0D2058F
:10133600C212C21C9000DAE090029FF09000D9E041
:101346009002A0F09000D8E09002A1F09000DCE0BE
:10135600900122F09000DDE09000FBF09000DEE0CE
:10136600900195F09000DFE0900196F09000E0E0AB
:1013760090010FF07E00EF641270379000E1E0906C
:101386000123F09000E2E09000FDF09000E3E09091
:101396000197F09000E4E0900198F09000E5E0906D
:1013A6000110F09000E6E09000FCF0D212C21C02A0
:1013B600146DD3EF9412EE6480948050030214638C
:1013C6009000E1E0900123F09000E2E09000FDF053
:1013D6009000E3E0900197F09000E4E0900198F02F
:1013E6009000E5E0900110F0900124E024D4F5820D
:1013F600E43400F583E09000FCF0D212D21CE490B5
:1014060000D5F09001E0740AF09002587410F09044
:101416000124E0FF24FEFE900258E0FDC39E5047E3
:1014260074D62DF582E43400F583E0640390025807
:101436006021E0FE24D6F582E43400F583E0FD74F5
:101446009D2EF582E43401F583EDF09000D5E0049D
:10145600F08002EFF0900258E004F080B29000E1D4
:10146600E09000FCF0C212900202E04402F090010B
:10147600E1E4F0A3740AF0021FD19000D6E0640202
:1014860060030215F9A3E0FF64506017EF6454602F
:1014960012EF6456600DEF64456008EF6447600321
:1014A6000215F9E49001FDF0A3F0900126EFF0900B
:1014B6000124E0900091F0124A3BC20DC2247F80C5
:1014C600124ACE9002587403F0900091E0FF900209
:1014D60058E0FEC39F400302156474D62EF582E4DD
:1014E6003400F583E0C39430401074D62EF582E4C0
:1014F6003400F583E0D39439403D74D62EF582E46A
:101506003400F583E0C39441401074D62EF582E48E
:101516003400F583E0D3945A401D74D62EF582E448
:101526003400F583E0642D600E74D62EF582E43423
:1015360000F583E0B42E04D2258008C225EF04907E
:101546000258F0900258E024D6F582E43400F58380
:10155600E0FF124A88900258E004F00214CF2025DA
:1015660003021FC2E4900259F09000FCF09002586A
:10157600F0900091E0FF900258E0FEC39F502A745D
:10158600D62EF582E43400F583E0B42E1474D72EFB
:10159600F582E43400F583E09000FCF0900258EF09
:1015A600F0900258E004F080C89000FCE0600790DC
:1015B6000091E024FBF0900202E04401F0E4900286
:1015C60058F0900091E0FF900258E0FEC39F400360
:1015D600021FC274D92EF582E43400F583E0FF744D
:1015E600C82EF582E43401F583EFF0900258E0044A
:1015F600F080CF9000D6E064026003021755A3E0A6
:1016060064616003021755900124E024D5F582E455
:101616003400F583E0640360030217559001FDF082
:10162600A3F0D20CC2079000F7F09002587402F0B3
:10163600900124E0FC900258E0FEC39C502174D631
:101646002EF582E43400F583E0B42D0BEE04900110
:10165600AAF0900258ECF0900258E004F080D19085
:1016660002587402F09001AAE014FF900258E0FEBE
:10167600C39F502674D62EF582E43400F583E0FF2E
:1016860074C62EF582E43401F583EFF09000F7E09E
:1016960004F0900258E004F080CB9001AAE0FF0429
:1016A600F074D62FF582E43400F583E0900122F041
:1016B6009001AAE0FF04F074D62FF582E43400F519
:1016C60083E09000FBF09001AAE0FF04F074D62FAF
:1016D600F582E43400F583E0900195F09001AAE0EC
:1016E600FF04F074D62FF582E43400F583E0900110
:1016F60096F09001AAE0FF04F074D62FF582E43448
:1017060000F583E090010FF0E49001ACF09001AA9F
:10171600E004900258F0900124E014FF900258E093
:10172600FEC39F4003021B2574D62EF582E43400C7
:10173600F583E0FF9001ACE0FE04F074AD2EF58277
:10174600E43401F583EFF0900258E004F080C7908E
:1017560000D6E064026003021957900124E024D504
:10176600F582E43400F583E06403600302195790C0
:1017760000D7E0FF646D6017EF646E6012EF646F70
:10178600600DEF64416008EF64526003021957EF81
:10179600646E70499001FDF0A3F0C21D7F80124A6D
:1017A600CEE4900258F0900258E02403F582E43427
:1017B60002F583E0FF600B124A88900258E004F0BD
:1017C60080E47F8D124ACE3003047F4E80027F5321
:1017D600124A887F20124A887F4E0218D29000D77C
:1017E600E0646D7043D21D7F80124ACEE4900258A9
:1017F600F0900258E02403F582E43402F583E0FF1A
:10180600600B124A88900258E004F080E47F8D1243
:101816004ACE3003047F4E80027F53124A887F20CF
:10182600124A887F4D0218D29000D7E0646F600399
:101836000218D7A3E064307048C21D9001FDF0A3E2
:10184600F07F80124ACEE4900258F0900258E024CD
:1018560003F582E43402F583E0FF600B124A8890B8
:101866000258E004F080E47F8D124ACE3003047FF4
:101876004E80027F53124A887F20124A887F6F80EB
:101886004B9000D8E06431600302194ED21D7F8070
:10189600124ACEE4900258F0900258E02403F582F2
:1018A600E43402F583E0FF600B124A88900258E0A8
:1018B60004F080E47F8D124ACE3003047F4E80020E
:1018C6007F53124A887F20124A887F4D124A8880A9
:1018D600779000D7E0FD6441703D9001FDE0700215
:1018E600A3E06064E49001FDF0A3F090005AE0905C
:1018F600029FF090005BE09002A0F090005CE09008
:1019060002A1F0900202E04402F09001E1E4F0A3AB
:101916007405F0C20B8031EDB4522DE49001FDF058
:10192600A3F07F80124ACEE4900258F0900258E06D
:101936002499F582E43401F583E0FF600B124A88AE
:10194600900258E004F080E49000D774FFF0021F84
:10195600D19000D6E064026003021B2FA3E0FF646F
:10196600736008EF64436003021B2F900124E02498
:10197600D5F582E43400F583E064036003021B2F8F
:101986009001FDF0A3F0D20CD2079000F7F0900082
:10199600D7E0B44304D20D8002C20D9002587402FF
:1019A600F0900124E0FC900258E0FEC39C502174A4
:1019B600D62EF582E43400F583E0B42D0BEE0490C8
:1019C6000058F0900258ECF0900258E004F080D1F4
:1019D600900058E024D6F582E43400F583E09000C8
:1019E60022F09002587402F0900058E0FF14FE9026
:1019F6000258E0FDC39E502674D62DF582E43400CD
:101A0600F583E0FE74C62DF582E43401F583EEF02D
:101A16009000F7E004F0900258E004F080CAEF244A
:101A2600029001AAF0E0FF04F074D62FF582E434A8
:101A360000F583E0900122F09001AAE0FF04F07423
:101A4600D62FF582E43400F583E09000FBF0900198
:101A5600AAE0FF04F074D62FF582E43400F583E0A3
:101A6600900195F09001AAE0FF04F074D62FF5825C
:101A7600E43400F583E0900196F09001AAE0FF04BB
:101A8600F074D62FF582E43400F583E090010FF070
:101A96009001AAE004F0E0FF04F074D62FF582E48A
:101AA6003400F583E0900123F09001AAE0FF04F0F2
:101AB60074D62FF582E43400F583E09000FDF090B3
:101AC60001AAE0FF04F074D62FF582E43400F58312
:101AD600E0900197F09001AAE0FF04F074D62FF58C
:101AE60082E43400F583E0900198F09001AAE0FFCB
:101AF60004F074D62FF582E43400F583E0900110EB
:101B0600F09001AAE004F0E0FF04F074D62FF5820D
:101B1600E43400F583E09000FCF0E49001ACF09032
:101B26000202E04401F0021FC29000D6E0640260A7
:101B360003021BEFA3E064646003021BEF90012421
:101B4600E0FF24D5F582E43400F583E06403600306
:101B5600021BEFEF64096003021BEF124A3B7F8012
:101B6600124ACE7F53124A887F61124A887F6C12CE
:101B76004A887F64124A887F6F124A887F20124AF9
:101B8600887F44124A887F69124A887F73124A887E
:101B96007F70124A887F6F124A887F6E124A887F4A
:101BA60069124A887F62124A887F6C124A887F656A
:101BB600124A88124A557FC0124ACE9002587402C1
:101BC600F0900258E0FFC3940874809480400302AA
:101BD6001FD174D62FF582E43400F583E0FF124A54
:101BE60088900258E004F080D8900124E09000919B
:101BF600F0124A3BE49000FCF0900258F0900091FD
:101C0600E0FF900258E0FEC39F502A74D62EF5825C
:101C1600E43400F583E0B42E1474D72EF582E43450
:101C260000F583E09000FCF0900258EFF090025827
:101C3600E004F080C89000FCE06007900091E0248A
:101C4600FEF0C20DC224E4900259F0900258F090C2
:101C56000091E0FB900258E0FEC39B502A74D62EFA
:101C6600F582E43400F583E0B42D14900258A3E025
:101C7600FD04F0745B2DF582E43402F583EEF090FA
:101C86000258E004F080C8900259E0600B90025BB5
:101C9600E00490025AF0800590025AEBF07F801221
:101CA6004ACEE4900258F090025AE0FF900258E0C3
:101CB600FEC39F4003021D4274D62EF582E4340013
:101CC600F583E0C39430401074D62EF582E43400D8
:101CD600F583E0D39439403D74D62EF582E4340082
:101CE600F583E0C39441401074D62EF582E43400A7
:101CF600F583E0D3945A401D74D62EF582E4340061
:101D0600F583E0642D600E74D62EF582E43400F57A
:101D160083E0B42E04D2258008C225EF0490025831
:101D2600F0900258E024D6F582E43400F583E0FF13
:101D3600124A88900258E004F0021CAD20250302E6
:101D46001FD1E49001FDF0A3F0900202E04401F0FF
:101D5600900259E07003021F8B64016003021ECAE1
:101D6600900091E024FFFFE434FFFE90025BE0FD6B
:101D7600C3EF9DFFEE9400FEEF64014E705A900291
:101D860058F0900091E0FF900258E0FEC39F50206B
:101D960074D62EF582E43400F583E0FD74C82EF582
:101DA60082E43401F583EDF0900258E004F080D22D
:101DB600D22474C72FF582E43401F583E090002223
:101DC600F07F44124A88900022E0FF124A88900071
:101DD60091E024FEF0021FC2C224E4900258F09063
:101DE600025BE0FF900258E0FEC39F502074D62E9F
:101DF600F582E43400F583E0FD74C82EF582E43400
:101E060001F583EDF0900258E004F080D290009145
:101E1600E024FFFDE434FFFCC3ED9FFFEC9400FEDD
:101E2600EF64054E6003021EBFD20D7F43124A883F
:101E36007F61124A887F6A124A887F65124A887FC4
:101E460072124A887F6F124A8890025BE004900102
:101E5600AAF0E0FF04F074D62FF582E43400F5838F
:101E6600E0900122F09001AAE0FF04F074D62FF56D
:101E760082E43400F583E09000FBF09001AAE0FFD5
:101E860004F074D62FF582E43400F583E0900195D2
:101E9600F09001AAE0FF04F074D62FF582E4340036
:101EA600F583E0900196F09001AAE024D6F582E44D
:101EB6003400F583E090010FF090025BE090009112
:101EC600F0021FC2E4900258F090025BE0FF90021D
:101ED60058E0FEC39F502074D62EF582E43400F5F8
:101EE60083E0FF74C82EF582E43401F583EFF090A9
:101EF6000258E004F080D2D22490025BE0FD24C9AF
:101F0600F582E43401F583E0900022F0D20D9002D0
:101F16005CE0049001AAF0E0FF04F074D62FF5828D
:101F2600E43400F583E0900122F09001AAE0FF047A
:101F3600F074D62FF582E43400F583E09000FBF0D0
:101F46009001AAE0FF04F074D62FF582E43400F580
:101F560083E0900195F09001AAE0FF04F074D62F7B
:101F6600F582E43400F583E0900196F09001AAE052
:101F760024D6F582E43400F583E090010FF090005A
:101F860091EDF08037E4900258F0900091E0FF90D8
:101F96000258E0FEC39F502074D62EF582E434002A
:101FA600F583E0FF74C82EF582E43401F583EFF083
:101FB600900258E004F080D2C224C20D9000F6745C
:101FC6001EF0900023E4F0A3741EF0208D0302217E
:101FD600AEC28D9000FAE0600714F0E07002D210F5
:101FE6009001DDE07002A3E0600E9001DEE024FFC8
:101FF600F09001DDE034FFF09001FFE07002A3E015
:10200600600E900200E024FFF09001FFE034FFF044
:102016009001FDE07002A3E0603F9001FEE024FF26
:10202600F09001FDE034FFF0E07002A3E0702A902A
:10203600005AE090029FF090005BE09002A0F090C2
:10204600005CE09002A1F0900202E04402F09001F0
:10205600E1E4F0A37405F0C20B20B71B9000F9E091
:10206600FF640E6003EF7013300106C294C2018054
:102076000AD294D2018004D294D21F9000F9E014BF
:10208600F0E060030221AE3022139001ABE0600263
:1020960014F09001ABE0700B1244D580009001ABB8
:1020A6007405F0900023E07002A3E06033900024F2
:1020B600E024FFF0900023E034FFF0E07002A3E09C
:1020C600701E900202E054FEF0E4900126F0C20C6D
:1020D600C2079000FC7420F0C20D302203124A3B66
:1020E6009001E1E07002A3E060209001E2E024FFAD
:1020F600F09001E1E034FFF0E07002A3E0700B9095
:102106000202E054FDF0C20BC21C9000F6E06073C0
:1021160014F0E0706E741EF07F80124ACEE49002D6
:1021260058F0900258E0C3941074809480500D7F4C
:1021360020124A88900258E004F080E6900202E0FD
:1021460054FEF054FDF054FBF0D222E4900126F048
:10215600C21CC20DC20CC207C21C7FC0124ACEE40A
:10216600900258F0900258E02447F582E43400F5D6
:1021760083E0FF600B124A88900258E004F080E486
:102186001244D5C20AC296C295C218C280C219C2EA
:1021960081C21AC282C21BC2839000F9741CF0E489
:1021A600F58CF58AC28DC21E30103B30B438C21091
:1021B600E490025DF09001DCE0FF90025DE0FEC37A
:1021C6009F502074E92EF582E43401F583E0FD7416
:1021D600D62EF582E43400F583EDF090025DE0043E
:1021E600F080D21244DD3016077F06124B33C2163A
:1021F600900125E0FF64036005EF64077003122277
:102206001E30000E30B40BC20074AB1244D7E41279
:0822160044D71249C102012660
:1047DA002575004552524F52204445204C454354BA
:1047EA0055524100804020100804020100000000D8
:1047FA0000004C4543542E31202020202020202028
:04480A00202020004A
:104129004102C9004102C8004102C70041029E0084
:084139004102A3004102A400B1
:0300030002476051
:10476000C0E0C083C082C0D09002C9E024A5F58219
:10477000E43402F5837430F09002C9E004F064215F
:1047800070129002C804F0A3E024A6F582E434027B
:0D479000F583E4F0D0D0D082D083D0E032A9
:0300130002479D04
:10479D00C0E0C083C082C0D09002C9E024A5F582DC
:1047AD00E43402F5837431F09002C9E004F0642121
:1047BD0070129002C804F0A3E024A6F582E434023E
:0D47CD00F583E4F0D0D0D082D083D0E0326C
:054B4100D288D2A82279
:054B4600D28AD2AA2270
:034B4B00D2AF22C4
:0C000600124B41124B46124B4B02484279
:10484200E4FFEFC3942274809480501774A52FF56F
:1048520082E43402F583E4F09002C9F09002C8F0D9
:104862000F80DFE49002C7F090029EF09002A3F066
:02487200A3F0B1
:014874002221
:104922007F011244259002C7EFF07F0912442590BF
:10493200029EEFF07F111244259002A3EFF07F193F
:094942001244259002A4EFF022BA
:104A030012492290029EE0A3F09002A3E09002A03C
:0C4A1300F09002A4E09002A1F002457CAB
:0544250090025EEFF0C3
:10442A00785F7C027D017BFF7A4779DD7E007F1110
:10443A00123E95E4900272F078737C027D017BFF54
:10444A007A4779EEFE7F08123E9590025EE0FE24DE
:10445A0008900270F0A3EEF0900270E0FFA3E0FE75
:10446A00C39F506174A52EF582E43402F583E0F906
:10447A00B43129900272E0FF90025EE0FD90027171
:10448A00E0C39DFDE49400FC74732DF58274023C34
:10449A00F583E0FEEF4E900272F08021E9D3943169
:1044AA005006E9C3943050157F80124ACE7B017AB8
:1044BA0002795F1248CEE4900272F080089002718D
:0A44CA00E004F08093900272E0FF1E
:0144D40022C5
:10457C00785E7C027D017BFF7A4779F67E007F06B0
:10458C00123E9578647C027D017BFF7A4779FC7E34
:10459C00007F12123E95124B3B7F80124ACE7B015C
:1045AC007A0279641248CE7F87124ACE90029FE03D
:1045BC00FF7E0090027974FFF0A37447F0A374DAC5
:1045CC00F0A3EEF0A3EFF07B017A02795E123AC50C
:1045DC007B017A02795E1248CE7F2D124A889002B6
:1045EC00A0E0FEA3E0FDEDFF90027974FFF0A37450
:1045FC0047F0A374DAF0A3EEF0A3EFF07B017A029C
:0E460C00795E123AC57B017A02795E0248CED1
:104A6F00C20F759850438780438920758840758D94
:094A7F00F4758BF4D28ED2AC2246
:084B3300200FFD8F99D20F2223
:030023000235C4DF
:0B35C400C0E0C083C082C0D075D008FA
:1035CF00209803023A50AB99C298900125E01460FD
:1035DF003C14605824FD70030236801470030237C8
:1035EF001F24FE70030236BE24086003023A4B907C
:1035FF0000D4E4F0AF0BEBFD3395E0FCED64054C2C
:10360F006003023A5090012504F0023A509000F402
:10361F00E0AF0B900125B50B0E7402F09000F6741D
:10362F001EF0C222023A50E4F0023A50AF0BEB24E4
:10363F00AD602024F0602924FE600F24EE60122478
:10364F0007702B9001257403805C9001257408800E
:10365F0055800D9001257405F0D216D223023A50F1
:10366F009001257405F07F06124B33023A44023A5B
:10367F004BAF0BEBFD3395E0FCED64024C701D90EE
:10368F0000D4F0E0FE04F074272EF582E43401F547
:10369F0083EFF09001257406F0023A50ED64054C6B
:1036AF00900125700504F0023A44E4F0023A50AF5D
:1036BF000B9000D4E0FE04F074272EF582E4340161
:1036CF00F583EFF09000D4E0D3943C748094804065
:1036DF0003023A4BAF0BEBFD3395E0FCED64034C6B
:1036EF00701D900125F0900202E054FEF09001262B
:1036FF00E4F0C20CC207900023F0A3F0023A50EDA1
:10370F0064054C6003023A5090012504F0023A44DC
:10371F00AF0B9000D4E0FE04F074272EF582E43452
:10372F0001F583EFF09000D4E0D3943C7480948043
:10373F004003023A4BAF0BEBFD3395E0FCED640316
:10374F004C6003023A3230233CC223D2069001DF91
:10375F00F09000D4E0FE9001DFE0FDC39E50207496
:10376F00272DF582E43401F583E0FE74922DF58266
:10377F00E43400F583EEF09001DFE004F080D290A6
:10378F0001257407F09000D4E0FD7C00640660030F
:10379F0002388E900128E0FE64446044EE6441706C
:1037AF003F9001DDE07002A3E0601B9001DDE4F0CB
:1037BF00A3F0D200900202E054FDF09001FFE4F07C
:1037CF00A37454F0801A9001FFE07002A3E0701010
:1037DF00D2969000F9741CF0758C00758A00C28D1A
:1037EF00900129E0FF64447003023882EF64416066
:1037FF0003023882300360D200302146301174C288
:10380F0011900202E054FDF09001DDE07002A3E0A0
:10381F00601DC20B9001DDE4F0A3F0D20090020214
:10382F00E054FDF09001FFE4F0A37454F080449055
:10383F0001FFE07002A3E0703AD2959000F9741C7A
:10384F008028301109C211900202E054FDF0D29588
:10385F009000F9742A8013301109C211900202E00E
:10386F0054FDF0D2959000F9742AF0758C00758A8A
:10387F0000C28D900125E4F09000D4F0023A50ED93
:10388F0064074C703D900128E064636003023A5076
:10389F009001DFF09000D4E0FF9001DFE0FEC39FC6
:1038AF00505D74272EF582E43401F583E0FF74D662
:1038BF002EF582E43400F583EFF09001DFE004F0A1
:1038CF0080D29000D4E0FF7E006419703B9001DF3E
:1038DF00F09000D4E0FD9001DFE0FCC39D50207418
:1038EF00272CF582E43401F583E0FD74922CF582E8
:1038FF00E43400F583EDF09001DFE004F080D29026
:10390F0001257407F0023A50C3EF9426EE648094B9
:10391F00805003023A50900128E06441703E9001BC
:10392F00DDE07002A3E0601A900202E054FDF09017
:10393F0001DDE4F0A3F0D2009001FFF0A37454F086
:10394F00801A9001FFE07002A3E07010D2969000F1
:10395F00F9741CF0758C00758A00C28D900129E0F6
:10396F00644160030239F5D20030035E30214630E6
:10397F001174C211900202E054FDF09001DDE0706D
:10398F0002A3E0601DC20B9001DDE4F0A3F0D200B2
:10399F00900202E054FDF09001FFE4F0A37454F0A4
:1039AF0080449001FFE07002A3E0703AD29590003E
:1039BF00F9741C8028301109C211900202E054FDE5
:1039CF00F0D2959000F9742A8013301119C211901A
:1039DF000202E054FDF0D2959000F9742AF0758C34
:1039EF0000758A00C28D9001DFE4F09001DFE0C323
:1039FF009426748094805021E0FF2427F582E434CC
:103A0F0001F583E0FE74922FF582E43400F583EE26
:103A1F00F09001DFE004F080D29001257407F0D21E
:103A2F0015801EAF0BEF3395E0FEEF64054E70115E
:103A3F0090012504F09000D4E4F08005900125E476
:083A4F00F0309904C299C20F86
:093A5700D0D0D082D083D0E0323F
:024A1F00AE07E0
:104A2100E4FDEDC39E501274632DF582E43401F56B
:094A310083E0FF124B330D80E914
:014A3A002259
:1049E500E4FFFE9000D4E0FDEEC39D501074922EBE
:0D49F500F582E43400F583E06FFF0E80E6EC
:014A02002291
:10480E00E4FF9000D4E02401FDE433FCEFC39DEC03
:10481E006480F8748098501B74D62FF582E43400AF
:10482E00F583E0FE74CA2FF582E43402F583EEF0D0
:03483E000F80CF19
:014841002254
:0100120022CB
:10487500E4900059F0301805E04401F022301908A1
:10488500900059E04402F022301A08900059E044A3
:0E48950004F022301B07900059E04408F02286
:104AE400E4FDFCC3ED9FEC9E500A1200120DBD00C4
:044AF400010C80EF42
:014AF800229B
:034AF900124AC698
:104AFC00E4FFFE1200120FBF00010EEF64024E70B5
:014B0C00F2B6
:014B0D002285
:104B2100E4FFFE1200120FBF00010EEF64024E708F
:014B3100F291
:014B32002260
:0E4AB800124875ED54F0FF900059E04FF58064
:084AC600D291124AFCC29122B8
:104ACE00AD07C290124AB8EDC454F0FD54F0FFE0A9
:064ADE004FF580024AC6FC
:104AA1007F01124ACEE4FFFE1200120FBF00010E79
:064AB100EF64FA4E70F202
:014AB70022DC
:10471900C290124AFCC291124AFC758039124AF9B8
:10472900124AF9124AC6124AFC758029124AC6125F
:104739004AFC7F0C124ACE124AA11200127F0612BD
:104749004ACE1200127F80124ACE124AFC124875D4
:07475900900059E0F58022F9
:104A8800AD07D290120012124AB8EDC454F0FD548A
:094A9800F0FFE04FF580024AC670
:10497300AE07ED14600F1460111460132403701656
:10498300EE2480800DEE24C08008EE24948003EE94
:0749930024D4FF124ACE22DA
:0B48CE0090027BEBF0A3EAF0A3E9F0FE
:1048D900E4FC90027BE0FBA3E0FAA3E0F98C82758B
:0E48E9008300123EBBFF6006124A880C80E47A
:0148F700229E
:0C001600AE07AF05AD061249730248CEDC
:1048F800C292C293124AFC9000F47431F0309203D1
:10490800E004F03093079000F4E02402F07FC9122D
:0A4918004ACE9000F4E0FF024A8846
:104A3B007F80124ACEE4FCECC394107480948050B7
:094A4B00087F20124A880C80EE5D
:014A5400223F
:104A55007FC0124ACEE4FCECC3941074809480505D
:094A6500087F20124A880C80EE43
:014A6E002225
:064B3B00124A3B024A553C
:0300000002461A9B
:0C461A00787FE4F6D8FD7581250246612A
:103DC500E709F608DFFA8046E709F208DFFA803EE0
:103DD50088828C83E709F0A3DFFA8032E309F608CD
:103DE500DFFA8078E309F208DFFA807088828C8335
:103DF500E309F0A3DFFA806489828A83E0A3F608E9
:103E0500DFFA805889828A83E0A3F208DFFA804CC2
:103E150080D280FA80C680D4806980F28033801099
:103E250080A680EA809A80A880DA80E280CA803302
:103E350089828A83ECFAE493A3C8C582C8CCC5837A
:103E4500CCF0A3C8C582C8CCC583CCDFE9DEE7804A
:103E55000D89828A83E493A3F608DFF9ECFAA9F0C9
:103E6500EDFB2289828A83ECFAE0A3C8C582C8CC1F
:103E7500C583CCF0A3C8C582C8CCC583CCDFEADE38
:103E8500E880DB89828A83E493A3F208DFF980CC9A
:103E950088F0EF60010E4E60C388F0ED2402B40493
:103EA5000050B9F582EB2402B4040050AF2323453A
:063EB5008223903E15730C
:103EBB00BB010CE58229F582E5833AF583E02250BC
:103ECB0006E92582F8E622BBFE06E92582F8E22206
:0D3EDB00E58229F582E5833AF583E4932220
:0C3EE800ECF0A3EDF0A3EEF0A3EFF0224D
:103EF400A8828583F0D083D082123F0B123F0B122D
:103F04003F0B123F0BE473E493A3C583C5F0C58351
:103F1400C8C582C8F0A3C583C5F0C583C8C582C817
:013F2400227A
:103A6000E5102479F582E43402F583E00510229014
:103A70000276302D03900279E475F001123F500276
:103A80003F252026E97F2ED2268018EF540F249060
:103A9000D43440D4FF302A0BEF24BFB41A005003B3
:103AA0002461FFE511600215110514E5147002058B
:103AB00013302D0E900276E475F001123F50EF02A4
:103AC0003F3E02499A7403D22D8003E4C22DF510C3
:103AD000900276123F67E4F511F513F514E51160D5
:103AE000077F20123AA380F57512FFC227C226C2B3
:103AF00028C229C22BC22CC22E123A6FFF700D3081
:103B00002D057F00123AB4AF14AE1322B4255FC264
:103B1000D5C22A123A6FFF24D0B40A00501A75F0A9
:103B20000A781130D50508B6FF0106C6A426F6208E
:103B3000D5047002D22980D924CFB41A00EF5004E2
:103B4000C2E5D22A023CB5D22780C6D22680C0D296
:103B50002880BCD2D580BAD22B80B47F20123AA361
:103B60002028077401B5110040F1123A60FF123AA3
:103B7000A3023ADDD22ED22C8095123A60FB123A83
:103B800060FA123A60F94A4B700679867A3D7BFFFB
:103B900020282EE511602A7E008E82758300123E59
:103BA000BB60060EEE651270F0C2D5EBC0E0EAC055
:103BB000E0E9C0E0EE123CFCD0E0F9D0E0FAD0E061
:103BC000FB123F25FF60AAEBC0E0EAC0E0E9C0E0DD
:103BD000123AA3D0E02401F9D0E03400FAD0E0FB9F
:103BE000E5120460DCD512D980877BFF7A3C79F836
:103BF000D228809C791080027908C22CC22E8008BD
:103C0000D2D5790A8004790AC2D5E512047002F58A
:103C100012E4FAFDFEFF123A60FC7B082027131223
:103C20003A60FD7B1030260A123A60FE123A60FFBD
:103C30007B20EC3382D592D55013C3E43026069F07
:103C4000FFE49EFEE42027039DFDE49CFCE4CBF80A
:103C5000C227EC700CCFCECDCCE824F8F870F380FE
:103C600017C3EF33FFEE33FEED33FDEC33FCEB33E4
:103C7000FB994002FB0FD8E9EB302705F8D0E0C4F0
:103C800048B227C0E00AEC4D4E4F78207B0070C24E
:103C9000EAB5120040BCC0E0123CFED0F0D0E020FB
:103CA0002704C4C0E0C4B227C0F0123A8CD0F0D5CB
:103CB000F0EB023ADD123F703B7A533BF4583B4B3A
:103CC0004C3B47423BF84F3C00443C00493B60437F
:083CD0003C06553BEA463BEAC5
:103CD800453BEA473DA6503B4F2D3B532E3B762BA9
:103CE8003B57233B74203D8F2A3B0F4800003B6E17
:103CF8003F3F3F00790AA2D5202914302B09B9107B
:103D0800020404B9080104A2D5202C0250010420A1
:103D180028689228B511005034C0E07F2030291956
:103D28007F30A228722C722B500F123D55C228C228
:103D38002CC22BC22E7F30800F302B03E9C0E0123B
:103D48003AA3302B03D0E0F9D0E0B511CC302B17D3
:103D58007F30B9100C123AA37F58302A077F788039
:103D680003B90803123AA33028057F2D023AA37F2E
:103D780020202EF87F2B202CF322922880CF286E2B
:103D8800756C6C2900D227123A603027F8C2277860
:103D98001130D50108F6023B0F2D50434958123A0D
:103DA800602403B405004001E4903DA193123A94C5
:0D3DB800743A123A94D229751104023BF4BA
:10462600020026E493A3F8E493A34003F68001F284
:1046360008DFF48029E493A3F85407240CC8C33395
:10464600C4540F4420C8834004F456800146F6DF64
:10465600E4800B0102040810204080903F96E47E1F
:10466600019360BCA3FF543F30E509541FFEE49359
:10467600A360010ECF54C025E060A840B8E493A320
:10468600FAE493A3F8E493A3C8C582C8CAC583CA4B
:10469600F0A3C8C582C8CAC583CADFE9DEE780BE03
:01414100007D
:103F2500BB010689828A83E0225002E722BBFE029A
:093F3500E32289828A83E49322CD
:103F3E00BB010689828A83F0225002F722BBFE0162
:023F4E00F3225C
:103F5000F8E0FBA3A3E0F925F0F0E58215827002FA
:073F60001583E0FA38F0229E
:093F6700EBF0A3EAF0A3E9F0225B
:103F7000D083D082F8E4937012740193700DA3A3E0
:103F800093F8740193F5828883E4737402936860F4
:063F9000EFA3A3A380DFF4
:10499A00EFB40A07740D1249A5740A309811A89940
:1049AA00B8130CC2983098FDA899C298B811F6307D
:0749BA0099FDC299F5992255
:00000001FF
