:104393006C6C65676F20756172742079207365207A
:1043A3007472616E73666F726D6F000A00204163F1
:1043B3006365735363616E2076342E352000494E56
:1043C300484142494C49544144412E2E2E20004538
:1043D30052524F5220454E204C4F4F502E2E2E00FE
:1043E3005441524A45544120494E56414C49444157
:1043F300004E4F20524547495354524120504147A4
:104403004F005441522E2053494E20464F524D41A6
:10441300544F00444952494A4153452041204341A6
:104423004A412000466563686120486F72613A2003
:10443300202020200049445F434C49454E54453ACF
:1044430000434F445F5041524B3A00434F4D50415C
:10445300524143494F4E3A20202020002020204142
:104463006464723A20202020202020200020534919
:104473004E2052455350554553544120200020505F
:104483004C414341204E4F20494755414C20002089
:10449300454E5649414E444F204441544F5320000A
:1040CD005101114552524F523A20204C4F4F502022
:1040DD00312020005100472046554552412044458E
:1040ED00204C494E454120005100C3204552524FAE
:1040FD0052204D4946415245202020005101B745DF
:10410D0052524F5220434F442E20504152512E00B7
:10411D00510011202053494E20494E475245534FCF
:10412D00202020005100B24E4F2052454749535494
:10413D005241205041474F0051005E455843454480
:10414D004520542E475241434941200051019920A9
:10415D0041434345534F204E454741444F20200096
:10416D0051002520202053494E2053414C494441B4
:10417D00202020005100FE4552524F5220475241FF
:10418D00424143494F4E2000510080414345525119
:10419D005545534520412043414A410051006F533D
:1041AD00455249453A202020202020202020200063
:1041BD00510036434F4D504152414E444F20504CCB
:1041CD00414341005100005441524A45544120564B
:1041DD00454E4349444120004100D4004100F43193
:1041ED004201FD00004201DD00004101DC00410102
:1041FD002500410202004100D5004101E0004100CF
:10420D00F7004101AC004101AB054100FA0042014C
:10421D00FF0000C10FC102C101C123C115C116C1EB
:10422D0018C119C11AC11BC11EC122C124C125C18A
:10423D0008C111C121C184C106C105C112C10AC184
:10424D009FC11CC10CC107C100C10BC109C18EC1E9
:03425D0020C1106D
:104C7200C2B6124C85124C85124C85D2B6124C85A6
:034C8200024C855C
:0846290074B69000D6F07F0189
:05463100900262EFF0B1
:10463600D2B6C226C2B5900264123F4200000FA055
:1046460030B445202642900264E0FCA3E0FDA3E0DE
:10465600FEA3E0FFEF24FFFFEE34FFFEED34FFFD87
:10466600EC34FFFC900264123F36900264E0FCA337
:10467600E0FDA3E0FEA3E0FFEC4D4E4F70C2D22654
:10468600D2B6D2B4D2B580B8202629E4900263F01F
:10469600900262E0FFA3E0FEC39F501874D62EF589
:1046A60082E43400F583E0F5A0124C72900263E0D8
:1046B60004F080DCD2B6D2B520260C124C60124C27
:0946C60060124C60124C60A22647
:0146CF0022C8
:1047FA0090025FE02402F09000FBE024D0FF9002D8
:07480A005FE0FD3395E0FCC7
:08481100900261ECF0A3EDF050
:10481900E4A3F0A3F0FEFDFCEFC3946474809480DC
:104829004007749C2FFF0E80EFEFC3940A748094A5
:1048390080400774F62FFF0D80EFAC07ED4430FF81
:10484900900261E0FAA3E0FB2463F58274013AF572
:1048590083EFF0EC4430FF74642BF58274013AF570
:0348690083EFF0EA
:01486C002229
:104B4300301804D2808002C280301904D2818002DE
:104B5300C281301A04D2828002C282301B03D28304
:044B630022C28322C5
:10427900E4900263F0D2B5900124F030B403024314
:1042890090900262F0C2B5A3F0900263E0C3941E5D
:1042990074809480400302439090025E123F420072
:1042A90000003C30B64A20B447900262E070419069
:1042B900025EE0FCA3E0FDA3E0FEA3E0FFEF24FF24
:1042C900FFEE34FFFEED34FFFDEC34FFFC90025E9F
:1042D900123F3690025EE0FCA3E0FDA3E0FEA3E0FE
:1042E900FFEC4D4E4F70BCA304F0A3741FF080B3D4
:1042F90030B60302437E900262E0707920B476A35F
:10430900E024D6F582E43400F583E5A0F090012499
:10431900E004F090025E123F420000002320B655EF
:10432900900262E0704FA3E024D6F582E43400F5F0
:1043390083E5A0F090025EE0FCA3E0FDA3E0FEA30C
:10434900E0FFEF24FFFFEE34FFFEED34FFFDEC3418
:10435900FFFC90025E123F3690025EE0FCA3E0FD96
:10436900A3E0FEA3E0FFEC4D4E4F70B1A304F0A310
:10437900741FF080A830B406900263741FF0900295
:0943890063E004F0024292D2B597
:014392002208
:0549FB0090025EEFF0E8
:104A00007E0054F0FFEEC4F854F0C868FEEFC454C2
:104A10000F484430FF124BEC90025EE07E00540FD2
:064A20004430FF024BECE4
:1044A3009000D67402F0EF24FE600B04700E9000AF
:1044B300D77456F080069000D7744FF09002617461
:1044C30015F0900261E0D39425748094805021E02C
:1044D300FF2427F582E43401F583E0FE74C32FF54E
:1044E30082E43400F583EEF0900261E004F080D2C0
:1044F3009000E87403F030B43D7F131246319220EC
:10450300302072E4900261F0900261E0C39413746E
:104513008094805054E0FF24D6F582E43400F58380
:10452300E0FE74E92FF582E43401F583EEF09002A6
:1045330061E004F080D2E4900261F0900261E0C394
:104543009413748094805021E0FF24D6F582E434E0
:1045530000F583E0FE74E92FF582E43401F583EE80
:10456300F0900261E004F080D29001DC7413F090CB
:0545730000FA741CF0C9
:014578002220
:104ACD00900261EFF030B40BE012462B92203020B3
:104ADD001680009001DC7401F0900261E09001E914
:084AED00F09000FA742AF02297
:10221E00E4900260F0900125E024F97003022EC9CB
:10222E002404600302360C900202E0701B7F04123D
:10223E004CA0E4900125F020B7030236119000D691
:10224E0074AAF07F01024631900202E0540164014B
:10225E0060030228F0200C0302271690025FF0E0C4
:10226E00FF04F0EF3395E0FE74632FF58274013EA8
:10227E00F5837402F090025FE0FF04200D15F0EF7D
:10228E003395E0FE74632FF58274013EF58374611D
:10229E00F08013F0EF3395E0FE74632FF582740136
:1022AE003EF5837443F0E490025EF09000F7E0FF99
:1022BE0090025EE0FDFB3395E0FAC3EB9F7480F86D
:1022CE006A985033EDFF3395E0FE74C82FF5827493
:1022DE00013EF583E0FF90025FE0FE04F0EEFD3379
:1022EE0095E0FC74632DF58274013CF583EFF0905C
:1022FE00025EE004F080B490025FE0FF04F0EF3382
:10230E0095E0FE74632FF58274013EF583742CF014
:10231E00300720900022E0FF90025FE0FE04F0EE16
:10232E00FD3395E0FC74632DF58274013CF583EF6B
:10233E00F0801990025FE0FF04F0EF3395E0FE7439
:10234E00632FF58274013EF5837430F0200E030284
:10235E0024329000FCE0FFB4481890025FE0FE04C7
:10236E00F0EEFD3395E0FC74632DF58274013C02B2
:10237E002490EFB4541790025FE0FF04F0EF339512
:10238E00E0FE74632FF58274013E0224909000FCEF
:10239E00E0FFB44D1890025FE0FE04F0EEFD3395C1
:1023AE00E0FC74632DF58274013C022475EFB44396
:1023BE001790025FE0FF04F0EF3395E0FE74632F99
:1023CE00F58274013E02249030084320972A900231
:1023DE005FE0FF0420B711F0EF3395E0FE74632F3A
:1023EE00F58274013E022490F0EF3395E0FE7463A3
:1023FE002FF58274013E806F90025FE0FF04F0EFD4
:10240E003395E0FE74632FF58274013E805990027D
:10241E005FE0FF04F0EF3395E0FE74632FF58274F6
:10242E00013E805E30084720972990025FE0FF044E
:10243E0020B710F0EF3395E0FE74632FF582740130
:10244E003E803FF0EF3395E0FE74632FF58274010A
:10245E003E801490025FE0FF04F0EF3395E0FE74CF
:10246E00632FF58274013EF5837431F0801990026A
:10247E005FE0FF04F0EF3395E0FE74632FF5827496
:10248E00013EF5837430F090025FE0FF04F0EF330D
:10249E0095E0FE74632FF58274013EF583742CF083
:1024AE009001221248041247FA90025FE02402F0D3
:1024BE0090019512480490025FE02402F09001967C
:1024CE0012480490025FE02402F090010F124804BB
:1024DE0090025FE02402F0300D030226F6E0FF04C6
:1024EE00F0EF3395E0FE74632FF58274013EF583B1
:1024FE00742CF030077390012312480490025FE0B1
:10250E002402F09000FD12480490025FE02402F0D5
:10251E0090019712480490025FE02402F090019817
:10252E0012480490025FE02402F090011012480459
:10253E0090025FE02402F0E0FF04F0EF3395E0FE3E
:10254E0074632FF58274013EF583742CF090025F54
:10255E00E0FF04F0EF3395E0FE74632FF582740113
:10256E003EF5837420F00226DB90025FE0FF04F05C
:10257E00EF3395E0FE74632FF58274013EF583749C
:10258E0030F090025FE0FF04F0EF3395E0FE7463ED
:10259E002FF58274013EF5837430F090025FE0FFF8
:1025AE0004F0EF3395E0FE74632FF58274013EF56F
:1025BE00837430F090025FE0FF04F0EF3395E0FE9D
:1025CE0074632FF58274013EF5837430F090025FD0
:1025DE00E0FF04F0EF3395E0FE74632FF582740193
:1025EE003EF5837430F090025FE0FF04F0EF339518
:1025FE00E0FE74632FF58274013EF5837430F09023
:10260E00025FE0FF04F0EF3395E0FE74632FF58276
:10261E0074013EF5837430F090025FE0FF04F0EF3A
:10262E003395E0FE74632FF58274013EF5837430AA
:10263E00F090025FE0FF04F0EF3395E0FE74632F3D
:10264E00F58274013EF5837430F090025FE0FF0472
:10265E00F0EF3395E0FE74632FF58274013EF5833F
:10266E007430F090025FE0FF04F0EF3395E0FE74FB
:10267E00632FF58274013EF583742CF0E490025EB4
:10268E00F09001ACE0FF90025EE0FDFB3395E0FAC6
:10269E00C3EB9F7480F86A985033EDFF3395E0FEDC
:1026AE0074AD2FF58274013EF583E0FF90025FE07A
:1026BE00FE04F0EEFD3395E0FC74632DF58274019B
:1026CE003CF583EFF090025EE004F080B490025F80
:1026DE00E0FF04F0EF3395E0FE74632FF582740192
:1026EE003EF583742CF0800090025FE0FF04F0EF63
:1026FE003395E0FE74632FF58274013EF583740307
:10270E00F090025FE00228E99001637402F09001FC
:10271E0026E0FF7010900164200D057441F0800AD0
:10272E007443F08005900164EFF0900091E0900208
:10273E005FF0E490025EF0900091E0FF90025EE0A8
:10274E00FD3395E0FCC3ED9F7480F86C985026E045
:10275E00FF3395E0FE74C82FF58274013EF583E0D9
:10276E00FF74652DF58274013CF583EFF090025EE7
:10277E00E004F080C290025FE0FF3395E0FE7465E6
:10278E002FF58274013EF583742CF03024139000E3
:10279E0022E0FD74662FF58274013EF583EDF08024
:1027AE001690025FE0FF3395E0FE74662FF582749B
:1027BE00013EF5837430F03004679000FCE0FFB406
:1027CE0048089000F87404F08039EFB45408900073
:1027DE00F87403F0802DEFB442089000F87402F004
:1027EE008021EFB44D02800EEFB44302801030080A
:1027FE000D20970280089000F87401F08005E49097
:10280E0000F8F09000F8E02430FF90025FE0FD3316
:10281E0095E0FC74672DF58274013CF583EFF08032
:10282E003630081D90025FE0FF3395E0FE74672F8F
:10283E002097028018F58274013EF5837431F08082
:10284E001690025FE0FF3395E0FE74672FF58274F9
:10285E00013EF5837430F090025FE0FF300D673378
:10286E0095E0FE74682FF58274013EF583742CF0AA
:10287E0090025FE02406F09001221248041247FAFB
:10288E0090025FE02402F090019512480490025FDE
:10289E00E02402F090019612480490025FE02402B8
:1028AE00F090010F12480490025FE02402F0E0FF66
:1028BE00FD3395E0FC74632DF58274013CF5837451
:1028CE0003F0EF048015FD3395E0FC74682DF5825E
:1028DE0074013CF5837403F0EF2406FF124B830260
:1028EE00360C900202E0540264026003022EB4D24F
:1028FE00119000F9741CF0E4F58CF58AC28D300548
:10290E0003022B62200B03022AEE9001637402F085
:10291E00A37477F090029FE0FDC4540F2430900111
:10292E0065F0ED540F2430A3F09002A0E0FDC454E6
:10293E000F2430900167F0ED540F2430A3F0900275
:10294E00A1E0FDC4540F2430900169F0ED540F2422
:10295E0030A3F0A3742CF0A37430F0300455900023
:10296E00FCE0FFB448089000F87404F08039EFB42E
:10297E0054089000F87403F0802DEFB442089000D4
:10298E00F87402F08021EFB44D02800EEFB44302D2
:10299E00801030080D20970280089000F87401F026
:1029AE008005E49000F8F09000F8E0243090016D7E
:1029BE00F0801630080D90016D209702800874315A
:1029CE00F0800690016D7430F090016E742CF090D2
:1029DE000122E024D0FF7D0C7C001248119000FBF8
:1029EE00E024D0FF7D0E7C00124811900195E0246A
:1029FE00D0FF7D107C00124811900196E024D0FF8C
:102A0E007D127C0012481190010FE024D0FF7D143E
:102A1E007C00124811900179742CF0900123E0246F
:102A2E00D0FF7D177C001248119000FDE024D0FFEE
:102A3E007D197C00124811900197E024D0FF7D1B78
:102A4E007C00124811900198E024D0FF7D1D7C007F
:102A5E00124811900110E024D0FF7D1F7C00124817
:102A6E00119000F57421F0E0FF04F074632FF582ED
:102A7E00E43401F583742CF0301C4EE490025EF0C9
:102A8E009000D5E0FF90025EE0FDFB3395E0FAC3C7
:102A9E00EB9F7480F86A984003022D24EDFF339566
:102AAE00E0FE74AD2FF58274013EF583E0FF9000D9
:102ABE00F5E0FE04F074632EF582E43401F583EF45
:102ACE00F090025EE004F080B79000F5E0FF04F0B5
:102ADE0074632FF582E43401F5837420F0022D2403
:102AEE009001637402F0A37442F090029FE0FDC463
:102AFE00540F2430900165F0ED540F2430A3F09064
:102B0E0002A0E0FDC4540F2430900167F0ED540F85
:102B1E002430A3F09002A1E0FDC4540F24309001A4
:102B2E0069F0ED540F2430A3F0A3742CF0A374308D
:102B3E00F030080F209704A3F0800E90016D7431D1
:102B4E00F0800690016D7430F090016E7403F07F8A
:102B5E000C022EAE9001637402F0A37477F0900213
:102B6E009FE0FDC4540F2430900165F0ED540F2406
:102B7E0030A3F09002A0E0FDC4540F243090016702
:102B8E00F0ED540F2430A3F09002A1E0FDC4540FD9
:102B9E002430900169F0ED540F2430A3F0A3742C6F
:102BAE00F0A37430F03004559000FCE0FFB44808F8
:102BBE009000F87404F08039EFB454089000F87463
:102BCE0003F0802DEFB442089000F87402F08021DB
:102BDE00EFB44D02800EEFB44302801030080D208A
:102BEE00970280089000F87401F08005E49000F8D8
:102BFE00F09000F8E0243090016DF0801630080D52
:102C0E0090016D20970280087431F0800690016D5E
:102C1E007430F090016E742CF0900122E024D0FFFD
:102C2E007D0C7C001248119000FBE024D0FF7D0E3D
:102C3E007C00124811900195E024D0FF7D107C009D
:102C4E00124811900196E024D0FF7D127C001248AC
:102C5E001190010FE024D0FF7D147C00124811204A
:102C6E001203022D98900179742CF0900123E02428
:102C7E00D0FF7D177C001248119000FDE024D0FF9C
:102C8E007D197C00124811900197E024D0FF7D1B26
:102C9E007C00124811900198E024D0FF7D1D7C002D
:102CAE00124811900110E024D0FF7D1F7C001248C5
:102CBE00119000F57421F0E0FF04F074632FF5829B
:102CCE00E43401F583742CF0301C7BE490025EF04A
:102CDE009000D5E0FF90025EE0FDFB3395E0FAC375
:102CEE00EB9F7480F86A98502DEDFF3395E0FE74DB
:102CFE00AD2FF58274013EF583E0FF9000F5E0FE06
:102D0E0004F074632EF582E43401F583EFF0900243
:102D1E005EE004F080BA9000F5E0FF04F074632FDB
:102D2E00F582E43401F583742CF09000F5E0FF0495
:102D3E00F074632FF582E43401F5837403F0900090
:102D4E00F5E0FF022EAE9000F5E0FF04F074632F65
:102D5E00F582E43401F5837420F09000F5E0FF0471
:102D6E00F074632FF582E43401F583742CF0900037
:102D7E00F5E0FF04F074632FF582E43401F58374FB
:102D8E0003F09000F5E0FF022EAE900179742CF066
:102D9E007D177C00E4FF1248117D197C00E4FF12C0
:102DAE0048117D1B7C00E4FF1248117D1D7C00E460
:102DBE00FF1248117D1F7C00E4FF1248119000F5B0
:102DCE007421F0E0FF04F074632FF582E43401F512
:102DDE0083742CF0201C03022E6DC21CE490025E44
:102DEE00F09000D5E024FFFFE434FFFE90025EE099
:102DFE00FDFB3395E0FAC3EB9FEE6480F8EA648046
:102E0E0098502DEDFF3395E0FE74AD2FF5827401D1
:102E1E003EF583E0FF9000F5E0FE04F074632EF5BE
:102E2E0082E43401F583EFF090025EE004F080B1AD
:102E3E009000F5E0FF04F074632FF582E43401F5A1
:102E4E0083742CF09000F5E0FF04F074632FF5828C
:102E5E00E43401F5837403F09000F5E0FF804190B7
:102E6E0000F5E0FF04F074632FF582E43401F5837E
:102E7E007420F09000F5E0FF04F074632FF582E407
:102E8E003401F583742CF09000F5E0FF04F07463C8
:102E9E002FF582E43401F5837403F09000F5E0FF22
:102EAE00124B8302360C900202E0FF54046404605D
:102EBE0003023611EF54FBF002360C9000D4E024DE
:102ECE0092F582E43400F583E4F030064CC20690AD
:102EDE00025EF09000D4E0FFFD90025EE0FEFB3358
:102EEE0095E0FAC3EB9D7480F86A985026EEFD3398
:102EFE0095E0FC74922DF58274003CF583E0FE742F
:102F0E00D62DF58274003CF583EEF090025EE0045F
:102F1E00F080C012463102300C9000D4E06419608B
:102F2E00030230169000F4E0FF900093E06F600310
:102F3E00023016A3E06448600302301612486DE4B6
:102F4E0090025EF09000D4E0FF90025EE0FDFB3355
:102F5E0095E0FAC3EB9F7480F86A985040EDFF330A
:102F6E0095E0FE74922FF58274003EF583E0FC74BA
:102F7E00D62FF58274003EF583ECF0EDFF3395E02D
:102F8E00FE74922FF58274003EF583E0FF9002608E
:102F9E00E0FEEF6EF090025EE004F080A79002601B
:102FAE00E0FF9000D4E0FE24D6F582E43400F583F1
:102FBE00EFF074D72EF582E43400F583E4F07BFF56
:102FCE007A437993124A267BFF7A4379AE124A26C8
:102FDE007B017A0079D6124A2612492E9000D4E04F
:102FEE0004FF1246317F80124C327F53124BEC7F1E
:102FFE0059124BEC7F4E124BEC7F43124BECD21618
:10300E00E4900125F00236049000D4E0FF7E00C368
:10301E009406748094805003023604EF94077480F3
:10302E0094804011900128E0B4630A124631D21602
:10303E00E4900125F0900129E0FF64446025EF64DF
:10304E0041702030031D302108301117200B1480E1
:10305E0003200B0FD2959000F9742AF0E4F58CF54D
:10306E008AC28D201503023604C215900097E064C3
:10307E00417031A3E06443702BA3E064457025A337
:10308E00E06452701FA3E064517019A3E0B45514AC
:10309E00A3E0B4450FA3E0B4530AA3E0B445057F03
:1030AE00A1023568900097E064557045A3E0644E28
:1030BE00703FA3E064207039A3E0644D70337F0944
:1030CE00124ACD900202E054FEF054FDF0C21CC232
:1030DE000CC207C20DE4900126F0900023F0A3F07D
:1030EE009001E1F0A3F0C20B9000FC7420F00235C9
:1030FE006B900093E06458703CA3E064417036A37B
:10310E00E064587030A3E06458702AA3E0644770FE
:10311E0024A3E06452701EA3E064417018A3E0B4CF
:10312E004313A3E0B4490EA3E0B44109A3E0B453A2
:10313E00047F018054900093E064587052A3E064C1
:10314E0058704CA3E064587046A3E064587040A3D6
:10315E00E06442703AA3E064497034A3E0644570C1
:10316E002EA3E0644E7028A3E064567022A3E064A0
:10317E0045701CA3E0B44E17A3E0B44912A3E0B40B
:10318E00440DA3E0B44F087F021244A302356B90A6
:10319E000093E06458706DA3E064587067A3E06418
:1031AE00587061A3E06458705BA3E0644D7055A342
:1031BE00E06445704FA3E0644E7049A3E064537021
:1031CE0043A3E06455703DA3E064417037A3E0640F
:1031DE004C7031A3E06420702BA3E0644E7025A3E5
:1031EE00E0644F701FA3E064207019A3E0B445148F
:1031FE00A3E0B4530FA3E0B4540AA3E0B441057F97
:10320E00B2023568900093E06458706DA3E0645884
:10321E007067A3E064587061A3E06458705BA3E02C
:10322E00644D7055A3E06445704FA3E0644E704941
:10323E00A3E064537043A3E06455703DA3E0644182
:10324E007037A3E0644C7031A3E06420702BA3E0D0
:10325E0064597025A3E06441701FA3E064207019C7
:10326E00A3E0B44514A3E0B4530FA3E0B4540AA3EF
:10327E00E0B441057FB3023568900093E064587066
:10328E0079A3E064587073A3E06458706DA3E06492
:10329E00587067A3E0644D7061A3E06445705BA352
:1032AE00E0644E7055A3E06453704FA3E064557014
:1032BE0049A3E064417043A3E0644C703DA3E06415
:1032CE00207037A3E064467031A3E06455702BA3E1
:1032DE00E064457025A3E06452701FA3E064417062
:1032EE0019A3E0B42014A3E0B4440FA3E0B4450A3C
:1032FE00A3E0B452057FB4023568900093E06458A1
:10330E007079A3E064587073A3E06458706DA3E005
:10331E0064587067A3E0644D7061A3E06445705B10
:10332E00A3E0644E7055A3E06453704FA3E0645560
:10333E007049A3E064417043A3E0644C703DA3E088
:10334E0064207037A3E064467031A3E06455702B9F
:10335E00A3E064457025A3E06452701FA3E06441AE
:10336E007019A3E0B42014A3E0B4440FA3E0B44555
:10337E000AA3E0B448057FB5023568900093E06477
:10338E0058704FA3E064587049A3E064587043A38B
:10339E00E06458703DA3E0644E7037A3E0644F7054
:1033AE0031A3E06420702BA3E064457025A3E06494
:1033BE0053701FA3E064207019A3E0B44D14A3E072
:1033CE00B4450FA3E0B44E0AA3E0B453057FB10297
:1033DE003568900093E06458704FA3E064587049CC
:1033EE00A3E064587043A3E06458703DA3E0644EBC
:1033FE007037A3E0644F7031A3E06420702BA3E01C
:10340E0064527025A3E06445701FA3E064477019F1
:10341E00A3E0B44914A3E0B4530FA3E0B4540AA339
:10342E00E0B452057F04023568900093E064587052
:10343E004FA3E064587049A3E064587043A3E0645E
:10344E0058703DA3E0644C7037A3E0644F7031A315
:10345E00E06454702BA3E064457025A3E0642070F3
:10346E001FA3E064417019A3E0B45314A3E0B44960
:10347E000FA3E0B4470AA3E0B44E057F05023568FA
:10348E00900093E064587066A3E064587060A3E007
:10349E006458705AA3E064587054A3E0644D704EA3
:1034AE00A3E064457048A3E0644E7042A3E0645309
:1034BE00703CA3E064557036A3E064417030A3E025
:1034CE00644C702AA3E064207024A3E06445701E4F
:1034DE00A3E064587018A3E0B44313A3E0B4450E00
:1034EE00A3E0B44409A3E0B445047F07806C9000C8
:1034FE0093E064587067A3E064587061A3E0645869
:10350E00705BA3E064587055A3E0644D704FA3E068
:10351E0064457049A3E0644E7043A3E06453703D6C
:10352E00A3E064557037A3E064417031A3E0644CAE
:10353E00702BA3E064207025A3E0644E701FA3E0FF
:10354E00644F7019A3E0B42014A3E0B4500FA3E0AD
:10355E00B4410AA3E0B447057F08124ACD7F80121A
:10356E004C3290025E7405F090025EE0FFFD3395E2
:10357E00E0FCC3ED9415EC64809480502BEF3395F2
:10358E00E0FE74922FF58274003EF583E0640360D2
:10359E001774922FF58274003EF583E0FF124BEC08
:1035AE0090025EE004F080C07FC0124C3290025E4A
:1035BE007415F090025EE0FFFD3395E0FCD3ED94C0
:1035CE0026EC64809480502EEF3395E0FE74922F9B
:1035DE00F58274003EF583E06403601A201E0F74BA
:1035EE00922FF58274003EF583E0FF124BEC9002B1
:1035FE005EE004F080BDE4900125F0D21622E49046
:03360E000125F0A3
:013611002296
:1000260078037C027D017BFF7A44794E7E007F1146
:10003600123EE378147C027D017BFF7A44795F7E71
:10004600007F11123EE378257C027D017BFF7A4416
:1000560079707E007F11123EE378367C027D017B4B
:10006600FF7A4479817E007F11123EE378477C0255
:100076007D017BFF7A4479927E007F11123EE31266
:100086004BD312000612486DE58954F04401F589F8
:10009600C28DE4F58CF58AD28CC296C295C294D2F2
:1000A600B6D201900023F0A3F09001E1F0A3F09006
:1000B60000F6741EF09000F9741CF0C213C280C2E0
:1000C60018C281C219C282C21AC283C21BC20DE4FF
:1000D600900126F0C205C20CC2079000FAF090010A
:1000E600DDF0A3F0C2009001FDF0A3F0C210C21D26
:1000F600D203D208D20ED221D204A3F0A3F0C209B1
:100106007BFF7A4379B0FDFF1200167FC0124C3296
:100116007B017A027914124A50124A7AD2B5D2B6C3
:1001260075A0FF90025DE5A0F09002C8E064016052
:100136000302041930B703020419201F030201FE4B
:100146009000F6741EF0124B6712499A301D5D90AE
:1001560001FDE07002A3E070519000D67402F0A396
:100166007457F090029FE0FF9000D8F09002A0E054
:10017600FE9000D9F09002A1E0FD9000DAF0A374A1
:1001860003F090005AEFF0A3EEF0A3EDF09000D448
:100196007406F0FF124631900202E054FDF0900121
:1001A600FD7402F0A37430F0806280599000D6741A
:1001B60002F0A37457F090029FE09000D8F09002EE
:1001C600A0E09000D9F09002A1E09000DAF0A374CC
:1001D60003F09000D47406F0FF12463190020274C8
:1001E60002F0C20B9001E1E4F0A37405F090012542
:1001F6007403F012221E80147BFF7A4379C1E4FD5A
:100206007F01120016900202E054FDF0200903025D
:10021600044090029FE0FF7E006476700CA3E064C9
:10022600D67006A3E0640B603DEF64244E700E901A
:1002360002A0E064547006A3E064E4607B90029F31
:10024600E06495700AA3E07006A3E064D560699047
:10025600029FE0FF7E00645F700FA3E064D7700921
:10026600A3E064847003020406EF64954E700C905C
:1002760002A0E07006A3E064F2603D90029FE06495
:1002860060700CA3E064407006A3E064946029905B
:10029600029FE0FF7E006495700AA3E07006A3E06B
:1002A60064F36014EF64374E70119002A0E0643678
:1002B6007009A3E06424700302040690029FE064C0
:1002C60095700CA3E064017006A3E06410603F9093
:1002D600029FE0FF7E00647F700CA3E064757006E9
:1002E600A3E064446028EF64954E700E9002A0E08F
:1002F60064017006A3E06411601490029FE0641725
:10030600700FA3E064EE7009A3E064247003020496
:100316000690029FE0FF7E006495700CA3E0644F98
:100326007006A3E064D7603FEF64674E700E9002DC
:10033600A0E064177006A3E064B4602B90029FE00F
:100346006494700CA3E064EA7006A3E06475601719
:1003560090029FE0FF7E00647C700FA3E064DE7075
:1003660009A3E064347003020406EF64944E700E31
:100376009002A0E064EB7006A3E06458602B900244
:100386009FE06417700CA3E064167006A3E064D4C3
:10039600601790029FE0FF7E00648F700EA3E064FA
:1003A600427008A3E064D670028055EF64954E70E3
:1003B6000E9002A0E0641D7006A3E064BC60149079
:1003C600029FE06426700EA3E064127008A3E06446
:1003D600847002802B90029FE0FF7E006482700C86
:1003E600A3E064887006A3E064146014EF64514EC1
:1003F60070489002A0E064C17040A3E06414703AB3
:10040600D296D2959000F9742AF0E4F58CF58AC25A
:100416008D80279002C8E06401701F124B67124955
:100426009A7F06124ACD7BFF7A4379D2E4FD7F019B
:10043600120016900202E054FDF030B403021FD100
:100446009000D674FFF0A3F0124279900124E07078
:1004560003021FD16401700A9000D6E064067002A0
:10046600D21F900124E0640160030207969000D633
:10047600E0FF7E00C394DF748094805003020796E9
:10048600D3EF94EF74809480400302079612486D70
:100496009000D6E0FF64E2600AEF64E36005EF6473
:1004A600E4703A7FC0124C32E4900258F090025841
:1004B600E024C3F582E43400F583E0FF600B124BC1
:1004C600EC900258E004F080E47FCE124C329000AB
:1004D600D6E0540F2430FF124BEC0207849000D66E
:1004E600E064E070297FC0124C32E4900258F0902C
:1004F6000258E02411F582E43401F583E0FF70032D
:10050600020784124BEC900258E004F080E1900060
:10051600D6E064E1700F7BFF7A4379E3FD7F011239
:1005260000160207849000D6E064E570297FC012A9
:100536004C32E4900258F0900258E024B7F582E479
:100546003401F583E0FF7003020784124BEC90023E
:1005560058E004F080E19000D6E064E670297FC0A0
:10056600124C32E4900258F0900258E02411F582C1
:10057600E43400F583E0FF7003020784124BEC902D
:100586000258E004F080E19000D6E064E770187F3E
:10059600C0124C327BFF7A4379F4124A507F107EA8
:1005A60027124C480207849000D6E064E870297F41
:1005B600C0124C32E4900258F0900258E0245EF5E6
:1005C60082E43400F583E0FF7003020784124BECEB
:1005D600900258E004F080E19000D6E064E97029CA
:1005E6007FC0124C32E4900258F0900258E0242565
:1005F600F582E43400F583E0FF7003020784124BB2
:10060600EC900258E004F080E19000D6E064EA70D5
:10061600297FC0124C32E4900258F0900258E02430
:10062600FEF582E43400F583E0FF700302078412CE
:100636004BEC900258E004F080E19000D6E064EBC9
:1006460070297FC0124C32E4900258F0900258E0B4
:100656002480F582E43400F583E0FF70030207840A
:10066600124BEC900258E004F080E19000D6E06472
:10067600EC70297FC0124C32E4900258F090025878
:10068600E02400F582E43400F583E0FF70030207FE
:1006960084124BEC900258E004F080E19000D6E022
:1006A60064ED70297FC0124C32E4900258F090023B
:1006B60058E02425F582E43402F583E0FF70030256
:1006C6000784124BEC900258E004F080E19000D6CB
:1006D600E064EE70297FC0124C32E4900258F0902C
:1006E6000258E02436F582E43402F583E0FF700315
:1006F600020784124BEC900258E004F080E190006F
:10070600D6E064EF705F7FC0124C327F54124BEC20
:100716007F41124BEC7F52124BEC7F4A124BEC7F1F
:1007260045124BEC7F54124BEC7F41124BEC7F2071
:10073600124BEC7F41124BEC7F54124BEC7F411273
:100746004BEC7F53124BEC7F43124BEC7F41124B29
:10075600EC7F44124BEC7F41124BECD20A9000F92D
:10076600741CF080199000D6E064DF701112486D99
:100776007FC0124C327BFF7A447905124A50D21E52
:100786009000F9741CF0E4F58CF58AC28D021FD135
:10079600900124E0FF7E006401700E9000D6E064B4
:1007A600A07006D218D280803BEF64014E70219073
:1007B60000D6E064A17019D219D2819000F9741C98
:1007C600F07BFF7A447916E4FDFF120016021FD172
:1007D600900124E0640170159000D6E064A2700DCB
:1007E600D21AD2829000F9741CF0021FD190012413
:1007F600E0FF7E00640170159000D6E064A3700DE2
:10080600D21BD2839000F9742AF0021FD1EF640143
:100816004E70589000D6E064AF70507FC0124C32D4
:100826007F43124BEC7F4F124BEC7F4E124BEC7F0B
:1008360054124BEC7F2E124BEC7F20124BEC7F4573
:10084600124BEC7F56124BEC7F4E124BEC7F201274
:100856004BEC7F49124BEC7F4E124BEC7F49124B0F
:10086600EC7F43124BEC7F49020AAB900124E06413
:100876000170429000D6E0644E703AD2037F801237
:100886004C32E4900258F0900258E02403F582E4DA
:100896003402F583E0FF600B124BEC900258E00443
:1008A600F080E47F8D124C327F4E124BEC201D03FC
:1008B600021FD18048900124E06401704A9000D65E
:1008C600E064537042C2037F80124C32E4900258B7
:1008D600F0900258E02403F582E43402F583E0FF49
:1008E600600B124BEC900258E004F080E47F8D120E
:1008F6004C327F53124BEC201D03021FD17F201276
:100906004BEC7F4D021067900124E0640170329039
:1009160000D6E0B4502BC2037FC0124C32E49002E2
:1009260058F0900258E02436F582E43400F583E06E
:10093600FF7003021FD1124BEC900258E004F080C6
:10094600E1900124E0640170309000D6E0B44429BF
:100956007FC0124C32E4900258F0900258E02447CF
:10096600F582E43402F583E0FF7003021FD1124BD7
:10097600EC900258E004F080E1900124E0640170FC
:100986005D9000D6E064F170557FC0124C327F5501
:10099600124BEC7F4E124BEC7F20124BEC7F4D122C
:1009A6004BEC7F4F124BEC7F4D124BEC7F45124BBD
:1009B600EC7F4E124BEC7F54124BEC7F4F124BECFC
:1009C6007F2E124BEC7F2E124BEC7F2E124BEC7FC0
:1009D60020124BEC7F20124BEC7F20021067900117
:1009E60024E06401705D9000D6E064F370557FC02A
:1009F600124C327F50124BEC7F49124BEC7F431264
:100A06004BEC7F4F124BEC7F20124BEC7F59124B75
:100A1600EC7F20124BEC7F50124BEC7F4C124BECD0
:100A26007F41124BEC7F43124BEC7F41124BEC7F24
:100A36002E124BEC7F2E124BEC7F2E124BEC7F20AE
:100A4600021067900124E0640170629000D6E064B1
:100A5600F8705A7FC0124C327F56124BEC7F45120B
:100A66004BEC7F48124BEC7F49124BEC7F2E124B1E
:100A7600EC7F20124BEC7F49124BEC7F4E124BEC75
:100A86007F56124BEC7F41124BEC7F4C124BEC7FA6
:100A960049124BEC7F44124BEC7F4F124BEC7F2EEE
:100AA600124BEC7F2E124BEC7F2E02106790012426
:100AB600E06401705D9000D6E064F970557FC01265
:100AC6004C327F53124BEC7F41124BEC7F4C124B56
:100AD600EC7F49124BEC7F44124BEC7F41124BECFE
:100AE6007F20124BEC7F52124BEC7F45124BEC7F72
:100AF60043124BEC7F48124BEC7F41124BEC7F5A72
:100B0600124BEC7F41124BEC7F44124BEC7F4102BF
:100B16001067900124E06401705D9000D6E064FAED
:100B260070557FC0124C327F53124BEC7F49124BEB
:100B3600EC7F4E124BEC7F20124BEC7F54124BECA9
:100B46007F41124BEC7F52124BEC7F4A124BEC7FEB
:100B560045124BEC7F54124BEC7F41124BEC7F530A
:100B6600124BEC7F20124BEC7F20124BEC7F2012B5
:100B76004BEC7F20021067900124E06401705D90C9
:100B860000D6E064B570557FC0124C327F46124BDA
:100B9600EC7F55124BEC7F45124BEC7F52124BEC1F
:100BA6007F41124BEC7F20124BEC7F44124BEC7FC3
:100BB60045124BEC7F20124BEC7F48124BEC7F4FDB
:100BC600124BEC7F52124BEC7F41124BEC7F5212D0
:100BD6004BEC7F49124BEC7F4F021067900124E0EB
:100BE60064016003020CA29000D6E064B8600302C0
:100BF6000CA27F80124C327F20124BEC7F45124BA9
:100C0600EC7F4E124BEC7F54124BEC7F52124BECA6
:100C16007F41124BEC7F44124BEC7F41124BEC7F31
:100C260020124BEC7F46124BEC7F55124BEC7F4566
:100C3600124BEC7F52124BEC7F41124BEC7F201291
:100C46004BEC7F20124BEC7FC0124C327F44124B90
:100C5600EC7F45124BEC7F20124BEC7F48124BEC9D
:100C66007F4F124BEC7F52124BEC7F41124BEC7FC5
:100C760052124BEC7F49124BEC7F4F124BEC7F200C
:100C8600124BEC7F2D124BEC7F43124BEC7F411243
:100C96004BEC7F4A124BEC7F41021067900124E037
:100CA60064016003020D629000D6E064B96003023D
:100CB6000D627F80124C327F44124BEC7F49124BFF
:100CC600EC7F41124BEC7F20124BEC7F44124BEC35
:100CD6007F45124BEC7F20124BEC7F41124BEC7F91
:100CE60043124BEC7F43124BEC7F45124BEC7F5388
:100CF600124BEC7F4F124BEC7F20124BEC7F2012F5
:100D06004BEC7F20124BEC7FC0124C327F49124BCA
:100D1600EC7F4E124BEC7F56124BEC7F41124BECA4
:100D26007F4C124BEC7F49124BEC7F44124BEC7F0D
:100D36004F124BEC7F20124BEC7F20124BEC7F20A6
:100D4600124BEC7F20124BEC7F20124BEC7F2012D3
:100D56004BEC7F20124BEC7F20021067900124E0C1
:100D66006401705D9000D6E064FB70557FC0124C44
:100D7600327F45124BEC7F52124BEC7F52124BECFA
:100D86007F4F124BEC7F52124BEC7F20124BEC7FC5
:100D960054124BEC7F52124BEC7F41124BEC7F4EC0
:100DA600124BEC7F53124BEC7F50124BEC7F4F12E1
:100DB6004BEC7F52124BEC7F54124BEC7F450210EA
:100DC60067900124E06401705D9000D6E064FC70D9
:100DD600557FC0124C327F4E124BEC7F4F124BECBC
:100DE6007F20124BEC7F45124BEC7F53124BEC7F6E
:100DF60020124BEC7F4D124BEC7F45124BEC7F4E95
:100E0600124BEC7F53124BEC7F55124BEC7F411289
:100E16004BEC7F4C124BEC7F2E124BEC7F2E124B81
:100E2600EC7F2E021067900124E06401705D900053
:100E3600D6E064FD70557FC0124C327F4E124BECEB
:100E46007F4F124BEC7F20124BEC7F45124BEC7F11
:100E560053124BEC7F20124BEC7F44124BEC7F4538
:100E6600124BEC7F20124BEC7F52124BEC7F4F1251
:100E76004BEC7F54124BEC7F41124BEC7F43124BF1
:100E8600EC7F49124BEC7F4F021067900124E0641F
:100E960001705D9000D6E064FE70557FC0124C3242
:100EA6007F42124BEC7F49124BEC7F45124BEC7F95
:100EB6004E124BEC7F56124BEC7F45124BEC7F4E9D
:100EC600124BEC7F49124BEC7F44124BEC7F4F12D6
:100ED6004BEC7F20124BEC7F20124BEC7F20124B09
:100EE600EC7F20124BEC7F20124BEC7F2002106728
:100EF600900124E06401705C9000D6E0F470557FA8
:100F060080124C327F47124BEC7F52124BEC7F41E2
:100F1600124BEC7F43124BEC7F49124BEC7F411294
:100F26004BEC7F53124BEC7F2E124BEC7F2E124B69
:100F3600EC7F2E124BEC7F20124BEC7F20124BECF9
:100F46007F20124BEC7F20124BEC7F20124BEC7F64
:100F5600200210679000D6E06402600302106DA3C1
:100F6600E06469600302106D12486D7BFF7A447974
:100F760027E4FDFF1200167FC0124C329000D8E025
:100F8600FF1249FB7F2F124BEC9000D9E0FF12496C
:100F9600FB7F2F124BEC9000DAE0FF1249FB7F201B
:100FA600124BEC9000DBE0FF1249FB7F3A124BEC50
:100FB6009000DCE0FF1249FB9000DDE0FF1249FBE8
:100FC6007F8C124C329000DEE06401700F7F441279
:100FD6004BEC7F6F124BEC7F6D0210679000DEE0EA
:100FE6006402700E7F4C124BEC7F75124BEC7F6ED9
:100FF600806F9000DEE06403700E7F4D124BEC7F35
:1010060061124BEC7F7280599000DEE06404700E32
:101016007F4D124BEC7F69124BEC7F65804390004D
:10102600DEE06405700E7F4A124BEC7F75124BECC6
:101036007F65802D9000DEE06406700E7F56124BB1
:10104600EC7F69124BEC7F6580179000DEE0640749
:101056006003021FD17F53124BEC7F61124BEC7F72
:1010660062124BEC021FD19000D6E06402600302CC
:10107600112BA3E06449600302112B7F80124C32CE
:10108600E4900258F0900258E0246FF582E43400B0
:10109600F583E0FF600B124BEC900258E004F08001
:1010A600E4900124E024FE90025DF07FC0124C32F1
:1010B600E49001E3F0900258F090025DE0FF9002A8
:1010C60058E0FEC39F503774D82EF582E43400F5FD
:1010D60083E064037008EF04900258F080189002D1
:1010E60058E024D8F582E43400F583E0FF124BEC97
:1010F6009001E3E004F0900258E004F080BBE49035
:101106000258F09001E3E0FFC374109FFF9002586D
:10111600E0C39F4003021FD17F20124BEC90025880
:10112600E004F080DE9000D6E0640260030211C79E
:10113600A3E0644460030211C712486D7F80124C1D
:10114600327BFF7A447938124A509002587402F082
:10115600900258E0FF24D6F582E43400F583E0647B
:101166003B601774D62FF582E43400F583E0FF1256
:101176004BEC900258E004F080D67FC0124C3290BF
:101186000258E004F07BFF7A447944124A509002F8
:10119600597402F0900258E0FF24D6F582E4340038
:1011A600F583E0643B7003021FD174D62FF582E409
:1011B6003400F583E0FF124BEC900258E004F08017
:1011C600D39000D6E064026003021271A3E0645774
:1011D6006003021271900124E0FF24D5F582E43405
:1011E60000F583E064036003021271EF6412707B02
:1011F6009001FDF0A3F0C205D20B9000DAE0900258
:101206009FF09000D9E09002A0F09000D8E0900204
:10121600A1F09000DCE0900122F09000DDE090006B
:10122600FBF09000DEE0900195F09000DFE0900189
:1012360096F09000E0E090010FF09000E1E0900160
:1012460023F09000E2E09000FDF09000E3E09001D2
:1012560097F09000E4E0900198F09000E5E09001AE
:1012660010F09000E6E09000FC80329000D6E0FDA1
:101276007C006402703BA3E0645770359001FDF07A
:10128600A3F0C205C20B9000DAE090029FF0900036
:10129600D9E09002A0F09000D8E09002A1F0900270
:1012A60002E04402F09001E1E4F0A37405F0021FAD
:1012B600D1ED64024C70479000D7E0644D703F90CA
:1012C60001FDF0A3F01246D0C2059000DAE09002CC
:1012D6009FF09000D9E09002A0F09000D8E0900234
:1012E600A1F0900202E04402F09001E1E4F0A37460
:1012F60005F09001DDE4F0A3748CF0021FD190009C
:10130600D6E064026003021480A3E06477600302FF
:101316001480900124E0FF24D5F582E43400F5839F
:10132600E0640360030214809001FDF0A3F0D2058F
:10133600C212C21C9000DAE090029FF09000D9E041
:101346009002A0F09000D8E09002A1F09000DCE0BE
:10135600900122F09000DDE09000FBF09000DEE0CE
:10136600900195F09000DFE0900196F09000E0E0AB
:1013760090010FF07E00EF641270379000E1E0906C
:101386000123F09000E2E09000FDF09000E3E09091
:101396000197F09000E4E0900198F09000E5E0906D
:1013A6000110F09000E6E09000FCF0D212C21C02A0
:1013B600146DD3EF9412EE6480948050030214638C
:1013C6009000E1E0900123F09000E2E09000FDF053
:1013D6009000E3E0900197F09000E4E0900198F02F
:1013E6009000E5E0900110F0900124E024D4F5820D
:1013F600E43400F583E09000FCF0D212D21CE490B5
:1014060000D5F09001E0740AF09002587410F09044
:101416000124E0FF24FEFE900258E0FDC39E5047E3
:1014260074D62DF582E43400F583E0640390025807
:101436006021E0FE24D6F582E43400F583E0FD74F5
:101446009D2EF582E43401F583EDF09000D5E0049D
:10145600F08002EFF0900258E004F080B29000E1D4
:10146600E09000FCF0C212900202E04402F090010B
:10147600E1E4F0A3740AF0021FD19000D6E0640202
:1014860060030215F9A3E0FF64506017EF6454602F
:1014960012EF6456600DEF64456008EF6447600321
:1014A6000215F9E49001FDF0A3F0900126EFF0900B
:1014B6000124E0900091F0124B9FC20DC2247F8060
:1014C600124C329002587403F0900091E0FF9002A3
:1014D60058E0FEC39F400302156474D62EF582E4DD
:1014E6003400F583E0C39430401074D62EF582E4C0
:1014F6003400F583E0D39439403D74D62EF582E46A
:101506003400F583E0C39441401074D62EF582E48E
:101516003400F583E0D3945A401D74D62EF582E448
:101526003400F583E0642D600E74D62EF582E43423
:1015360000F583E0B42E04D2258008C225EF04907E
:101546000258F0900258E024D6F582E43400F58380
:10155600E0FF124BEC900258E004F00214CF202575
:1015660003021FC2E4900259F09000FCF09002586A
:10157600F0900091E0FF900258E0FEC39F502A745D
:10158600D62EF582E43400F583E0B42E1474D72EFB
:10159600F582E43400F583E09000FCF0900258EF09
:1015A600F0900258E004F080C89000FCE0600790DC
:1015B6000091E024FBF0900202E04401F0E4900286
:1015C60058F0900091E0FF900258E0FEC39F400360
:1015D600021FC274D92EF582E43400F583E0FF744D
:1015E600C82EF582E43401F583EFF0900258E0044A
:1015F600F080CF9000D6E064026003021755A3E0A6
:1016060064616003021755900124E024D5F582E455
:101616003400F583E0640360030217559001FDF082
:10162600A3F0D20CC2079000F7F09002587402F0B3
:10163600900124E0FC900258E0FEC39C502174D631
:101646002EF582E43400F583E0B42D0BEE04900110
:10165600AAF0900258ECF0900258E004F080D19085
:1016660002587402F09001AAE014FF900258E0FEBE
:10167600C39F502674D62EF582E43400F583E0FF2E
:1016860074C62EF582E43401F583EFF09000F7E09E
:1016960004F0900258E004F080CB9001AAE0FF0429
:1016A600F074D62FF582E43400F583E0900122F041
:1016B6009001AAE0FF04F074D62FF582E43400F519
:1016C60083E09000FBF09001AAE0FF04F074D62FAF
:1016D600F582E43400F583E0900195F09001AAE0EC
:1016E600FF04F074D62FF582E43400F583E0900110
:1016F60096F09001AAE0FF04F074D62FF582E43448
:1017060000F583E090010FF0E49001ACF09001AA9F
:10171600E004900258F0900124E014FF900258E093
:10172600FEC39F4003021B2574D62EF582E43400C7
:10173600F583E0FF9001ACE0FE04F074AD2EF58277
:10174600E43401F583EFF0900258E004F080C7908E
:1017560000D6E064026003021957900124E024D504
:10176600F582E43400F583E06403600302195790C0
:1017760000D7E0FF646D6017EF646E6012EF646F70
:10178600600DEF64416008EF64526003021957EF81
:10179600646E70499001FDF0A3F0C21D7F80124C6B
:1017A60032E4900258F0900258E02403F582E434C3
:1017B60002F583E0FF600B124BEC900258E004F058
:1017C60080E47F8D124C323003047F4E80027F53BB
:1017D600124BEC7F20124BEC7F4E0218D29000D7B2
:1017E600E0646D7043D21D7F80124C32E490025843
:1017F600F0900258E02403F582E43402F583E0FF1A
:10180600600B124BEC900258E004F080E47F8D12DE
:101816004C323003047F4E80027F53124BEC7F2004
:10182600124BEC7F4D0218D29000D7E0646F600334
:101836000218D7A3E064307048C21D9001FDF0A3E2
:10184600F07F80124C32E4900258F0900258E02467
:1018560003F582E43402F583E0FF600B124BEC9053
:101866000258E004F080E47F8D124C323003047F8E
:101876004E80027F53124BEC7F20124BEC7F6F8021
:101886004B9000D8E06431600302194ED21D7F8070
:10189600124C32E4900258F0900258E02403F5828C
:1018A600E43402F583E0FF600B124BEC900258E043
:1018B60004F080E47F8D124C323003047F4E8002A8
:1018C6007F53124BEC7F20124BEC7F4D124BEC807A
:1018D600779000D7E0FD6441703D9001FDE0700215
:1018E600A3E06064E49001FDF0A3F090005AE0905C
:1018F600029FF090005BE09002A0F090005CE09008
:1019060002A1F0900202E04402F09001E1E4F0A3AB
:101916007405F0C20B8031EDB4522DE49001FDF058
:10192600A3F07F80124C32E4900258F0900258E007
:101936002499F582E43401F583E0FF600B124BEC49
:10194600900258E004F080E49000D774FFF0021F84
:10195600D19000D6E064026003021B2FA3E0FF646F
:10196600736008EF64436003021B2F900124E02498
:10197600D5F582E43400F583E064036003021B2F8F
:101986009001FDF0A3F0D20CD2079000F7F0900082
:10199600D7E0B44304D20D8002C20D9002587402FF
:1019A600F0900124E0FC900258E0FEC39C502174A4
:1019B600D62EF582E43400F583E0B42D0BEE0490C8
:1019C6000058F0900258ECF0900258E004F080D1F4
:1019D600900058E024D6F582E43400F583E09000C8
:1019E60022F09002587402F0900058E0FF14FE9026
:1019F6000258E0FDC39E502674D62DF582E43400CD
:101A0600F583E0FE74C62DF582E43401F583EEF02D
:101A16009000F7E004F0900258E004F080CAEF244A
:101A2600029001AAF0E0FF04F074D62FF582E434A8
:101A360000F583E0900122F09001AAE0FF04F07423
:101A4600D62FF582E43400F583E09000FBF0900198
:101A5600AAE0FF04F074D62FF582E43400F583E0A3
:101A6600900195F09001AAE0FF04F074D62FF5825C
:101A7600E43400F583E0900196F09001AAE0FF04BB
:101A8600F074D62FF582E43400F583E090010FF070
:101A96009001AAE004F0E0FF04F074D62FF582E48A
:101AA6003400F583E0900123F09001AAE0FF04F0F2
:101AB60074D62FF582E43400F583E09000FDF090B3
:101AC60001AAE0FF04F074D62FF582E43400F58312
:101AD600E0900197F09001AAE0FF04F074D62FF58C
:101AE60082E43400F583E0900198F09001AAE0FFCB
:101AF60004F074D62FF582E43400F583E0900110EB
:101B0600F09001AAE004F0E0FF04F074D62FF5820D
:101B1600E43400F583E09000FCF0E49001ACF09032
:101B26000202E04401F0021FC29000D6E0640260A7
:101B360003021BEFA3E064646003021BEF90012421
:101B4600E0FF24D5F582E43400F583E06403600306
:101B5600021BEFEF64096003021BEF124B9F7F80AD
:101B6600124C327F53124BEC7F61124BEC7F6C129E
:101B76004BEC7F64124BEC7F6F124BEC7F20124BC9
:101B8600EC7F44124BEC7F69124BEC7F73124BECEB
:101B96007F70124BEC7F6F124BEC7F6E124BEC7F1B
:101BA60069124BEC7F62124BEC7F6C124BEC7F653B
:101BB600124BEC124BB97FC0124C32900258740291
:101BC600F0900258E0FFC3940874809480400302AA
:101BD6001FD174D62FF582E43400F583E0FF124B53
:101BE600EC900258E004F080D8900124E090009137
:101BF600F0124B9FE49000FCF0900258F090009198
:101C0600E0FF900258E0FEC39F502A74D62EF5825C
:101C1600E43400F583E0B42E1474D72EF582E43450
:101C260000F583E09000FCF0900258EFF090025827
:101C3600E004F080C89000FCE06007900091E0248A
:101C4600FEF0C20DC224E4900259F0900258F090C2
:101C56000091E0FB900258E0FEC39B502A74D62EFA
:101C6600F582E43400F583E0B42D14900258A3E025
:101C7600FD04F0745B2DF582E43402F583EEF090FA
:101C86000258E004F080C8900259E0600B90025BB5
:101C9600E00490025AF0800590025AEBF07F801221
:101CA6004C32E4900258F090025AE0FF900258E05D
:101CB600FEC39F4003021D4274D62EF582E4340013
:101CC600F583E0C39430401074D62EF582E43400D8
:101CD600F583E0D39439403D74D62EF582E4340082
:101CE600F583E0C39441401074D62EF582E43400A7
:101CF600F583E0D3945A401D74D62EF582E4340061
:101D0600F583E0642D600E74D62EF582E43400F57A
:101D160083E0B42E04D2258008C225EF0490025831
:101D2600F0900258E024D6F582E43400F583E0FF13
:101D3600124BEC900258E004F0021CAD2025030281
:101D46001FD1E49001FDF0A3F0900202E04401F0FF
:101D5600900259E07003021F8B64016003021ECAE1
:101D6600900091E024FFFFE434FFFE90025BE0FD6B
:101D7600C3EF9DFFEE9400FEEF64014E705A900291
:101D860058F0900091E0FF900258E0FEC39F50206B
:101D960074D62EF582E43400F583E0FD74C82EF582
:101DA60082E43401F583EDF0900258E004F080D22D
:101DB600D22474C72FF582E43401F583E090002223
:101DC600F07F44124BEC900022E0FF124BEC9000A7
:101DD60091E024FEF0021FC2C224E4900258F09063
:101DE600025BE0FF900258E0FEC39F502074D62E9F
:101DF600F582E43400F583E0FD74C82EF582E43400
:101E060001F583EDF0900258E004F080D290009145
:101E1600E024FFFDE434FFFCC3ED9FFFEC9400FEDD
:101E2600EF64054E6003021EBFD20D7F43124BECDA
:101E36007F61124BEC7F6A124BEC7F65124BEC7F95
:101E460072124BEC7F6F124BEC90025BE004900138
:101E5600AAF0E0FF04F074D62FF582E43400F5838F
:101E6600E0900122F09001AAE0FF04F074D62FF56D
:101E760082E43400F583E09000FBF09001AAE0FFD5
:101E860004F074D62FF582E43400F583E0900195D2
:101E9600F09001AAE0FF04F074D62FF582E4340036
:101EA600F583E0900196F09001AAE024D6F582E44D
:101EB6003400F583E090010FF090025BE090009112
:101EC600F0021FC2E4900258F090025BE0FF90021D
:101ED60058E0FEC39F502074D62EF582E43400F5F8
:101EE60083E0FF74C82EF582E43401F583EFF090A9
:101EF6000258E004F080D2D22490025BE0FD24C9AF
:101F0600F582E43401F583E0900022F0D20D9002D0
:101F16005CE0049001AAF0E0FF04F074D62FF5828D
:101F2600E43400F583E0900122F09001AAE0FF047A
:101F3600F074D62FF582E43400F583E09000FBF0D0
:101F46009001AAE0FF04F074D62FF582E43400F580
:101F560083E0900195F09001AAE0FF04F074D62F7B
:101F6600F582E43400F583E0900196F09001AAE052
:101F760024D6F582E43400F583E090010FF090005A
:101F860091EDF08037E4900258F0900091E0FF90D8
:101F96000258E0FEC39F502074D62EF582E434002A
:101FA600F583E0FF74C82EF582E43401F583EFF083
:101FB600900258E004F080D2C224C20D9000F6745C
:101FC6001EF0900023E4F0A3741EF0208D0302217E
:101FD600AEC28D9000FAE0600714F0E07002D210F5
:101FE6009001DDE07002A3E0600E9001DEE024FFC8
:101FF600F09001DDE034FFF09001FFE07002A3E015
:10200600600E900200E024FFF09001FFE034FFF044
:102016009001FDE07002A3E0603F9001FEE024FF26
:10202600F09001FDE034FFF0E07002A3E0702A902A
:10203600005AE090029FF090005BE09002A0F090C2
:10204600005CE09002A1F0900202E04402F09001F0
:10205600E1E4F0A37405F0C20B20B71B9000F9E091
:10206600FF640E6003EF7013300106C294C2018054
:102076000AD294D2018004D294D21F9000F9E014BF
:10208600F0E060030221AE3022139001ABE0600263
:1020960014F09001ABE0700B12462980009001AB62
:1020A6007405F0900023E07002A3E06033900024F2
:1020B600E024FFF0900023E034FFF0E07002A3E09C
:1020C600701E900202E054FEF0E4900126F0C20C6D
:1020D600C2079000FC7420F0C20D302203124B9F01
:1020E6009001E1E07002A3E060209001E2E024FFAD
:1020F600F09001E1E034FFF0E07002A3E0700B9095
:102106000202E054FDF0C20BC21C9000F6E06073C0
:1021160014F0E0706E741EF07F80124C32E4900270
:1021260058F0900258E0C3941074809480500D7F4C
:1021360020124BEC900258E004F080E6900202E098
:1021460054FEF054FDF054FBF0D222E4900126F048
:10215600C21CC20DC20CC207C21C7FC0124C32E4A4
:10216600900258F0900258E02447F582E43400F5D6
:1021760083E0FF600B124BEC900258E004F080E421
:10218600124629C20AC296C295C218C280C219C294
:1021960081C21AC282C21BC2839000F9741CF0E489
:1021A600F58CF58AC28DC21E30103B30B438C21091
:1021B600E490025DF09001DCE0FF90025DE0FEC37A
:1021C6009F502074E92EF582E43401F583E0FD7416
:1021D600D62EF582E43400F583EDF090025DE0043E
:1021E600F080D21246313016077F06124CA0C21676
:1021F600900125E0FF64036005EF64077003122277
:102206001E30000E30B40BC20074AB12462BE41223
:08221600462B124B4302012686
:104966002575004552524F52204445204C4543542C
:10497600555241008040201008040201000000004A
:1049860000004C4543542E3120202020202020209A
:0449960020202000BD
:104260004102C9004102C8004102C70041029E004C
:084270004102A3004102A40079
:030003000248B4FC
:1048B400C0E0C083C082C0D09002C9E024A5F582C4
:1048C400E43402F5837430F09002C9E004F064210A
:1048D40070129002C804F0A3E024A6F582E4340226
:0D48E400F583E4F0D0D0D082D083D0E03254
:030013000248F1AF
:1048F100C0E0C083C082C0D09002C9E024A5F58287
:10490100E43402F5837431F09002C9E004F06421CB
:1049110070129002C804F0A3E024A6F582E43402E8
:0D492100F583E4F0D0D0D082D083D0E03216
:054CAE00D288D2A8220B
:054CB300D28AD2AA2202
:034CB800D2AF2256
:0C000600124CAE124CB3124CB802499AD6
:10499A00E4FFEFC3942274809480501774A52FF516
:1049AA0082E43402F583E4F09002C9F09002C8F080
:1049BA000F80DFE49002C7F090029EF09002A3F00D
:0249CA00A3F058
:0149CC0022C8
:104AA4007F011245799002C7EFF07F091245799092
:104AB400029EEFF07F111245799002A3EFF07F1967
:094AC4001245799002A4EFF022E2
:104B6700124AA490029EE0A3F09002A3E09002A054
:0C4B7700F09002A4E09002A1F00246D0F1
:0545790090025EEFF06E
:10457E00785F7C027D017BFF7A4979697E007F112D
:10458E00123EE3E4900272F078737C027D017BFFB1
:10459E007A49797AFE7F08123EE390025EE0FE24AD
:1045AE0008900270F0A3EEF0900270E0FFA3E0FE20
:1045BE00C39F506174A52EF582E43402F583E0F9B1
:1045CE00B43129900272E0FF90025EE0FD9002711C
:1045DE00E0C39DFDE49400FC74732DF58274023CDF
:1045EE00F583E0FEEF4E900272F08021E9D3943114
:1045FE005006E9C3943050157F80124C327B017AFD
:10460E0002795F124A50E4900272F08008900271B3
:0A461E00E004F08093900272E0FFC8
:01462800226F
:1046D000785E7C027D017BFF7A4979827E007F06CD
:1046E000123EE378647C027D017BFF7A4979887E03
:1046F000007F12123EE3124CA87F80124C327B01E5
:104700007A027964124A507F87124C3290029FE0FD
:10471000FF7E0090027974FFF0A37449F0A37466E1
:10472000F0A3EEF0A3EFF07B017A02795E123B1367
:104730007B017A02795E124A507F2D124BEC900277
:10474000A0E0FEA3E0FDEDFF90027974FFF0A374FA
:1047500049F0A37466F0A3EEF0A3EFF07B017A02B8
:0E476000795E123B137B017A02795E024A50A9
:094C97006261636B7570000A0094
:104BD300C20F759850438780438920758840758D2F
:094BE300F4758BF4D28ED2AC22E1
:084CA000200FFD8F99D20F22B5
:0300230002361290
:0B361200C0E0C083C082C0D075D008AB
:10361D00209803023A9EAB99C298900125E0146060
:10362D003C14605824FD70030236CE14700302372B
:10363D006D24FE700302370C24086003023A999042
:10364D0000D4E4F0AF0BEBFD3395E0FCED64054CDD
:10365D006003023A9E90012504F0023A9E9000F418
:10366D00E0AF0B900125B50B0E7402F09000F674CF
:10367D001EF0C222023A9EE4F0023A9EAF0BEB24FA
:10368D00AD602024F0602924FE600F24EE6012242A
:10369D0007702B9001257403805C900125740880C0
:1036AD0055800D9001257405F0D216D223023A9E55
:1036BD009001257405F07F06124CA0023A92023A51
:1036CD0099AF0BEBFD3395E0FCED64024C701D9052
:1036DD0000D4F0E0FE04F074272EF582E43401F5F9
:1036ED0083EFF09001257406F0023A9EED64054CCF
:1036FD00900125700504F0023A92E4F0023A9EAF73
:10370D000B9000D4E0FE04F074272EF582E4340112
:10371D00F583EFF09000D4E0D3943C748094804016
:10372D0003023A99AF0BEBFD3395E0FCED64034CCE
:10373D00701D900125F0900202E054FEF0900126DC
:10374D00E4F0C20CC207900023F0A3F0023A9EED04
:10375D0064054C6003023A9E90012504F0023A92F2
:10376D00AF0B9000D4E0FE04F074272EF582E43404
:10377D0001F583EFF09000D4E0D3943C74809480F5
:10378D004003023A99AF0BEBFD3395E0FCED64037A
:10379D004C6003023A8030233CC223D2069001DFF5
:1037AD00F09000D4E0FE9001DFE0FDC39E50207448
:1037BD00272DF582E43401F583E0FE74922DF58218
:1037CD00E43400F583EEF09001DFE004F080D29058
:1037DD0001257407F09000D4E0FD7C0064066003C1
:1037ED000238DC900128E0FE64446044EE644170D0
:1037FD003F9001DDE07002A3E0601B9001DDE4F07D
:10380D00A3F0D200900202E054FDF09001FFE4F02D
:10381D00A37454F0801A9001FFE07002A3E07010C1
:10382D00D2969000F9741CF0758C00758A00C28DCB
:10383D00900129E0FF644470030238D0EF644160C9
:10384D00030238D0300360D200302146301174C2EB
:10385D0011900202E054FDF09001DDE07002A3E052
:10386D00601DC20B9001DDE4F0A3F0D200900202C6
:10387D00E054FDF09001FFE4F0A37454F080449007
:10388D0001FFE07002A3E0703AD2959000F9741C2C
:10389D008028301109C211900202E054FDF0D2953A
:1038AD009000F9742A8013301109C211900202E0C0
:1038BD0054FDF0D2959000F9742AF0758C00758A3C
:1038CD0000C28D900125E4F09000D4F0023A9EEDF7
:1038DD0064074C703D900128E064636003023A9EDA
:1038ED009001DFF09000D4E0FF9001DFE0FEC39F78
:1038FD00505D74272EF582E43401F583E0FF74D614
:10390D002EF582E43400F583EFF09001DFE004F052
:10391D0080D29000D4E0FF7E006419703B9001DFEF
:10392D00F09000D4E0FD9001DFE0FCC39D502074C9
:10393D00272CF582E43401F583E0FD74922CF58299
:10394D00E43400F583EDF09001DFE004F080D290D7
:10395D0001257407F0023A9EC3EF9426EE6480941D
:10396D00805003023A9E900128E06441703E900120
:10397D00DDE07002A3E0601A900202E054FDF090C9
:10398D0001DDE4F0A3F0D2009001FFF0A37454F038
:10399D00801A9001FFE07002A3E07010D2969000A3
:1039AD00F9741CF0758C00758A00C28D900129E0A8
:1039BD0064416003023A43D20030035E3021463049
:1039CD001174C211900202E054FDF09001DDE0701F
:1039DD0002A3E0601DC20B9001DDE4F0A3F0D20064
:1039ED00900202E054FDF09001FFE4F0A37454F056
:1039FD0080449001FFE07002A3E0703AD2959000F0
:103A0D00F9741C8028301109C211900202E054FD96
:103A1D00F0D2959000F9742A8013301119C21190CB
:103A2D000202E054FDF0D2959000F9742AF0758CE5
:103A3D0000758A00C28D9001DFE4F09001DFE0C3D4
:103A4D009426748094805021E0FF2427F582E4347D
:103A5D0001F583E0FE74922FF582E43400F583EED8
:103A6D00F09001DFE004F080D29001257407F0D2D0
:103A7D0015801EAF0BEF3395E0FEEF64054E701110
:103A8D0090012504F09000D4E4F08005900125E428
:083A9D00F0309904C299C20F38
:093AA500D0D0D082D083D0E032F1
:0B4A2600900261EBF0A3EAF0A3E9F0BE
:104A3100E4FE900261E0FBA3E0FAA3E0F98E827547
:0E4A41008300123F09FF6006124CA00E80E4B5
:014A4F002244
:024B8300AE077B
:104B8500E4FDEDC39E501274632DF582E43401F506
:094B950083E0FF124CA00D80E941
:014B9E0022F4
:10492E00E49002CAF078CA7C027D017B017A00799C
:10493E00D612403F9000D4E004FF1246317BFF7A3E
:10494E004C7997124A267BFF7A4C799E124A267B27
:08495E00017A0279CA024A261F
:0100120022CB
:1049CD00E4900059F0301805E04401F02230190848
:1049DD00900059E04402F022301A08900059E0444A
:0E49ED0004F022301B07900059E04408F0222D
:104C4800E4FDFCC3ED9FEC9E500A1200120DBD005E
:044C5800010C80EFDC
:014C5C002235
:034C5D00124C2ACC
:104C6000E4FFFE1200120FBF00010EEF64024E704F
:014C7000F251
:014C71002220
:104C8500E4FFFE1200120FBF00010EEF64024E702A
:014C9500F22C
:014C960022FB
:0E4C1C001249CDED54F0FF900059E04FF580A5
:084C2A00D291124C60C29122EC
:104C3200AD07C290124C1CEDC454F0FD54F0FFE0DD
:064C42004FF580024C2A30
:104C05007F01124C32E4FFFE1200120FBF00010EAD
:064C1500EF64FA4E70F29C
:014C1B002276
:10486D00C290124C60C291124C60758039124C5D31
:10487D00124C5D124C2A124C60758029124C2A1272
:10488D004C607F0C124C32124C051200127F061236
:10489D004C321200127F80124C32124C601249CDF4
:0748AD00900059E0F58022A4
:104BEC00AD07D290120012124C1CEDC454F0FD54BF
:094BFC00F0FFE04FF580024C2AA5
:104AF500AE07ED14600F14601114601324037016D3
:104B0500EE2480800DEE24C08008EE24948003EE10
:074B150024D4FF124C3222F0
:0B4A500090027BEBF0A3EAF0A3E9F07A
:104A5B00E4FC90027BE0FBA3E0FAA3E0F98C827507
:0E4A6B008300123F09FF6006124BEC0C80E442
:014A7900221A
:0C001600AE07AF05AD06124AF5024A50D5
:104A7A00C292C293124C609000F47431F0309203E7
:104A8A00E004F03093079000F4E02402F07FC912AA
:0A4A9A004C329000F4E0FF024BECF8
:104B9F007F80124C32E4FCECC394107480948050EC
:094BAF00087F20124BEC0C80EE93
:014BB80022DA
:104BB9007FC0124C32E4FCECC39410748094805092
:094BC900087F20124BEC0C80EE79
:014BD20022C0
:064CA800124B9F024BB904
:0300000002476E46
:0C476E00787FE4F6D8FD7581250247B580
:103E1300E709F608DFFA8046E709F208DFFA803E91
:103E230088828C83E709F0A3DFFA8032E309F6087E
:103E3300DFFA8078E309F208DFFA807088828C83E6
:103E4300E309F0A3DFFA806489828A83E0A3F6089A
:103E5300DFFA805889828A83E0A3F208DFFA804C74
:103E630080D280FA80C680D4806980F2803380104B
:103E730080A680EA809A80A880DA80E280CA8033B4
:103E830089828A83ECFAE493A3C8C582C8CCC5832C
:103E9300CCF0A3C8C582C8CCC583CCDFE9DEE780FC
:103EA3000D89828A83E493A3F608DFF9ECFAA9F07B
:103EB300EDFB2289828A83ECFAE0A3C8C582C8CCD1
:103EC300C583CCF0A3C8C582C8CCC583CCDFEADEEA
:103ED300E880DB89828A83E493A3F208DFF980CC4C
:103EE30088F0EF60010E4E60C388F0ED2402B40445
:103EF3000050B9F582EB2402B4040050AF232345EC
:063F03008223903E63736F
:103F0900BB010CE58229F582E5833AF583E022506D
:103F190006E92582F8E622BBFE06E92582F8E222B7
:0D3F2900E58229F582E5833AF583E49322D1
:0C3F3600ECF0A3EDF0A3EEF0A3EFF022FE
:103F4200A8828583F0D083D082123F59123F591242
:103F52003F59123F59E473E493A3C583C5F0C58367
:103F6200C8C582C8F0A3C583C5F0C583C8C582C8C9
:013F7200222C
:103AAE00E5102479F582E43402F583E005102290C6
:103ABE000276302D03900279E475F00112408702F0
:103ACE00405C2026E97F2ED2268018EF540F2490DA
:103ADE00D43440D4FF302A0BEF24BFB41A00500365
:103AEE002461FFE511600215110514E5147002053D
:103AFE0013302D0E900276E475F001124087EF021E
:103B0E004075024B1C7403D22D8003E4C22DF510B8
:103B1E0090027612409EE4F511F513F514E511604E
:103B2E00077F20123AF180F57512FFC227C226C216
:103B3E0028C229C22BC22CC22E123ABDFF700D30E4
:103B4E002D057F00123B02AF14AE1322B4255FC2C7
:103B5E00D5C22A123ABDFF24D0B40A00501A75F00D
:103B6E000A781130D50508B6FF0106C6A426F62040
:103B7E00D5047002D22980D924CFB41A00EF500494
:103B8E00C2E5D22A023D03D22780C6D22680C0D2F9
:103B9E002880BCD2D580BAD22B80B47F20123AF1C5
:103BAE002028077401B5110040F1123AAEFF123A07
:103BBE00F1023B2BD22ED22C8095123AAEFB123A4A
:103BCE00AEFA123AAEF94A4B700679D47A3D7BFFC3
:103BDE0020282EE511602A7E008E82758300123F0A
:103BEE000960060EEE651270F0C2D5EBC0E0EAC0B9
:103BFE00E0E9C0E0EE123D4AD0E0F9D0E0FAD0E0C4
:103C0E00FB12405CFF60AAEBC0E0EAC0E0E9C0E056
:103C1E00123AF1D0E02401F9D0E03400FAD0E0FB02
:103C2E00E5120460DCD512D980877BFF7A3D794698
:103C3E00D228809C791080027908C22CC22E80086E
:103C4E00D2D5790A8004790AC2D5E512047002F53C
:103C5E0012E4FAFDFEFF123AAEFC7B082027131287
:103C6E003AAEFD7B1030260A123AAEFE123AAEFF85
:103C7E007B20EC3382D592D55013C3E43026069FB9
:103C8E00FFE49EFEE42027039DFDE49CFCE4CBF8BC
:103C9E00C227EC700CCFCECDCCE824F8F870F380B0
:103CAE0017C3EF33FFEE33FEED33FDEC33FCEB3396
:103CBE00FB994002FB0FD8E9EB302705F8D0E0C4A2
:103CCE0048B227C0E00AEC4D4E4F78207B0070C200
:103CDE00EAB5120040BCC0E0123D4CD0F0D0E0205E
:103CEE002704C4C0E0C4B227C0F0123ADAD0F0D52F
:103CFE00F0EB023B2B1240A73BC8533C42583B997A
:103D0E004C3B95423C464F3C4E443C4E493BAE43A9
:083D1E003C54553C38463C388A
:103D2600453C38473DF4503B9D2D3BA12E3BC42BD3
:103D36003BA5233BC2203DDD2A3B5D4800003BBC42
:103D46003F3F3F00790AA2D5202914302B09B9102C
:103D5600020404B9080104A2D5202C025001042053
:103D660028689228B511005034C0E07F2030291908
:103D76007F30A228722C722B500F123DA3C228C28C
:103D86002CC22BC22E7F30800F302B03E9C0E012ED
:103D96003AF1302B03D0E0F9D0E0B511CC302B1737
:103DA6007F30B9100C123AF17F58302A077F78809D
:103DB60003B90803123AF13028057F2D023AF17F44
:103DC60020202EF87F2B202CF322922880CF286EDD
:103DD600756C6C2900D227123AAE3027F8C22778C4
:103DE6001130D50108F6023B5D2D50434958123A71
:103DF600AE2403B405004001E4903DEF93123AE28D
:0D3E0600743A123AE2D229751104023C42CE
:103F7300E709F60870FA8046E709F20870FA803E0E
:103F830088828C83E709F0A370FA807EE309F60840
:103F930070FA8076E309F20870FA806E88828C8367
:103FA300E309F0A370FA806289828A83E0A3F608AA
:103FB30070FA805689828A83E0A3F20870FA804AF5
:103FC30080D280FA80C680D4806580F280318010F0
:103FD30080A680EA809A80A880DA80E280CA803155
:103FE30089828A83ECFAE493A3C8C582C8CCC583CB
:103FF300CCF0A3C8C582C8CCC583CC70E9800D8939
:10400300828A83E493A3F60870F9ECFAA9F0EDFB36
:104013002289828A83ECFAE0A3C8C582C8CCC5830F
:10402300CCF0A3C8C582C8CCC583CC70EA80DD8937
:10403300828A83E493A3F20870F980CE88F0ED249A
:1040430002B4040050C4F582EB2402B4040050BA55
:094053002323458223903FC3732F
:10477A00020026E493A3F8E493A34003F68001F22F
:10478A0008DFF48029E493A3F85407240CC8C33340
:10479A00C4540F4420C8834004F456800146F6DF0F
:1047AA00E4800B01020408102040809040CDE47E92
:1047BA00019360BCA3FF543F30E509541FFEE49304
:1047CA00A360010ECF54C025E060A840B8E493A3CB
:1047DA00FAE493A3F8E493A3C8C582C8CAC583CAF6
:1047EA00F0A3C8C582C8CAC583CADFE9DEE780BEAE
:014278000045
:10405C00BB010689828A83E0225002E722BBFE0262
:09406C00E32289828A83E4932295
:10407500BB010689828A83F0225002F722BBFE012A
:02408500F32224
:10408700F8E0FBA3A3E0F925F0F0E58215827002C2
:074097001583E0FA38F02266
:09409E00EBF0A3EAF0A3E9F02223
:1040A700D083D082F8E4937012740193700DA3A3A8
:1040B70093F8740193F5828883E4737402936860BC
:0640C700EFA3A3A380DFBC
:104B1C00EFB40A07740D124B27740A309811A89938
:104B2C00B8130CC2983098FDA899C298B811F630F9
:074B3C0099FDC299F59922D1
:00000001FF
