:10430C002041636365735363616E2076342E3520D0
:10431C0000494E484142494C49544144412E2E2EAD
:10432C0020004552524F5220454E204C4F4F502E9C
:10433C002E2E005441524A45544120494E56414C70
:10434C00494441004E4F2052454749535452412055
:10435C005041474F005441522E2053494E20464F56
:10436C00524D41544F00444952494A415345204112
:10437C002043414A412000466563686120486F72C2
:10438C00613A20202020200049445F434C49454E8F
:10439C0054453A00434F445F5041524B3A00434F0F
:1043AC004D5041524143494F4E3A2020202000208D
:1043BC002020416464723A202020202020202000FC
:1043CC002053494E205245535055455354412020BB
:1043DC000020504C414341204E4F20494755414C01
:1043EC00200020454E5649414E444F204441544FE5
:0343FC005320004B
:10403E005101124552524F523A20204C4F4F5020B0
:10404E00312020005100482046554552412044451C
:10405E00204C494E454120005100C4204552524F3C
:10406E0052204D4946415245202020005101B8456D
:10407E0052524F5220434F442E20504152512E0047
:10408E00510012202053494E20494E475245534F5E
:10409E00202020005100B34E4F2052454749535423
:1040AE005241205041474F0051005F45584345440F
:1040BE004520542E475241434941200051019A2038
:1040CE0041434345534F204E454741444F20200026
:1040DE0051002620202053494E2053414C49444143
:1040EE00202020005100FF4552524F52204752418E
:1040FE00424143494F4E20005100814143455251A8
:10410E005545534520412043414A410051007053CB
:10411E00455249453A2020202020202020202000F2
:10412E00510037434F4D504152414E444F20504C59
:10413E00414341005100015441524A4554412056D9
:10414E00454E4349444120004100D5004100F53120
:10415E004201FE00004201DE00004101DD0041018E
:10416E002600410203004100D6004101E10041005A
:10417E00F8004101AD004101AC054100FB004202D7
:10418E00000000C10FC102C101C123C115C116C17A
:10419E0018C119C11AC11BC11EC122C124C125C11A
:1041AE0008C111C121C184C106C105C112C10AC114
:1041BE009FC11CC10CC107C100C10BC109C18EC179
:0741CE0020C11041000000B8
:104D0800C2B6124D1B124D1B124D1BD2B6124D1BB3
:034D1800024D1B2E
:0845850074B69000D7F07F012D
:05458D00900265EFF053
:10459200D2B6C226C2B5900267123F4E00000FA0EB
:1045A20030B445202642900267E0FCA3E0FDA3E080
:1045B200FEA3E0FFEF24FFFFEE34FFFEED34FFFD2C
:1045C200EC34FFFC900267123F42900267E0FCA3CA
:1045D200E0FDA3E0FEA3E0FFEC4D4E4F70C2D226F9
:1045E200D2B6D2B4D2B580B8202629E4900266F0C1
:1045F200900265E0FFA3E0FEC39F501874D72EF52A
:1046020082E43400F583E0F5A0124D08900266E0E2
:1046120004F080DCD2B6D2B520260C124CF6124C35
:09462200F6124CF6124CF6A22629
:01462B00226C
:1047E000900260E02402F09000FCE024D0FF9002F0
:0747F00060E0FD3395E0FCE1
:0847F700900261ECF0A3EDF06B
:1047FF00E4A3F0A3F0FEFDFCEFC3946474809480F7
:10480F004007749C2FFF0E80EFEFC3940A748094BF
:10481F0080400774F62FFF0D80EFAC07ED4430FF9B
:10482F00900261E0FAA3E0FB2464F58274013AF58B
:10483F0083EFF0EC4430FF74652BF58274013AF589
:03484F0083EFF004
:014852002243
:104B9A00301804D2808002C280301904D281800287
:104BAA00C281301A04D2828002C282301B03D283AD
:044BBA0022C283226E
:1041F200E4900264F0D2B5900125F030B40302439A
:1042020009900263F0C2B5A3F0900264E0C3941E69
:1042120074809480400302430990025F123F4E0073
:1042220000003C30B64A20B447900263E0704190EF
:10423200025FE0FCA3E0FDA3E0FEA3E0FFEF24FFAA
:10424200FFEE34FFFEED34FFFDEC34FFFC90025F25
:10425200123F4290025FE0FCA3E0FDA3E0FEA3E078
:10426200FFEC4D4E4F70BCA304F0A3741FF080B35B
:1042720030B6030242F7900263E0707920B476A36D
:10428200E024D7F582E43400F583E5A0F09001251F
:10429200E004F090025F123F4E0000002320B6556A
:1042A200900263E0704FA3E024D7F582E43400F576
:1042B20083E5A0F090025FE0FCA3E0FDA3E0FEA393
:1042C200E0FFEF24FFFFEE34FFFEED34FFFDEC34A0
:1042D200FFFC90025F123F4290025FE0FCA3E0FD10
:1042E200A3E0FEA3E0FFEC4D4E4F70B1A304F0A398
:1042F200741FF080A830B406900264741FF090021C
:0943020064E004F002420BD2B5A4
:01430B00228F
:054AA30090025FEFF03E
:104AA8007E0054F0FFEEC4F854F0C868FEEFC4541A
:104AB8000F484430FF124C8290025FE07E00540F92
:064AC8004430FF024C82A5
:1043FF009000D77402F0EF24FE600B04700E900053
:10440F00D87456F080069000D8744FF09002617403
:10441F0015F0900261E0D39425748094805021E0D0
:10442F00FF2428F582E43401F583E0FE74C42FF5F0
:10443F0082E43400F583EEF0900261E004F080D264
:10444F009000E97403F030B43D7F1312458D922034
:10445F00302072E4900261F0900261E0C394137413
:10446F008094805054E0FF24D7F582E43400F58324
:10447F00E0FE74EA2FF582E43401F583EEF090024A
:10448F0061E004F080D2E4900261F0900261E0C339
:10449F009413748094805021E0FF24D7F582E43484
:1044AF0000F583E0FE74EA2FF582E43401F583EE24
:1044BF00F0900261E004F080D29001DD7413F0906F
:0544CF0000FB741CF06D
:0144D40022C5
:104A4700900261EFF030B411124CF6900261E0125F
:104A57004587922030201680009001DD7401F09088
:0E4A67000261E09001EAF09000FB742AF02258
:10224100900126E024F97003022EF52404600302B4
:102251003618900203E070297F04124D2DE490019D
:1022610026F020B70302361D900000E06403700AD7
:1022710074AA124587E4900000F0900000E004F099
:1022810022900203E054016401600302291C200C26
:1022910003022742900260F0E0FF04F0EF3395E083
:1022A100FE74642FF58274013EF5837402F090028E
:1022B10060E0FF04200D15F0EF3395E0FE74642F0C
:1022C100F58274013EF5837461F08013F0EF33956C
:1022D100E0FE74642FF58274013EF5837443F0E4EB
:1022E10090025FF09000F8E0FF90025FE0FDFB33A9
:1022F10095E0FAC3EB9F7480F86A985033EDFF3391
:1023010095E0FE74C92FF58274013EF583E0FF90DC
:102311000260E0FE04F0EEFD3395E0FC74642DF5FF
:102321008274013CF583EFF090025FE004F080B429
:10233100900260E0FF04F0EF3395E0FE74642FF546
:102341008274013EF583742CF0300720900023E065
:10235100FF900260E0FE04F0EEFD3395E0FC746452
:102361002DF58274013CF583EFF08019900260E055
:10237100FF04F0EF3395E0FE74642FF58274013EA3
:10238100F5837430F0200E0302245E9000FDE0FF1F
:10239100B44818900260E0FE04F0EEFD3395E0FCD5
:1023A10074642DF58274013C0224BCEFB45417907F
:1023B1000260E0FF04F0EF3395E0FE74642FF582D4
:1023C10074013E0224BC9000FDE0FFB44D18900260
:1023D10060E0FE04F0EEFD3395E0FC74642DF582BF
:1023E10074013C0224A1EFB44317900260E0FF04A2
:1023F100F0EF3395E0FE74642FF58274013E022400
:10240100BC30084320972A900260E0FF0420B711F6
:10241100F0EF3395E0FE74642FF58274013E0224DF
:10242100BCF0EF3395E0FE74642FF58274013E80B9
:102431006F900260E0FF04F0EF3395E0FE74642FCB
:10244100F58274013E8059900260E0FF04F0EF33A1
:1024510095E0FE74642FF58274013E805E3008477A
:10246100209729900260E0FF0420B710F0EF339528
:10247100E0FE74642FF58274013E803FF0EF3395E6
:10248100E0FE74642FF58274013E8014900260E0D6
:10249100FF04F0EF3395E0FE74642FF58274013E82
:1024A100F5837431F08019900260E0FF04F0EF339E
:1024B10095E0FE74642FF58274013EF5837430F06B
:1024C100900260E0FF04F0EF3395E0FE74642FF5B5
:1024D1008274013EF583742CF09001231247EA12B5
:1024E10047E0900260E02402F09001961247EA90E2
:1024F1000260E02402F09001971247EA900260E046
:102501002402F09001101247EA900260E02402F0E8
:10251100300D03022722E0FF04F0EF3395E0FE7453
:10252100642FF58274013EF583742CF030077390AB
:1025310001241247EA900260E02402F09000FE12AA
:1025410047EA900260E02402F09001981247EA9075
:102551000260E02402F09001991247EA900260E0E3
:102561002402F09001111247EA900260E02402F087
:10257100E0FF04F0EF3395E0FE74642FF5827401FF
:102581003EF583742CF0900260E0FF04F0EF339588
:10259100E0FE74642FF58274013EF5837420F0022D
:1025A1002707900260E0FF04F0EF3395E0FE7464CA
:1025B1002FF58274013EF5837430F0900260E0FFE4
:1025C10004F0EF3395E0FE74642FF58274013EF55B
:1025D100837430F0900260E0FF04F0EF3395E0FE89
:1025E10074642FF58274013EF5837430F0900260BB
:1025F100E0FF04F0EF3395E0FE74642FF58274017F
:102601003EF5837430F0900260E0FF04F0EF339503
:10261100E0FE74642FF58274013EF5837430F0900E
:102621000260E0FF04F0EF3395E0FE74642FF58261
:1026310074013EF5837430F0900260E0FF04F0EF26
:102641003395E0FE74642FF58274013EF583743096
:10265100F0900260E0FF04F0EF3395E0FE74642F28
:10266100F58274013EF5837430F0900260E0FF045E
:10267100F0EF3395E0FE74642FF58274013EF5832B
:102681007430F0900260E0FF04F0EF3395E0FE74E7
:10269100642FF58274013EF5837430F0900260E09E
:1026A100FF04F0EF3395E0FE74642FF58274013E70
:1026B100F583742CF0E490025FF09001ADE0FF909F
:1026C100025FE0FDFB3395E0FAC3EB9F7480F86A8B
:1026D100985033EDFF3395E0FE74AE2FF58274010F
:1026E1003EF583E0FF900260E0FE04F0EEFD3395DD
:1026F100E0FC74642DF58274013CF583EFF09002E7
:102701005FE004F080B4900260E0FF04F0EF3395E5
:10271100E0FE74642FF58274013EF583742CF08021
:1027210000900260E0FF04F0EF3395E0FE74642F47
:10273100F58274013EF5837403F0900260E0022992
:10274100159001647402F0900127E0FF7010900170
:1027510065200D057441F0800A7443F080059001F5
:1027610065EFF0900092E0900260F0E490025FF07B
:10277100900092E0FF90025FE0FD3395E0FCC3ED35
:102781009F7480F86C985026E0FF3395E0FE74C981
:102791002FF58274013EF583E0FF74662DF5827496
:1027A100013CF583EFF090025FE004F080C29002FB
:1027B10060E0FF3395E0FE74662FF58274013EF50B
:1027C10083742CF0302413900023E0FD74672FF5FF
:1027D1008274013EF583EDF08016900260E0FF33D4
:1027E10095E0FE74672FF58274013EF5837430F035
:1027F1003004679000FDE0FFB448089000F97404CC
:10280100F08039EFB454089000F97403F0802DEF93
:10281100B442089000F97402F08021EFB44D0280B7
:102821000EEFB44302801030080D2097028008900B
:1028310000F97401F08005E49000F9F09000F9E0EE
:102841002430FF900260E0FD3395E0FC74682DF5C3
:102851008274013CF583EFF0803630081D900260F0
:10286100E0FF3395E0FE74682F2097028018F5820F
:1028710074013EF5837431F08016900260E0FF33FD
:1028810095E0FE74682FF58274013EF5837430F093
:10289100900260E0FF300D673395E0FE74692FF51B
:1028A1008274013EF583742CF0900260E02406F0FE
:1028B1009001231247EA1247E0900260E02402F0FF
:1028C1009001961247EA900260E02402F09001978D
:1028D1001247EA900260E02402F09001101247EAE8
:1028E100900260E02402F0E0FFFD3395E0FC7464A7
:1028F1002DF58274013CF5837403F0EF048015FD1E
:102901003395E0FC74692DF58274013CF583740301
:10291100F0EF2406FF124C19023618900203E0541E
:102921000264026003022EE0D2119000FA741CF0DE
:10293100E4F58CF58AC28D300503022B8E200B0342
:10294100022B1A9001647402F0A37477F09002A034
:10295100E0FDC4540F2430900166F0ED540F243093
:10296100A3F09002A1E0FDC4540F2430900168F05F
:10297100ED540F2430A3F09002A2E0FDC4540F24C3
:102981003090016AF0ED540F2430A3F0A3742CF0C1
:10299100A37430F03004559000FDE0FFB448089076
:1029A10000F97404F08039EFB454089000F974030D
:1029B100F0802DEFB442089000F97402F08021EF0D
:1029C100B44D02800EEFB44302801030080D209701
:1029D1000280089000F97401F08005E49000F9F09C
:1029E1009000F9E0243090016EF0801630080D90CF
:1029F100016E20970280087431F0800690016E7498
:102A010030F090016F742CF0900123E024D0FF7D11
:102A11000C7C001247F79000FCE024D0FF7D0E7C77
:102A2100001247F7900196E024D0FF7D107C001240
:102A310047F7900197E024D0FF7D127C001247F701
:102A4100900110E024D0FF7D147C001247F7900123
:102A51007A742CF0900124E024D0FF7D177C0012C1
:102A610047F79000FEE024D0FF7D197C001247F764
:102A7100900198E024D0FF7D1B7C001247F7900164
:102A810099E024D0FF7D1D7C001247F7900111E0F1
:102A910024D0FF7D1F7C001247F79000F67421F0CF
:102AA100E0FF04F074642FF582E43401F583742CA3
:102AB100F0301C4EE490025FF09000D6E0FF9002EF
:102AC1005FE0FDFB3395E0FAC3EB9F7480F86A98F1
:102AD1004003022D50EDFF3395E0FE74AE2FF582D9
:102AE10074013EF583E0FF9000F6E0FE04F07464AB
:102AF1002EF582E43401F583EFF090025FE004F0FB
:102B010080B79000F6E0FF04F074642FF582E4349E
:102B110001F5837420F0022D509001647402F0A33A
:102B21007442F09002A0E0FDC4540F24309001667D
:102B3100F0ED540F2430A3F09002A1E0FDC4540F36
:102B41002430900168F0ED540F2430A3F09002A2DC
:102B5100E0FDC4540F243090016AF0ED540F24308D
:102B6100A3F0A3742CF0A37430F030080F20970465
:102B7100A3F0800E90016E7431F0800690016E74A6
:102B810030F090016F7403F07F0C022EDA90016433
:102B91007402F0A37477F09002A0E0FDC4540F24F6
:102BA10030900166F0ED540F2430A3F09002A1E0C3
:102BB100FDC4540F2430900168F0ED540F2430A36C
:102BC100F09002A2E0FDC4540F243090016AF0EDB0
:102BD100540F2430A3F0A3742CF0A37430F030040C
:102BE100559000FDE0FFB448089000F97404F080AE
:102BF10039EFB454089000F97403F0802DEFB4421A
:102C0100089000F97402F08021EFB44D02800EEFBC
:102C1100B44302801030080D20970280089000F91B
:102C21007401F08005E49000F9F09000F9E024309F
:102C310090016EF0801630080D90016E2097028091
:102C4100087431F0800690016E7430F090016F7459
:102C51002CF0900123E024D0FF7D0C7C001247F77B
:102C61009000FCE024D0FF7D0E7C001247F790011C
:102C710096E024D0FF7D107C001247F7900197E089
:102C810024D0FF7D127C001247F7900110E024D080
:102C9100FF7D147C001247F7201203022DC490011E
:102CA1007A742CF0900124E024D0FF7D177C00126F
:102CB10047F79000FEE024D0FF7D197C001247F712
:102CC100900198E024D0FF7D1B7C001247F7900112
:102CD10099E024D0FF7D1D7C001247F7900111E09F
:102CE10024D0FF7D1F7C001247F79000F67421F07D
:102CF100E0FF04F074642FF582E43401F583742C51
:102D0100F0301C7BE490025FF09000D6E0FF90026F
:102D11005FE0FDFB3395E0FAC3EB9F7480F86A989E
:102D2100502DEDFF3395E0FE74AE2FF58274013E18
:102D3100F583E0FF9000F6E0FE04F074642EF58266
:102D4100E43401F583EFF090025FE004F080BA9083
:102D510000F6E0FF04F074642FF582E43401F5839A
:102D6100742CF09000F6E0FF04F074642FF582E417
:102D71003401F5837403F09000F6E0FF022EDA903F
:102D810000F6E0FF04F074642FF582E43401F5836A
:102D91007420F09000F6E0FF04F074642FF582E4F3
:102DA1003401F583742CF09000F6E0FF04F07464B4
:102DB1002FF582E43401F5837403F09000F6E0FF0F
:102DC100022EDA90017A742CF07D177C00E4FF1258
:102DD10047F77D197C00E4FF1247F77D1B7C00E477
:102DE100FF1247F77D1D7C00E4FF1247F77D1F7C32
:102DF10000E4FF1247F79000F67421F0E0FF04F0C1
:102E010074642FF582E43401F583742CF0201C03E3
:102E1100022E99C21CE490025FF09000D6E024FFDC
:102E2100FFE434FFFE90025FE0FDFB3395E0FAC35F
:102E3100EB9FEE6480F8EA648098502DEDFF3395A6
:102E4100E0FE74AE2FF58274013EF583E0FF900041
:102E5100F6E0FE04F074642EF582E43401F583EFAC
:102E6100F090025FE004F080B19000F6E0FF04F022
:102E710074642FF582E43401F583742CF09000F62C
:102E8100E0FF04F074642FF582E43401F5837403E8
:102E9100F09000F6E0FF80419000F6E0FF04F0744E
:102EA100642FF582E43401F5837420F09000F6E09C
:102EB100FF04F074642FF582E43401F583742CF07F
:102EC1009000F6E0FF04F074642FF582E43401F51C
:102ED100837403F09000F6E0FF124C19023618904B
:102EE1000203E0FF54046404600302361DEF54FB47
:102EF100F00236189000D5E02493F582E43400F511
:102F010083E4F030064CC20690025FF09000D5E0F9
:102F1100FFFD90025FE0FEFB3395E0FAC3EB9D7489
:102F210080F86A985026EEFD3395E0FC74932DF5F8
:102F31008274003CF583E0FE74D72DF58274003C69
:102F4100F583EEF090025FE004F080C012458D023F
:102F51002FD39000D5E064196003022FDD9000F5B6
:102F6100E0FF900094E06F7073A3E06448706D120D
:102F7100491FE490025FF09000D5E0FF90025FE00E
:102F8100FDFB3395E0FAC3EB9F7480F86A985026F5
:102F9100EDFF3395E0FE74932FF58274003EF583C7
:102FA100E0FD74D72FF58274003EF583EDF09002B9
:102FB1005FE004F080C11248BB7F80124CC87F5390
:102FC100124C827F59124C827F4E124C827F4312E7
:102FD1004C82D216E4900126F00236109000D5E022
:102FE100FF7E00C39406748094805003023610EF74
:102FF1009407748094804011900129E0B4630A120F
:10300100458DD216E4900126F090012AE0FF644438
:103011006025EF6441702030031D30210830111705
:10302100200B148003200B0FD2959000FA742AF024
:10303100E4F58CF58AC28D201503023610C2159075
:103041000098E064417031A3E06443702BA3E06415
:10305100457025A3E06452701FA3E064517019A369
:10306100E0B45514A3E0B4450FA3E0B4530AA3E0C0
:10307100B445057FA1023574900098E06455704510
:10308100A3E0644E703FA3E064207039A3E0644D77
:1030910070337F09124A47900203E054FEF054FD59
:1030A100F0C21CC20CC207C20DE4900127F09000CF
:1030B10024F0A3F09001E2F0A3F0C20B9000FD74A4
:1030C10020F0023577900094E06458703CA3E064EE
:1030D100417036A3E064587030A3E06458702AA3AD
:1030E100E064477024A3E06452701EA3E064417061
:1030F10018A3E0B44313A3E0B4490EA3E0B441091B
:10310100A3E0B453047F018054900094E0645870AC
:1031110052A3E06458704CA3E064587046A3E06485
:10312100587040A3E06442703AA3E064497034A34C
:10313100E06445702EA3E0644E7028A3E0645670ED
:1031410022A3E06445701CA3E0B44E17A3E0B44988
:1031510012A3E0B4440DA3E0B44F087F021243FF71
:10316100023577900094E06458706DA3E064587064
:1031710067A3E064587061A3E06458705BA3E064E6
:103181004D7055A3E06445704FA3E0644E7049A3B0
:10319100E064537043A3E06455703DA3E064417063
:1031A10037A3E0644C7031A3E06420702BA3E0648A
:1031B1004E7025A3E0644F701FA3E064207019A333
:1031C100E0B44514A3E0B4530FA3E0B4540AA3E060
:1031D100B441057FB2023574900094E06458706D7B
:1031E100A3E064587067A3E064587061A3E0645879
:1031F100705BA3E0644D7055A3E06445704FA3E09C
:10320100644E7049A3E064537043A3E06455703D7C
:10321100A3E064417037A3E0644C7031A3E0642003
:10322100702BA3E064597025A3E06441701FA3E0F3
:1032310064207019A3E0B44514A3E0B4530FA3E0D4
:10324100B4540AA3E0B441057FB3023574900094ED
:10325100E064587079A3E064587073A3E064587017
:103261006DA3E064587067A3E0644D7061A3E064EE
:1032710045705BA3E0644E7055A3E06453704FA3A7
:10328100E064557049A3E064417043A3E0644C706D
:103291003DA3E064207037A3E064467031A3E0648D
:1032A10055702BA3E064457025A3E06452701FA301
:1032B100E064417019A3E0B42014A3E0B4440FA367
:1032C100E0B4450AA3E0B452057FB402357490001E
:1032D10094E064587079A3E064587073A3E0645873
:1032E100706DA3E064587067A3E0644D7061A3E062
:1032F1006445705BA3E0644E7055A3E06453704F66
:10330100A3E064557049A3E064417043A3E0644CB9
:10331100703DA3E064207037A3E064467031A3E000
:103321006455702BA3E064457025A3E06452701FBF
:10333100A3E064417019A3E0B42014A3E0B4440FE6
:10334100A3E0B4450AA3E0B448057FB50235749003
:103351000094E06458704FA3E064587049A3E0649E
:10336100587043A3E06458703DA3E0644E7037A3E6
:10337100E0644F7031A3E06420702BA3E0644570DA
:1033810025A3E06453701FA3E064207019A3E0B487
:103391004D14A3E0B4450FA3E0B44E0AA3E0B45327
:1033A100057FB1023574900094E06458704FA3E03A
:1033B10064587049A3E064587043A3E06458703DB9
:1033C100A3E0644E7037A3E0644F7031A3E0642042
:1033D100702BA3E064527025A3E06445701FA3E045
:1033E10064477019A3E0B44914A3E0B4530FA3E0F8
:1033F100B4540AA3E0B452057F04023574900094DA
:10340100E06458704FA3E064587049A3E0645870B9
:1034110043A3E06458703DA3E0644C7037A3E064BB
:103421004F7031A3E06454702BA3E064457025A371
:10343100E06420701FA3E064417019A3E0B4531449
:10344100A3E0B4490FA3E0B4470AA3E0B44E057F5B
:1034510005023574900094E064587067A3E06458E5
:103461007061A3E06458705BA3E064587055A3E0F9
:10347100644D704FA3E064457049A3E0644E70430E
:10348100A3E06453703DA3E064557037A3E0644149
:103491007031A3E0644C702BA3E064207025A3E09D
:1034A1006445701FA3E064587019A3E0B44314A3EA
:1034B100E0B4450FA3E0B4440AA3E0B445057F0797
:1034C100023574900094E064587066A3E06458700B
:1034D10060A3E06458705AA3E064587054A3E06498
:1034E1004D704EA3E064457048A3E0644E7042A362
:1034F100E06453703CA3E064557036A3E06441700E
:1035010030A3E0644C702AA3E064207024A3E0643B
:103511004E701EA3E0644F7018A3E0B42013A3E023
:10352100B4500EA3E0B44109A3E0B447047F08807E
:1035310042900094E06458703DA3E064587037A352
:10354100E064587031A3E06458702BA3E0644E70BE
:1035510025A3E0644F701FA3E064207019A3E0B4B9
:103561005014A3E0B4410FA3E0B4470AA3E0B44F61
:10357100057FE7124A477F80124CC890025F7405AD
:10358100F090025FE0FFFD3395E0FCC3ED9415EC94
:1035910064809480502BEF3395E0FE74932FF58275
:1035A10074003EF583E06403601774932FF5827411
:1035B100003EF583E0FF124C8290025FE004F08050
:1035C100C07FC0124CC890025F7415F090025FE09A
:1035D100FFFD3395E0FCD3ED9426EC64809480509C
:1035E1002EEF3395E0FE74932FF58274003EF58340
:1035F100E06403601A201E0F74932FF58274003E5D
:10360100F583E0FF124C8290025FE004F080BDE49C
:0C361100900126F0D21622E4900126F071
:01361D00228A
:1000260078047C027D017BFF7A4379AA7E007F11EA
:10003600123EEF78157C027D017BFF7A4379BB7E09
:10004600007F11123EEF78267C027D017BFF7A430A
:1000560079CC7E007F11123EEF78377C027D017BE2
:10006600FF7A4379DD7E007F11123EEF78487C02ED
:100076007D017BFF7A4379EE7E007F11123EEF12FF
:100086004C6912000612491FE58954F04401F589AE
:10009600C28DE4F58CF58AD28CC296C295C294D2F2
:1000A600B6D201900024F0A3F09001E2F0A3F09004
:1000B60000F7741EF09000FA741CF0C213C280C2DE
:1000C60018C281C219C282C21AC283C21BC20DE4FF
:1000D600900127F0C205C20CC2079000FBF0900108
:1000E600DEF0A3F0C2009001FEF0A3F0C210C21D24
:1000F600D203D208D20ED221D204A3F0A3F0C209B1
:100106007BFF7A43790CFDFF1200167FC0124CC8A4
:100116007B017A027915124AF8124B22D2B5D2B671
:1001260075A0FF90025EE5A0F09002C2E064016057
:100136000302041930B703020419201F030201FE4B
:100146009000F7741EF0124BDD124A14301D5D90BC
:1001560001FEE07002A3E070519000D77402F0A394
:100166007457F09002A0E0FF9000D9F09002A1E051
:10017600FE9000DAF09002A2E0FD9000DBF0A3749E
:1001860003F090005BEFF0A3EEF0A3EDF09000D546
:100196007406F0FF12458D900203E054FDF09001C5
:1001A600FE7402F0A37430F0806280599000D77418
:1001B60002F0A37457F09002A0E09000D9F09002EC
:1001C600A1E09000DAF09002A2E09000DBF0A374C8
:1001D60003F09000D57406F0FF12458D900203746B
:1001E60002F0C20B9001E2E4F0A37405F090012640
:1001F6007403F012224180147BFF7A43791DE4FDDB
:100206007F01120016900203E054FDF0200903025C
:1002160004409002A0E0FF7E006476700CA3E064C8
:10022600D67006A3E0640B603DEF64244E700E901A
:1002360002A1E064547006A3E064E4607B9002A02F
:10024600E06495700AA3E07006A3E064D560699047
:1002560002A0E0FF7E00645F700FA3E064D7700920
:10026600A3E064847003020406EF64954E700C905C
:1002760002A1E07006A3E064F2603D9002A0E06493
:1002860060700CA3E064407006A3E064946029905B
:1002960002A0E0FF7E006495700AA3E07006A3E06A
:1002A60064F36014EF64374E70119002A1E0643677
:1002B6007009A3E0642470030204069002A0E064BF
:1002C60095700CA3E064017006A3E06410603F9093
:1002D60002A0E0FF7E00647F700CA3E064757006E8
:1002E600A3E064446028EF64954E700E9002A1E08E
:1002F60064017006A3E0641160149002A0E0641724
:10030600700FA3E064EE7009A3E064247003020496
:10031600069002A0E0FF7E006495700CA3E0644F97
:100326007006A3E064D7603FEF64674E700E9002DC
:10033600A1E064177006A3E064B4602B9002A0E00D
:100346006494700CA3E064EA7006A3E06475601719
:100356009002A0E0FF7E00647C700FA3E064DE7074
:1003660009A3E064347003020406EF64944E700E31
:100376009002A1E064EB7006A3E06458602B900243
:10038600A0E06417700CA3E064167006A3E064D4C2
:1003960060179002A0E0FF7E00648F700EA3E064F9
:1003A600427008A3E064D670028055EF64954E70E3
:1003B6000E9002A1E0641D7006A3E064BC60149078
:1003C60002A0E06426700EA3E064127008A3E06445
:1003D600847002802B9002A0E0FF7E006482700C85
:1003E600A3E064887006A3E064146014EF64514EC1
:1003F60070489002A1E064C17040A3E06414703AB2
:10040600D296D2959000FA742AF0E4F58CF58AC259
:100416008D80279002C2E06401701F124BDD124AE4
:10042600147F06124A477BFF7A43792EE4FD7F014B
:10043600120016900203E054FDF030B403021FEEE2
:100446009000D774FFF0A3F01241F2900125E070FE
:1004560003021FEE6401700A9000D7E06406700282
:10046600D21F900125E0640160030207969000D731
:10047600E0FF7E00C394DF748094805003020796E9
:10048600D3EF94EF74809480400302079612491FBD
:100496009000D7E0FF64E2600AEF64E36005EF6472
:1004A600E4703A7FC0124CC8E4900259F0900259A9
:1004B600E024C4F582E43400F583E0FF600B124CBF
:1004C60082900259E004F080E47FCE124CC890007E
:1004D600D7E0540F2430FF124C820207849000D7D5
:1004E600E064E070297FC0124CC8E4900259F09095
:1004F6000259E02412F582E43401F583E0FF70032B
:10050600020784124C82900259E004F080E19000C8
:10051600D7E064E1700F7BFF7A43793FFD7F0112DC
:1005260000160207849000D7E064E570297FC012A8
:100536004CC8E4900259F0900259E024B8F582E4E0
:100546003401F583E0FF7003020784124C829002A7
:1005560059E004F080E19000D7E064E670297FC09E
:10056600124CC8E4900259F0900259E02412F58228
:10057600E43400F583E0FF7003020784124C829096
:100586000259E004F080E19000D7E064E770187F3C
:10059600C0124CC87BFF7A437950124AF87F107E0E
:1005A60027124CDE0207849000D7E064E870297FAA
:1005B600C0124CC8E4900259F0900259E0245FF54D
:1005C60082E43400F583E0FF7003020784124C8254
:1005D600900259E004F080E19000D7E064E97029C8
:1005E6007FC0124CC8E4900259F0900259E02426CC
:1005F600F582E43400F583E0FF7003020784124CB1
:1006060082900259E004F080E19000D7E064EA703D
:10061600297FC0124CC8E4900259F0900259E02498
:10062600FFF582E43400F583E0FF700302078412CD
:100636004C82900259E004F080E19000D7E064EB30
:1006460070297FC0124CC8E4900259F0900259E01C
:100656002481F582E43400F583E0FF700302078409
:10066600124C82900259E004F080E19000D7E064D9
:10067600EC70297FC0124CC8E4900259F0900259E0
:10068600E02401F582E43400F583E0FF70030207FD
:1006960084124C82900259E004F080E19000D7E089
:1006A60064ED70297FC0124CC8E4900259F09002A4
:1006B60059E02426F582E43402F583E0FF70030254
:1006C6000784124C82900259E004F080E19000D732
:1006D600E064EE70297FC0124CC8E4900259F09095
:1006E6000259E02437F582E43402F583E0FF700313
:1006F600020784124C82900259E004F080E19000D7
:10070600D7E064EF705F7FC0124CC87F54124C82F2
:100716007F41124C827F52124C827F4A124C827F5A
:1007260045124C827F54124C827F41124C827F20AC
:10073600124C827F41124C827F54124C827F4112AE
:100746004C827F53124C827F43124C827F41124C63
:10075600827F44124C827F41124C82D20A9000FA68
:10076600741CF080199000D7E064DF701112491FE5
:100776007FC0124CC87BFF7A437961124AF8D21EB9
:100786009000FA741CF0E4F58CF58AC28D021FEE17
:10079600900125E0FF7E006401700E9000D7E064B2
:1007A600A07006D218D280803BEF64014E70219073
:1007B60000D7E064A17019D219D2819000FA741C96
:1007C600F07BFF7A437972E4FDFF120016021FEEFA
:1007D600900125E0640170159000D7E064A2700DC9
:1007E600D21AD2829000FA741CF0021FEE900125F4
:1007F600E0FF7E00640170159000D7E064A3700DE1
:10080600D21BD2839000FA742AF0021FEEEF640125
:100816004E70589000D7E064AF70507FC0124CC83D
:100826007F43124C827F4F124C827F4E124C827F46
:1008360054124C827F2E124C827F20124C827F45AE
:10084600124C827F56124C827F4E124C827F2012AF
:100856004C827F49124C827F4E124C827F49124C49
:10086600827F43124C827F49020AAB900125E064E5
:100876000170429000D7E0644E703AD2037F801236
:100886004CC8E4900259F0900259E02404F582E441
:100896003402F583E0FF600B124C82900259E004AB
:1008A600F080E47F8D124CC87F4E124C82201D03CF
:1008B600021FEE8048900125E06401704A9000D73F
:1008C600E064537042C2037F80124CC8E490025920
:1008D600F0900259E02404F582E43402F583E0FF47
:1008E600600B124C82900259E004F080E47F8D1276
:1008F6004CC87F53124C82201D03021FEE7F20122C
:100906004C827F4D021067900125E06401703290A1
:1009160000D7E0B4502BC2037FC0124CC8E490024B
:1009260059F0900259E02437F582E43400F583E06B
:10093600FF7003021FEE124C82900259E004F08011
:10094600E1900125E0640170309000D7E0B44429BD
:100956007FC0124CC8E4900259F0900259E0244836
:10096600F582E43402F583E0FF7003021FEE124CB9
:1009760082900259E004F080E1900125E064017064
:100986005D9000D7E064F170557FC0124CC87F556A
:10099600124C827F4E124C827F20124C827F4D1267
:1009A6004C827F4F124C827F4D124C827F45124CF7
:1009B600827F4E124C827F54124C827F4F124C82A1
:1009C6007F2E124C827F2E124C827F2E124C827FFB
:1009D60020124C827F20124C827F200210679001E9
:1009E60025E06401705D9000D7E064F370557FC028
:1009F600124CC87F50124C827F49124C827F4312A0
:100A06004C827F4F124C827F20124C827F59124CAF
:100A1600827F20124C827F50124C827F4C124C8275
:100A26007F41124C827F43124C827F41124C827F5F
:100A36002E124C827F2E124C827F2E124C827F20E9
:100A4600021067900125E0640170629000D7E064AF
:100A5600F8705A7FC0124CC87F56124C827F4512DE
:100A66004C827F48124C827F49124C827F2E124C58
:100A7600827F20124C827F49124C827F4E124C821A
:100A86007F56124C827F41124C827F4C124C827FE1
:100A960049124C827F44124C827F4F124C827F2E29
:100AA600124C827F2E124C827F2E021067900125F7
:100AB600E06401705D9000D7E064F970557FC01264
:100AC6004CC87F53124C827F41124C827F4C124C91
:100AD600827F49124C827F44124C827F41124C82A3
:100AE6007F20124C827F52124C827F45124C827FAD
:100AF60043124C827F48124C827F41124C827F5AAD
:100B0600124C827F41124C827F44124C827F4102FA
:100B16001067900125E06401705D9000D7E064FAEB
:100B260070557FC0124CC87F53124C827F49124CBD
:100B3600827F4E124C827F20124C827F54124C824E
:100B46007F41124C827F52124C827F4A124C827F26
:100B560045124C827F54124C827F41124C827F5345
:100B6600124C827F20124C827F20124C827F2012F0
:100B76004C827F20021067900125E06401705D9031
:100B860000D7E064B570557FC0124CC87F46124C42
:100B9600827F55124C827F45124C827F52124C82C4
:100BA6007F41124C827F20124C827F44124C827FFE
:100BB60045124C827F20124C827F48124C827F4F16
:100BC600124C827F52124C827F41124C827F52120B
:100BD6004C827F49124C827F4F021067900125E0BC
:100BE60064016003020CA29000D7E064B8600302BF
:100BF6000CA27F80124CC87F20124C827F45124C7B
:100C0600827F4E124C827F54124C827F52124C824B
:100C16007F41124C827F44124C827F41124C827F6C
:100C260020124C827F46124C827F55124C827F45A1
:100C3600124C827F52124C827F41124C827F2012CC
:100C46004C827F20124C827FC0124CC87F44124CCB
:100C5600827F45124C827F20124C827F48124C8242
:100C66007F4F124C827F52124C827F41124C827F00
:100C760052124C827F49124C827F4F124C827F2047
:100C8600124C827F2D124C827F43124C827F41127E
:100C96004C827F4A124C827F41021067900125E008
:100CA60064016003020D629000D7E064B96003023C
:100CB6000D627F80124CC87F44124C827F49124CD1
:100CC600827F41124C827F20124C827F44124C82DA
:100CD6007F45124C827F20124C827F41124C827FCC
:100CE60043124C827F43124C827F45124C827F53C3
:100CF600124C827F4F124C827F20124C827F201230
:100D06004C827F20124C827FC0124CC87F49124C05
:100D1600827F4E124C827F56124C827F41124C8249
:100D26007F4C124C827F49124C827F44124C827F48
:100D36004F124C827F20124C827F20124C827F20E1
:100D4600124C827F20124C827F20124C827F20120E
:100D56004C827F20124C827F20021067900125E092
:100D66006401705D9000D7E064FB70557FC0124C43
:100D7600C87F45124C827F52124C827F52124C829F
:100D86007F4F124C827F52124C827F20124C827F00
:100D960054124C827F52124C827F41124C827F4EFB
:100DA600124C827F53124C827F50124C827F4F121C
:100DB6004C827F52124C827F54124C827F45021025
:100DC60067900125E06401705D9000D7E064FC70D7
:100DD600557FC0124CC87F4E124C827F4F124C82F8
:100DE6007F20124C827F45124C827F53124C827FA9
:100DF60020124C827F4D124C827F45124C827F4ED0
:100E0600124C827F53124C827F55124C827F4112C4
:100E16004C827F4C124C827F2E124C827F2E124CBB
:100E2600827F2E021067900125E06401705D9000BC
:100E3600D7E064FD70557FC0124CC87F4E124C82BD
:100E46007F4F124C827F20124C827F45124C827F4C
:100E560053124C827F20124C827F44124C827F4573
:100E6600124C827F20124C827F52124C827F4F128C
:100E76004C827F54124C827F41124C827F43124C2B
:100E8600827F49124C827F4F021067900125E064F1
:100E960001705D9000D7E064FE70557FC0124CC8AB
:100EA6007F42124C827F49124C827F45124C827FD0
:100EB6004E124C827F56124C827F45124C827F4ED8
:100EC600124C827F49124C827F44124C827F4F1211
:100ED6004C827F20124C827F20124C827F20124C43
:100EE600827F20124C827F20124C827F2002106764
:100EF600900125E06401705C9000D7E0F470557FA6
:100F060080124CC87F47124C827F52124C827F411E
:100F1600124C827F43124C827F49124C827F4112CF
:100F26004C827F53124C827F2E124C827F2E124CA3
:100F3600827F2E124C827F20124C827F20124C829E
:100F46007F20124C827F20124C827F20124C827F9F
:100F5600200210679000D7E06402600302106DA3C0
:100F6600E06469600302106D12491F7BFF7A4379C2
:100F760083E4FDFF1200167FC0124CC89000D9E032
:100F8600FF124AA37F2F124C829000DAE0FF124A2A
:100F9600A37F2F124C829000DBE0FF124AA37F2032
:100FA600124C829000DCE0FF124AA37F3A124C8278
:100FB6009000DDE0FF124AA39000DEE0FF124AA394
:100FC6007F8C124CC89000DFE06401700F7F4412E2
:100FD6004C827F6F124C827F6D0210679000DFE0BB
:100FE6006402700E7F4C124C827F75124C827F6EAB
:100FF600806F9000DFE06403700E7F4D124C827F9D
:1010060061124C827F7280599000DFE06404700E9A
:101016007F4D124C827F69124C827F65804390001F
:10102600DFE06405700E7F4A124C827F75124C8297
:101036007F65802D9000DFE06406700E7F56124CAF
:10104600827F69124C827F6580179000DFE064071B
:101056006003021FEE7F53124C827F61124C827F27
:1010660062124C82021FEE9000D7E0640260030217
:10107600112BA3E06449600302112B7F80124CC838
:10108600E4900259F0900259E02470F582E43400AD
:10109600F583E0FF600B124C82900259E004F08069
:1010A600E4900125E024FE90025EF07FC0124CC859
:1010B600E49001E4F0900259F090025EE0FF9002A5
:1010C60059E0FEC39F503774D92EF582E43400F5FB
:1010D60083E064037008EF04900259F080189002D0
:1010E60059E024D9F582E43400F583E0FF124C82FE
:1010F6009001E4E004F0900259E004F080BBE49033
:101106000259F09001E4E0FFC374109FFF9002596A
:10111600E0C39F4003021FEE7F20124C82900259CB
:10112600E004F080DE9000D7E0640260030211C79D
:10113600A3E0644460030211C712491F7F80124C6A
:10114600C87BFF7A437994124AF89002597402F0E8
:10115600900259E0FF24D7F582E43400F583E06479
:101166003B601774D72FF582E43400F583E0FF1255
:101176004C82900259E004F080D67FC0124CC89091
:101186000259E004F07BFF7A4379A0124AF89002F4
:101196005A7402F0900259E0FF24D7F582E4340035
:1011A600F583E0643B7003021FEE74D72FF582E4EB
:1011B6003400F583E0FF124C82900259E004F0807F
:1011C600D39000D7E064027012A3E06405700CA30C
:1011D600E064037006124ACE021FEE9000D7E0FBD1
:1011E6007A006402600302128EA3E0645760030271
:1011F600128E900125E0FF24D6F582E43400F583B3
:10120600E06403600302128EEF6412707B9001FEAD
:10121600F0A3F0C205D20B9000DBE09002A0F090A4
:1012260000DAE09002A1F09000D9E09002A2F090DE
:1012360000DDE0900123F09000DEE09000FCF090ED
:1012460000DFE0900196F09000E0E0900197F090CA
:1012560000E1E0900110F09000E2E0900124F090AF
:1012660000E3E09000FEF09000E4E0900198F0903A
:1012760000E5E0900199F09000E6E0900111F09011
:1012860000E7E09000FD802FEB64024A703D90007D
:10129600D8E0645770359001FEF0A3F0C205C20B8A
:1012A6009000DBE09002A0F09000DAE09002A1F05E
:1012B6009000D9E09002A2F0900203E04402F09080
:1012C60001E2E4F0A37405F0021FEE9000D7E0649B
:1012D600027045A3E0644D703F9001FEF0A3F0124A
:1012E600462CC2059000DBE09002A0F09000DAE008
:1012F6009002A1F09000D9E09002A2F0900203E0E3
:101306004402F09001E2E4F0A37405F09001DEE4FB
:10131600F0A3748CF0021FEE9000D7E0FB7A006415
:1013260002600302149DA3E06477600302149D909B
:101336000125E0FF24D6F582E43400F583E064035A
:10134600600302149D9001FEF0A3F0D205C212C202
:101356001C9000DBE09002A0F09000DAE09002A181
:10136600F09000D9E09002A2F09000DDE090012319
:10137600F09000DEE09000FCF09000DFE090019637
:10138600F09000E0E0900197F09000E1E09001100D
:10139600F07E00EF641270379000E2E0900124F0D6
:1013A6009000E3E09000FEF09000E4E0900198F0F9
:1013B6009000E5E0900199F09000E6E0900111F0D0
:1013C6009000E7E09000FDF0D212C21C02148AD30E
:1013D600EF9412EE6480948050030214809000E231
:1013E600E0900124F09000E3E09000FEF09000E42D
:1013F600E0900198F09000E5E0900199F09000E609
:10140600E0900111F0900125E024D5F582E4340046
:10141600F583E09000FDF0D212D21CE49000D6F0E5
:101426009001E1740AF09002597410F0900125E0E1
:10143600FF24FEFE900259E0FDC39E504774D72D4F
:10144600F582E43400F583E064039002596021E0FC
:10145600FE24D7F582E43400F583E0FD749E2EF574
:1014660082E43401F583EDF09000D6E004F08002CA
:10147600EFF0900259E004F080B29000E2E09000B4
:10148600FDF0C212900203E04402F09001E2E4F0A3
:10149600A3740AF0021FEEEB64024A6003021616FA
:1014A6009000D8E0FF64506017EF64546012EF6458
:1014B60056600DEF64456008EF6447600302161638
:1014C600E49001FEF0A3F0900127EFF0900125E0F3
:1014D600900092F0124C35C20DC2247F80124CC887
:1014E6009002597403F0900092E0FF900259E0FEDA
:1014F600C39F400302158174D72EF582E43400F5AC
:1015060083E0C39430401074D72EF582E43400F59E
:1015160083E0D39439403D74D72EF582E43400F548
:1015260083E0C39441401074D72EF582E43400F56D
:1015360083E0D3945A401D74D72EF582E43400F527
:1015460083E0642D600E74D72EF582E43400F583B3
:10155600E0B42E04D2258008C225EF04900259F08B
:10156600900259E024D7F582E43400F583E0FF12B7
:101576004C82900259E004F00214EC202503021F6D
:10158600DFE490025AF09000FDF0900259F09000CE
:1015960092E0FF900259E0FEC39F502A74D72EF5C1
:1015A60082E43400F583E0B42E1474D82EF582E478
:1015B6003400F583E09000FDF0900259EFF09002C0
:1015C60059E004F080C89000FDE06007900092E0CA
:1015D60024FBF0900203E04401F0E4900259F090FD
:1015E6000092E0FF900259E0FEC39F4003021FDF16
:1015F60074DA2EF582E43400F583E0FF74C92EF523
:1016060082E43401F583EFF0900259E004F080CFD4
:101616009000D7E064026003021772A3E064616081
:1016260003021772900125E024D6F582E43400F512
:1016360083E0640360030217729001FEF0A3F0D208
:101646000CC2079000F8F09002597402F090012540
:10165600E0FC900259E0FEC39C502174D72EF5821F
:10166600E43400F583E0B42D0BEE049001ABF0906A
:101676000259ECF0900259E004F080D190025974BE
:1016860002F09001ABE014FF900259E0FEC39F50B8
:101696002674D72EF582E43400F583E0FF74C72E56
:1016A600F582E43401F583EFF09000F8E004F09061
:1016B6000259E004F080CB9001ABE0FF04F074D750
:1016C6002FF582E43400F583E0900123F09001AB1E
:1016D600E0FF04F074D72FF582E43400F583E09040
:1016E60000FCF09001ABE0FF04F074D72FF582E424
:1016F6003400F583E0900196F09001ABE0FF04F032
:1017060074D72FF582E43400F583E0900197F090CA
:1017160001ABE0FF04F074D72FF582E43400F583C3
:10172600E0900110F0E49001ADF09001ABE0049080
:101736000259F0900125E014FF900259E0FEC39F84
:101746004003021B4274D72EF582E43400F583E091
:10175600FF9001ADE0FE04F074AE2EF582E4340194
:10176600F583EFF0900259E004F080C79000D7E0CF
:1017760064026003021974900125E024D6F582E420
:101786003400F583E0640360030219749000D8E026
:10179600FF646D6017EF646E6012EF646F600DEFAB
:1017A60064416008EF64526003021974EF646E705E
:1017B600499001FEF0A3F0C21D7F80124CC8E49050
:1017C6000259F0900259E02404F582E43402F583CC
:1017D600E0FF600B124C82900259E004F080E47F37
:1017E6008D124CC83003047F4E80027F53124C8208
:1017F6007F20124C827F4E0218EF9000D8E0646D75
:101806007043D21D7F80124CC8E4900259F09002BA
:1018160059E02404F582E43402F583E0FF600B12FC
:101826004C82900259E004F080E47F8D124CC8305F
:1018360003047F4E80027F53124C827F20124C821B
:101846007F4D0218EF9000D8E0646F60030218F431
:10185600A3E064307048C21D9001FEF0A3F07F80C3
:10186600124CC8E4900259F0900259E02404F58223
:10187600E43402F583E0FF600B124C82900259E0DB
:1018860004F080E47F8D124CC83003047F4E800242
:101896007F53124C827F20124C827F6F804B9000C8
:1018A600D9E06431600302196BD21D7F80124CC8E7
:1018B600E4900259F0900259E02404F582E43402DF
:1018C600F583E0FF600B124C82900259E004F08031
:1018D600E47F8D124CC83003047F4E80027F531282
:1018E6004C827F20124C827F4D124C828077900072
:1018F600D8E0FD6441703D9001FEE07002A3E06017
:1019060064E49001FEF0A3F090005BE09002A0F08A
:1019160090005CE09002A1F090005DE09002A2F0E1
:10192600900203E04402F09001E2E4F0A37405F0B3
:10193600C20B8031EDB4522DE49001FEF0A3F07F8E
:1019460080124CC8E4900259F0900259E0249AF5AE
:1019560082E43401F583E0FF600B124C8290025959
:10196600E004F080E49000D874FFF0021FEE9000CF
:10197600D7E064026003021B4CA3E0FF64736008B7
:10198600EF64436003021B4C900125E024D6F582E8
:10199600E43400F583E064036003021B4C9001FE0F
:1019A600F0A3F0D20CD2079000F8F09000D8E0B483
:1019B6004304D20D8002C20D9002597402F09001C8
:1019C60025E0FC900259E0FEC39C502174D72EF509
:1019D60082E43400F583E0B42D0BEE04900059F058
:1019E600900259ECF0900259E004F080D190005931
:1019F600E024D7F582E43400F583E0900023F090EC
:101A060002597402F0900059E0FF14FE900259E06A
:101A1600FDC39E502674D72DF582E43400F583E08D
:101A2600FE74C72DF582E43401F583EEF09000F8DC
:101A3600E004F0900259E004F080CAEF240290011D
:101A4600ABF0E0FF04F074D72FF582E43400F583A1
:101A5600E0900123F09001ABE0FF04F074D72FF57E
:101A660082E43400F583E09000FCF09001ABE0FFE7
:101A760004F074D72FF582E43400F583E0900196E4
:101A8600F09001ABE0FF04F074D72FF582E4340048
:101A9600F583E0900197F09001ABE0FF04F074D776
:101AA6002FF582E43400F583E0900110F09001AB4D
:101AB600E004F0E0FF04F074D72FF582E43400F57B
:101AC60083E0900124F09001ABE0FF04F074D72F7F
:101AD600F582E43400F583E09000FEF09001ABE07F
:101AE600FF04F074D72FF582E43400F583E090010B
:101AF60098F09001ABE0FF04F074D72FF582E43440
:101B060000F583E0900199F09001ABE0FF04F074DA
:101B1600D72FF582E43400F583E0900111F09001AF
:101B2600ABE004F0E0FF04F074D72FF582E4340054
:101B3600F583E09000FDF0E49001ADF0900203E043
:101B46004401F0021FDF9000D7E064026003021C2C
:101B56000CA3E064646003021C0C900125E0FF24E2
:101B6600D6F582E43400F583E064036003021C0CBE
:101B7600EF64096003021C0C124C357F80124CC8BE
:101B86007F53124C827F61124C827F6C124C827F93
:101B960064124C827F6F124C827F20124C827F44EB
:101BA600124C827F69124C827F73124C827F7012B4
:101BB6004C827F6F124C827F6E124C827F69124C70
:101BC600827F62124C827F6C124C827F65124C823D
:101BD600124C4F7FC0124CC89002597402F090020A
:101BE60059E0FFC39408748094804003021FEE748A
:101BF600D72FF582E43400F583E0FF124C82900281
:101C060059E004F080D8900125E0900092F0124C43
:101C160035E49000FDF0900259F0900092E0FF90BC
:101C26000259E0FEC39F502A74D72EF582E4340091
:101C3600F583E0B42E1474D82EF582E43400F583CF
:101C4600E09000FDF0900259EFF0900259E004F0A8
:101C560080C89000FDE06007900092E024FEF0C28C
:101C66000DC224E490025AF0900259F0900092E0DE
:101C7600FB900259E0FEC39B502A74D72EF582E4EE
:101C86003400F583E0B42D14900259A3E0FD04F06E
:101C9600745C2DF582E43402F583EEF0900259E08F
:101CA60004F080C890025AE0600B90025CE0049059
:101CB600025BF0800590025BEBF07F80124CC8E47B
:101CC600900259F090025BE0FF900259E0FEC39F3C
:101CD6004003021D5F74D72EF582E43400F583E0DD
:101CE600C39430401074D72EF582E43400F583E0B7
:101CF600D39439403D74D72EF582E43400F583E061
:101D0600C39441401074D72EF582E43400F583E085
:101D1600D3945A401D74D72EF582E43400F583E03F
:101D2600642D600E74D72EF582E43400F583E0B49A
:101D36002E04D2258008C225EF04900259F09002A5
:101D460059E024D7F582E43400F583E0FF124C8293
:101D5600900259E004F0021CCA202503021FEEE49B
:101D66009001FEF0A3F0900203E04401F090025AC5
:101D7600E07003021FA864016003021EE790009250
:101D8600E024FFFFE434FFFE90025CE0FDC3EF9D1C
:101D9600FFEE9400FEEF64014E705A900259F090E7
:101DA6000092E0FF900259E0FEC39F502074D72EA8
:101DB600F582E43400F583E0FD74C92EF582E4343F
:101DC60001F583EDF0900259E004F080D2D224743C
:101DD600C82FF582E43401F583E0900023F07F44B8
:101DE600124C82900023E0FF124C82900092E02475
:101DF600FEF0021FDFC224E4900259F090025CE07C
:101E0600FF900259E0FEC39F502074D72EF582E45E
:101E16003400F583E0FD74C92EF582E43401F583C0
:101E2600EDF0900259E004F080D2900092E024FF99
:101E3600FDE434FFFCC3ED9FFFEC9400FEEF640568
:101E46004E6003021EDCD20D7F43124C827F61126C
:101E56004C827F6A124C827F65124C827F72124CD2
:101E6600827F6F124C8290025CE0049001ABF0E03E
:101E7600FF04F074D72FF582E43400F583E0900177
:101E860023F09001ABE0FF04F074D72FF582E43421
:101E960000F583E09000FCF09001ABE0FF04F074E5
:101EA600D72FF582E43400F583E0900196F0900197
:101EB600ABE0FF04F074D72FF582E43400F583E03D
:101EC600900197F09001ABE024D7F582E43400F559
:101ED60083E0900110F090025CE0900092F0021F07
:101EE600DFE4900259F090025CE0FF900259E0FEB8
:101EF600C39F502074D72EF582E43400F583E0FFAB
:101F060074C92EF582E43401F583EFF0900259E0AE
:101F160004F080D2D22490025CE0FD24CAF582E46B
:101F26003401F583E0900023F0D20D90025DE004C9
:101F36009001ABF0E0FF04F074D72FF582E4340093
:101F4600F583E0900123F09001ABE0FF04F074D735
:101F56002FF582E43400F583E09000FCF09001ABAD
:101F6600E0FF04F074D72FF582E43400F583E090A7
:101F76000196F09001ABE0FF04F074D72FF582E4F0
:101F86003400F583E0900197F09001ABE024D7F59B
:101F960082E43400F583E0900110F0900092EDF0B9
:101FA6008037E4900259F0900092E0FF900259E0E9
:101FB600FEC39F502074D72EF582E43400F583E0EB
:101FC600FF74C92EF582E43401F583EFF0900259CF
:101FD600E004F080D2C224C20D9000F7741EF09087
:101FE6000024E4F0A3741EF0208D030221CBC28DE1
:101FF6009000FBE0600714F0E07002D2109001DE62
:10200600E07002A3E0600E9001DFE024FFF0900193
:10201600DEE034FFF0900200E07002A3E0600E9074
:102026000201E024FFF0900200E034FFF09001FE90
:10203600E07002A3E0603F9001FFE024FFF0900112
:10204600FEE034FFF0E07002A3E0702A90005BE04F
:102056009002A0F090005CE09002A1F090005DE09C
:102066009002A2F0900203E04402F09001E2E4F054
:10207600A37405F0C20B20B71B9000FAE0FF640EB4
:102086006003EF7013300106C294C201800AD29435
:10209600D2018004D294D21F9000FAE014F0E060DE
:1020A600030221CB3022139001ACE0600214F090C1
:1020B60001ACE0700B12458580009001AC7405F010
:1020C600900024E07002A3E06033900025E024FF36
:1020D600F0900024E034FFF0E07002A3E0701E9060
:1020E6000203E054FEF0E4900127F0C20CC2079010
:1020F60000FD7420F0C20D302203124C359001E22F
:10210600E07002A3E060209001E3E024FFF090017C
:10211600E2E034FFF0E07002A3E0700B900203E00F
:1021260054FDF0C20BC21C9000F7E0607314F0E09F
:10213600706E741EF07F80124CC8E4900259F090C5
:102146000259E0C3941074809480500D7F20124C85
:1021560082900259E004F080E6900203E054FEF01B
:1021660054FDF054FBF0D222E4900127F0C21CC2C9
:102176000DC20CC207C21C7FC0124CC8E4900259A3
:10218600F0900259E02448F582E43400F583E0FF3C
:10219600600B124C82900259E004F080E4124585EF
:1021A600C20AC296C295C218C280C219C281C21A98
:1021B600C282C21BC2839000FA741CF0E4F58CF54F
:1021C6008AC28DC21E30103B30B438C210E4900271
:1021D6005EF09001DDE0FF90025EE0FEC39F5020BE
:1021E60074EA2EF582E43401F583E0FD74D72EF50A
:1021F60082E43400F583EDF090025EE004F080D2D4
:1022060012458D3016077F06124D2DC216900126F7
:10221600E0FF64036005EF6407700312224130009B
:102226001430B411C2009000D774ABF07F01124590
:0B2236008DE4124587124B9A0201262E
:1049E0002575004552524F52204445204C454354B2
:1049F00055524100804020100804020100000000D0
:104A000000004C4543542E3120202020202020201F
:044A10002020200042
:1041D5004102C3004102C2004102C10041029F00E9
:0841E5004102A4004102A50003
:0300030002496649
:10496600C0E0C083C082C0D09002C3E024A6F58216
:10497600E43402F5837430F09002C3E004F0641A64
:1049860070129002C204F0A3E024A7F582E4340278
:0D499600F583E4F0D0D0D082D083D0E032A1
:030013000249A3FC
:1049A300C0E0C083C082C0D09002C3E024A6F582D9
:1049B300E43402F5837431F09002C3E004F0641A26
:1049C30070129002C204F0A3E024A7F582E434023B
:0D49D300F583E4F0D0D0D082D083D0E03264
:054D3B00D288D2A8227D
:054D4000D28AD2AA2274
:034D4500D2AF22C8
:0C000600124D3B124D40124D45024A14B1
:104A1400E4FFEFC3941B74809480501774A62FF5A1
:104A240082E43402F583E4F09002C3F09002C2F011
:104A34000F80DFE49002C1F090029FF09002A4F096
:024A4400A3F0DD
:014A4600224D
:104BBE007F011244D59002C1EFF07F091244D590C7
:0F4BCE00029FEFF07F111244D59002A4EFF02266
:104BDD00124BBE9002C1E09002A0F090029FE090B7
:0E4BED0002A1F09002A4E09002A2F002462C79
:0544D50090025FEFF012
:1044DA0078607C027D017BFF7A4979E37E007F1157
:1044EA00123EEFE4900273F078747C027D017BFF48
:1044FA007A4979F4FE7F08123EEF90025FE0FE24CB
:10450A0008900271F0A3EEF0900271E0FFA3E0FEC2
:10451A00C39F506174A62EF582E43402F583E0F954
:10452A00B43129900273E0FF90025FE0FD900272BD
:10453A00E0C39DFDE49400FC74742DF58274023C82
:10454A00F583E0FEEF4E900273F08021E9D39431B7
:10455A005006E9C3943050157F80124CC87B017A0B
:10456A00027960124AF8E4900273F08008900272AD
:0A457A00E004F08093900273E0FF6C
:014584002214
:10462C00785F7C027D017BFF7A4979FC7E007F06F6
:10463C00123EEF78657C027D017BFF7A4A79027E1F
:10464C00007F12123EEF124D357F80124CC87B0159
:10465C007A027965124AF87F87124CC89002A0E062
:10466C00FF7E0090027A74FFF0A37449F0A374E00B
:10467C00F0A3EEF0A3EFF07B017A02795F123B1FFF
:10468C007B017A02795F124AF87F2D124C829002DC
:10469C00A1E0FEA3E0FDEDFF90027A74FFF0A3749D
:1046AC0049F0A374E0F0A3EEF0A3EFF07B017A02E3
:0E46BC00795F123B1F7B017A02795F024AF898
:0441ED004102C400C7
:104C6900C20F759850438780438920758840758D98
:094C7900F4758BF4D28ED2AC224A
:084D2D00200FFD8F99D20F2227
:0300230002361E84
:0B361E00C0E0C083C082C0D075D0089F
:10362900209803023AAAAB99C298900126E0146047
:103639003C14605824FD70030236DA147003023713
:103649007924FE700302371824086003023AA59012
:1036590000D5E4F0AF0BEBFD3395E0FCED64054CD0
:103669006003023AAA90012604F0023AAA9000F5F2
:10367900E0AF0B900126B50B0E7402F09000F774C1
:103689001EF0C222023AAAE4F0023AAAAF0BEB24D6
:10369900AD602024F0602924FE600F24EE6012241E
:1036A90007702B9001267403805C900126740880B2
:1036B90055800D9001267405F0D216D223023AAA3C
:1036C9009001267405F07F06124D2D023A9E023AAA
:1036D900A5AF0BEBFD3395E0FCED64024C701D903A
:1036E90000D5F0E0FE04F074282EF582E43401F5EB
:1036F90083EFF09001267406F0023AAAED64054CB6
:10370900900126700504F0023A9EE4F0023AAAAF4D
:103719000B9000D5E0FE04F074282EF582E4340104
:10372900F583EFF09000D5E0D3943C748094804009
:1037390003023AA5AF0BEBFD3395E0FCED64034CB6
:10374900701D900126F0900203E054FEF0900127CD
:10375900E4F0C20CC207900024F0A3F0023AAAEDEB
:1037690064054C6003023AAA90012604F0023A9ECD
:10377900AF0B9000D5E0FE04F074282EF582E434F6
:1037890001F583EFF09000D5E0D3943C74809480E8
:103799004003023AA5AF0BEBFD3395E0FCED640362
:1037A9004C6003023A8C30233CC223D2069001E0DC
:1037B900F09000D5E0FE9001E0E0FDC39E5020743A
:1037C900282DF582E43401F583E0FE74932DF5820A
:1037D900E43400F583EEF09001E0E004F080D2904B
:1037E90001267407F09000D5E0FD7C0064066003B3
:1037F9000238E8900129E0FE64446044EE644170B7
:103809003F9001DEE07002A3E0601B9001DEE4F06E
:10381900A3F0D200900203E054FDF0900200E4F01E
:10382900A37454F0801A900200E07002A3E07010B3
:10383900D2969000FA741CF0758C00758A00C28DBE
:1038490090012AE0FF644470030238DCEF644160B0
:10385900030238DC300360D200302146301174C2D3
:1038690011900203E054FDF09001DEE07002A3E044
:10387900601DC20B9001DEE4F0A3F0D200900203B8
:10388900E054FDF0900200E4F0A37454F0804490F9
:103899000200E07002A3E0703AD2959000FA741C1D
:1038A9008028301109C211900203E054FDF0D2952D
:1038B9009000FA742A8013301109C211900203E0B2
:1038C90054FDF0D2959000FA742AF0758C00758A2F
:1038D90000C28D900126E4F09000D5F0023AAAEDDD
:1038E90064074C703D900129E064636003023AAAC1
:1038F9009001E0F09000D5E0FF9001E0E0FEC39F69
:10390900505D74282EF582E43401F583E0FF74D705
:103919002EF582E43400F583EFF09001E0E004F045
:1039290080D29000D5E0FF7E006419703B9001E0E1
:10393900F09000D5E0FD9001E0E0FCC39D502074BB
:10394900282CF582E43401F583E0FD74932CF5828B
:10395900E43400F583EDF09001E0E004F080D290CA
:1039690001267407F0023AAAC3EF9426EE64809404
:10397900805003023AAA900129E06441703E900107
:10398900DEE07002A3E0601A900203E054FDF090BB
:1039990001DEE4F0A3F0D200900200F0A37454F029
:1039A900801A900200E07002A3E07010D296900095
:1039B900FA741CF0758C00758A00C28D90012AE09A
:1039C90064416003023A4FD20030035E3021463031
:1039D9001174C211900203E054FDF09001DEE07011
:1039E90002A3E0601DC20B9001DEE4F0A3F0D20057
:1039F900900203E054FDF0900200E4F0A37454F047
:103A09008044900200E07002A3E0703AD2959000E1
:103A1900FA741C8028301109C211900203E054FD88
:103A2900F0D2959000FA742A8013301119C21190BE
:103A39000203E054FDF0D2959000FA742AF0758CD7
:103A490000758A00C28D9001E0E4F09001E0E0C3C6
:103A59009426748094805021E0FF2428F582E43470
:103A690001F583E0FE74932FF582E43400F583EECB
:103A7900F09001E0E004F080D29001267407F0D2C2
:103A890015801EAF0BEF3395E0FEEF64054E701104
:103A990090012604F09000D5E4F08005900126E419
:083AA900F0309904C299C20F2C
:093AB100D0D0D082D083D0E032E5
:024C1900AE07E4
:104C1B00E4FDEDC39E501274642DF582E43401F56E
:094C2B0083E0FF124D2D0D80E91C
:014C3400225D
:104BFB00E4FFFE9000D5E0FDEEC39D501074932EA4
:0D4C0B00F582E43400F583E06FFF0E80E6D3
:014C18002279
:1048BB00124BFB9000D5E0FE04F074D72EF582E48A
:1048CB003400F583EFF0E4FF9000D5E0FEEFC39EDC
:1048DB00501B74D72FF582E43400F583E0FE74C5CA
:1048EB002FF582E43402F583EEF00F80DB9000D5D8
:1048FB00E0FF24C6F582E43402F583E4F074D82F8C
:10490B00F582E43400F583E4F09002C4EFF0124535
:04491B008D0247566C
:104ACE00E4FE9002C4E0FFEEC39F501B74C52EF5AA
:104ADE0082E43402F583E0FD74D72EF582E43400CF
:0A4AEE00F583EDF00E80DB02458D2C
:104756009002687401F0A37400F0A374DDF0A3E482
:10476600F0A37402F07B017A027961124853E49057
:104776000263F0900261E0540FC454F0FFA3E054CA
:104786000F4FFFC3940274809480404D900268746A
:1047960001F0A37400F0A374E2F0A3E4F0A37402A2
:1047A600F07B017A027961124853E4900263F0903B
:1047B6000261E0540FC454F0FFA3E0540F4FC394BA
:1047C600167480948040129000D77402F0A374553A
:0947D600F0A37403F0FF12458DFD
:0147DF0022B7
:0100120022CB
:104A7500E490005AF0301805E04401F0223019089E
:104A850090005AE04402F022301A0890005AE0449F
:0E4A950004F022301B0790005AE04408F02283
:104CDE00E4FDFCC3ED9FEC9E500A1200120DBD00C8
:044CEE00010C80EF46
:014CF200229F
:034CF300124CC0A0
:104CF600E4FFFE1200120FBF00010EEF64024E70B9
:014D0600F2BA
:014D07002289
:104D1B00E4FFFE1200120FBF00010EEF64024E7093
:014D2B00F295
:014D2C002264
:0E4CB200124A75ED54F0FF90005AE04FF58065
:084CC000D291124CF6C29122C0
:104CC800AD07C290124CB2EDC454F0FD54F0FFE0B1
:064CD8004FF580024CC004
:104C9B007F01124CC8E4FFFE1200120FBF00010E81
:064CAB00EF64FA4E70F206
:014CB10022E0
:10491F00C290124CF6C291124CF6758039124CF3BC
:10492F00124CF3124CC0124CF6758029124CC01267
:10493F004CF67F0C124CC8124C9B1200127F0612C1
:10494F004CC81200127F80124CC8124CF6124A75D6
:07495F0090005AE0F58022F0
:104C8200AD07D290120012124CB2EDC454F0FD5492
:094C9200F0FFE04FF580024CC078
:104B4C00AE07ED14600F146011146013240370167B
:104B5C00EE2480800DEE24C08008EE24948003EEB9
:074B6C0024D4FF124CC82203
:0B4AF80090027CEBF0A3EAF0A3E9F0D1
:104B0300E4FC90027CE0FBA3E0FAA3E0F98C82755D
:0E4B13008300123F15FF6006124C820C80E4F6
:014B21002271
:0C001600AE07AF05AD06124B4C024AF8D5
:104B2200C292C293124CF69000F57431F0309203A7
:104B3200E004F03093079000F5E02402F07FC91200
:0A4B42004CC89000F5E0FF024C8221
:104C35007F80124CC8E4FCECC394107480948050BF
:094C4500087F20124C820C80EE65
:014C4E002243
:104C4F007FC0124CC8E4FCECC39410748094805065
:094C5F00087F20124C820C80EE4B
:014C68002229
:064D3500124C35024C4F48
:030000000246CAEB
:0C46CA00787FE4F6D8FD758125024711C9
:103E1F00E709F608DFFA8046E709F208DFFA803E85
:103E2F0088828C83E709F0A3DFFA8032E309F60872
:103E3F00DFFA8078E309F208DFFA807088828C83DA
:103E4F00E309F0A3DFFA806489828A83E0A3F6088E
:103E5F00DFFA805889828A83E0A3F208DFFA804C68
:103E6F0080D280FA80C680D4806980F2803380103F
:103E7F0080A680EA809A80A880DA80E280CA8033A8
:103E8F0089828A83ECFAE493A3C8C582C8CCC58320
:103E9F00CCF0A3C8C582C8CCC583CCDFE9DEE780F0
:103EAF000D89828A83E493A3F608DFF9ECFAA9F06F
:103EBF00EDFB2289828A83ECFAE0A3C8C582C8CCC5
:103ECF00C583CCF0A3C8C582C8CCC583CCDFEADEDE
:103EDF00E880DB89828A83E493A3F208DFF980CC40
:103EEF0088F0EF60010E4E60C388F0ED2402B40439
:103EFF000050B9F582EB2402B4040050AF232345E0
:063F0F008223903E6F7357
:103F1500BB010CE58229F582E5833AF583E0225061
:103F250006E92582F8E622BBFE06E92582F8E222AB
:0D3F3500E58229F582E5833AF583E49322C5
:0C3F4200ECF0A3EDF0A3EEF0A3EFF022F2
:103F4E00A8828583F0D083D082123F65123F65121E
:103F5E003F65123F65E473E493A3C583C5F0C58343
:103F6E00C8C582C8F0A3C583C5F0C583C8C582C8BD
:013F7E002220
:103ABA00E510247AF582E43402F583E005102290B9
:103ACA000277302D0390027AE475F001123FF80272
:103ADA003F7F2026E97F2ED2268018EF540F2490AC
:103AEA00D43440D4FF302A0BEF24BFB41A00500359
:103AFA002461FFE511600215110514E51470020531
:103B0A0013302D0E900277E475F001123FF8EF02A0
:103B1A003F98024B737403D22D8003E4C22DF51033
:103B2A0090027712400FE4F511F513F514E51160D0
:103B3A00077F20123AFD80F57512FFC227C226C2FE
:103B4A0028C229C22BC22CC22E123AC9FF700D30CC
:103B5A002D057F00123B0EAF14AE1322B4255FC2AF
:103B6A00D5C22A123AC9FF24D0B40A00501A75F0F5
:103B7A000A781130D50508B6FF0106C6A426F62034
:103B8A00D5047002D22980D924CFB41A00EF500488
:103B9A00C2E5D22A023D0FD22780C6D22680C0D2E1
:103BAA002880BCD2D580BAD22B80B47F20123AFDAD
:103BBA002028077401B5110040F1123ABAFF123AEF
:103BCA00FD023B37D22ED22C8095123ABAFB123A1A
:103BDA00BAFA123ABAF94A4B700679E07A3D7BFF93
:103BEA0020282EE511602A7E008E82758300123FFE
:103BFA001560060EEE651270F0C2D5EBC0E0EAC0A1
:103C0A00E0E9C0E0EE123D56D0E0F9D0E0FAD0E0AB
:103C1A00FB123F7FFF60AAEBC0E0EAC0E0E9C0E028
:103C2A00123AFDD0E02401F9D0E03400FAD0E0FBEA
:103C3A00E5120460DCD512D980877BFF7A3D795280
:103C4A00D228809C791080027908C22CC22E800862
:103C5A00D2D5790A8004790AC2D5E512047002F530
:103C6A0012E4FAFDFEFF123ABAFC7B08202713126F
:103C7A003ABAFD7B1030260A123ABAFE123ABAFF55
:103C8A007B20EC3382D592D55013C3E43026069FAD
:103C9A00FFE49EFEE42027039DFDE49CFCE4CBF8B0
:103CAA00C227EC700CCFCECDCCE824F8F870F380A4
:103CBA0017C3EF33FFEE33FEED33FDEC33FCEB338A
:103CCA00FB994002FB0FD8E9EB302705F8D0E0C496
:103CDA0048B227C0E00AEC4D4E4F78207B0070C2F4
:103CEA00EAB5120040BCC0E0123D58D0F0D0E02046
:103CFA002704C4C0E0C4B227C0F0123AE6D0F0D517
:103D0A00F0EB023B371240183BD4533C4E583BA5CC
:103D1A004C3BA1423C524F3C5A443C5A493BBA4361
:083D2A003C60553C44463C445A
:103D3200453C44473E00503BA92D3BAD2E3BD02B8A
:103D42003BB1233BCE203DE92A3B694800003BC8FA
:103D52003F3F3F00790AA2D5202914302B09B91020
:103D6200020404B9080104A2D5202C025001042047
:103D720028689228B511005034C0E07F20302919FC
:103D82007F30A228722C722B500F123DAFC228C274
:103D92002CC22BC22E7F30800F302B03E9C0E012E1
:103DA2003AFD302B03D0E0F9D0E0B511CC302B171F
:103DB2007F30B9100C123AFD7F58302A077F788085
:103DC20003B90803123AFD3028057F2D023AFD7F20
:103DD20020202EF87F2B202CF322922880CF286ED1
:103DE200756C6C2900D227123ABA3027F8C22778AC
:103DF2001130D50108F6023B692D50434958123A59
:103E0200BA2403B405004001E4903DFB93123AEE5C
:0D3E1200743A123AEED229751104023C4EAA
:10485300900265EBF0A3EAF0A3E9F0E490026DF0B7
:10486300A3F090026B74FFF5F0123FE245F0603C59
:10487300900268E0FBA3E0FAA3E0F9123F7FFF9008
:104883000265E0FBA3E0FAA3E0F990026DE475F0A2
:1048930001123FE285F082F583EF123FAAEF60C277
:1048A300900269E475F001123FCC80B6900265E096
:0848B300FBA3E0FAA3E0F922E7
:1046D600020026E493A3F8E493A34003F68001F2D4
:1046E60008DFF48029E493A3F85407240CC8C333E5
:1046F600C4540F4420C8834004F456800146F6DFB4
:10470600E4800B010204081020408090403EE47EC5
:10471600019360BCA3FF543F30E509541FFEE493A8
:10472600A360010ECF54C025E060A840B8E493A36F
:10473600FAE493A3F8E493A3C8C582C8CAC583CA9A
:10474600F0A3C8C582C8CAC583CADFE9DEE780BE52
:0141F10000CD
:103F7F00BB010689828A83E0225002E722BBFE0240
:093F8F00E32289828A83E4932273
:103F9800BB010689828A83F0225002F722BBFE0108
:023FA800F32202
:103FAA00F8BB010DE58229F582E5833AF583E8F04D
:103FBA00225006E92582C8F622BBFE05E92582C8F9
:023FCA00F222E1
:103FCC00C5F0F8A3E028F0C5F0F8E5821582700280
:063FDC001583E038F0221D
:103FE200A3F8E0C5F025F0F0E58215827002158392
:063FF200E0C838F0E822EF
:103FF800F8E0FBA3A3E0F925F0F0E5821582700252
:074008001583E0FA38F022F5
:09400F00EBF0A3EAF0A3E9F022B2
:10401800D083D082F8E4937012740193700DA3A337
:1040280093F8740193F5828883E47374029368604B
:06403800EFA3A3A380DF4B
:104B7300EFB40A07740D124B7E740A309811A8998A
:104B8300B8130CC2983098FDA899C298B811F630A2
:074B930099FDC299F599227A
:00000001FF
